{"contracts/token/erc20/SampleToken.sol":{"SampleToken":{"abi":[{"inputs":[{"internalType":"string","name":"tokenName","type":"string"},{"internalType":"string","name":"tokenSymbol","type":"string"},{"internalType":"uint8","name":"tokenDecimals","type":"uint8"},{"internalType":"contract IForwarderRegistry","name":"forwarderRegistry","type":"address"}],"stateMutability":"nonpayable","type":"constructor"},{"anonymous":false,"inputs":[{"indexed":true,"internalType":"address","name":"owner","type":"address"},{"indexed":true,"internalType":"address","name":"spender","type":"address"},{"indexed":false,"internalType":"uint256","name":"value","type":"uint256"}],"name":"Approval","type":"event"},{"anonymous":false,"inputs":[{"indexed":true,"internalType":"address","name":"previousOwner","type":"address"},{"indexed":true,"internalType":"address","name":"newOwner","type":"address"}],"name":"OwnershipTransferred","type":"event"},{"anonymous":false,"inputs":[{"indexed":false,"internalType":"bytes32","name":"role","type":"bytes32"},{"indexed":false,"internalType":"address","name":"account","type":"address"},{"indexed":false,"internalType":"address","name":"operator","type":"address"}],"name":"RoleGranted","type":"event"},{"anonymous":false,"inputs":[{"indexed":false,"internalType":"bytes32","name":"role","type":"bytes32"},{"indexed":false,"internalType":"address","name":"account","type":"address"},{"indexed":false,"internalType":"address","name":"operator","type":"address"}],"name":"RoleRevoked","type":"event"},{"anonymous":false,"inputs":[{"indexed":true,"internalType":"address","name":"from","type":"address"},{"indexed":true,"internalType":"address","name":"to","type":"address"},{"indexed":false,"internalType":"uint256","name":"value","type":"uint256"}],"name":"Transfer","type":"event"},{"inputs":[],"name":"MINTER_ROLE","outputs":[{"internalType":"bytes32","name":"","type":"bytes32"}],"stateMutability":"view","type":"function"},{"inputs":[{"internalType":"address","name":"owner","type":"address"},{"internalType":"address","name":"spender","type":"address"}],"name":"allowance","outputs":[{"internalType":"uint256","name":"value","type":"uint256"}],"stateMutability":"view","type":"function"},{"inputs":[{"internalType":"address","name":"spender","type":"address"},{"internalType":"uint256","name":"value","type":"uint256"}],"name":"approve","outputs":[{"internalType":"bool","name":"result","type":"bool"}],"stateMutability":"nonpayable","type":"function"},{"inputs":[{"internalType":"address","name":"owner","type":"address"}],"name":"balanceOf","outputs":[{"internalType":"uint256","name":"balance","type":"uint256"}],"stateMutability":"view","type":"function"},{"inputs":[{"internalType":"address[]","name":"owners","type":"address[]"},{"internalType":"uint256[]","name":"values","type":"uint256[]"}],"name":"batchBurnFrom","outputs":[{"internalType":"bool","name":"","type":"bool"}],"stateMutability":"nonpayable","type":"function"},{"inputs":[{"internalType":"address[]","name":"recipients","type":"address[]"},{"internalType":"uint256[]","name":"values","type":"uint256[]"}],"name":"batchMint","outputs":[],"stateMutability":"nonpayable","type":"function"},{"inputs":[{"internalType":"address[]","name":"recipients","type":"address[]"},{"internalType":"uint256[]","name":"values","type":"uint256[]"}],"name":"batchTransfer","outputs":[{"internalType":"bool","name":"","type":"bool"}],"stateMutability":"nonpayable","type":"function"},{"inputs":[{"internalType":"address","name":"from","type":"address"},{"internalType":"address[]","name":"recipients","type":"address[]"},{"internalType":"uint256[]","name":"values","type":"uint256[]"}],"name":"batchTransferFrom","outputs":[{"internalType":"bool","name":"","type":"bool"}],"stateMutability":"nonpayable","type":"function"},{"inputs":[{"internalType":"uint256","name":"value","type":"uint256"}],"name":"burn","outputs":[{"internalType":"bool","name":"","type":"bool"}],"stateMutability":"nonpayable","type":"function"},{"inputs":[{"internalType":"address","name":"from","type":"address"},{"internalType":"uint256","name":"value","type":"uint256"}],"name":"burnFrom","outputs":[{"internalType":"bool","name":"","type":"bool"}],"stateMutability":"nonpayable","type":"function"},{"inputs":[],"name":"decimals","outputs":[{"internalType":"uint8","name":"","type":"uint8"}],"stateMutability":"view","type":"function"},{"inputs":[{"internalType":"address","name":"spender","type":"address"},{"internalType":"uint256","name":"subtractedValue","type":"uint256"}],"name":"decreaseAllowance","outputs":[{"internalType":"bool","name":"result","type":"bool"}],"stateMutability":"nonpayable","type":"function"},{"inputs":[{"internalType":"bytes32","name":"role","type":"bytes32"},{"internalType":"address","name":"account","type":"address"}],"name":"grantRole","outputs":[],"stateMutability":"nonpayable","type":"function"},{"inputs":[{"internalType":"bytes32","name":"role","type":"bytes32"},{"internalType":"address","name":"account","type":"address"}],"name":"hasRole","outputs":[{"internalType":"bool","name":"","type":"bool"}],"stateMutability":"view","type":"function"},{"inputs":[{"internalType":"address","name":"spender","type":"address"},{"internalType":"uint256","name":"addedValue","type":"uint256"}],"name":"increaseAllowance","outputs":[{"internalType":"bool","name":"result","type":"bool"}],"stateMutability":"nonpayable","type":"function"},{"inputs":[{"internalType":"address","name":"to","type":"address"},{"internalType":"uint256","name":"value","type":"uint256"}],"name":"mint","outputs":[],"stateMutability":"nonpayable","type":"function"},{"inputs":[],"name":"name","outputs":[{"internalType":"string","name":"","type":"string"}],"stateMutability":"view","type":"function"},{"inputs":[],"name":"owner","outputs":[{"internalType":"address","name":"","type":"address"}],"stateMutability":"view","type":"function"},{"inputs":[{"internalType":"bytes32","name":"role","type":"bytes32"}],"name":"renounceRole","outputs":[],"stateMutability":"nonpayable","type":"function"},{"inputs":[{"internalType":"bytes32","name":"role","type":"bytes32"},{"internalType":"address","name":"account","type":"address"}],"name":"revokeRole","outputs":[],"stateMutability":"nonpayable","type":"function"},{"inputs":[{"internalType":"address","name":"to","type":"address"},{"internalType":"uint256","name":"value","type":"uint256"},{"internalType":"bytes","name":"data","type":"bytes"}],"name":"safeTransfer","outputs":[{"internalType":"bool","name":"","type":"bool"}],"stateMutability":"nonpayable","type":"function"},{"inputs":[{"internalType":"address","name":"from","type":"address"},{"internalType":"address","name":"to","type":"address"},{"internalType":"uint256","name":"value","type":"uint256"},{"internalType":"bytes","name":"data","type":"bytes"}],"name":"safeTransferFrom","outputs":[{"internalType":"bool","name":"","type":"bool"}],"stateMutability":"nonpayable","type":"function"},{"inputs":[{"internalType":"string","name":"uri","type":"string"}],"name":"setTokenURI","outputs":[],"stateMutability":"nonpayable","type":"function"},{"inputs":[{"internalType":"bytes4","name":"interfaceId","type":"bytes4"}],"name":"supportsInterface","outputs":[{"internalType":"bool","name":"","type":"bool"}],"stateMutability":"view","type":"function"},{"inputs":[],"name":"symbol","outputs":[{"internalType":"string","name":"","type":"string"}],"stateMutability":"view","type":"function"},{"inputs":[],"name":"tokenURI","outputs":[{"internalType":"string","name":"","type":"string"}],"stateMutability":"view","type":"function"},{"inputs":[],"name":"totalSupply","outputs":[{"internalType":"uint256","name":"supply","type":"uint256"}],"stateMutability":"view","type":"function"},{"inputs":[{"internalType":"address","name":"to","type":"address"},{"internalType":"uint256","name":"value","type":"uint256"}],"name":"transfer","outputs":[{"internalType":"bool","name":"result","type":"bool"}],"stateMutability":"nonpayable","type":"function"},{"inputs":[{"internalType":"address","name":"from","type":"address"},{"internalType":"address","name":"to","type":"address"},{"internalType":"uint256","name":"value","type":"uint256"}],"name":"transferFrom","outputs":[{"internalType":"bool","name":"result","type":"bool"}],"stateMutability":"nonpayable","type":"function"},{"inputs":[{"internalType":"address","name":"newOwner","type":"address"}],"name":"transferOwnership","outputs":[],"stateMutability":"nonpayable","type":"function"}],"devdoc":{"kind":"dev","methods":{"allowance(address,address)":{"params":{"owner":"The account that has granted an allowance to `spender`.","spender":"The account that was granted an allowance by `owner`."},"returns":{"value":"The amount which `spender` is allowed to spend on behalf of `owner`."}},"approve(address,uint256)":{"details":"Reverts if `spender` is the zero address.Emits an {Approval} event.","params":{"spender":"The account being granted the allowance by the message caller.","value":"The allowance amount to grant."},"returns":{"result":"Whether the operation succeeded."}},"balanceOf(address)":{"params":{"owner":"The account whose balance will be returned."},"returns":{"balance":"The account balance."}},"batchBurnFrom(address[],uint256[])":{"details":"Reverts if `owners` and `values` have different lengths.Reverts if an `owner` does not have at least the corresponding `value` of balance.Reverts if the sender is not an `owner` and does not have at least the corresponding `value` of allowance by this `owner`.Emits an {IERC20-Transfer} event for each transfer with `to` set to the zero address.Optionally emits an {Approval} event for each transfer if the sender is not this `owner` (non-standard).","params":{"owners":"The list of accounts to burn the tokens from.","values":"The list of amounts of tokens to burn."},"returns":{"_0":"Whether the operation succeeded."}},"batchMint(address[],uint256[])":{"details":"Reverts if the sender does not have the 'minter' role.","params":{"recipients":"The list of accounts to mint the tokens to.","values":"The list of amounts of tokens to mint to each of `recipients`."}},"batchTransfer(address[],uint256[])":{"details":"Reverts if `recipients` and `values` have different lengths.Reverts if one of `recipients` is the zero address.Reverts if the sender does not have at least `sum(values)` of balance.Emits an {IERC20-Transfer} event for each transfer.","params":{"recipients":"The list of accounts to transfer the tokens to.","values":"The list of amounts of tokens to transfer to each of `recipients`."},"returns":{"_0":"Whether the operation succeeded."}},"batchTransferFrom(address,address[],uint256[])":{"details":"Reverts if `recipients` and `values` have different lengths.Reverts if one of `recipients` is the zero address.Reverts if `from` does not have at least `sum(values)` of balance.Reverts if the sender is not `from` and does not have at least `sum(values)` of allowance by `from`.Emits an {IERC20-Transfer} event for each transfer.Optionally emits an {IERC20-Approval} event if the sender is not `from` (non-standard).","params":{"from":"The account which owns the tokens to be transferred.","recipients":"The list of accounts to transfer the tokens to.","values":"The list of amounts of tokens to transfer to each of `recipients`."},"returns":{"_0":"Whether the operation succeeded."}},"burn(uint256)":{"details":"Reverts if the sender does not have at least `value` of balance.Emits an {IERC20-Transfer} event with `to` set to the zero address.","params":{"value":"The amount of tokens to burn."},"returns":{"_0":"Whether the operation succeeded."}},"burnFrom(address,uint256)":{"details":"Reverts if `from` does not have at least `value` of balance.Reverts if the sender is not `from` and does not have at least `value` of allowance by `from`.Emits an {IERC20-Transfer} event with `to` set to the zero address.Optionally emits an {Approval} event if the sender is not `from` (non-standard).","params":{"from":"The account to burn the tokens from.","value":"The amount of tokens to burn."},"returns":{"_0":"Whether the operation succeeded."}},"decimals()":{"details":"Note: This information is only used for display purposes: it does  not impact the arithmetic of the contract.","returns":{"_0":"The number of decimals used to display the balances."}},"decreaseAllowance(address,uint256)":{"details":"Reverts if `spender` is the zero address.Reverts if `spender` does not have at least `value` of allowance by the sender.Emits an {IERC20-Approval} event with an updated allowance for `spender` by the sender.","params":{"spender":"The account whose allowance is being decreased.","value":"The allowance amount decrease."},"returns":{"result":"Whether the operation succeeded."}},"grantRole(bytes32,address)":{"details":"Reverts if the sender is not the contract owner.Emits a {RoleGranted} event if the account did not previously have the role.","params":{"account":"The account to grant the role to.","role":"The role to grant."}},"hasRole(bytes32,address)":{"params":{"account":"The account.","role":"The role."},"returns":{"_0":"whether `account` has `role`."}},"increaseAllowance(address,uint256)":{"details":"Reverts if `spender` is the zero address.Reverts if `spender`'s allowance by the sender overflows.Emits an {IERC20-Approval} event with an updated allowance for `spender` by the sender.","params":{"spender":"The account whose allowance is being increased.","value":"The allowance amount increase."},"returns":{"result":"Whether the operation succeeded."}},"mint(address,uint256)":{"details":"Reverts if the sender does not have the 'minter' role.","params":{"to":"The account to mint the tokens to.","value":"The amount of tokens to mint."}},"name()":{"returns":{"_0":"The name of the token."}},"owner()":{"returns":{"_0":"The address of the contract owner."}},"renounceRole(bytes32)":{"details":"Reverts if the sender does not have `role`.Emits a {RoleRevoked} event.","params":{"role":"The role to renounce."}},"revokeRole(bytes32,address)":{"details":"Reverts if the sender is not the contract owner.Emits a {RoleRevoked} event if the account previously had the role.","params":{"account":"The account to revoke the role from.","role":"The role to revoke."}},"safeTransfer(address,uint256,bytes)":{"details":"Reverts if `to` is the zero address.Reverts if the sender does not have at least `value` of balance.Reverts if `to` is a contract and the call to `onERC20Received` fails, reverts or is rejected.Emits an {IERC20-Transfer} event.","params":{"data":"Optional additional data with no specified format, to be passed to the receiver contract.","to":"The account to transfer the tokens to.","value":"The amount of tokens to transfer."},"returns":{"_0":"Whether the operation succeeded."}},"safeTransferFrom(address,address,uint256,bytes)":{"details":"Reverts if `to` is the zero address.Reverts if `from` does not have at least `value` of balance.Reverts if the sender is not `from` and does not have at least `value` of allowance by `from`.Reverts if `to` is a contract and the call to `onERC20Received(address,address,uint256,bytes)` fails, reverts or is rejected.Emits an {IERC20-Transfer} event.Optionally emits an {IERC20-Approval} event if the sender is not `from` (non-standard).","params":{"data":"Optional additional data with no specified format, to be passed to the receiver contract.","from":"The account which owns the tokens to transfer.","to":"The account to transfer the tokens to.","value":"The amount of tokens to transfer."},"returns":{"_0":"Whether the operation succeeded."}},"setTokenURI(string)":{"details":"Reverts if the sender is not the contract owner.","params":{"uri":"The token URI."}},"supportsInterface(bytes4)":{"details":"Note: This function call must use less than 30 000 gas.","params":{"interfaceId":"the interface identifier to test."},"returns":{"_0":"True if the interface is supported, false if `interfaceId` is `0xffffffff` or if the interface is not supported."}},"symbol()":{"returns":{"_0":"The symbol of the token."}},"tokenURI()":{"returns":{"_0":"The token metadata URI."}},"totalSupply()":{"returns":{"supply":"The total token supply."}},"transfer(address,uint256)":{"details":"Reverts if `to` is the zero address.Reverts if the sender does not have at least `value` of balance.Emits a {Transfer} event.","params":{"to":"The account to transfer the tokens to.","value":"The amount of tokens to transfer."},"returns":{"result":"Whether the operation succeeded."}},"transferFrom(address,address,uint256)":{"details":"Reverts if `to` is the zero address.Reverts if `from` does not have at least `value` of balance.Reverts if the sender is not `from` and does not have at least `value` of allowance by `from`.Emits a {Transfer} event.Optionally emits an {Approval} event if the sender is not `from` (non-standard).","params":{"from":"The account which owns the tokens to transfer.","to":"The account to transfer the tokens to.","value":"The amount of tokens to transfer."},"returns":{"result":"Whether the operation succeeded."}},"transferOwnership(address)":{"details":"Reverts if the sender is not the contract owner.Emits an {OwnershipTransferred} event if `newOwner` is different from the current contract owner.","params":{"newOwner":"The address of the new contract owner. Using the zero address means renouncing ownership."}}},"version":1},"evm":{"bytecode":{"linkReferences":{},"object":"60806040523480156200001157600080fd5b5060405162003d7838038062003d78833981016040819052620000349162000511565b338484846200004d6200012460201b620008bf1760201c565b6200007f838383620000696200018860201b620009231760201c565b620001be60201b6200095117909392919060201c565b505050620000b0816200009c6200022d60201b620009d01760201c565b6200025d60201b620009fe1790919060201c565b50620000c6620002db60201b62000ab41760201c565b620000db6200030060201b62000ae41760201c565b620000f06200032360201b62000b121760201c565b620001056200034660201b62000b401760201c565b6200011a6200036960201b62000b6e1760201c565b5050505062000732565b60006200013b6200038c60201b62000b981760201c565b9050620001616336372b0760e01b600183620003bc60201b62000bc6179092919060201c565b62000185634e83a8c360e11b600183620003bc60201b62000bc6179092919060201c565b50565b600080620001b860017f335df4119bbb04f056b33eba33b826d3529129e458faf6daa9924b5a8f3b6a82620005b5565b92915050565b83620001cb848262000666565b5060018401620001dc838262000666565b5060028401805460ff191660ff83161790556200022763a219a02560e01b6001620002126200038c602090811b62000b9817901c565b620003bc60201b62000bc6179092919060201c565b50505050565b600080620001b860017fc9ed16f33ab3a66c84bfd83099ccb2a8845871e2e1c1928f63797152f0fd54cd620005b5565b6001600160a01b03811615620002b45781546001600160a01b0319166001600160a01b03821690811783556040516000907f8be0079c531659141344cd1fd0a4f28419497f9722a3daafe3b4186f6b6457e0908290a35b620002d76307f5828d60e41b6001620002126200038c60201b62000b981760201c565b5050565b620002fe6303c130d960e41b6001620002126200038c60201b62000b981760201c565b565b620002fe63144b1f0f60e11b6001620002126200038c60201b62000b981760201c565b620002fe6320c07ed160e01b6001620002126200038c60201b62000b981760201c565b620002fe6353f41a9760e01b6001620002126200038c60201b62000b981760201c565b620002fe63602993f360e11b6001620002126200038c60201b62000b981760201c565b600080620001b860017fca9d3e17f264b0f3984e2634e94adb37fa3e6a8103f06aeae6fa59e21c769f5e620005b5565b600160e01b6001600160e01b03198316016200041e5760405162461bcd60e51b815260206004820152601f60248201527f496e74657266616365446574656374696f6e3a2077726f6e672076616c756500604482015260640160405180910390fd5b6001600160e01b03199190911660009081526020929092526040909120805460ff1916911515919091179055565b634e487b7160e01b600052604160045260246000fd5b600082601f8301126200047457600080fd5b81516001600160401b03808211156200049157620004916200044c565b604051601f8301601f19908116603f01168101908282118183101715620004bc57620004bc6200044c565b81604052838152602092508683858801011115620004d957600080fd5b600091505b83821015620004fd5785820183015181830184015290820190620004de565b600093810190920192909252949350505050565b600080600080608085870312156200052857600080fd5b84516001600160401b03808211156200054057600080fd5b6200054e8883890162000462565b955060208701519150808211156200056557600080fd5b50620005748782880162000462565b935050604085015160ff811681146200058c57600080fd5b60608601519092506001600160a01b0381168114620005aa57600080fd5b939692955090935050565b81810381811115620001b857634e487b7160e01b600052601160045260246000fd5b600181811c90821680620005ec57607f821691505b6020821081036200060d57634e487b7160e01b600052602260045260246000fd5b50919050565b601f8211156200066157600081815260208120601f850160051c810160208610156200063c5750805b601f850160051c820191505b818110156200065d5782815560010162000648565b5050505b505050565b81516001600160401b038111156200068257620006826200044c565b6200069a81620006938454620005d7565b8462000613565b602080601f831160018114620006d25760008415620006b95750858301515b600019600386901b1c1916600185901b1785556200065d565b600085815260208120601f198616915b828110156200070357888601518255948401946001909101908401620006e2565b5085821015620007225787850151600019600388901b60f8161c191681555b5050505050600190811b01905550565b61363680620007426000396000f3fe608060405234801561001057600080fd5b50600436106101da5760003560e01c806379cc679011610104578063a9059cbb116100a2578063dd62ed3e11610071578063dd62ed3e14610408578063e0df5b6f1461041b578063eb7955491461042e578063f2fde38b1461044157600080fd5b8063a9059cbb146103a8578063b88d4fde146103bb578063d5391393146103ce578063d547741f146103f557600080fd5b80638da5cb5b116100de5780638da5cb5b1461034d57806391d148541461037a57806395d89b411461038d578063a457c2d71461039557600080fd5b806379cc67901461031457806388d695b2146103275780638bb9c5bf1461033a57600080fd5b8063313ce5671161017c57806342966c681161014b57806342966c68146102c85780634885b254146102db57806368573107146102ee57806370a082311461030157600080fd5b8063313ce56714610280578063395093511461029a5780633c130d90146102ad57806340c10f19146102b557600080fd5b806318160ddd116101b857806318160ddd1461022f5780631b9a75291461024557806323b872dd146102585780632f2ff15d1461026b57600080fd5b806301ffc9a7146101df57806306fdde0314610207578063095ea7b31461021c575b600080fd5b6101f26101ed366004612da9565b610454565b60405190151581526020015b60405180910390f35b61020f61046e565b6040516101fe9190612e34565b6101f261022a366004612e70565b610485565b6102376104a6565b6040519081526020016101fe565b6101f2610253366004612ee6565b6104ba565b6101f2610266366004612f52565b6104e1565b61027e610279366004612f8e565b610505565b005b610288610533565b60405160ff90911681526020016101fe565b6101f26102a8366004612e70565b61054a565b61020f610562565b61027e6102c3366004612e70565b61056f565b6101f26102d6366004612fba565b6105bc565b6101f26102e9366004612fd3565b6105da565b61027e6102fc366004612ee6565b610604565b61023761030f366004613054565b6106ac565b6101f2610322366004612e70565b6106e4565b6101f2610335366004612ee6565b6106fc565b61027e610348366004612fba565b610718565b61035561072f565b60405173ffffffffffffffffffffffffffffffffffffffff90911681526020016101fe565b6101f2610388366004612f8e565b610756565b61020f6107a1565b6101f26103a3366004612e70565b6107b3565b6101f26103b6366004612e70565b6107cb565b6101f26103c93660046130b1565b6107e3565b6102377f6d696e746572000000000000000000000000000000000000000000000000000081565b61027e610403366004612f8e565b610801565b61023761041636600461310f565b610824565b61027e610429366004613139565b61086f565b6101f261043c36600461317b565b61088f565b61027e61044f366004613054565b6108ab565b600061046882610462610b98565b90610cd7565b92915050565b606061048061047b610923565b610db1565b905090565b600061049d338484610495610e47565b929190610e75565b50600192915050565b60006104806104b3610e47565b6002015490565b60006104d633868686866104cc610e47565b9493929190610f64565b506001949350505050565b60006104fb338585856104f2610e47565b939291906111a8565b5060019392505050565b33610518816105126109d0565b906111fa565b61052e83838361052661127d565b9291906112ab565b505050565b6000610480610540610923565b6002015460ff1690565b600061049d33848461055a610e47565b929190611381565b606061048061047b61154d565b6105a47f6d696e7465720000000000000000000000000000000000000000000000000000335b61059d61127d565b919061157b565b6105b882826105b1610e47565b9190611627565b5050565b60006105d233836105cb610e47565b91906117a1565b506001919050565b60006105f83387878787876105ed610e47565b9594939291906118b7565b50600195945050505050565b61062e7f6d696e746572000000000000000000000000000000000000000000000000000033610595565b6106a68484808060200260200160405190810160405280939291908181526020018383602002808284376000920191909152505060408051602080880282810182019093528782529093508792508691829185019084908082843760009201919091525061069f9250610e47915050565b9190611cfe565b50505050565b6000610468826106ba610e47565b9073ffffffffffffffffffffffffffffffffffffffff166000908152602091909152604090205490565b600061049d3384846106f4610e47565b929190611fd4565b60006104d6338686868661070e610e47565b949392919061201e565b61072c338261072561127d565b9190612400565b50565b600061048061073c6109d0565b5473ffffffffffffffffffffffffffffffffffffffff1690565b600061079a838361076561127d565b60009283526020908152604080842073ffffffffffffffffffffffffffffffffffffffff909316845291905290205460ff1690565b9392505050565b60606104806107ae610923565b6124a4565b600061049d3384846107c3610e47565b9291906124b5565b600061049d3384846107db610e47565b929190612607565b60006105f83387878787876107f6610e47565b9594939291906127e8565b3361080e816105126109d0565b61052e83838361081c61127d565b929190612855565b600061079a8383610833610e47565b919073ffffffffffffffffffffffffffffffffffffffff9182166000908152600193909301602090815260408085209290931684525290205490565b61087b336105126109d0565b6105b8828261088861154d565b919061291f565b60006104d633868686866108a1610e47565b949392919061292b565b61072c33826108b86109d0565b9190612997565b60006108c9610b98565b90506108f7817f36372b07000000000000000000000000000000000000000000000000000000006001610bc6565b61072c817f9d075186000000000000000000000000000000000000000000000000000000006001610bc6565b60008061046860017f335df4119bbb04f056b33eba33b826d3529129e458faf6daa9924b5a8f3b6a826131c9565b8361095c84826132cb565b506001840161096b83826132cb565b506002840180547fffffffffffffffffffffffffffffffffffffffffffffffffffffffffffffff001660ff83161790556106a67fa219a0250000000000000000000000000000000000000000000000000000000060016109c9610b98565b9190610bc6565b60008061046860017fc9ed16f33ab3a66c84bfd83099ccb2a8845871e2e1c1928f63797152f0fd54cd6131c9565b73ffffffffffffffffffffffffffffffffffffffff811615610a865781547fffffffffffffffffffffffff00000000000000000000000000000000000000001673ffffffffffffffffffffffffffffffffffffffff821690811783556040516000907f8be0079c531659141344cd1fd0a4f28419497f9722a3daafe3b4186f6b6457e0908290a35b6105b87f7f5828d00000000000000000000000000000000000000000000000000000000060016109c9610b98565b610ae27f3c130d900000000000000000000000000000000000000000000000000000000060016109c9610b98565b565b610ae27f28963e1e0000000000000000000000000000000000000000000000000000000060016109c9610b98565b610ae27f20c07ed10000000000000000000000000000000000000000000000000000000060016109c9610b98565b610ae27f53f41a970000000000000000000000000000000000000000000000000000000060016109c9610b98565b610ae27fc05327e60000000000000000000000000000000000000000000000000000000060016109c95b60008061046860017fca9d3e17f264b0f3984e2634e94adb37fa3e6a8103f06aeae6fa59e21c769f5e6131c9565b7c01000000000000000000000000000000000000000000000000000000007fffffffff00000000000000000000000000000000000000000000000000000000831601610c73576040517f08c379a000000000000000000000000000000000000000000000000000000000815260206004820152601f60248201527f496e74657266616365446574656374696f6e3a2077726f6e672076616c75650060448201526064015b60405180910390fd5b7fffffffff00000000000000000000000000000000000000000000000000000000919091166000908152602092909252604090912080547fffffffffffffffffffffffffffffffffffffffffffffffffffffffffffffff0016911515919091179055565b60007c01000000000000000000000000000000000000000000000000000000007fffffffff00000000000000000000000000000000000000000000000000000000831601610d2757506000610468565b7ffe003659000000000000000000000000000000000000000000000000000000007fffffffff00000000000000000000000000000000000000000000000000000000831601610d7857506001610468565b507fffffffff00000000000000000000000000000000000000000000000000000000166000908152602091909152604090205460ff1690565b6060816000018054610dc290613232565b80601f0160208091040260200160405190810160405280929190818152602001828054610dee90613232565b8015610e3b5780601f10610e1057610100808354040283529160200191610e3b565b820191906000526020600020905b815481529060010190602001808311610e1e57829003601f168201915b50505050509050919050565b60008061046860017f1da92899d3da68bf9787824388a37ea2bfa79780bcef91b9716c390eec8ecbef6131c9565b73ffffffffffffffffffffffffffffffffffffffff8216610ef2576040517f08c379a000000000000000000000000000000000000000000000000000000000815260206004820152601d60248201527f45524332303a20617070726f76616c20746f20616464726573732830290000006044820152606401610c6a565b73ffffffffffffffffffffffffffffffffffffffff838116600081815260018701602090815260408083209487168084529482529182902085905590518481527f8c5be1e5ebec7d5bd14f71427d1e84f3dd0314c0f7b2291e5b200ac8c7c3b92591015b60405180910390a350505050565b82818114610fce576040517f08c379a000000000000000000000000000000000000000000000000000000000815260206004820152601a60248201527f45524332303a20696e636f6e73697374656e74206172726179730000000000006044820152606401610c6a565b80600003610fdc57506111a0565b6000805b82811461118a576000878783818110610ffb57610ffb6133e5565b90506020020160208101906110109190613054565b90506000868684818110611026576110266133e5565b9050602002013590508973ffffffffffffffffffffffffffffffffffffffff168273ffffffffffffffffffffffffffffffffffffffff161461106e5761106e8b838c846124b5565b80156111325773ffffffffffffffffffffffffffffffffffffffff8216600090815260208c90526040902054818103818110611106576040517f08c379a000000000000000000000000000000000000000000000000000000000815260206004820152601b60248201527f45524332303a20696e73756666696369656e742062616c616e636500000000006044820152606401610c6a565b73ffffffffffffffffffffffffffffffffffffffff8416600090815260208e9052604090205550928301925b60405181815260009073ffffffffffffffffffffffffffffffffffffffff8416907fddf252ad1be2c89b69c2b068fc378daa952ba7f163c4a11628f55a4df523b3ef9060200160405180910390a35050600101610fe0565b50801561119d5760028801805482900390555b50505b505050505050565b8373ffffffffffffffffffffffffffffffffffffffff168373ffffffffffffffffffffffffffffffffffffffff16146111e7576111e7858486846124b5565b6111f385848484612607565b5050505050565b815473ffffffffffffffffffffffffffffffffffffffff8281169116146105b8576040517f08c379a000000000000000000000000000000000000000000000000000000000815260206004820152601860248201527f4f776e6572736869703a206e6f7420746865206f776e657200000000000000006044820152606401610c6a565b60008061046860017fc8827d3282af6f37b64c3e9e6f3ac9df286ab0bb0fccd6f8661bf19adb368b236131c9565b60008381526020858152604080832073ffffffffffffffffffffffffffffffffffffffff8616845290915290205460ff166106a65760008381526020858152604080832073ffffffffffffffffffffffffffffffffffffffff8681168086529184529382902080547fffffffffffffffffffffffffffffffffffffffffffffffffffffffffffffff00166001179055815187815292830152918316918101919091527f2f8788117e7eff1d82e926ec794901d17c78024a50270940304540a733656f0d906060015b60405180910390a150505050565b73ffffffffffffffffffffffffffffffffffffffff82166113fe576040517f08c379a000000000000000000000000000000000000000000000000000000000815260206004820152601d60248201527f45524332303a20617070726f76616c20746f20616464726573732830290000006044820152606401610c6a565b73ffffffffffffffffffffffffffffffffffffffff808416600090815260018601602090815260408083209386168352929052205481156114df578082018181116114a5576040517f08c379a000000000000000000000000000000000000000000000000000000000815260206004820152601960248201527f45524332303a20616c6c6f77616e6365206f766572666c6f77000000000000006044820152606401610c6a565b73ffffffffffffffffffffffffffffffffffffffff8086166000908152600188016020908152604080832093881683529290522081905590505b8273ffffffffffffffffffffffffffffffffffffffff168473ffffffffffffffffffffffffffffffffffffffff167f8c5be1e5ebec7d5bd14f71427d1e84f3dd0314c0f7b2291e5b200ac8c7c3b9258360405161153e91815260200190565b60405180910390a35050505050565b60008061046860017ff41bf6a5db26bffdfab174dcf66b31fbba8fdb7e3db040721ce1e62d61839ceb6131c9565b60008281526020848152604080832073ffffffffffffffffffffffffffffffffffffffff8516845290915290205460ff1661052e576115b982612ac3565b6040516020016115c99190613414565b604080517fffffffffffffffffffffffffffffffffffffffffffffffffffffffffffffffe0818403018152908290527f08c379a0000000000000000000000000000000000000000000000000000000008252610c6a91600401612e34565b73ffffffffffffffffffffffffffffffffffffffff82166116a4576040517f08c379a000000000000000000000000000000000000000000000000000000000815260206004820152601960248201527f45524332303a206d696e7420746f2061646472657373283029000000000000006044820152606401610c6a565b801561174d57600283015481810181811161171b576040517f08c379a000000000000000000000000000000000000000000000000000000000815260206004820152601660248201527f45524332303a20737570706c79206f766572666c6f77000000000000000000006044820152606401610c6a565b60028501555073ffffffffffffffffffffffffffffffffffffffff821660009081526020849052604090208054820190555b60405181815273ffffffffffffffffffffffffffffffffffffffff8316906000907fddf252ad1be2c89b69c2b068fc378daa952ba7f163c4a11628f55a4df523b3ef906020015b60405180910390a3505050565b801561186c5773ffffffffffffffffffffffffffffffffffffffff8216600090815260208490526040902054818103818110611839576040517f08c379a000000000000000000000000000000000000000000000000000000000815260206004820152601b60248201527f45524332303a20696e73756666696369656e742062616c616e636500000000006044820152606401610c6a565b73ffffffffffffffffffffffffffffffffffffffff84166000908152602086905260409020555060028301805482900390555b60405181815260009073ffffffffffffffffffffffffffffffffffffffff8416907fddf252ad1be2c89b69c2b068fc378daa952ba7f163c4a11628f55a4df523b3ef90602001611794565b82818114611921576040517f08c379a000000000000000000000000000000000000000000000000000000000815260206004820152601a60248201527f45524332303a20696e636f6e73697374656e74206172726179730000000000006044820152606401610c6a565b8060000361192f5750611cf5565b73ffffffffffffffffffffffffffffffffffffffff86166000908152602089905260408120549080805b848114611c05576000898983818110611974576119746133e5565b90506020020160208101906119899190613054565b905073ffffffffffffffffffffffffffffffffffffffff8116611a08576040517f08c379a000000000000000000000000000000000000000000000000000000000815260206004820152601d60248201527f45524332303a207472616e7366657220746f20616464726573732830290000006044820152606401610c6a565b6000888884818110611a1c57611a1c6133e5565b90506020020135905080600014611b9457848101858111611a99576040517f08c379a000000000000000000000000000000000000000000000000000000000815260206004820152601660248201527f45524332303a2076616c756573206f766572666c6f77000000000000000000006044820152606401610c6a565b8095508273ffffffffffffffffffffffffffffffffffffffff168d73ffffffffffffffffffffffffffffffffffffffff1614611b2357818f60000160008573ffffffffffffffffffffffffffffffffffffffff1673ffffffffffffffffffffffffffffffffffffffff16815260200190815260200160002060008282540192505081905550611b92565b86821115611b8d576040517f08c379a000000000000000000000000000000000000000000000000000000000815260206004820152601b60248201527f45524332303a20696e73756666696369656e742062616c616e636500000000006044820152606401610c6a565b938101935b505b8173ffffffffffffffffffffffffffffffffffffffff168c73ffffffffffffffffffffffffffffffffffffffff167fddf252ad1be2c89b69c2b068fc378daa952ba7f163c4a11628f55a4df523b3ef83604051611bf391815260200190565b60405180910390a35050600101611959565b508115801590611c155750808214155b15611cb157818303838110611c86576040517f08c379a000000000000000000000000000000000000000000000000000000000815260206004820152601b60248201527f45524332303a20696e73756666696369656e742062616c616e636500000000006044820152606401610c6a565b73ffffffffffffffffffffffffffffffffffffffff8a16600090815260208d90526040902090820190555b8973ffffffffffffffffffffffffffffffffffffffff168973ffffffffffffffffffffffffffffffffffffffff1614611cf057611cf08b8a8c856124b5565b505050505b50505050505050565b815181518114611d6a576040517f08c379a000000000000000000000000000000000000000000000000000000000815260206004820152601a60248201527f45524332303a20696e636f6e73697374656e74206172726179730000000000006044820152606401610c6a565b80600003611d785750505050565b6000805b828114611f4f576000858281518110611d9757611d976133e5565b60200260200101519050600073ffffffffffffffffffffffffffffffffffffffff168173ffffffffffffffffffffffffffffffffffffffff1603611e37576040517f08c379a000000000000000000000000000000000000000000000000000000000815260206004820152601960248201527f45524332303a206d696e7420746f2061646472657373283029000000000000006044820152606401610c6a565b6000858381518110611e4b57611e4b6133e5565b6020026020010151905080600014611ef757838101848111611ec9576040517f08c379a000000000000000000000000000000000000000000000000000000000815260206004820152601660248201527f45524332303a2076616c756573206f766572666c6f77000000000000000000006044820152606401610c6a565b73ffffffffffffffffffffffffffffffffffffffff8316600090815260208a90526040902080548301905593505b60405181815273ffffffffffffffffffffffffffffffffffffffff8316906000907fddf252ad1be2c89b69c2b068fc378daa952ba7f163c4a11628f55a4df523b3ef9060200160405180910390a35050600101611d7c565b5080156111f3576002850154818101818111611fc7576040517f08c379a000000000000000000000000000000000000000000000000000000000815260206004820152601660248201527f45524332303a20737570706c79206f766572666c6f77000000000000000000006044820152606401610c6a565b6002870155505050505050565b8273ffffffffffffffffffffffffffffffffffffffff168273ffffffffffffffffffffffffffffffffffffffff161461201357612013848385846124b5565b6106a68483836117a1565b82818114612088576040517f08c379a000000000000000000000000000000000000000000000000000000000815260206004820152601a60248201527f45524332303a20696e636f6e73697374656e74206172726179730000000000006044820152606401610c6a565b8060000361209657506111a0565b73ffffffffffffffffffffffffffffffffffffffff86166000908152602088905260408120549080805b8481146123485760008989838181106120db576120db6133e5565b90506020020160208101906120f09190613054565b905073ffffffffffffffffffffffffffffffffffffffff811661216f576040517f08c379a000000000000000000000000000000000000000000000000000000000815260206004820152601d60248201527f45524332303a207472616e7366657220746f20616464726573732830290000006044820152606401610c6a565b6000888884818110612183576121836133e5565b905060200201359050806000146122d757848101858111612200576040517f08c379a000000000000000000000000000000000000000000000000000000000815260206004820152601660248201527f45524332303a2076616c756573206f766572666c6f77000000000000000000006044820152606401610c6a565b8095508273ffffffffffffffffffffffffffffffffffffffff168d73ffffffffffffffffffffffffffffffffffffffff16146122665773ffffffffffffffffffffffffffffffffffffffff8316600090815260208f9052604090208054830190556122d5565b868211156122d0576040517f08c379a000000000000000000000000000000000000000000000000000000000815260206004820152601b60248201527f45524332303a20696e73756666696369656e742062616c616e636500000000006044820152606401610c6a565b938101935b505b8173ffffffffffffffffffffffffffffffffffffffff168c73ffffffffffffffffffffffffffffffffffffffff167fddf252ad1be2c89b69c2b068fc378daa952ba7f163c4a11628f55a4df523b3ef8360405161233691815260200190565b60405180910390a350506001016120c0565b5081158015906123585750808214155b156123f4578183038381106123c9576040517f08c379a000000000000000000000000000000000000000000000000000000000815260206004820152601b60248201527f45524332303a20696e73756666696369656e742062616c616e636500000000006044820152606401610c6a565b73ffffffffffffffffffffffffffffffffffffffff8a16600090815260208c90526040902090820190555b50505050505050505050565b61240b83828461157b565b60008181526020848152604080832073ffffffffffffffffffffffffffffffffffffffff86168085529083529281902080547fffffffffffffffffffffffffffffffffffffffffffffffffffffffffffffff0016905580518481529182018390528101919091527ff6391f5c32d9c69d2a47ea670b442974b53935d1edc7fd64eb21e047a839171b9060600160405180910390a1505050565b6060816001018054610dc290613232565b73ffffffffffffffffffffffffffffffffffffffff8216612532576040517f08c379a000000000000000000000000000000000000000000000000000000000815260206004820152601d60248201527f45524332303a20617070726f76616c20746f20616464726573732830290000006044820152606401610c6a565b73ffffffffffffffffffffffffffffffffffffffff80841660009081526001860160209081526040808320938616835292905220547fffffffffffffffffffffffffffffffffffffffffffffffffffffffffffffffff811480159061259657508115155b156114df578181038181106114a5576040517f08c379a000000000000000000000000000000000000000000000000000000000815260206004820152601d60248201527f45524332303a20696e73756666696369656e7420616c6c6f77616e63650000006044820152606401610c6a565b73ffffffffffffffffffffffffffffffffffffffff8216612684576040517f08c379a000000000000000000000000000000000000000000000000000000000815260206004820152601d60248201527f45524332303a207472616e7366657220746f20616464726573732830290000006044820152606401610c6a565b80156127895773ffffffffffffffffffffffffffffffffffffffff831660009081526020859052604090205481810381811061271c576040517f08c379a000000000000000000000000000000000000000000000000000000000815260206004820152601b60248201527f45524332303a20696e73756666696369656e742062616c616e636500000000006044820152606401610c6a565b8373ffffffffffffffffffffffffffffffffffffffff168573ffffffffffffffffffffffffffffffffffffffff16146127865773ffffffffffffffffffffffffffffffffffffffff8086166000908152602088905260408082208490559186168152208054840190555b50505b8173ffffffffffffffffffffffffffffffffffffffff168373ffffffffffffffffffffffffffffffffffffffff167fddf252ad1be2c89b69c2b068fc378daa952ba7f163c4a11628f55a4df523b3ef83604051610f5691815260200190565b6127f587878787876111a8565b73ffffffffffffffffffffffffffffffffffffffff84163b15611cf557611cf58686868686868080601f016020809104026020016040519081016040528093929190818152602001838380828437600092019190915250612c5592505050565b60008381526020858152604080832073ffffffffffffffffffffffffffffffffffffffff8616845290915290205460ff16156106a65760008381526020858152604080832073ffffffffffffffffffffffffffffffffffffffff8681168086529184529382902080547fffffffffffffffffffffffffffffffffffffffffffffffffffffffffffffff00169055815187815292830152918316918101919091527ff6391f5c32d9c69d2a47ea670b442974b53935d1edc7fd64eb21e047a839171b90606001611373565b826106a6828483613480565b61293786868686612607565b73ffffffffffffffffffffffffffffffffffffffff84163b156111a0576111a08586868686868080601f016020809104026020016040519081016040528093929190818152602001838380828437600092019190915250612c5592505050565b825473ffffffffffffffffffffffffffffffffffffffff9081169083168114612a1c576040517f08c379a000000000000000000000000000000000000000000000000000000000815260206004820152601860248201527f4f776e6572736869703a206e6f7420746865206f776e657200000000000000006044820152606401610c6a565b8173ffffffffffffffffffffffffffffffffffffffff168173ffffffffffffffffffffffffffffffffffffffff16146106a65783547fffffffffffffffffffffffff00000000000000000000000000000000000000001673ffffffffffffffffffffffffffffffffffffffff8381169182178655604051908316907f8be0079c531659141344cd1fd0a4f28419497f9722a3daafe3b4186f6b6457e090600090a350505050565b60606000829003612ae257505060408051602081019091526000815290565b600082604051602001612af791815260200190565b604080517fffffffffffffffffffffffffffffffffffffffffffffffffffffffffffffffe08184030181529190529050601f5b818181518110612b3c57612b3c6133e5565b01602001517fff0000000000000000000000000000000000000000000000000000000000000016600003612b91577fffffffffffffffffffffffffffffffffffffffffffffffffffffffffffffffff01612b2a565b60008160010167ffffffffffffffff811115612baf57612baf613203565b6040519080825280601f01601f191660200182016040528015612bd9576020820181803683370190505b50905060005b828111612c4c57838181518110612bf857612bf86133e5565b602001015160f81c60f81b828281518110612c1557612c156133e5565b60200101907effffffffffffffffffffffffffffffffffffffffffffffffffffffffffffff1916908160001a905350600101612bdf565b50949350505050565b6040517f4fc35859000000000000000000000000000000000000000000000000000000008082529073ffffffffffffffffffffffffffffffffffffffff851690634fc3585990612caf90899089908890889060040161359a565b6020604051808303816000875af1158015612cce573d6000803e3d6000fd5b505050506040513d601f19601f82011682018060405250810190612cf291906135e3565b7fffffffff0000000000000000000000000000000000000000000000000000000016146111f3576040517f08c379a000000000000000000000000000000000000000000000000000000000815260206004820152601d60248201527f45524332303a2073616665207472616e736665722072656a65637465640000006044820152606401610c6a565b7fffffffff000000000000000000000000000000000000000000000000000000008116811461072c57600080fd5b600060208284031215612dbb57600080fd5b813561079a81612d7b565b60005b83811015612de1578181015183820152602001612dc9565b50506000910152565b60008151808452612e02816020860160208601612dc6565b601f017fffffffffffffffffffffffffffffffffffffffffffffffffffffffffffffffe0169290920160200192915050565b60208152600061079a6020830184612dea565b803573ffffffffffffffffffffffffffffffffffffffff81168114612e6b57600080fd5b919050565b60008060408385031215612e8357600080fd5b612e8c83612e47565b946020939093013593505050565b60008083601f840112612eac57600080fd5b50813567ffffffffffffffff811115612ec457600080fd5b6020830191508360208260051b8501011115612edf57600080fd5b9250929050565b60008060008060408587031215612efc57600080fd5b843567ffffffffffffffff80821115612f1457600080fd5b612f2088838901612e9a565b90965094506020870135915080821115612f3957600080fd5b50612f4687828801612e9a565b95989497509550505050565b600080600060608486031215612f6757600080fd5b612f7084612e47565b9250612f7e60208501612e47565b9150604084013590509250925092565b60008060408385031215612fa157600080fd5b82359150612fb160208401612e47565b90509250929050565b600060208284031215612fcc57600080fd5b5035919050565b600080600080600060608688031215612feb57600080fd5b612ff486612e47565b9450602086013567ffffffffffffffff8082111561301157600080fd5b61301d89838a01612e9a565b9096509450604088013591508082111561303657600080fd5b5061304388828901612e9a565b969995985093965092949392505050565b60006020828403121561306657600080fd5b61079a82612e47565b60008083601f84011261308157600080fd5b50813567ffffffffffffffff81111561309957600080fd5b602083019150836020828501011115612edf57600080fd5b6000806000806000608086880312156130c957600080fd5b6130d286612e47565b94506130e060208701612e47565b935060408601359250606086013567ffffffffffffffff81111561310357600080fd5b6130438882890161306f565b6000806040838503121561312257600080fd5b61312b83612e47565b9150612fb160208401612e47565b6000806020838503121561314c57600080fd5b823567ffffffffffffffff81111561316357600080fd5b61316f8582860161306f565b90969095509350505050565b6000806000806060858703121561319157600080fd5b61319a85612e47565b935060208501359250604085013567ffffffffffffffff8111156131bd57600080fd5b612f468782880161306f565b81810381811115610468577f4e487b7100000000000000000000000000000000000000000000000000000000600052601160045260246000fd5b7f4e487b7100000000000000000000000000000000000000000000000000000000600052604160045260246000fd5b600181811c9082168061324657607f821691505b60208210810361327f577f4e487b7100000000000000000000000000000000000000000000000000000000600052602260045260246000fd5b50919050565b601f82111561052e57600081815260208120601f850160051c810160208610156132ac5750805b601f850160051c820191505b818110156111a0578281556001016132b8565b815167ffffffffffffffff8111156132e5576132e5613203565b6132f9816132f38454613232565b84613285565b602080601f83116001811461334c57600084156133165750858301515b7fffffffffffffffffffffffffffffffffffffffffffffffffffffffffffffffff600386901b1c1916600185901b1785556111a0565b6000858152602081207fffffffffffffffffffffffffffffffffffffffffffffffffffffffffffffffe08616915b828110156133995788860151825594840194600190910190840161337a565b50858210156133d557878501517fffffffffffffffffffffffffffffffffffffffffffffffffffffffffffffffff600388901b60f8161c191681555b5050505050600190811b01905550565b7f4e487b7100000000000000000000000000000000000000000000000000000000600052603260045260246000fd5b7f416363657373436f6e74726f6c3a206d697373696e672027000000000000000081526000825161344c816018850160208701612dc6565b7f2720726f6c6500000000000000000000000000000000000000000000000000006018939091019283015250601e01919050565b67ffffffffffffffff83111561349857613498613203565b6134ac836134a68354613232565b83613285565b6000601f8411600181146134fe57600085156134c85750838201355b7fffffffffffffffffffffffffffffffffffffffffffffffffffffffffffffffff600387901b1c1916600186901b1783556111f3565b6000838152602090207fffffffffffffffffffffffffffffffffffffffffffffffffffffffffffffffe0861690835b8281101561354d578685013582556020948501946001909201910161352d565b5086821015613588577fffffffffffffffffffffffffffffffffffffffffffffffffffffffffffffffff60f88860031b161c19848701351681555b505060018560011b0183555050505050565b600073ffffffffffffffffffffffffffffffffffffffff8087168352808616602084015250836040830152608060608301526135d96080830184612dea565b9695505050505050565b6000602082840312156135f557600080fd5b815161079a81612d7b56fea264697066735822122032fd244480bede8879586ef97532b79294339635d847fe9c2fa841525fe2b4e264736f6c63430008110033","opcodes":"PUSH1 0x80 PUSH1 0x40 MSTORE CALLVALUE DUP1 ISZERO PUSH3 0x11 JUMPI PUSH1 0x0 DUP1 REVERT JUMPDEST POP PUSH1 0x40 MLOAD PUSH3 0x3D78 CODESIZE SUB DUP1 PUSH3 0x3D78 DUP4 CODECOPY DUP2 ADD PUSH1 0x40 DUP2 SWAP1 MSTORE PUSH3 0x34 SWAP2 PUSH3 0x511 JUMP JUMPDEST CALLER DUP5 DUP5 DUP5 PUSH3 0x4D PUSH3 0x124 PUSH1 0x20 SHL PUSH3 0x8BF OR PUSH1 0x20 SHR JUMP JUMPDEST PUSH3 0x7F DUP4 DUP4 DUP4 PUSH3 0x69 PUSH3 0x188 PUSH1 0x20 SHL PUSH3 0x923 OR PUSH1 0x20 SHR JUMP JUMPDEST PUSH3 0x1BE PUSH1 0x20 SHL PUSH3 0x951 OR SWAP1 SWAP4 SWAP3 SWAP2 SWAP1 PUSH1 0x20 SHR JUMP JUMPDEST POP POP POP PUSH3 0xB0 DUP2 PUSH3 0x9C PUSH3 0x22D PUSH1 0x20 SHL PUSH3 0x9D0 OR PUSH1 0x20 SHR JUMP JUMPDEST PUSH3 0x25D PUSH1 0x20 SHL PUSH3 0x9FE OR SWAP1 SWAP2 SWAP1 PUSH1 0x20 SHR JUMP JUMPDEST POP PUSH3 0xC6 PUSH3 0x2DB PUSH1 0x20 SHL PUSH3 0xAB4 OR PUSH1 0x20 SHR JUMP JUMPDEST PUSH3 0xDB PUSH3 0x300 PUSH1 0x20 SHL PUSH3 0xAE4 OR PUSH1 0x20 SHR JUMP JUMPDEST PUSH3 0xF0 PUSH3 0x323 PUSH1 0x20 SHL PUSH3 0xB12 OR PUSH1 0x20 SHR JUMP JUMPDEST PUSH3 0x105 PUSH3 0x346 PUSH1 0x20 SHL PUSH3 0xB40 OR PUSH1 0x20 SHR JUMP JUMPDEST PUSH3 0x11A PUSH3 0x369 PUSH1 0x20 SHL PUSH3 0xB6E OR PUSH1 0x20 SHR JUMP JUMPDEST POP POP POP POP PUSH3 0x732 JUMP JUMPDEST PUSH1 0x0 PUSH3 0x13B PUSH3 0x38C PUSH1 0x20 SHL PUSH3 0xB98 OR PUSH1 0x20 SHR JUMP JUMPDEST SWAP1 POP PUSH3 0x161 PUSH4 0x36372B07 PUSH1 0xE0 SHL PUSH1 0x1 DUP4 PUSH3 0x3BC PUSH1 0x20 SHL PUSH3 0xBC6 OR SWAP1 SWAP3 SWAP2 SWAP1 PUSH1 0x20 SHR JUMP JUMPDEST PUSH3 0x185 PUSH4 0x4E83A8C3 PUSH1 0xE1 SHL PUSH1 0x1 DUP4 PUSH3 0x3BC PUSH1 0x20 SHL PUSH3 0xBC6 OR SWAP1 SWAP3 SWAP2 SWAP1 PUSH1 0x20 SHR JUMP JUMPDEST POP JUMP JUMPDEST PUSH1 0x0 DUP1 PUSH3 0x1B8 PUSH1 0x1 PUSH32 0x335DF4119BBB04F056B33EBA33B826D3529129E458FAF6DAA9924B5A8F3B6A82 PUSH3 0x5B5 JUMP JUMPDEST SWAP3 SWAP2 POP POP JUMP JUMPDEST DUP4 PUSH3 0x1CB DUP5 DUP3 PUSH3 0x666 JUMP JUMPDEST POP PUSH1 0x1 DUP5 ADD PUSH3 0x1DC DUP4 DUP3 PUSH3 0x666 JUMP JUMPDEST POP PUSH1 0x2 DUP5 ADD DUP1 SLOAD PUSH1 0xFF NOT AND PUSH1 0xFF DUP4 AND OR SWAP1 SSTORE PUSH3 0x227 PUSH4 0xA219A025 PUSH1 0xE0 SHL PUSH1 0x1 PUSH3 0x212 PUSH3 0x38C PUSH1 0x20 SWAP1 DUP2 SHL PUSH3 0xB98 OR SWAP1 SHR JUMP JUMPDEST PUSH3 0x3BC PUSH1 0x20 SHL PUSH3 0xBC6 OR SWAP1 SWAP3 SWAP2 SWAP1 PUSH1 0x20 SHR JUMP JUMPDEST POP POP POP POP JUMP JUMPDEST PUSH1 0x0 DUP1 PUSH3 0x1B8 PUSH1 0x1 PUSH32 0xC9ED16F33AB3A66C84BFD83099CCB2A8845871E2E1C1928F63797152F0FD54CD PUSH3 0x5B5 JUMP JUMPDEST PUSH1 0x1 PUSH1 0x1 PUSH1 0xA0 SHL SUB DUP2 AND ISZERO PUSH3 0x2B4 JUMPI DUP2 SLOAD PUSH1 0x1 PUSH1 0x1 PUSH1 0xA0 SHL SUB NOT AND PUSH1 0x1 PUSH1 0x1 PUSH1 0xA0 SHL SUB DUP3 AND SWAP1 DUP2 OR DUP4 SSTORE PUSH1 0x40 MLOAD PUSH1 0x0 SWAP1 PUSH32 0x8BE0079C531659141344CD1FD0A4F28419497F9722A3DAAFE3B4186F6B6457E0 SWAP1 DUP3 SWAP1 LOG3 JUMPDEST PUSH3 0x2D7 PUSH4 0x7F5828D PUSH1 0xE4 SHL PUSH1 0x1 PUSH3 0x212 PUSH3 0x38C PUSH1 0x20 SHL PUSH3 0xB98 OR PUSH1 0x20 SHR JUMP JUMPDEST POP POP JUMP JUMPDEST PUSH3 0x2FE PUSH4 0x3C130D9 PUSH1 0xE4 SHL PUSH1 0x1 PUSH3 0x212 PUSH3 0x38C PUSH1 0x20 SHL PUSH3 0xB98 OR PUSH1 0x20 SHR JUMP JUMPDEST JUMP JUMPDEST PUSH3 0x2FE PUSH4 0x144B1F0F PUSH1 0xE1 SHL PUSH1 0x1 PUSH3 0x212 PUSH3 0x38C PUSH1 0x20 SHL PUSH3 0xB98 OR PUSH1 0x20 SHR JUMP JUMPDEST PUSH3 0x2FE PUSH4 0x20C07ED1 PUSH1 0xE0 SHL PUSH1 0x1 PUSH3 0x212 PUSH3 0x38C PUSH1 0x20 SHL PUSH3 0xB98 OR PUSH1 0x20 SHR JUMP JUMPDEST PUSH3 0x2FE PUSH4 0x53F41A97 PUSH1 0xE0 SHL PUSH1 0x1 PUSH3 0x212 PUSH3 0x38C PUSH1 0x20 SHL PUSH3 0xB98 OR PUSH1 0x20 SHR JUMP JUMPDEST PUSH3 0x2FE PUSH4 0x602993F3 PUSH1 0xE1 SHL PUSH1 0x1 PUSH3 0x212 PUSH3 0x38C PUSH1 0x20 SHL PUSH3 0xB98 OR PUSH1 0x20 SHR JUMP JUMPDEST PUSH1 0x0 DUP1 PUSH3 0x1B8 PUSH1 0x1 PUSH32 0xCA9D3E17F264B0F3984E2634E94ADB37FA3E6A8103F06AEAE6FA59E21C769F5E PUSH3 0x5B5 JUMP JUMPDEST PUSH1 0x1 PUSH1 0xE0 SHL PUSH1 0x1 PUSH1 0x1 PUSH1 0xE0 SHL SUB NOT DUP4 AND ADD PUSH3 0x41E JUMPI PUSH1 0x40 MLOAD PUSH3 0x461BCD PUSH1 0xE5 SHL DUP2 MSTORE PUSH1 0x20 PUSH1 0x4 DUP3 ADD MSTORE PUSH1 0x1F PUSH1 0x24 DUP3 ADD MSTORE PUSH32 0x496E74657266616365446574656374696F6E3A2077726F6E672076616C756500 PUSH1 0x44 DUP3 ADD MSTORE PUSH1 0x64 ADD PUSH1 0x40 MLOAD DUP1 SWAP2 SUB SWAP1 REVERT JUMPDEST PUSH1 0x1 PUSH1 0x1 PUSH1 0xE0 SHL SUB NOT SWAP2 SWAP1 SWAP2 AND PUSH1 0x0 SWAP1 DUP2 MSTORE PUSH1 0x20 SWAP3 SWAP1 SWAP3 MSTORE PUSH1 0x40 SWAP1 SWAP2 KECCAK256 DUP1 SLOAD PUSH1 0xFF NOT AND SWAP2 ISZERO ISZERO SWAP2 SWAP1 SWAP2 OR SWAP1 SSTORE JUMP JUMPDEST PUSH4 0x4E487B71 PUSH1 0xE0 SHL PUSH1 0x0 MSTORE PUSH1 0x41 PUSH1 0x4 MSTORE PUSH1 0x24 PUSH1 0x0 REVERT JUMPDEST PUSH1 0x0 DUP3 PUSH1 0x1F DUP4 ADD SLT PUSH3 0x474 JUMPI PUSH1 0x0 DUP1 REVERT JUMPDEST DUP2 MLOAD PUSH1 0x1 PUSH1 0x1 PUSH1 0x40 SHL SUB DUP1 DUP3 GT ISZERO PUSH3 0x491 JUMPI PUSH3 0x491 PUSH3 0x44C JUMP JUMPDEST PUSH1 0x40 MLOAD PUSH1 0x1F DUP4 ADD PUSH1 0x1F NOT SWAP1 DUP2 AND PUSH1 0x3F ADD AND DUP2 ADD SWAP1 DUP3 DUP3 GT DUP2 DUP4 LT OR ISZERO PUSH3 0x4BC JUMPI PUSH3 0x4BC PUSH3 0x44C JUMP JUMPDEST DUP2 PUSH1 0x40 MSTORE DUP4 DUP2 MSTORE PUSH1 0x20 SWAP3 POP DUP7 DUP4 DUP6 DUP9 ADD ADD GT ISZERO PUSH3 0x4D9 JUMPI PUSH1 0x0 DUP1 REVERT JUMPDEST PUSH1 0x0 SWAP2 POP JUMPDEST DUP4 DUP3 LT ISZERO PUSH3 0x4FD JUMPI DUP6 DUP3 ADD DUP4 ADD MLOAD DUP2 DUP4 ADD DUP5 ADD MSTORE SWAP1 DUP3 ADD SWAP1 PUSH3 0x4DE JUMP JUMPDEST PUSH1 0x0 SWAP4 DUP2 ADD SWAP1 SWAP3 ADD SWAP3 SWAP1 SWAP3 MSTORE SWAP5 SWAP4 POP POP POP POP JUMP JUMPDEST PUSH1 0x0 DUP1 PUSH1 0x0 DUP1 PUSH1 0x80 DUP6 DUP8 SUB SLT ISZERO PUSH3 0x528 JUMPI PUSH1 0x0 DUP1 REVERT JUMPDEST DUP5 MLOAD PUSH1 0x1 PUSH1 0x1 PUSH1 0x40 SHL SUB DUP1 DUP3 GT ISZERO PUSH3 0x540 JUMPI PUSH1 0x0 DUP1 REVERT JUMPDEST PUSH3 0x54E DUP9 DUP4 DUP10 ADD PUSH3 0x462 JUMP JUMPDEST SWAP6 POP PUSH1 0x20 DUP8 ADD MLOAD SWAP2 POP DUP1 DUP3 GT ISZERO PUSH3 0x565 JUMPI PUSH1 0x0 DUP1 REVERT JUMPDEST POP PUSH3 0x574 DUP8 DUP3 DUP9 ADD PUSH3 0x462 JUMP JUMPDEST SWAP4 POP POP PUSH1 0x40 DUP6 ADD MLOAD PUSH1 0xFF DUP2 AND DUP2 EQ PUSH3 0x58C JUMPI PUSH1 0x0 DUP1 REVERT JUMPDEST PUSH1 0x60 DUP7 ADD MLOAD SWAP1 SWAP3 POP PUSH1 0x1 PUSH1 0x1 PUSH1 0xA0 SHL SUB DUP2 AND DUP2 EQ PUSH3 0x5AA JUMPI PUSH1 0x0 DUP1 REVERT JUMPDEST SWAP4 SWAP7 SWAP3 SWAP6 POP SWAP1 SWAP4 POP POP JUMP JUMPDEST DUP2 DUP2 SUB DUP2 DUP2 GT ISZERO PUSH3 0x1B8 JUMPI PUSH4 0x4E487B71 PUSH1 0xE0 SHL PUSH1 0x0 MSTORE PUSH1 0x11 PUSH1 0x4 MSTORE PUSH1 0x24 PUSH1 0x0 REVERT JUMPDEST PUSH1 0x1 DUP2 DUP2 SHR SWAP1 DUP3 AND DUP1 PUSH3 0x5EC JUMPI PUSH1 0x7F DUP3 AND SWAP2 POP JUMPDEST PUSH1 0x20 DUP3 LT DUP2 SUB PUSH3 0x60D JUMPI PUSH4 0x4E487B71 PUSH1 0xE0 SHL PUSH1 0x0 MSTORE PUSH1 0x22 PUSH1 0x4 MSTORE PUSH1 0x24 PUSH1 0x0 REVERT JUMPDEST POP SWAP2 SWAP1 POP JUMP JUMPDEST PUSH1 0x1F DUP3 GT ISZERO PUSH3 0x661 JUMPI PUSH1 0x0 DUP2 DUP2 MSTORE PUSH1 0x20 DUP2 KECCAK256 PUSH1 0x1F DUP6 ADD PUSH1 0x5 SHR DUP2 ADD PUSH1 0x20 DUP7 LT ISZERO PUSH3 0x63C JUMPI POP DUP1 JUMPDEST PUSH1 0x1F DUP6 ADD PUSH1 0x5 SHR DUP3 ADD SWAP2 POP JUMPDEST DUP2 DUP2 LT ISZERO PUSH3 0x65D JUMPI DUP3 DUP2 SSTORE PUSH1 0x1 ADD PUSH3 0x648 JUMP JUMPDEST POP POP POP JUMPDEST POP POP POP JUMP JUMPDEST DUP2 MLOAD PUSH1 0x1 PUSH1 0x1 PUSH1 0x40 SHL SUB DUP2 GT ISZERO PUSH3 0x682 JUMPI PUSH3 0x682 PUSH3 0x44C JUMP JUMPDEST PUSH3 0x69A DUP2 PUSH3 0x693 DUP5 SLOAD PUSH3 0x5D7 JUMP JUMPDEST DUP5 PUSH3 0x613 JUMP JUMPDEST PUSH1 0x20 DUP1 PUSH1 0x1F DUP4 GT PUSH1 0x1 DUP2 EQ PUSH3 0x6D2 JUMPI PUSH1 0x0 DUP5 ISZERO PUSH3 0x6B9 JUMPI POP DUP6 DUP4 ADD MLOAD JUMPDEST PUSH1 0x0 NOT PUSH1 0x3 DUP7 SWAP1 SHL SHR NOT AND PUSH1 0x1 DUP6 SWAP1 SHL OR DUP6 SSTORE PUSH3 0x65D JUMP JUMPDEST PUSH1 0x0 DUP6 DUP2 MSTORE PUSH1 0x20 DUP2 KECCAK256 PUSH1 0x1F NOT DUP7 AND SWAP2 JUMPDEST DUP3 DUP2 LT ISZERO PUSH3 0x703 JUMPI DUP9 DUP7 ADD MLOAD DUP3 SSTORE SWAP5 DUP5 ADD SWAP5 PUSH1 0x1 SWAP1 SWAP2 ADD SWAP1 DUP5 ADD PUSH3 0x6E2 JUMP JUMPDEST POP DUP6 DUP3 LT ISZERO PUSH3 0x722 JUMPI DUP8 DUP6 ADD MLOAD PUSH1 0x0 NOT PUSH1 0x3 DUP9 SWAP1 SHL PUSH1 0xF8 AND SHR NOT AND DUP2 SSTORE JUMPDEST POP POP POP POP POP PUSH1 0x1 SWAP1 DUP2 SHL ADD SWAP1 SSTORE POP JUMP JUMPDEST PUSH2 0x3636 DUP1 PUSH3 0x742 PUSH1 0x0 CODECOPY PUSH1 0x0 RETURN INVALID PUSH1 0x80 PUSH1 0x40 MSTORE CALLVALUE DUP1 ISZERO PUSH2 0x10 JUMPI PUSH1 0x0 DUP1 REVERT JUMPDEST POP PUSH1 0x4 CALLDATASIZE LT PUSH2 0x1DA JUMPI PUSH1 0x0 CALLDATALOAD PUSH1 0xE0 SHR DUP1 PUSH4 0x79CC6790 GT PUSH2 0x104 JUMPI DUP1 PUSH4 0xA9059CBB GT PUSH2 0xA2 JUMPI DUP1 PUSH4 0xDD62ED3E GT PUSH2 0x71 JUMPI DUP1 PUSH4 0xDD62ED3E EQ PUSH2 0x408 JUMPI DUP1 PUSH4 0xE0DF5B6F EQ PUSH2 0x41B JUMPI DUP1 PUSH4 0xEB795549 EQ PUSH2 0x42E JUMPI DUP1 PUSH4 0xF2FDE38B EQ PUSH2 0x441 JUMPI PUSH1 0x0 DUP1 REVERT JUMPDEST DUP1 PUSH4 0xA9059CBB EQ PUSH2 0x3A8 JUMPI DUP1 PUSH4 0xB88D4FDE EQ PUSH2 0x3BB JUMPI DUP1 PUSH4 0xD5391393 EQ PUSH2 0x3CE JUMPI DUP1 PUSH4 0xD547741F EQ PUSH2 0x3F5 JUMPI PUSH1 0x0 DUP1 REVERT JUMPDEST DUP1 PUSH4 0x8DA5CB5B GT PUSH2 0xDE JUMPI DUP1 PUSH4 0x8DA5CB5B EQ PUSH2 0x34D JUMPI DUP1 PUSH4 0x91D14854 EQ PUSH2 0x37A JUMPI DUP1 PUSH4 0x95D89B41 EQ PUSH2 0x38D JUMPI DUP1 PUSH4 0xA457C2D7 EQ PUSH2 0x395 JUMPI PUSH1 0x0 DUP1 REVERT JUMPDEST DUP1 PUSH4 0x79CC6790 EQ PUSH2 0x314 JUMPI DUP1 PUSH4 0x88D695B2 EQ PUSH2 0x327 JUMPI DUP1 PUSH4 0x8BB9C5BF EQ PUSH2 0x33A JUMPI PUSH1 0x0 DUP1 REVERT JUMPDEST DUP1 PUSH4 0x313CE567 GT PUSH2 0x17C JUMPI DUP1 PUSH4 0x42966C68 GT PUSH2 0x14B JUMPI DUP1 PUSH4 0x42966C68 EQ PUSH2 0x2C8 JUMPI DUP1 PUSH4 0x4885B254 EQ PUSH2 0x2DB JUMPI DUP1 PUSH4 0x68573107 EQ PUSH2 0x2EE JUMPI DUP1 PUSH4 0x70A08231 EQ PUSH2 0x301 JUMPI PUSH1 0x0 DUP1 REVERT JUMPDEST DUP1 PUSH4 0x313CE567 EQ PUSH2 0x280 JUMPI DUP1 PUSH4 0x39509351 EQ PUSH2 0x29A JUMPI DUP1 PUSH4 0x3C130D90 EQ PUSH2 0x2AD JUMPI DUP1 PUSH4 0x40C10F19 EQ PUSH2 0x2B5 JUMPI PUSH1 0x0 DUP1 REVERT JUMPDEST DUP1 PUSH4 0x18160DDD GT PUSH2 0x1B8 JUMPI DUP1 PUSH4 0x18160DDD EQ PUSH2 0x22F JUMPI DUP1 PUSH4 0x1B9A7529 EQ PUSH2 0x245 JUMPI DUP1 PUSH4 0x23B872DD EQ PUSH2 0x258 JUMPI DUP1 PUSH4 0x2F2FF15D EQ PUSH2 0x26B JUMPI PUSH1 0x0 DUP1 REVERT JUMPDEST DUP1 PUSH4 0x1FFC9A7 EQ PUSH2 0x1DF JUMPI DUP1 PUSH4 0x6FDDE03 EQ PUSH2 0x207 JUMPI DUP1 PUSH4 0x95EA7B3 EQ PUSH2 0x21C JUMPI JUMPDEST PUSH1 0x0 DUP1 REVERT JUMPDEST PUSH2 0x1F2 PUSH2 0x1ED CALLDATASIZE PUSH1 0x4 PUSH2 0x2DA9 JUMP JUMPDEST PUSH2 0x454 JUMP JUMPDEST PUSH1 0x40 MLOAD SWAP1 ISZERO ISZERO DUP2 MSTORE PUSH1 0x20 ADD JUMPDEST PUSH1 0x40 MLOAD DUP1 SWAP2 SUB SWAP1 RETURN JUMPDEST PUSH2 0x20F PUSH2 0x46E JUMP JUMPDEST PUSH1 0x40 MLOAD PUSH2 0x1FE SWAP2 SWAP1 PUSH2 0x2E34 JUMP JUMPDEST PUSH2 0x1F2 PUSH2 0x22A CALLDATASIZE PUSH1 0x4 PUSH2 0x2E70 JUMP JUMPDEST PUSH2 0x485 JUMP JUMPDEST PUSH2 0x237 PUSH2 0x4A6 JUMP JUMPDEST PUSH1 0x40 MLOAD SWAP1 DUP2 MSTORE PUSH1 0x20 ADD PUSH2 0x1FE JUMP JUMPDEST PUSH2 0x1F2 PUSH2 0x253 CALLDATASIZE PUSH1 0x4 PUSH2 0x2EE6 JUMP JUMPDEST PUSH2 0x4BA JUMP JUMPDEST PUSH2 0x1F2 PUSH2 0x266 CALLDATASIZE PUSH1 0x4 PUSH2 0x2F52 JUMP JUMPDEST PUSH2 0x4E1 JUMP JUMPDEST PUSH2 0x27E PUSH2 0x279 CALLDATASIZE PUSH1 0x4 PUSH2 0x2F8E JUMP JUMPDEST PUSH2 0x505 JUMP JUMPDEST STOP JUMPDEST PUSH2 0x288 PUSH2 0x533 JUMP JUMPDEST PUSH1 0x40 MLOAD PUSH1 0xFF SWAP1 SWAP2 AND DUP2 MSTORE PUSH1 0x20 ADD PUSH2 0x1FE JUMP JUMPDEST PUSH2 0x1F2 PUSH2 0x2A8 CALLDATASIZE PUSH1 0x4 PUSH2 0x2E70 JUMP JUMPDEST PUSH2 0x54A JUMP JUMPDEST PUSH2 0x20F PUSH2 0x562 JUMP JUMPDEST PUSH2 0x27E PUSH2 0x2C3 CALLDATASIZE PUSH1 0x4 PUSH2 0x2E70 JUMP JUMPDEST PUSH2 0x56F JUMP JUMPDEST PUSH2 0x1F2 PUSH2 0x2D6 CALLDATASIZE PUSH1 0x4 PUSH2 0x2FBA JUMP JUMPDEST PUSH2 0x5BC JUMP JUMPDEST PUSH2 0x1F2 PUSH2 0x2E9 CALLDATASIZE PUSH1 0x4 PUSH2 0x2FD3 JUMP JUMPDEST PUSH2 0x5DA JUMP JUMPDEST PUSH2 0x27E PUSH2 0x2FC CALLDATASIZE PUSH1 0x4 PUSH2 0x2EE6 JUMP JUMPDEST PUSH2 0x604 JUMP JUMPDEST PUSH2 0x237 PUSH2 0x30F CALLDATASIZE PUSH1 0x4 PUSH2 0x3054 JUMP JUMPDEST PUSH2 0x6AC JUMP JUMPDEST PUSH2 0x1F2 PUSH2 0x322 CALLDATASIZE PUSH1 0x4 PUSH2 0x2E70 JUMP JUMPDEST PUSH2 0x6E4 JUMP JUMPDEST PUSH2 0x1F2 PUSH2 0x335 CALLDATASIZE PUSH1 0x4 PUSH2 0x2EE6 JUMP JUMPDEST PUSH2 0x6FC JUMP JUMPDEST PUSH2 0x27E PUSH2 0x348 CALLDATASIZE PUSH1 0x4 PUSH2 0x2FBA JUMP JUMPDEST PUSH2 0x718 JUMP JUMPDEST PUSH2 0x355 PUSH2 0x72F JUMP JUMPDEST PUSH1 0x40 MLOAD PUSH20 0xFFFFFFFFFFFFFFFFFFFFFFFFFFFFFFFFFFFFFFFF SWAP1 SWAP2 AND DUP2 MSTORE PUSH1 0x20 ADD PUSH2 0x1FE JUMP JUMPDEST PUSH2 0x1F2 PUSH2 0x388 CALLDATASIZE PUSH1 0x4 PUSH2 0x2F8E JUMP JUMPDEST PUSH2 0x756 JUMP JUMPDEST PUSH2 0x20F PUSH2 0x7A1 JUMP JUMPDEST PUSH2 0x1F2 PUSH2 0x3A3 CALLDATASIZE PUSH1 0x4 PUSH2 0x2E70 JUMP JUMPDEST PUSH2 0x7B3 JUMP JUMPDEST PUSH2 0x1F2 PUSH2 0x3B6 CALLDATASIZE PUSH1 0x4 PUSH2 0x2E70 JUMP JUMPDEST PUSH2 0x7CB JUMP JUMPDEST PUSH2 0x1F2 PUSH2 0x3C9 CALLDATASIZE PUSH1 0x4 PUSH2 0x30B1 JUMP JUMPDEST PUSH2 0x7E3 JUMP JUMPDEST PUSH2 0x237 PUSH32 0x6D696E7465720000000000000000000000000000000000000000000000000000 DUP2 JUMP JUMPDEST PUSH2 0x27E PUSH2 0x403 CALLDATASIZE PUSH1 0x4 PUSH2 0x2F8E JUMP JUMPDEST PUSH2 0x801 JUMP JUMPDEST PUSH2 0x237 PUSH2 0x416 CALLDATASIZE PUSH1 0x4 PUSH2 0x310F JUMP JUMPDEST PUSH2 0x824 JUMP JUMPDEST PUSH2 0x27E PUSH2 0x429 CALLDATASIZE PUSH1 0x4 PUSH2 0x3139 JUMP JUMPDEST PUSH2 0x86F JUMP JUMPDEST PUSH2 0x1F2 PUSH2 0x43C CALLDATASIZE PUSH1 0x4 PUSH2 0x317B JUMP JUMPDEST PUSH2 0x88F JUMP JUMPDEST PUSH2 0x27E PUSH2 0x44F CALLDATASIZE PUSH1 0x4 PUSH2 0x3054 JUMP JUMPDEST PUSH2 0x8AB JUMP JUMPDEST PUSH1 0x0 PUSH2 0x468 DUP3 PUSH2 0x462 PUSH2 0xB98 JUMP JUMPDEST SWAP1 PUSH2 0xCD7 JUMP JUMPDEST SWAP3 SWAP2 POP POP JUMP JUMPDEST PUSH1 0x60 PUSH2 0x480 PUSH2 0x47B PUSH2 0x923 JUMP JUMPDEST PUSH2 0xDB1 JUMP JUMPDEST SWAP1 POP SWAP1 JUMP JUMPDEST PUSH1 0x0 PUSH2 0x49D CALLER DUP5 DUP5 PUSH2 0x495 PUSH2 0xE47 JUMP JUMPDEST SWAP3 SWAP2 SWAP1 PUSH2 0xE75 JUMP JUMPDEST POP PUSH1 0x1 SWAP3 SWAP2 POP POP JUMP JUMPDEST PUSH1 0x0 PUSH2 0x480 PUSH2 0x4B3 PUSH2 0xE47 JUMP JUMPDEST PUSH1 0x2 ADD SLOAD SWAP1 JUMP JUMPDEST PUSH1 0x0 PUSH2 0x4D6 CALLER DUP7 DUP7 DUP7 DUP7 PUSH2 0x4CC PUSH2 0xE47 JUMP JUMPDEST SWAP5 SWAP4 SWAP3 SWAP2 SWAP1 PUSH2 0xF64 JUMP JUMPDEST POP PUSH1 0x1 SWAP5 SWAP4 POP POP POP POP JUMP JUMPDEST PUSH1 0x0 PUSH2 0x4FB CALLER DUP6 DUP6 DUP6 PUSH2 0x4F2 PUSH2 0xE47 JUMP JUMPDEST SWAP4 SWAP3 SWAP2 SWAP1 PUSH2 0x11A8 JUMP JUMPDEST POP PUSH1 0x1 SWAP4 SWAP3 POP POP POP JUMP JUMPDEST CALLER PUSH2 0x518 DUP2 PUSH2 0x512 PUSH2 0x9D0 JUMP JUMPDEST SWAP1 PUSH2 0x11FA JUMP JUMPDEST PUSH2 0x52E DUP4 DUP4 DUP4 PUSH2 0x526 PUSH2 0x127D JUMP JUMPDEST SWAP3 SWAP2 SWAP1 PUSH2 0x12AB JUMP JUMPDEST POP POP POP JUMP JUMPDEST PUSH1 0x0 PUSH2 0x480 PUSH2 0x540 PUSH2 0x923 JUMP JUMPDEST PUSH1 0x2 ADD SLOAD PUSH1 0xFF AND SWAP1 JUMP JUMPDEST PUSH1 0x0 PUSH2 0x49D CALLER DUP5 DUP5 PUSH2 0x55A PUSH2 0xE47 JUMP JUMPDEST SWAP3 SWAP2 SWAP1 PUSH2 0x1381 JUMP JUMPDEST PUSH1 0x60 PUSH2 0x480 PUSH2 0x47B PUSH2 0x154D JUMP JUMPDEST PUSH2 0x5A4 PUSH32 0x6D696E7465720000000000000000000000000000000000000000000000000000 CALLER JUMPDEST PUSH2 0x59D PUSH2 0x127D JUMP JUMPDEST SWAP2 SWAP1 PUSH2 0x157B JUMP JUMPDEST PUSH2 0x5B8 DUP3 DUP3 PUSH2 0x5B1 PUSH2 0xE47 JUMP JUMPDEST SWAP2 SWAP1 PUSH2 0x1627 JUMP JUMPDEST POP POP JUMP JUMPDEST PUSH1 0x0 PUSH2 0x5D2 CALLER DUP4 PUSH2 0x5CB PUSH2 0xE47 JUMP JUMPDEST SWAP2 SWAP1 PUSH2 0x17A1 JUMP JUMPDEST POP PUSH1 0x1 SWAP2 SWAP1 POP JUMP JUMPDEST PUSH1 0x0 PUSH2 0x5F8 CALLER DUP8 DUP8 DUP8 DUP8 DUP8 PUSH2 0x5ED PUSH2 0xE47 JUMP JUMPDEST SWAP6 SWAP5 SWAP4 SWAP3 SWAP2 SWAP1 PUSH2 0x18B7 JUMP JUMPDEST POP PUSH1 0x1 SWAP6 SWAP5 POP POP POP POP POP JUMP JUMPDEST PUSH2 0x62E PUSH32 0x6D696E7465720000000000000000000000000000000000000000000000000000 CALLER PUSH2 0x595 JUMP JUMPDEST PUSH2 0x6A6 DUP5 DUP5 DUP1 DUP1 PUSH1 0x20 MUL PUSH1 0x20 ADD PUSH1 0x40 MLOAD SWAP1 DUP2 ADD PUSH1 0x40 MSTORE DUP1 SWAP4 SWAP3 SWAP2 SWAP1 DUP2 DUP2 MSTORE PUSH1 0x20 ADD DUP4 DUP4 PUSH1 0x20 MUL DUP1 DUP3 DUP5 CALLDATACOPY PUSH1 0x0 SWAP3 ADD SWAP2 SWAP1 SWAP2 MSTORE POP POP PUSH1 0x40 DUP1 MLOAD PUSH1 0x20 DUP1 DUP9 MUL DUP3 DUP2 ADD DUP3 ADD SWAP1 SWAP4 MSTORE DUP8 DUP3 MSTORE SWAP1 SWAP4 POP DUP8 SWAP3 POP DUP7 SWAP2 DUP3 SWAP2 DUP6 ADD SWAP1 DUP5 SWAP1 DUP1 DUP3 DUP5 CALLDATACOPY PUSH1 0x0 SWAP3 ADD SWAP2 SWAP1 SWAP2 MSTORE POP PUSH2 0x69F SWAP3 POP PUSH2 0xE47 SWAP2 POP POP JUMP JUMPDEST SWAP2 SWAP1 PUSH2 0x1CFE JUMP JUMPDEST POP POP POP POP JUMP JUMPDEST PUSH1 0x0 PUSH2 0x468 DUP3 PUSH2 0x6BA PUSH2 0xE47 JUMP JUMPDEST SWAP1 PUSH20 0xFFFFFFFFFFFFFFFFFFFFFFFFFFFFFFFFFFFFFFFF AND PUSH1 0x0 SWAP1 DUP2 MSTORE PUSH1 0x20 SWAP2 SWAP1 SWAP2 MSTORE PUSH1 0x40 SWAP1 KECCAK256 SLOAD SWAP1 JUMP JUMPDEST PUSH1 0x0 PUSH2 0x49D CALLER DUP5 DUP5 PUSH2 0x6F4 PUSH2 0xE47 JUMP JUMPDEST SWAP3 SWAP2 SWAP1 PUSH2 0x1FD4 JUMP JUMPDEST PUSH1 0x0 PUSH2 0x4D6 CALLER DUP7 DUP7 DUP7 DUP7 PUSH2 0x70E PUSH2 0xE47 JUMP JUMPDEST SWAP5 SWAP4 SWAP3 SWAP2 SWAP1 PUSH2 0x201E JUMP JUMPDEST PUSH2 0x72C CALLER DUP3 PUSH2 0x725 PUSH2 0x127D JUMP JUMPDEST SWAP2 SWAP1 PUSH2 0x2400 JUMP JUMPDEST POP JUMP JUMPDEST PUSH1 0x0 PUSH2 0x480 PUSH2 0x73C PUSH2 0x9D0 JUMP JUMPDEST SLOAD PUSH20 0xFFFFFFFFFFFFFFFFFFFFFFFFFFFFFFFFFFFFFFFF AND SWAP1 JUMP JUMPDEST PUSH1 0x0 PUSH2 0x79A DUP4 DUP4 PUSH2 0x765 PUSH2 0x127D JUMP JUMPDEST PUSH1 0x0 SWAP3 DUP4 MSTORE PUSH1 0x20 SWAP1 DUP2 MSTORE PUSH1 0x40 DUP1 DUP5 KECCAK256 PUSH20 0xFFFFFFFFFFFFFFFFFFFFFFFFFFFFFFFFFFFFFFFF SWAP1 SWAP4 AND DUP5 MSTORE SWAP2 SWAP1 MSTORE SWAP1 KECCAK256 SLOAD PUSH1 0xFF AND SWAP1 JUMP JUMPDEST SWAP4 SWAP3 POP POP POP JUMP JUMPDEST PUSH1 0x60 PUSH2 0x480 PUSH2 0x7AE PUSH2 0x923 JUMP JUMPDEST PUSH2 0x24A4 JUMP JUMPDEST PUSH1 0x0 PUSH2 0x49D CALLER DUP5 DUP5 PUSH2 0x7C3 PUSH2 0xE47 JUMP JUMPDEST SWAP3 SWAP2 SWAP1 PUSH2 0x24B5 JUMP JUMPDEST PUSH1 0x0 PUSH2 0x49D CALLER DUP5 DUP5 PUSH2 0x7DB PUSH2 0xE47 JUMP JUMPDEST SWAP3 SWAP2 SWAP1 PUSH2 0x2607 JUMP JUMPDEST PUSH1 0x0 PUSH2 0x5F8 CALLER DUP8 DUP8 DUP8 DUP8 DUP8 PUSH2 0x7F6 PUSH2 0xE47 JUMP JUMPDEST SWAP6 SWAP5 SWAP4 SWAP3 SWAP2 SWAP1 PUSH2 0x27E8 JUMP JUMPDEST CALLER PUSH2 0x80E DUP2 PUSH2 0x512 PUSH2 0x9D0 JUMP JUMPDEST PUSH2 0x52E DUP4 DUP4 DUP4 PUSH2 0x81C PUSH2 0x127D JUMP JUMPDEST SWAP3 SWAP2 SWAP1 PUSH2 0x2855 JUMP JUMPDEST PUSH1 0x0 PUSH2 0x79A DUP4 DUP4 PUSH2 0x833 PUSH2 0xE47 JUMP JUMPDEST SWAP2 SWAP1 PUSH20 0xFFFFFFFFFFFFFFFFFFFFFFFFFFFFFFFFFFFFFFFF SWAP2 DUP3 AND PUSH1 0x0 SWAP1 DUP2 MSTORE PUSH1 0x1 SWAP4 SWAP1 SWAP4 ADD PUSH1 0x20 SWAP1 DUP2 MSTORE PUSH1 0x40 DUP1 DUP6 KECCAK256 SWAP3 SWAP1 SWAP4 AND DUP5 MSTORE MSTORE SWAP1 KECCAK256 SLOAD SWAP1 JUMP JUMPDEST PUSH2 0x87B CALLER PUSH2 0x512 PUSH2 0x9D0 JUMP JUMPDEST PUSH2 0x5B8 DUP3 DUP3 PUSH2 0x888 PUSH2 0x154D JUMP JUMPDEST SWAP2 SWAP1 PUSH2 0x291F JUMP JUMPDEST PUSH1 0x0 PUSH2 0x4D6 CALLER DUP7 DUP7 DUP7 DUP7 PUSH2 0x8A1 PUSH2 0xE47 JUMP JUMPDEST SWAP5 SWAP4 SWAP3 SWAP2 SWAP1 PUSH2 0x292B JUMP JUMPDEST PUSH2 0x72C CALLER DUP3 PUSH2 0x8B8 PUSH2 0x9D0 JUMP JUMPDEST SWAP2 SWAP1 PUSH2 0x2997 JUMP JUMPDEST PUSH1 0x0 PUSH2 0x8C9 PUSH2 0xB98 JUMP JUMPDEST SWAP1 POP PUSH2 0x8F7 DUP2 PUSH32 0x36372B0700000000000000000000000000000000000000000000000000000000 PUSH1 0x1 PUSH2 0xBC6 JUMP JUMPDEST PUSH2 0x72C DUP2 PUSH32 0x9D07518600000000000000000000000000000000000000000000000000000000 PUSH1 0x1 PUSH2 0xBC6 JUMP JUMPDEST PUSH1 0x0 DUP1 PUSH2 0x468 PUSH1 0x1 PUSH32 0x335DF4119BBB04F056B33EBA33B826D3529129E458FAF6DAA9924B5A8F3B6A82 PUSH2 0x31C9 JUMP JUMPDEST DUP4 PUSH2 0x95C DUP5 DUP3 PUSH2 0x32CB JUMP JUMPDEST POP PUSH1 0x1 DUP5 ADD PUSH2 0x96B DUP4 DUP3 PUSH2 0x32CB JUMP JUMPDEST POP PUSH1 0x2 DUP5 ADD DUP1 SLOAD PUSH32 0xFFFFFFFFFFFFFFFFFFFFFFFFFFFFFFFFFFFFFFFFFFFFFFFFFFFFFFFFFFFFFF00 AND PUSH1 0xFF DUP4 AND OR SWAP1 SSTORE PUSH2 0x6A6 PUSH32 0xA219A02500000000000000000000000000000000000000000000000000000000 PUSH1 0x1 PUSH2 0x9C9 PUSH2 0xB98 JUMP JUMPDEST SWAP2 SWAP1 PUSH2 0xBC6 JUMP JUMPDEST PUSH1 0x0 DUP1 PUSH2 0x468 PUSH1 0x1 PUSH32 0xC9ED16F33AB3A66C84BFD83099CCB2A8845871E2E1C1928F63797152F0FD54CD PUSH2 0x31C9 JUMP JUMPDEST PUSH20 0xFFFFFFFFFFFFFFFFFFFFFFFFFFFFFFFFFFFFFFFF DUP2 AND ISZERO PUSH2 0xA86 JUMPI DUP2 SLOAD PUSH32 0xFFFFFFFFFFFFFFFFFFFFFFFF0000000000000000000000000000000000000000 AND PUSH20 0xFFFFFFFFFFFFFFFFFFFFFFFFFFFFFFFFFFFFFFFF DUP3 AND SWAP1 DUP2 OR DUP4 SSTORE PUSH1 0x40 MLOAD PUSH1 0x0 SWAP1 PUSH32 0x8BE0079C531659141344CD1FD0A4F28419497F9722A3DAAFE3B4186F6B6457E0 SWAP1 DUP3 SWAP1 LOG3 JUMPDEST PUSH2 0x5B8 PUSH32 0x7F5828D000000000000000000000000000000000000000000000000000000000 PUSH1 0x1 PUSH2 0x9C9 PUSH2 0xB98 JUMP JUMPDEST PUSH2 0xAE2 PUSH32 0x3C130D9000000000000000000000000000000000000000000000000000000000 PUSH1 0x1 PUSH2 0x9C9 PUSH2 0xB98 JUMP JUMPDEST JUMP JUMPDEST PUSH2 0xAE2 PUSH32 0x28963E1E00000000000000000000000000000000000000000000000000000000 PUSH1 0x1 PUSH2 0x9C9 PUSH2 0xB98 JUMP JUMPDEST PUSH2 0xAE2 PUSH32 0x20C07ED100000000000000000000000000000000000000000000000000000000 PUSH1 0x1 PUSH2 0x9C9 PUSH2 0xB98 JUMP JUMPDEST PUSH2 0xAE2 PUSH32 0x53F41A9700000000000000000000000000000000000000000000000000000000 PUSH1 0x1 PUSH2 0x9C9 PUSH2 0xB98 JUMP JUMPDEST PUSH2 0xAE2 PUSH32 0xC05327E600000000000000000000000000000000000000000000000000000000 PUSH1 0x1 PUSH2 0x9C9 JUMPDEST PUSH1 0x0 DUP1 PUSH2 0x468 PUSH1 0x1 PUSH32 0xCA9D3E17F264B0F3984E2634E94ADB37FA3E6A8103F06AEAE6FA59E21C769F5E PUSH2 0x31C9 JUMP JUMPDEST PUSH29 0x100000000000000000000000000000000000000000000000000000000 PUSH32 0xFFFFFFFF00000000000000000000000000000000000000000000000000000000 DUP4 AND ADD PUSH2 0xC73 JUMPI PUSH1 0x40 MLOAD PUSH32 0x8C379A000000000000000000000000000000000000000000000000000000000 DUP2 MSTORE PUSH1 0x20 PUSH1 0x4 DUP3 ADD MSTORE PUSH1 0x1F PUSH1 0x24 DUP3 ADD MSTORE PUSH32 0x496E74657266616365446574656374696F6E3A2077726F6E672076616C756500 PUSH1 0x44 DUP3 ADD MSTORE PUSH1 0x64 ADD JUMPDEST PUSH1 0x40 MLOAD DUP1 SWAP2 SUB SWAP1 REVERT JUMPDEST PUSH32 0xFFFFFFFF00000000000000000000000000000000000000000000000000000000 SWAP2 SWAP1 SWAP2 AND PUSH1 0x0 SWAP1 DUP2 MSTORE PUSH1 0x20 SWAP3 SWAP1 SWAP3 MSTORE PUSH1 0x40 SWAP1 SWAP2 KECCAK256 DUP1 SLOAD PUSH32 0xFFFFFFFFFFFFFFFFFFFFFFFFFFFFFFFFFFFFFFFFFFFFFFFFFFFFFFFFFFFFFF00 AND SWAP2 ISZERO ISZERO SWAP2 SWAP1 SWAP2 OR SWAP1 SSTORE JUMP JUMPDEST PUSH1 0x0 PUSH29 0x100000000000000000000000000000000000000000000000000000000 PUSH32 0xFFFFFFFF00000000000000000000000000000000000000000000000000000000 DUP4 AND ADD PUSH2 0xD27 JUMPI POP PUSH1 0x0 PUSH2 0x468 JUMP JUMPDEST PUSH32 0xFE00365900000000000000000000000000000000000000000000000000000000 PUSH32 0xFFFFFFFF00000000000000000000000000000000000000000000000000000000 DUP4 AND ADD PUSH2 0xD78 JUMPI POP PUSH1 0x1 PUSH2 0x468 JUMP JUMPDEST POP PUSH32 0xFFFFFFFF00000000000000000000000000000000000000000000000000000000 AND PUSH1 0x0 SWAP1 DUP2 MSTORE PUSH1 0x20 SWAP2 SWAP1 SWAP2 MSTORE PUSH1 0x40 SWAP1 KECCAK256 SLOAD PUSH1 0xFF AND SWAP1 JUMP JUMPDEST PUSH1 0x60 DUP2 PUSH1 0x0 ADD DUP1 SLOAD PUSH2 0xDC2 SWAP1 PUSH2 0x3232 JUMP JUMPDEST DUP1 PUSH1 0x1F ADD PUSH1 0x20 DUP1 SWAP2 DIV MUL PUSH1 0x20 ADD PUSH1 0x40 MLOAD SWAP1 DUP2 ADD PUSH1 0x40 MSTORE DUP1 SWAP3 SWAP2 SWAP1 DUP2 DUP2 MSTORE PUSH1 0x20 ADD DUP3 DUP1 SLOAD PUSH2 0xDEE SWAP1 PUSH2 0x3232 JUMP JUMPDEST DUP1 ISZERO PUSH2 0xE3B JUMPI DUP1 PUSH1 0x1F LT PUSH2 0xE10 JUMPI PUSH2 0x100 DUP1 DUP4 SLOAD DIV MUL DUP4 MSTORE SWAP2 PUSH1 0x20 ADD SWAP2 PUSH2 0xE3B JUMP JUMPDEST DUP3 ADD SWAP2 SWAP1 PUSH1 0x0 MSTORE PUSH1 0x20 PUSH1 0x0 KECCAK256 SWAP1 JUMPDEST DUP2 SLOAD DUP2 MSTORE SWAP1 PUSH1 0x1 ADD SWAP1 PUSH1 0x20 ADD DUP1 DUP4 GT PUSH2 0xE1E JUMPI DUP3 SWAP1 SUB PUSH1 0x1F AND DUP3 ADD SWAP2 JUMPDEST POP POP POP POP POP SWAP1 POP SWAP2 SWAP1 POP JUMP JUMPDEST PUSH1 0x0 DUP1 PUSH2 0x468 PUSH1 0x1 PUSH32 0x1DA92899D3DA68BF9787824388A37EA2BFA79780BCEF91B9716C390EEC8ECBEF PUSH2 0x31C9 JUMP JUMPDEST PUSH20 0xFFFFFFFFFFFFFFFFFFFFFFFFFFFFFFFFFFFFFFFF DUP3 AND PUSH2 0xEF2 JUMPI PUSH1 0x40 MLOAD PUSH32 0x8C379A000000000000000000000000000000000000000000000000000000000 DUP2 MSTORE PUSH1 0x20 PUSH1 0x4 DUP3 ADD MSTORE PUSH1 0x1D PUSH1 0x24 DUP3 ADD MSTORE PUSH32 0x45524332303A20617070726F76616C20746F2061646472657373283029000000 PUSH1 0x44 DUP3 ADD MSTORE PUSH1 0x64 ADD PUSH2 0xC6A JUMP JUMPDEST PUSH20 0xFFFFFFFFFFFFFFFFFFFFFFFFFFFFFFFFFFFFFFFF DUP4 DUP2 AND PUSH1 0x0 DUP2 DUP2 MSTORE PUSH1 0x1 DUP8 ADD PUSH1 0x20 SWAP1 DUP2 MSTORE PUSH1 0x40 DUP1 DUP4 KECCAK256 SWAP5 DUP8 AND DUP1 DUP5 MSTORE SWAP5 DUP3 MSTORE SWAP2 DUP3 SWAP1 KECCAK256 DUP6 SWAP1 SSTORE SWAP1 MLOAD DUP5 DUP2 MSTORE PUSH32 0x8C5BE1E5EBEC7D5BD14F71427D1E84F3DD0314C0F7B2291E5B200AC8C7C3B925 SWAP2 ADD JUMPDEST PUSH1 0x40 MLOAD DUP1 SWAP2 SUB SWAP1 LOG3 POP POP POP POP JUMP JUMPDEST DUP3 DUP2 DUP2 EQ PUSH2 0xFCE JUMPI PUSH1 0x40 MLOAD PUSH32 0x8C379A000000000000000000000000000000000000000000000000000000000 DUP2 MSTORE PUSH1 0x20 PUSH1 0x4 DUP3 ADD MSTORE PUSH1 0x1A PUSH1 0x24 DUP3 ADD MSTORE PUSH32 0x45524332303A20696E636F6E73697374656E7420617272617973000000000000 PUSH1 0x44 DUP3 ADD MSTORE PUSH1 0x64 ADD PUSH2 0xC6A JUMP JUMPDEST DUP1 PUSH1 0x0 SUB PUSH2 0xFDC JUMPI POP PUSH2 0x11A0 JUMP JUMPDEST PUSH1 0x0 DUP1 JUMPDEST DUP3 DUP2 EQ PUSH2 0x118A JUMPI PUSH1 0x0 DUP8 DUP8 DUP4 DUP2 DUP2 LT PUSH2 0xFFB JUMPI PUSH2 0xFFB PUSH2 0x33E5 JUMP JUMPDEST SWAP1 POP PUSH1 0x20 MUL ADD PUSH1 0x20 DUP2 ADD SWAP1 PUSH2 0x1010 SWAP2 SWAP1 PUSH2 0x3054 JUMP JUMPDEST SWAP1 POP PUSH1 0x0 DUP7 DUP7 DUP5 DUP2 DUP2 LT PUSH2 0x1026 JUMPI PUSH2 0x1026 PUSH2 0x33E5 JUMP JUMPDEST SWAP1 POP PUSH1 0x20 MUL ADD CALLDATALOAD SWAP1 POP DUP10 PUSH20 0xFFFFFFFFFFFFFFFFFFFFFFFFFFFFFFFFFFFFFFFF AND DUP3 PUSH20 0xFFFFFFFFFFFFFFFFFFFFFFFFFFFFFFFFFFFFFFFF AND EQ PUSH2 0x106E JUMPI PUSH2 0x106E DUP12 DUP4 DUP13 DUP5 PUSH2 0x24B5 JUMP JUMPDEST DUP1 ISZERO PUSH2 0x1132 JUMPI PUSH20 0xFFFFFFFFFFFFFFFFFFFFFFFFFFFFFFFFFFFFFFFF DUP3 AND PUSH1 0x0 SWAP1 DUP2 MSTORE PUSH1 0x20 DUP13 SWAP1 MSTORE PUSH1 0x40 SWAP1 KECCAK256 SLOAD DUP2 DUP2 SUB DUP2 DUP2 LT PUSH2 0x1106 JUMPI PUSH1 0x40 MLOAD PUSH32 0x8C379A000000000000000000000000000000000000000000000000000000000 DUP2 MSTORE PUSH1 0x20 PUSH1 0x4 DUP3 ADD MSTORE PUSH1 0x1B PUSH1 0x24 DUP3 ADD MSTORE PUSH32 0x45524332303A20696E73756666696369656E742062616C616E63650000000000 PUSH1 0x44 DUP3 ADD MSTORE PUSH1 0x64 ADD PUSH2 0xC6A JUMP JUMPDEST PUSH20 0xFFFFFFFFFFFFFFFFFFFFFFFFFFFFFFFFFFFFFFFF DUP5 AND PUSH1 0x0 SWAP1 DUP2 MSTORE PUSH1 0x20 DUP15 SWAP1 MSTORE PUSH1 0x40 SWAP1 KECCAK256 SSTORE POP SWAP3 DUP4 ADD SWAP3 JUMPDEST PUSH1 0x40 MLOAD DUP2 DUP2 MSTORE PUSH1 0x0 SWAP1 PUSH20 0xFFFFFFFFFFFFFFFFFFFFFFFFFFFFFFFFFFFFFFFF DUP5 AND SWAP1 PUSH32 0xDDF252AD1BE2C89B69C2B068FC378DAA952BA7F163C4A11628F55A4DF523B3EF SWAP1 PUSH1 0x20 ADD PUSH1 0x40 MLOAD DUP1 SWAP2 SUB SWAP1 LOG3 POP POP PUSH1 0x1 ADD PUSH2 0xFE0 JUMP JUMPDEST POP DUP1 ISZERO PUSH2 0x119D JUMPI PUSH1 0x2 DUP9 ADD DUP1 SLOAD DUP3 SWAP1 SUB SWAP1 SSTORE JUMPDEST POP POP JUMPDEST POP POP POP POP POP POP JUMP JUMPDEST DUP4 PUSH20 0xFFFFFFFFFFFFFFFFFFFFFFFFFFFFFFFFFFFFFFFF AND DUP4 PUSH20 0xFFFFFFFFFFFFFFFFFFFFFFFFFFFFFFFFFFFFFFFF AND EQ PUSH2 0x11E7 JUMPI PUSH2 0x11E7 DUP6 DUP5 DUP7 DUP5 PUSH2 0x24B5 JUMP JUMPDEST PUSH2 0x11F3 DUP6 DUP5 DUP5 DUP5 PUSH2 0x2607 JUMP JUMPDEST POP POP POP POP POP JUMP JUMPDEST DUP2 SLOAD PUSH20 0xFFFFFFFFFFFFFFFFFFFFFFFFFFFFFFFFFFFFFFFF DUP3 DUP2 AND SWAP2 AND EQ PUSH2 0x5B8 JUMPI PUSH1 0x40 MLOAD PUSH32 0x8C379A000000000000000000000000000000000000000000000000000000000 DUP2 MSTORE PUSH1 0x20 PUSH1 0x4 DUP3 ADD MSTORE PUSH1 0x18 PUSH1 0x24 DUP3 ADD MSTORE PUSH32 0x4F776E6572736869703A206E6F7420746865206F776E65720000000000000000 PUSH1 0x44 DUP3 ADD MSTORE PUSH1 0x64 ADD PUSH2 0xC6A JUMP JUMPDEST PUSH1 0x0 DUP1 PUSH2 0x468 PUSH1 0x1 PUSH32 0xC8827D3282AF6F37B64C3E9E6F3AC9DF286AB0BB0FCCD6F8661BF19ADB368B23 PUSH2 0x31C9 JUMP JUMPDEST PUSH1 0x0 DUP4 DUP2 MSTORE PUSH1 0x20 DUP6 DUP2 MSTORE PUSH1 0x40 DUP1 DUP4 KECCAK256 PUSH20 0xFFFFFFFFFFFFFFFFFFFFFFFFFFFFFFFFFFFFFFFF DUP7 AND DUP5 MSTORE SWAP1 SWAP2 MSTORE SWAP1 KECCAK256 SLOAD PUSH1 0xFF AND PUSH2 0x6A6 JUMPI PUSH1 0x0 DUP4 DUP2 MSTORE PUSH1 0x20 DUP6 DUP2 MSTORE PUSH1 0x40 DUP1 DUP4 KECCAK256 PUSH20 0xFFFFFFFFFFFFFFFFFFFFFFFFFFFFFFFFFFFFFFFF DUP7 DUP2 AND DUP1 DUP7 MSTORE SWAP2 DUP5 MSTORE SWAP4 DUP3 SWAP1 KECCAK256 DUP1 SLOAD PUSH32 0xFFFFFFFFFFFFFFFFFFFFFFFFFFFFFFFFFFFFFFFFFFFFFFFFFFFFFFFFFFFFFF00 AND PUSH1 0x1 OR SWAP1 SSTORE DUP2 MLOAD DUP8 DUP2 MSTORE SWAP3 DUP4 ADD MSTORE SWAP2 DUP4 AND SWAP2 DUP2 ADD SWAP2 SWAP1 SWAP2 MSTORE PUSH32 0x2F8788117E7EFF1D82E926EC794901D17C78024A50270940304540A733656F0D SWAP1 PUSH1 0x60 ADD JUMPDEST PUSH1 0x40 MLOAD DUP1 SWAP2 SUB SWAP1 LOG1 POP POP POP POP JUMP JUMPDEST PUSH20 0xFFFFFFFFFFFFFFFFFFFFFFFFFFFFFFFFFFFFFFFF DUP3 AND PUSH2 0x13FE JUMPI PUSH1 0x40 MLOAD PUSH32 0x8C379A000000000000000000000000000000000000000000000000000000000 DUP2 MSTORE PUSH1 0x20 PUSH1 0x4 DUP3 ADD MSTORE PUSH1 0x1D PUSH1 0x24 DUP3 ADD MSTORE PUSH32 0x45524332303A20617070726F76616C20746F2061646472657373283029000000 PUSH1 0x44 DUP3 ADD MSTORE PUSH1 0x64 ADD PUSH2 0xC6A JUMP JUMPDEST PUSH20 0xFFFFFFFFFFFFFFFFFFFFFFFFFFFFFFFFFFFFFFFF DUP1 DUP5 AND PUSH1 0x0 SWAP1 DUP2 MSTORE PUSH1 0x1 DUP7 ADD PUSH1 0x20 SWAP1 DUP2 MSTORE PUSH1 0x40 DUP1 DUP4 KECCAK256 SWAP4 DUP7 AND DUP4 MSTORE SWAP3 SWAP1 MSTORE KECCAK256 SLOAD DUP2 ISZERO PUSH2 0x14DF JUMPI DUP1 DUP3 ADD DUP2 DUP2 GT PUSH2 0x14A5 JUMPI PUSH1 0x40 MLOAD PUSH32 0x8C379A000000000000000000000000000000000000000000000000000000000 DUP2 MSTORE PUSH1 0x20 PUSH1 0x4 DUP3 ADD MSTORE PUSH1 0x19 PUSH1 0x24 DUP3 ADD MSTORE PUSH32 0x45524332303A20616C6C6F77616E6365206F766572666C6F7700000000000000 PUSH1 0x44 DUP3 ADD MSTORE PUSH1 0x64 ADD PUSH2 0xC6A JUMP JUMPDEST PUSH20 0xFFFFFFFFFFFFFFFFFFFFFFFFFFFFFFFFFFFFFFFF DUP1 DUP7 AND PUSH1 0x0 SWAP1 DUP2 MSTORE PUSH1 0x1 DUP9 ADD PUSH1 0x20 SWAP1 DUP2 MSTORE PUSH1 0x40 DUP1 DUP4 KECCAK256 SWAP4 DUP9 AND DUP4 MSTORE SWAP3 SWAP1 MSTORE KECCAK256 DUP2 SWAP1 SSTORE SWAP1 POP JUMPDEST DUP3 PUSH20 0xFFFFFFFFFFFFFFFFFFFFFFFFFFFFFFFFFFFFFFFF AND DUP5 PUSH20 0xFFFFFFFFFFFFFFFFFFFFFFFFFFFFFFFFFFFFFFFF AND PUSH32 0x8C5BE1E5EBEC7D5BD14F71427D1E84F3DD0314C0F7B2291E5B200AC8C7C3B925 DUP4 PUSH1 0x40 MLOAD PUSH2 0x153E SWAP2 DUP2 MSTORE PUSH1 0x20 ADD SWAP1 JUMP JUMPDEST PUSH1 0x40 MLOAD DUP1 SWAP2 SUB SWAP1 LOG3 POP POP POP POP POP JUMP JUMPDEST PUSH1 0x0 DUP1 PUSH2 0x468 PUSH1 0x1 PUSH32 0xF41BF6A5DB26BFFDFAB174DCF66B31FBBA8FDB7E3DB040721CE1E62D61839CEB PUSH2 0x31C9 JUMP JUMPDEST PUSH1 0x0 DUP3 DUP2 MSTORE PUSH1 0x20 DUP5 DUP2 MSTORE PUSH1 0x40 DUP1 DUP4 KECCAK256 PUSH20 0xFFFFFFFFFFFFFFFFFFFFFFFFFFFFFFFFFFFFFFFF DUP6 AND DUP5 MSTORE SWAP1 SWAP2 MSTORE SWAP1 KECCAK256 SLOAD PUSH1 0xFF AND PUSH2 0x52E JUMPI PUSH2 0x15B9 DUP3 PUSH2 0x2AC3 JUMP JUMPDEST PUSH1 0x40 MLOAD PUSH1 0x20 ADD PUSH2 0x15C9 SWAP2 SWAP1 PUSH2 0x3414 JUMP JUMPDEST PUSH1 0x40 DUP1 MLOAD PUSH32 0xFFFFFFFFFFFFFFFFFFFFFFFFFFFFFFFFFFFFFFFFFFFFFFFFFFFFFFFFFFFFFFE0 DUP2 DUP5 SUB ADD DUP2 MSTORE SWAP1 DUP3 SWAP1 MSTORE PUSH32 0x8C379A000000000000000000000000000000000000000000000000000000000 DUP3 MSTORE PUSH2 0xC6A SWAP2 PUSH1 0x4 ADD PUSH2 0x2E34 JUMP JUMPDEST PUSH20 0xFFFFFFFFFFFFFFFFFFFFFFFFFFFFFFFFFFFFFFFF DUP3 AND PUSH2 0x16A4 JUMPI PUSH1 0x40 MLOAD PUSH32 0x8C379A000000000000000000000000000000000000000000000000000000000 DUP2 MSTORE PUSH1 0x20 PUSH1 0x4 DUP3 ADD MSTORE PUSH1 0x19 PUSH1 0x24 DUP3 ADD MSTORE PUSH32 0x45524332303A206D696E7420746F206164647265737328302900000000000000 PUSH1 0x44 DUP3 ADD MSTORE PUSH1 0x64 ADD PUSH2 0xC6A JUMP JUMPDEST DUP1 ISZERO PUSH2 0x174D JUMPI PUSH1 0x2 DUP4 ADD SLOAD DUP2 DUP2 ADD DUP2 DUP2 GT PUSH2 0x171B JUMPI PUSH1 0x40 MLOAD PUSH32 0x8C379A000000000000000000000000000000000000000000000000000000000 DUP2 MSTORE PUSH1 0x20 PUSH1 0x4 DUP3 ADD MSTORE PUSH1 0x16 PUSH1 0x24 DUP3 ADD MSTORE PUSH32 0x45524332303A20737570706C79206F766572666C6F7700000000000000000000 PUSH1 0x44 DUP3 ADD MSTORE PUSH1 0x64 ADD PUSH2 0xC6A JUMP JUMPDEST PUSH1 0x2 DUP6 ADD SSTORE POP PUSH20 0xFFFFFFFFFFFFFFFFFFFFFFFFFFFFFFFFFFFFFFFF DUP3 AND PUSH1 0x0 SWAP1 DUP2 MSTORE PUSH1 0x20 DUP5 SWAP1 MSTORE PUSH1 0x40 SWAP1 KECCAK256 DUP1 SLOAD DUP3 ADD SWAP1 SSTORE JUMPDEST PUSH1 0x40 MLOAD DUP2 DUP2 MSTORE PUSH20 0xFFFFFFFFFFFFFFFFFFFFFFFFFFFFFFFFFFFFFFFF DUP4 AND SWAP1 PUSH1 0x0 SWAP1 PUSH32 0xDDF252AD1BE2C89B69C2B068FC378DAA952BA7F163C4A11628F55A4DF523B3EF SWAP1 PUSH1 0x20 ADD JUMPDEST PUSH1 0x40 MLOAD DUP1 SWAP2 SUB SWAP1 LOG3 POP POP POP JUMP JUMPDEST DUP1 ISZERO PUSH2 0x186C JUMPI PUSH20 0xFFFFFFFFFFFFFFFFFFFFFFFFFFFFFFFFFFFFFFFF DUP3 AND PUSH1 0x0 SWAP1 DUP2 MSTORE PUSH1 0x20 DUP5 SWAP1 MSTORE PUSH1 0x40 SWAP1 KECCAK256 SLOAD DUP2 DUP2 SUB DUP2 DUP2 LT PUSH2 0x1839 JUMPI PUSH1 0x40 MLOAD PUSH32 0x8C379A000000000000000000000000000000000000000000000000000000000 DUP2 MSTORE PUSH1 0x20 PUSH1 0x4 DUP3 ADD MSTORE PUSH1 0x1B PUSH1 0x24 DUP3 ADD MSTORE PUSH32 0x45524332303A20696E73756666696369656E742062616C616E63650000000000 PUSH1 0x44 DUP3 ADD MSTORE PUSH1 0x64 ADD PUSH2 0xC6A JUMP JUMPDEST PUSH20 0xFFFFFFFFFFFFFFFFFFFFFFFFFFFFFFFFFFFFFFFF DUP5 AND PUSH1 0x0 SWAP1 DUP2 MSTORE PUSH1 0x20 DUP7 SWAP1 MSTORE PUSH1 0x40 SWAP1 KECCAK256 SSTORE POP PUSH1 0x2 DUP4 ADD DUP1 SLOAD DUP3 SWAP1 SUB SWAP1 SSTORE JUMPDEST PUSH1 0x40 MLOAD DUP2 DUP2 MSTORE PUSH1 0x0 SWAP1 PUSH20 0xFFFFFFFFFFFFFFFFFFFFFFFFFFFFFFFFFFFFFFFF DUP5 AND SWAP1 PUSH32 0xDDF252AD1BE2C89B69C2B068FC378DAA952BA7F163C4A11628F55A4DF523B3EF SWAP1 PUSH1 0x20 ADD PUSH2 0x1794 JUMP JUMPDEST DUP3 DUP2 DUP2 EQ PUSH2 0x1921 JUMPI PUSH1 0x40 MLOAD PUSH32 0x8C379A000000000000000000000000000000000000000000000000000000000 DUP2 MSTORE PUSH1 0x20 PUSH1 0x4 DUP3 ADD MSTORE PUSH1 0x1A PUSH1 0x24 DUP3 ADD MSTORE PUSH32 0x45524332303A20696E636F6E73697374656E7420617272617973000000000000 PUSH1 0x44 DUP3 ADD MSTORE PUSH1 0x64 ADD PUSH2 0xC6A JUMP JUMPDEST DUP1 PUSH1 0x0 SUB PUSH2 0x192F JUMPI POP PUSH2 0x1CF5 JUMP JUMPDEST PUSH20 0xFFFFFFFFFFFFFFFFFFFFFFFFFFFFFFFFFFFFFFFF DUP7 AND PUSH1 0x0 SWAP1 DUP2 MSTORE PUSH1 0x20 DUP10 SWAP1 MSTORE PUSH1 0x40 DUP2 KECCAK256 SLOAD SWAP1 DUP1 DUP1 JUMPDEST DUP5 DUP2 EQ PUSH2 0x1C05 JUMPI PUSH1 0x0 DUP10 DUP10 DUP4 DUP2 DUP2 LT PUSH2 0x1974 JUMPI PUSH2 0x1974 PUSH2 0x33E5 JUMP JUMPDEST SWAP1 POP PUSH1 0x20 MUL ADD PUSH1 0x20 DUP2 ADD SWAP1 PUSH2 0x1989 SWAP2 SWAP1 PUSH2 0x3054 JUMP JUMPDEST SWAP1 POP PUSH20 0xFFFFFFFFFFFFFFFFFFFFFFFFFFFFFFFFFFFFFFFF DUP2 AND PUSH2 0x1A08 JUMPI PUSH1 0x40 MLOAD PUSH32 0x8C379A000000000000000000000000000000000000000000000000000000000 DUP2 MSTORE PUSH1 0x20 PUSH1 0x4 DUP3 ADD MSTORE PUSH1 0x1D PUSH1 0x24 DUP3 ADD MSTORE PUSH32 0x45524332303A207472616E7366657220746F2061646472657373283029000000 PUSH1 0x44 DUP3 ADD MSTORE PUSH1 0x64 ADD PUSH2 0xC6A JUMP JUMPDEST PUSH1 0x0 DUP9 DUP9 DUP5 DUP2 DUP2 LT PUSH2 0x1A1C JUMPI PUSH2 0x1A1C PUSH2 0x33E5 JUMP JUMPDEST SWAP1 POP PUSH1 0x20 MUL ADD CALLDATALOAD SWAP1 POP DUP1 PUSH1 0x0 EQ PUSH2 0x1B94 JUMPI DUP5 DUP2 ADD DUP6 DUP2 GT PUSH2 0x1A99 JUMPI PUSH1 0x40 MLOAD PUSH32 0x8C379A000000000000000000000000000000000000000000000000000000000 DUP2 MSTORE PUSH1 0x20 PUSH1 0x4 DUP3 ADD MSTORE PUSH1 0x16 PUSH1 0x24 DUP3 ADD MSTORE PUSH32 0x45524332303A2076616C756573206F766572666C6F7700000000000000000000 PUSH1 0x44 DUP3 ADD MSTORE PUSH1 0x64 ADD PUSH2 0xC6A JUMP JUMPDEST DUP1 SWAP6 POP DUP3 PUSH20 0xFFFFFFFFFFFFFFFFFFFFFFFFFFFFFFFFFFFFFFFF AND DUP14 PUSH20 0xFFFFFFFFFFFFFFFFFFFFFFFFFFFFFFFFFFFFFFFF AND EQ PUSH2 0x1B23 JUMPI DUP2 DUP16 PUSH1 0x0 ADD PUSH1 0x0 DUP6 PUSH20 0xFFFFFFFFFFFFFFFFFFFFFFFFFFFFFFFFFFFFFFFF AND PUSH20 0xFFFFFFFFFFFFFFFFFFFFFFFFFFFFFFFFFFFFFFFF AND DUP2 MSTORE PUSH1 0x20 ADD SWAP1 DUP2 MSTORE PUSH1 0x20 ADD PUSH1 0x0 KECCAK256 PUSH1 0x0 DUP3 DUP3 SLOAD ADD SWAP3 POP POP DUP2 SWAP1 SSTORE POP PUSH2 0x1B92 JUMP JUMPDEST DUP7 DUP3 GT ISZERO PUSH2 0x1B8D JUMPI PUSH1 0x40 MLOAD PUSH32 0x8C379A000000000000000000000000000000000000000000000000000000000 DUP2 MSTORE PUSH1 0x20 PUSH1 0x4 DUP3 ADD MSTORE PUSH1 0x1B PUSH1 0x24 DUP3 ADD MSTORE PUSH32 0x45524332303A20696E73756666696369656E742062616C616E63650000000000 PUSH1 0x44 DUP3 ADD MSTORE PUSH1 0x64 ADD PUSH2 0xC6A JUMP JUMPDEST SWAP4 DUP2 ADD SWAP4 JUMPDEST POP JUMPDEST DUP2 PUSH20 0xFFFFFFFFFFFFFFFFFFFFFFFFFFFFFFFFFFFFFFFF AND DUP13 PUSH20 0xFFFFFFFFFFFFFFFFFFFFFFFFFFFFFFFFFFFFFFFF AND PUSH32 0xDDF252AD1BE2C89B69C2B068FC378DAA952BA7F163C4A11628F55A4DF523B3EF DUP4 PUSH1 0x40 MLOAD PUSH2 0x1BF3 SWAP2 DUP2 MSTORE PUSH1 0x20 ADD SWAP1 JUMP JUMPDEST PUSH1 0x40 MLOAD DUP1 SWAP2 SUB SWAP1 LOG3 POP POP PUSH1 0x1 ADD PUSH2 0x1959 JUMP JUMPDEST POP DUP2 ISZERO DUP1 ISZERO SWAP1 PUSH2 0x1C15 JUMPI POP DUP1 DUP3 EQ ISZERO JUMPDEST ISZERO PUSH2 0x1CB1 JUMPI DUP2 DUP4 SUB DUP4 DUP2 LT PUSH2 0x1C86 JUMPI PUSH1 0x40 MLOAD PUSH32 0x8C379A000000000000000000000000000000000000000000000000000000000 DUP2 MSTORE PUSH1 0x20 PUSH1 0x4 DUP3 ADD MSTORE PUSH1 0x1B PUSH1 0x24 DUP3 ADD MSTORE PUSH32 0x45524332303A20696E73756666696369656E742062616C616E63650000000000 PUSH1 0x44 DUP3 ADD MSTORE PUSH1 0x64 ADD PUSH2 0xC6A JUMP JUMPDEST PUSH20 0xFFFFFFFFFFFFFFFFFFFFFFFFFFFFFFFFFFFFFFFF DUP11 AND PUSH1 0x0 SWAP1 DUP2 MSTORE PUSH1 0x20 DUP14 SWAP1 MSTORE PUSH1 0x40 SWAP1 KECCAK256 SWAP1 DUP3 ADD SWAP1 SSTORE JUMPDEST DUP10 PUSH20 0xFFFFFFFFFFFFFFFFFFFFFFFFFFFFFFFFFFFFFFFF AND DUP10 PUSH20 0xFFFFFFFFFFFFFFFFFFFFFFFFFFFFFFFFFFFFFFFF AND EQ PUSH2 0x1CF0 JUMPI PUSH2 0x1CF0 DUP12 DUP11 DUP13 DUP6 PUSH2 0x24B5 JUMP JUMPDEST POP POP POP POP JUMPDEST POP POP POP POP POP POP POP JUMP JUMPDEST DUP2 MLOAD DUP2 MLOAD DUP2 EQ PUSH2 0x1D6A JUMPI PUSH1 0x40 MLOAD PUSH32 0x8C379A000000000000000000000000000000000000000000000000000000000 DUP2 MSTORE PUSH1 0x20 PUSH1 0x4 DUP3 ADD MSTORE PUSH1 0x1A PUSH1 0x24 DUP3 ADD MSTORE PUSH32 0x45524332303A20696E636F6E73697374656E7420617272617973000000000000 PUSH1 0x44 DUP3 ADD MSTORE PUSH1 0x64 ADD PUSH2 0xC6A JUMP JUMPDEST DUP1 PUSH1 0x0 SUB PUSH2 0x1D78 JUMPI POP POP POP POP JUMP JUMPDEST PUSH1 0x0 DUP1 JUMPDEST DUP3 DUP2 EQ PUSH2 0x1F4F JUMPI PUSH1 0x0 DUP6 DUP3 DUP2 MLOAD DUP2 LT PUSH2 0x1D97 JUMPI PUSH2 0x1D97 PUSH2 0x33E5 JUMP JUMPDEST PUSH1 0x20 MUL PUSH1 0x20 ADD ADD MLOAD SWAP1 POP PUSH1 0x0 PUSH20 0xFFFFFFFFFFFFFFFFFFFFFFFFFFFFFFFFFFFFFFFF AND DUP2 PUSH20 0xFFFFFFFFFFFFFFFFFFFFFFFFFFFFFFFFFFFFFFFF AND SUB PUSH2 0x1E37 JUMPI PUSH1 0x40 MLOAD PUSH32 0x8C379A000000000000000000000000000000000000000000000000000000000 DUP2 MSTORE PUSH1 0x20 PUSH1 0x4 DUP3 ADD MSTORE PUSH1 0x19 PUSH1 0x24 DUP3 ADD MSTORE PUSH32 0x45524332303A206D696E7420746F206164647265737328302900000000000000 PUSH1 0x44 DUP3 ADD MSTORE PUSH1 0x64 ADD PUSH2 0xC6A JUMP JUMPDEST PUSH1 0x0 DUP6 DUP4 DUP2 MLOAD DUP2 LT PUSH2 0x1E4B JUMPI PUSH2 0x1E4B PUSH2 0x33E5 JUMP JUMPDEST PUSH1 0x20 MUL PUSH1 0x20 ADD ADD MLOAD SWAP1 POP DUP1 PUSH1 0x0 EQ PUSH2 0x1EF7 JUMPI DUP4 DUP2 ADD DUP5 DUP2 GT PUSH2 0x1EC9 JUMPI PUSH1 0x40 MLOAD PUSH32 0x8C379A000000000000000000000000000000000000000000000000000000000 DUP2 MSTORE PUSH1 0x20 PUSH1 0x4 DUP3 ADD MSTORE PUSH1 0x16 PUSH1 0x24 DUP3 ADD MSTORE PUSH32 0x45524332303A2076616C756573206F766572666C6F7700000000000000000000 PUSH1 0x44 DUP3 ADD MSTORE PUSH1 0x64 ADD PUSH2 0xC6A JUMP JUMPDEST PUSH20 0xFFFFFFFFFFFFFFFFFFFFFFFFFFFFFFFFFFFFFFFF DUP4 AND PUSH1 0x0 SWAP1 DUP2 MSTORE PUSH1 0x20 DUP11 SWAP1 MSTORE PUSH1 0x40 SWAP1 KECCAK256 DUP1 SLOAD DUP4 ADD SWAP1 SSTORE SWAP4 POP JUMPDEST PUSH1 0x40 MLOAD DUP2 DUP2 MSTORE PUSH20 0xFFFFFFFFFFFFFFFFFFFFFFFFFFFFFFFFFFFFFFFF DUP4 AND SWAP1 PUSH1 0x0 SWAP1 PUSH32 0xDDF252AD1BE2C89B69C2B068FC378DAA952BA7F163C4A11628F55A4DF523B3EF SWAP1 PUSH1 0x20 ADD PUSH1 0x40 MLOAD DUP1 SWAP2 SUB SWAP1 LOG3 POP POP PUSH1 0x1 ADD PUSH2 0x1D7C JUMP JUMPDEST POP DUP1 ISZERO PUSH2 0x11F3 JUMPI PUSH1 0x2 DUP6 ADD SLOAD DUP2 DUP2 ADD DUP2 DUP2 GT PUSH2 0x1FC7 JUMPI PUSH1 0x40 MLOAD PUSH32 0x8C379A000000000000000000000000000000000000000000000000000000000 DUP2 MSTORE PUSH1 0x20 PUSH1 0x4 DUP3 ADD MSTORE PUSH1 0x16 PUSH1 0x24 DUP3 ADD MSTORE PUSH32 0x45524332303A20737570706C79206F766572666C6F7700000000000000000000 PUSH1 0x44 DUP3 ADD MSTORE PUSH1 0x64 ADD PUSH2 0xC6A JUMP JUMPDEST PUSH1 0x2 DUP8 ADD SSTORE POP POP POP POP POP POP JUMP JUMPDEST DUP3 PUSH20 0xFFFFFFFFFFFFFFFFFFFFFFFFFFFFFFFFFFFFFFFF AND DUP3 PUSH20 0xFFFFFFFFFFFFFFFFFFFFFFFFFFFFFFFFFFFFFFFF AND EQ PUSH2 0x2013 JUMPI PUSH2 0x2013 DUP5 DUP4 DUP6 DUP5 PUSH2 0x24B5 JUMP JUMPDEST PUSH2 0x6A6 DUP5 DUP4 DUP4 PUSH2 0x17A1 JUMP JUMPDEST DUP3 DUP2 DUP2 EQ PUSH2 0x2088 JUMPI PUSH1 0x40 MLOAD PUSH32 0x8C379A000000000000000000000000000000000000000000000000000000000 DUP2 MSTORE PUSH1 0x20 PUSH1 0x4 DUP3 ADD MSTORE PUSH1 0x1A PUSH1 0x24 DUP3 ADD MSTORE PUSH32 0x45524332303A20696E636F6E73697374656E7420617272617973000000000000 PUSH1 0x44 DUP3 ADD MSTORE PUSH1 0x64 ADD PUSH2 0xC6A JUMP JUMPDEST DUP1 PUSH1 0x0 SUB PUSH2 0x2096 JUMPI POP PUSH2 0x11A0 JUMP JUMPDEST PUSH20 0xFFFFFFFFFFFFFFFFFFFFFFFFFFFFFFFFFFFFFFFF DUP7 AND PUSH1 0x0 SWAP1 DUP2 MSTORE PUSH1 0x20 DUP9 SWAP1 MSTORE PUSH1 0x40 DUP2 KECCAK256 SLOAD SWAP1 DUP1 DUP1 JUMPDEST DUP5 DUP2 EQ PUSH2 0x2348 JUMPI PUSH1 0x0 DUP10 DUP10 DUP4 DUP2 DUP2 LT PUSH2 0x20DB JUMPI PUSH2 0x20DB PUSH2 0x33E5 JUMP JUMPDEST SWAP1 POP PUSH1 0x20 MUL ADD PUSH1 0x20 DUP2 ADD SWAP1 PUSH2 0x20F0 SWAP2 SWAP1 PUSH2 0x3054 JUMP JUMPDEST SWAP1 POP PUSH20 0xFFFFFFFFFFFFFFFFFFFFFFFFFFFFFFFFFFFFFFFF DUP2 AND PUSH2 0x216F JUMPI PUSH1 0x40 MLOAD PUSH32 0x8C379A000000000000000000000000000000000000000000000000000000000 DUP2 MSTORE PUSH1 0x20 PUSH1 0x4 DUP3 ADD MSTORE PUSH1 0x1D PUSH1 0x24 DUP3 ADD MSTORE PUSH32 0x45524332303A207472616E7366657220746F2061646472657373283029000000 PUSH1 0x44 DUP3 ADD MSTORE PUSH1 0x64 ADD PUSH2 0xC6A JUMP JUMPDEST PUSH1 0x0 DUP9 DUP9 DUP5 DUP2 DUP2 LT PUSH2 0x2183 JUMPI PUSH2 0x2183 PUSH2 0x33E5 JUMP JUMPDEST SWAP1 POP PUSH1 0x20 MUL ADD CALLDATALOAD SWAP1 POP DUP1 PUSH1 0x0 EQ PUSH2 0x22D7 JUMPI DUP5 DUP2 ADD DUP6 DUP2 GT PUSH2 0x2200 JUMPI PUSH1 0x40 MLOAD PUSH32 0x8C379A000000000000000000000000000000000000000000000000000000000 DUP2 MSTORE PUSH1 0x20 PUSH1 0x4 DUP3 ADD MSTORE PUSH1 0x16 PUSH1 0x24 DUP3 ADD MSTORE PUSH32 0x45524332303A2076616C756573206F766572666C6F7700000000000000000000 PUSH1 0x44 DUP3 ADD MSTORE PUSH1 0x64 ADD PUSH2 0xC6A JUMP JUMPDEST DUP1 SWAP6 POP DUP3 PUSH20 0xFFFFFFFFFFFFFFFFFFFFFFFFFFFFFFFFFFFFFFFF AND DUP14 PUSH20 0xFFFFFFFFFFFFFFFFFFFFFFFFFFFFFFFFFFFFFFFF AND EQ PUSH2 0x2266 JUMPI PUSH20 0xFFFFFFFFFFFFFFFFFFFFFFFFFFFFFFFFFFFFFFFF DUP4 AND PUSH1 0x0 SWAP1 DUP2 MSTORE PUSH1 0x20 DUP16 SWAP1 MSTORE PUSH1 0x40 SWAP1 KECCAK256 DUP1 SLOAD DUP4 ADD SWAP1 SSTORE PUSH2 0x22D5 JUMP JUMPDEST DUP7 DUP3 GT ISZERO PUSH2 0x22D0 JUMPI PUSH1 0x40 MLOAD PUSH32 0x8C379A000000000000000000000000000000000000000000000000000000000 DUP2 MSTORE PUSH1 0x20 PUSH1 0x4 DUP3 ADD MSTORE PUSH1 0x1B PUSH1 0x24 DUP3 ADD MSTORE PUSH32 0x45524332303A20696E73756666696369656E742062616C616E63650000000000 PUSH1 0x44 DUP3 ADD MSTORE PUSH1 0x64 ADD PUSH2 0xC6A JUMP JUMPDEST SWAP4 DUP2 ADD SWAP4 JUMPDEST POP JUMPDEST DUP2 PUSH20 0xFFFFFFFFFFFFFFFFFFFFFFFFFFFFFFFFFFFFFFFF AND DUP13 PUSH20 0xFFFFFFFFFFFFFFFFFFFFFFFFFFFFFFFFFFFFFFFF AND PUSH32 0xDDF252AD1BE2C89B69C2B068FC378DAA952BA7F163C4A11628F55A4DF523B3EF DUP4 PUSH1 0x40 MLOAD PUSH2 0x2336 SWAP2 DUP2 MSTORE PUSH1 0x20 ADD SWAP1 JUMP JUMPDEST PUSH1 0x40 MLOAD DUP1 SWAP2 SUB SWAP1 LOG3 POP POP PUSH1 0x1 ADD PUSH2 0x20C0 JUMP JUMPDEST POP DUP2 ISZERO DUP1 ISZERO SWAP1 PUSH2 0x2358 JUMPI POP DUP1 DUP3 EQ ISZERO JUMPDEST ISZERO PUSH2 0x23F4 JUMPI DUP2 DUP4 SUB DUP4 DUP2 LT PUSH2 0x23C9 JUMPI PUSH1 0x40 MLOAD PUSH32 0x8C379A000000000000000000000000000000000000000000000000000000000 DUP2 MSTORE PUSH1 0x20 PUSH1 0x4 DUP3 ADD MSTORE PUSH1 0x1B PUSH1 0x24 DUP3 ADD MSTORE PUSH32 0x45524332303A20696E73756666696369656E742062616C616E63650000000000 PUSH1 0x44 DUP3 ADD MSTORE PUSH1 0x64 ADD PUSH2 0xC6A JUMP JUMPDEST PUSH20 0xFFFFFFFFFFFFFFFFFFFFFFFFFFFFFFFFFFFFFFFF DUP11 AND PUSH1 0x0 SWAP1 DUP2 MSTORE PUSH1 0x20 DUP13 SWAP1 MSTORE PUSH1 0x40 SWAP1 KECCAK256 SWAP1 DUP3 ADD SWAP1 SSTORE JUMPDEST POP POP POP POP POP POP POP POP POP POP JUMP JUMPDEST PUSH2 0x240B DUP4 DUP3 DUP5 PUSH2 0x157B JUMP JUMPDEST PUSH1 0x0 DUP2 DUP2 MSTORE PUSH1 0x20 DUP5 DUP2 MSTORE PUSH1 0x40 DUP1 DUP4 KECCAK256 PUSH20 0xFFFFFFFFFFFFFFFFFFFFFFFFFFFFFFFFFFFFFFFF DUP7 AND DUP1 DUP6 MSTORE SWAP1 DUP4 MSTORE SWAP3 DUP2 SWAP1 KECCAK256 DUP1 SLOAD PUSH32 0xFFFFFFFFFFFFFFFFFFFFFFFFFFFFFFFFFFFFFFFFFFFFFFFFFFFFFFFFFFFFFF00 AND SWAP1 SSTORE DUP1 MLOAD DUP5 DUP2 MSTORE SWAP2 DUP3 ADD DUP4 SWAP1 MSTORE DUP2 ADD SWAP2 SWAP1 SWAP2 MSTORE PUSH32 0xF6391F5C32D9C69D2A47EA670B442974B53935D1EDC7FD64EB21E047A839171B SWAP1 PUSH1 0x60 ADD PUSH1 0x40 MLOAD DUP1 SWAP2 SUB SWAP1 LOG1 POP POP POP JUMP JUMPDEST PUSH1 0x60 DUP2 PUSH1 0x1 ADD DUP1 SLOAD PUSH2 0xDC2 SWAP1 PUSH2 0x3232 JUMP JUMPDEST PUSH20 0xFFFFFFFFFFFFFFFFFFFFFFFFFFFFFFFFFFFFFFFF DUP3 AND PUSH2 0x2532 JUMPI PUSH1 0x40 MLOAD PUSH32 0x8C379A000000000000000000000000000000000000000000000000000000000 DUP2 MSTORE PUSH1 0x20 PUSH1 0x4 DUP3 ADD MSTORE PUSH1 0x1D PUSH1 0x24 DUP3 ADD MSTORE PUSH32 0x45524332303A20617070726F76616C20746F2061646472657373283029000000 PUSH1 0x44 DUP3 ADD MSTORE PUSH1 0x64 ADD PUSH2 0xC6A JUMP JUMPDEST PUSH20 0xFFFFFFFFFFFFFFFFFFFFFFFFFFFFFFFFFFFFFFFF DUP1 DUP5 AND PUSH1 0x0 SWAP1 DUP2 MSTORE PUSH1 0x1 DUP7 ADD PUSH1 0x20 SWAP1 DUP2 MSTORE PUSH1 0x40 DUP1 DUP4 KECCAK256 SWAP4 DUP7 AND DUP4 MSTORE SWAP3 SWAP1 MSTORE KECCAK256 SLOAD PUSH32 0xFFFFFFFFFFFFFFFFFFFFFFFFFFFFFFFFFFFFFFFFFFFFFFFFFFFFFFFFFFFFFFFF DUP2 EQ DUP1 ISZERO SWAP1 PUSH2 0x2596 JUMPI POP DUP2 ISZERO ISZERO JUMPDEST ISZERO PUSH2 0x14DF JUMPI DUP2 DUP2 SUB DUP2 DUP2 LT PUSH2 0x14A5 JUMPI PUSH1 0x40 MLOAD PUSH32 0x8C379A000000000000000000000000000000000000000000000000000000000 DUP2 MSTORE PUSH1 0x20 PUSH1 0x4 DUP3 ADD MSTORE PUSH1 0x1D PUSH1 0x24 DUP3 ADD MSTORE PUSH32 0x45524332303A20696E73756666696369656E7420616C6C6F77616E6365000000 PUSH1 0x44 DUP3 ADD MSTORE PUSH1 0x64 ADD PUSH2 0xC6A JUMP JUMPDEST PUSH20 0xFFFFFFFFFFFFFFFFFFFFFFFFFFFFFFFFFFFFFFFF DUP3 AND PUSH2 0x2684 JUMPI PUSH1 0x40 MLOAD PUSH32 0x8C379A000000000000000000000000000000000000000000000000000000000 DUP2 MSTORE PUSH1 0x20 PUSH1 0x4 DUP3 ADD MSTORE PUSH1 0x1D PUSH1 0x24 DUP3 ADD MSTORE PUSH32 0x45524332303A207472616E7366657220746F2061646472657373283029000000 PUSH1 0x44 DUP3 ADD MSTORE PUSH1 0x64 ADD PUSH2 0xC6A JUMP JUMPDEST DUP1 ISZERO PUSH2 0x2789 JUMPI PUSH20 0xFFFFFFFFFFFFFFFFFFFFFFFFFFFFFFFFFFFFFFFF DUP4 AND PUSH1 0x0 SWAP1 DUP2 MSTORE PUSH1 0x20 DUP6 SWAP1 MSTORE PUSH1 0x40 SWAP1 KECCAK256 SLOAD DUP2 DUP2 SUB DUP2 DUP2 LT PUSH2 0x271C JUMPI PUSH1 0x40 MLOAD PUSH32 0x8C379A000000000000000000000000000000000000000000000000000000000 DUP2 MSTORE PUSH1 0x20 PUSH1 0x4 DUP3 ADD MSTORE PUSH1 0x1B PUSH1 0x24 DUP3 ADD MSTORE PUSH32 0x45524332303A20696E73756666696369656E742062616C616E63650000000000 PUSH1 0x44 DUP3 ADD MSTORE PUSH1 0x64 ADD PUSH2 0xC6A JUMP JUMPDEST DUP4 PUSH20 0xFFFFFFFFFFFFFFFFFFFFFFFFFFFFFFFFFFFFFFFF AND DUP6 PUSH20 0xFFFFFFFFFFFFFFFFFFFFFFFFFFFFFFFFFFFFFFFF AND EQ PUSH2 0x2786 JUMPI PUSH20 0xFFFFFFFFFFFFFFFFFFFFFFFFFFFFFFFFFFFFFFFF DUP1 DUP7 AND PUSH1 0x0 SWAP1 DUP2 MSTORE PUSH1 0x20 DUP9 SWAP1 MSTORE PUSH1 0x40 DUP1 DUP3 KECCAK256 DUP5 SWAP1 SSTORE SWAP2 DUP7 AND DUP2 MSTORE KECCAK256 DUP1 SLOAD DUP5 ADD SWAP1 SSTORE JUMPDEST POP POP JUMPDEST DUP2 PUSH20 0xFFFFFFFFFFFFFFFFFFFFFFFFFFFFFFFFFFFFFFFF AND DUP4 PUSH20 0xFFFFFFFFFFFFFFFFFFFFFFFFFFFFFFFFFFFFFFFF AND PUSH32 0xDDF252AD1BE2C89B69C2B068FC378DAA952BA7F163C4A11628F55A4DF523B3EF DUP4 PUSH1 0x40 MLOAD PUSH2 0xF56 SWAP2 DUP2 MSTORE PUSH1 0x20 ADD SWAP1 JUMP JUMPDEST PUSH2 0x27F5 DUP8 DUP8 DUP8 DUP8 DUP8 PUSH2 0x11A8 JUMP JUMPDEST PUSH20 0xFFFFFFFFFFFFFFFFFFFFFFFFFFFFFFFFFFFFFFFF DUP5 AND EXTCODESIZE ISZERO PUSH2 0x1CF5 JUMPI PUSH2 0x1CF5 DUP7 DUP7 DUP7 DUP7 DUP7 DUP7 DUP1 DUP1 PUSH1 0x1F ADD PUSH1 0x20 DUP1 SWAP2 DIV MUL PUSH1 0x20 ADD PUSH1 0x40 MLOAD SWAP1 DUP2 ADD PUSH1 0x40 MSTORE DUP1 SWAP4 SWAP3 SWAP2 SWAP1 DUP2 DUP2 MSTORE PUSH1 0x20 ADD DUP4 DUP4 DUP1 DUP3 DUP5 CALLDATACOPY PUSH1 0x0 SWAP3 ADD SWAP2 SWAP1 SWAP2 MSTORE POP PUSH2 0x2C55 SWAP3 POP POP POP JUMP JUMPDEST PUSH1 0x0 DUP4 DUP2 MSTORE PUSH1 0x20 DUP6 DUP2 MSTORE PUSH1 0x40 DUP1 DUP4 KECCAK256 PUSH20 0xFFFFFFFFFFFFFFFFFFFFFFFFFFFFFFFFFFFFFFFF DUP7 AND DUP5 MSTORE SWAP1 SWAP2 MSTORE SWAP1 KECCAK256 SLOAD PUSH1 0xFF AND ISZERO PUSH2 0x6A6 JUMPI PUSH1 0x0 DUP4 DUP2 MSTORE PUSH1 0x20 DUP6 DUP2 MSTORE PUSH1 0x40 DUP1 DUP4 KECCAK256 PUSH20 0xFFFFFFFFFFFFFFFFFFFFFFFFFFFFFFFFFFFFFFFF DUP7 DUP2 AND DUP1 DUP7 MSTORE SWAP2 DUP5 MSTORE SWAP4 DUP3 SWAP1 KECCAK256 DUP1 SLOAD PUSH32 0xFFFFFFFFFFFFFFFFFFFFFFFFFFFFFFFFFFFFFFFFFFFFFFFFFFFFFFFFFFFFFF00 AND SWAP1 SSTORE DUP2 MLOAD DUP8 DUP2 MSTORE SWAP3 DUP4 ADD MSTORE SWAP2 DUP4 AND SWAP2 DUP2 ADD SWAP2 SWAP1 SWAP2 MSTORE PUSH32 0xF6391F5C32D9C69D2A47EA670B442974B53935D1EDC7FD64EB21E047A839171B SWAP1 PUSH1 0x60 ADD PUSH2 0x1373 JUMP JUMPDEST DUP3 PUSH2 0x6A6 DUP3 DUP5 DUP4 PUSH2 0x3480 JUMP JUMPDEST PUSH2 0x2937 DUP7 DUP7 DUP7 DUP7 PUSH2 0x2607 JUMP JUMPDEST PUSH20 0xFFFFFFFFFFFFFFFFFFFFFFFFFFFFFFFFFFFFFFFF DUP5 AND EXTCODESIZE ISZERO PUSH2 0x11A0 JUMPI PUSH2 0x11A0 DUP6 DUP7 DUP7 DUP7 DUP7 DUP7 DUP1 DUP1 PUSH1 0x1F ADD PUSH1 0x20 DUP1 SWAP2 DIV MUL PUSH1 0x20 ADD PUSH1 0x40 MLOAD SWAP1 DUP2 ADD PUSH1 0x40 MSTORE DUP1 SWAP4 SWAP3 SWAP2 SWAP1 DUP2 DUP2 MSTORE PUSH1 0x20 ADD DUP4 DUP4 DUP1 DUP3 DUP5 CALLDATACOPY PUSH1 0x0 SWAP3 ADD SWAP2 SWAP1 SWAP2 MSTORE POP PUSH2 0x2C55 SWAP3 POP POP POP JUMP JUMPDEST DUP3 SLOAD PUSH20 0xFFFFFFFFFFFFFFFFFFFFFFFFFFFFFFFFFFFFFFFF SWAP1 DUP2 AND SWAP1 DUP4 AND DUP2 EQ PUSH2 0x2A1C JUMPI PUSH1 0x40 MLOAD PUSH32 0x8C379A000000000000000000000000000000000000000000000000000000000 DUP2 MSTORE PUSH1 0x20 PUSH1 0x4 DUP3 ADD MSTORE PUSH1 0x18 PUSH1 0x24 DUP3 ADD MSTORE PUSH32 0x4F776E6572736869703A206E6F7420746865206F776E65720000000000000000 PUSH1 0x44 DUP3 ADD MSTORE PUSH1 0x64 ADD PUSH2 0xC6A JUMP JUMPDEST DUP2 PUSH20 0xFFFFFFFFFFFFFFFFFFFFFFFFFFFFFFFFFFFFFFFF AND DUP2 PUSH20 0xFFFFFFFFFFFFFFFFFFFFFFFFFFFFFFFFFFFFFFFF AND EQ PUSH2 0x6A6 JUMPI DUP4 SLOAD PUSH32 0xFFFFFFFFFFFFFFFFFFFFFFFF0000000000000000000000000000000000000000 AND PUSH20 0xFFFFFFFFFFFFFFFFFFFFFFFFFFFFFFFFFFFFFFFF DUP4 DUP2 AND SWAP2 DUP3 OR DUP7 SSTORE PUSH1 0x40 MLOAD SWAP1 DUP4 AND SWAP1 PUSH32 0x8BE0079C531659141344CD1FD0A4F28419497F9722A3DAAFE3B4186F6B6457E0 SWAP1 PUSH1 0x0 SWAP1 LOG3 POP POP POP POP JUMP JUMPDEST PUSH1 0x60 PUSH1 0x0 DUP3 SWAP1 SUB PUSH2 0x2AE2 JUMPI POP POP PUSH1 0x40 DUP1 MLOAD PUSH1 0x20 DUP2 ADD SWAP1 SWAP2 MSTORE PUSH1 0x0 DUP2 MSTORE SWAP1 JUMP JUMPDEST PUSH1 0x0 DUP3 PUSH1 0x40 MLOAD PUSH1 0x20 ADD PUSH2 0x2AF7 SWAP2 DUP2 MSTORE PUSH1 0x20 ADD SWAP1 JUMP JUMPDEST PUSH1 0x40 DUP1 MLOAD PUSH32 0xFFFFFFFFFFFFFFFFFFFFFFFFFFFFFFFFFFFFFFFFFFFFFFFFFFFFFFFFFFFFFFE0 DUP2 DUP5 SUB ADD DUP2 MSTORE SWAP2 SWAP1 MSTORE SWAP1 POP PUSH1 0x1F JUMPDEST DUP2 DUP2 DUP2 MLOAD DUP2 LT PUSH2 0x2B3C JUMPI PUSH2 0x2B3C PUSH2 0x33E5 JUMP JUMPDEST ADD PUSH1 0x20 ADD MLOAD PUSH32 0xFF00000000000000000000000000000000000000000000000000000000000000 AND PUSH1 0x0 SUB PUSH2 0x2B91 JUMPI PUSH32 0xFFFFFFFFFFFFFFFFFFFFFFFFFFFFFFFFFFFFFFFFFFFFFFFFFFFFFFFFFFFFFFFF ADD PUSH2 0x2B2A JUMP JUMPDEST PUSH1 0x0 DUP2 PUSH1 0x1 ADD PUSH8 0xFFFFFFFFFFFFFFFF DUP2 GT ISZERO PUSH2 0x2BAF JUMPI PUSH2 0x2BAF PUSH2 0x3203 JUMP JUMPDEST PUSH1 0x40 MLOAD SWAP1 DUP1 DUP3 MSTORE DUP1 PUSH1 0x1F ADD PUSH1 0x1F NOT AND PUSH1 0x20 ADD DUP3 ADD PUSH1 0x40 MSTORE DUP1 ISZERO PUSH2 0x2BD9 JUMPI PUSH1 0x20 DUP3 ADD DUP2 DUP1 CALLDATASIZE DUP4 CALLDATACOPY ADD SWAP1 POP JUMPDEST POP SWAP1 POP PUSH1 0x0 JUMPDEST DUP3 DUP2 GT PUSH2 0x2C4C JUMPI DUP4 DUP2 DUP2 MLOAD DUP2 LT PUSH2 0x2BF8 JUMPI PUSH2 0x2BF8 PUSH2 0x33E5 JUMP JUMPDEST PUSH1 0x20 ADD ADD MLOAD PUSH1 0xF8 SHR PUSH1 0xF8 SHL DUP3 DUP3 DUP2 MLOAD DUP2 LT PUSH2 0x2C15 JUMPI PUSH2 0x2C15 PUSH2 0x33E5 JUMP JUMPDEST PUSH1 0x20 ADD ADD SWAP1 PUSH31 0xFFFFFFFFFFFFFFFFFFFFFFFFFFFFFFFFFFFFFFFFFFFFFFFFFFFFFFFFFFFFFF NOT AND SWAP1 DUP2 PUSH1 0x0 BYTE SWAP1 MSTORE8 POP PUSH1 0x1 ADD PUSH2 0x2BDF JUMP JUMPDEST POP SWAP5 SWAP4 POP POP POP POP JUMP JUMPDEST PUSH1 0x40 MLOAD PUSH32 0x4FC3585900000000000000000000000000000000000000000000000000000000 DUP1 DUP3 MSTORE SWAP1 PUSH20 0xFFFFFFFFFFFFFFFFFFFFFFFFFFFFFFFFFFFFFFFF DUP6 AND SWAP1 PUSH4 0x4FC35859 SWAP1 PUSH2 0x2CAF SWAP1 DUP10 SWAP1 DUP10 SWAP1 DUP9 SWAP1 DUP9 SWAP1 PUSH1 0x4 ADD PUSH2 0x359A JUMP JUMPDEST PUSH1 0x20 PUSH1 0x40 MLOAD DUP1 DUP4 SUB DUP2 PUSH1 0x0 DUP8 GAS CALL ISZERO DUP1 ISZERO PUSH2 0x2CCE JUMPI RETURNDATASIZE PUSH1 0x0 DUP1 RETURNDATACOPY RETURNDATASIZE PUSH1 0x0 REVERT JUMPDEST POP POP POP POP PUSH1 0x40 MLOAD RETURNDATASIZE PUSH1 0x1F NOT PUSH1 0x1F DUP3 ADD AND DUP3 ADD DUP1 PUSH1 0x40 MSTORE POP DUP2 ADD SWAP1 PUSH2 0x2CF2 SWAP2 SWAP1 PUSH2 0x35E3 JUMP JUMPDEST PUSH32 0xFFFFFFFF00000000000000000000000000000000000000000000000000000000 AND EQ PUSH2 0x11F3 JUMPI PUSH1 0x40 MLOAD PUSH32 0x8C379A000000000000000000000000000000000000000000000000000000000 DUP2 MSTORE PUSH1 0x20 PUSH1 0x4 DUP3 ADD MSTORE PUSH1 0x1D PUSH1 0x24 DUP3 ADD MSTORE PUSH32 0x45524332303A2073616665207472616E736665722072656A6563746564000000 PUSH1 0x44 DUP3 ADD MSTORE PUSH1 0x64 ADD PUSH2 0xC6A JUMP JUMPDEST PUSH32 0xFFFFFFFF00000000000000000000000000000000000000000000000000000000 DUP2 AND DUP2 EQ PUSH2 0x72C JUMPI PUSH1 0x0 DUP1 REVERT JUMPDEST PUSH1 0x0 PUSH1 0x20 DUP3 DUP5 SUB SLT ISZERO PUSH2 0x2DBB JUMPI PUSH1 0x0 DUP1 REVERT JUMPDEST DUP2 CALLDATALOAD PUSH2 0x79A DUP2 PUSH2 0x2D7B JUMP JUMPDEST PUSH1 0x0 JUMPDEST DUP4 DUP2 LT ISZERO PUSH2 0x2DE1 JUMPI DUP2 DUP2 ADD MLOAD DUP4 DUP3 ADD MSTORE PUSH1 0x20 ADD PUSH2 0x2DC9 JUMP JUMPDEST POP POP PUSH1 0x0 SWAP2 ADD MSTORE JUMP JUMPDEST PUSH1 0x0 DUP2 MLOAD DUP1 DUP5 MSTORE PUSH2 0x2E02 DUP2 PUSH1 0x20 DUP7 ADD PUSH1 0x20 DUP7 ADD PUSH2 0x2DC6 JUMP JUMPDEST PUSH1 0x1F ADD PUSH32 0xFFFFFFFFFFFFFFFFFFFFFFFFFFFFFFFFFFFFFFFFFFFFFFFFFFFFFFFFFFFFFFE0 AND SWAP3 SWAP1 SWAP3 ADD PUSH1 0x20 ADD SWAP3 SWAP2 POP POP JUMP JUMPDEST PUSH1 0x20 DUP2 MSTORE PUSH1 0x0 PUSH2 0x79A PUSH1 0x20 DUP4 ADD DUP5 PUSH2 0x2DEA JUMP JUMPDEST DUP1 CALLDATALOAD PUSH20 0xFFFFFFFFFFFFFFFFFFFFFFFFFFFFFFFFFFFFFFFF DUP2 AND DUP2 EQ PUSH2 0x2E6B JUMPI PUSH1 0x0 DUP1 REVERT JUMPDEST SWAP2 SWAP1 POP JUMP JUMPDEST PUSH1 0x0 DUP1 PUSH1 0x40 DUP4 DUP6 SUB SLT ISZERO PUSH2 0x2E83 JUMPI PUSH1 0x0 DUP1 REVERT JUMPDEST PUSH2 0x2E8C DUP4 PUSH2 0x2E47 JUMP JUMPDEST SWAP5 PUSH1 0x20 SWAP4 SWAP1 SWAP4 ADD CALLDATALOAD SWAP4 POP POP POP JUMP JUMPDEST PUSH1 0x0 DUP1 DUP4 PUSH1 0x1F DUP5 ADD SLT PUSH2 0x2EAC JUMPI PUSH1 0x0 DUP1 REVERT JUMPDEST POP DUP2 CALLDATALOAD PUSH8 0xFFFFFFFFFFFFFFFF DUP2 GT ISZERO PUSH2 0x2EC4 JUMPI PUSH1 0x0 DUP1 REVERT JUMPDEST PUSH1 0x20 DUP4 ADD SWAP2 POP DUP4 PUSH1 0x20 DUP3 PUSH1 0x5 SHL DUP6 ADD ADD GT ISZERO PUSH2 0x2EDF JUMPI PUSH1 0x0 DUP1 REVERT JUMPDEST SWAP3 POP SWAP3 SWAP1 POP JUMP JUMPDEST PUSH1 0x0 DUP1 PUSH1 0x0 DUP1 PUSH1 0x40 DUP6 DUP8 SUB SLT ISZERO PUSH2 0x2EFC JUMPI PUSH1 0x0 DUP1 REVERT JUMPDEST DUP5 CALLDATALOAD PUSH8 0xFFFFFFFFFFFFFFFF DUP1 DUP3 GT ISZERO PUSH2 0x2F14 JUMPI PUSH1 0x0 DUP1 REVERT JUMPDEST PUSH2 0x2F20 DUP9 DUP4 DUP10 ADD PUSH2 0x2E9A JUMP JUMPDEST SWAP1 SWAP7 POP SWAP5 POP PUSH1 0x20 DUP8 ADD CALLDATALOAD SWAP2 POP DUP1 DUP3 GT ISZERO PUSH2 0x2F39 JUMPI PUSH1 0x0 DUP1 REVERT JUMPDEST POP PUSH2 0x2F46 DUP8 DUP3 DUP9 ADD PUSH2 0x2E9A JUMP JUMPDEST SWAP6 SWAP9 SWAP5 SWAP8 POP SWAP6 POP POP POP POP JUMP JUMPDEST PUSH1 0x0 DUP1 PUSH1 0x0 PUSH1 0x60 DUP5 DUP7 SUB SLT ISZERO PUSH2 0x2F67 JUMPI PUSH1 0x0 DUP1 REVERT JUMPDEST PUSH2 0x2F70 DUP5 PUSH2 0x2E47 JUMP JUMPDEST SWAP3 POP PUSH2 0x2F7E PUSH1 0x20 DUP6 ADD PUSH2 0x2E47 JUMP JUMPDEST SWAP2 POP PUSH1 0x40 DUP5 ADD CALLDATALOAD SWAP1 POP SWAP3 POP SWAP3 POP SWAP3 JUMP JUMPDEST PUSH1 0x0 DUP1 PUSH1 0x40 DUP4 DUP6 SUB SLT ISZERO PUSH2 0x2FA1 JUMPI PUSH1 0x0 DUP1 REVERT JUMPDEST DUP3 CALLDATALOAD SWAP2 POP PUSH2 0x2FB1 PUSH1 0x20 DUP5 ADD PUSH2 0x2E47 JUMP JUMPDEST SWAP1 POP SWAP3 POP SWAP3 SWAP1 POP JUMP JUMPDEST PUSH1 0x0 PUSH1 0x20 DUP3 DUP5 SUB SLT ISZERO PUSH2 0x2FCC JUMPI PUSH1 0x0 DUP1 REVERT JUMPDEST POP CALLDATALOAD SWAP2 SWAP1 POP JUMP JUMPDEST PUSH1 0x0 DUP1 PUSH1 0x0 DUP1 PUSH1 0x0 PUSH1 0x60 DUP7 DUP9 SUB SLT ISZERO PUSH2 0x2FEB JUMPI PUSH1 0x0 DUP1 REVERT JUMPDEST PUSH2 0x2FF4 DUP7 PUSH2 0x2E47 JUMP JUMPDEST SWAP5 POP PUSH1 0x20 DUP7 ADD CALLDATALOAD PUSH8 0xFFFFFFFFFFFFFFFF DUP1 DUP3 GT ISZERO PUSH2 0x3011 JUMPI PUSH1 0x0 DUP1 REVERT JUMPDEST PUSH2 0x301D DUP10 DUP4 DUP11 ADD PUSH2 0x2E9A JUMP JUMPDEST SWAP1 SWAP7 POP SWAP5 POP PUSH1 0x40 DUP9 ADD CALLDATALOAD SWAP2 POP DUP1 DUP3 GT ISZERO PUSH2 0x3036 JUMPI PUSH1 0x0 DUP1 REVERT JUMPDEST POP PUSH2 0x3043 DUP9 DUP3 DUP10 ADD PUSH2 0x2E9A JUMP JUMPDEST SWAP7 SWAP10 SWAP6 SWAP9 POP SWAP4 SWAP7 POP SWAP3 SWAP5 SWAP4 SWAP3 POP POP POP JUMP JUMPDEST PUSH1 0x0 PUSH1 0x20 DUP3 DUP5 SUB SLT ISZERO PUSH2 0x3066 JUMPI PUSH1 0x0 DUP1 REVERT JUMPDEST PUSH2 0x79A DUP3 PUSH2 0x2E47 JUMP JUMPDEST PUSH1 0x0 DUP1 DUP4 PUSH1 0x1F DUP5 ADD SLT PUSH2 0x3081 JUMPI PUSH1 0x0 DUP1 REVERT JUMPDEST POP DUP2 CALLDATALOAD PUSH8 0xFFFFFFFFFFFFFFFF DUP2 GT ISZERO PUSH2 0x3099 JUMPI PUSH1 0x0 DUP1 REVERT JUMPDEST PUSH1 0x20 DUP4 ADD SWAP2 POP DUP4 PUSH1 0x20 DUP3 DUP6 ADD ADD GT ISZERO PUSH2 0x2EDF JUMPI PUSH1 0x0 DUP1 REVERT JUMPDEST PUSH1 0x0 DUP1 PUSH1 0x0 DUP1 PUSH1 0x0 PUSH1 0x80 DUP7 DUP9 SUB SLT ISZERO PUSH2 0x30C9 JUMPI PUSH1 0x0 DUP1 REVERT JUMPDEST PUSH2 0x30D2 DUP7 PUSH2 0x2E47 JUMP JUMPDEST SWAP5 POP PUSH2 0x30E0 PUSH1 0x20 DUP8 ADD PUSH2 0x2E47 JUMP JUMPDEST SWAP4 POP PUSH1 0x40 DUP7 ADD CALLDATALOAD SWAP3 POP PUSH1 0x60 DUP7 ADD CALLDATALOAD PUSH8 0xFFFFFFFFFFFFFFFF DUP2 GT ISZERO PUSH2 0x3103 JUMPI PUSH1 0x0 DUP1 REVERT JUMPDEST PUSH2 0x3043 DUP9 DUP3 DUP10 ADD PUSH2 0x306F JUMP JUMPDEST PUSH1 0x0 DUP1 PUSH1 0x40 DUP4 DUP6 SUB SLT ISZERO PUSH2 0x3122 JUMPI PUSH1 0x0 DUP1 REVERT JUMPDEST PUSH2 0x312B DUP4 PUSH2 0x2E47 JUMP JUMPDEST SWAP2 POP PUSH2 0x2FB1 PUSH1 0x20 DUP5 ADD PUSH2 0x2E47 JUMP JUMPDEST PUSH1 0x0 DUP1 PUSH1 0x20 DUP4 DUP6 SUB SLT ISZERO PUSH2 0x314C JUMPI PUSH1 0x0 DUP1 REVERT JUMPDEST DUP3 CALLDATALOAD PUSH8 0xFFFFFFFFFFFFFFFF DUP2 GT ISZERO PUSH2 0x3163 JUMPI PUSH1 0x0 DUP1 REVERT JUMPDEST PUSH2 0x316F DUP6 DUP3 DUP7 ADD PUSH2 0x306F JUMP JUMPDEST SWAP1 SWAP7 SWAP1 SWAP6 POP SWAP4 POP POP POP POP JUMP JUMPDEST PUSH1 0x0 DUP1 PUSH1 0x0 DUP1 PUSH1 0x60 DUP6 DUP8 SUB SLT ISZERO PUSH2 0x3191 JUMPI PUSH1 0x0 DUP1 REVERT JUMPDEST PUSH2 0x319A DUP6 PUSH2 0x2E47 JUMP JUMPDEST SWAP4 POP PUSH1 0x20 DUP6 ADD CALLDATALOAD SWAP3 POP PUSH1 0x40 DUP6 ADD CALLDATALOAD PUSH8 0xFFFFFFFFFFFFFFFF DUP2 GT ISZERO PUSH2 0x31BD JUMPI PUSH1 0x0 DUP1 REVERT JUMPDEST PUSH2 0x2F46 DUP8 DUP3 DUP9 ADD PUSH2 0x306F JUMP JUMPDEST DUP2 DUP2 SUB DUP2 DUP2 GT ISZERO PUSH2 0x468 JUMPI PUSH32 0x4E487B7100000000000000000000000000000000000000000000000000000000 PUSH1 0x0 MSTORE PUSH1 0x11 PUSH1 0x4 MSTORE PUSH1 0x24 PUSH1 0x0 REVERT JUMPDEST PUSH32 0x4E487B7100000000000000000000000000000000000000000000000000000000 PUSH1 0x0 MSTORE PUSH1 0x41 PUSH1 0x4 MSTORE PUSH1 0x24 PUSH1 0x0 REVERT JUMPDEST PUSH1 0x1 DUP2 DUP2 SHR SWAP1 DUP3 AND DUP1 PUSH2 0x3246 JUMPI PUSH1 0x7F DUP3 AND SWAP2 POP JUMPDEST PUSH1 0x20 DUP3 LT DUP2 SUB PUSH2 0x327F JUMPI PUSH32 0x4E487B7100000000000000000000000000000000000000000000000000000000 PUSH1 0x0 MSTORE PUSH1 0x22 PUSH1 0x4 MSTORE PUSH1 0x24 PUSH1 0x0 REVERT JUMPDEST POP SWAP2 SWAP1 POP JUMP JUMPDEST PUSH1 0x1F DUP3 GT ISZERO PUSH2 0x52E JUMPI PUSH1 0x0 DUP2 DUP2 MSTORE PUSH1 0x20 DUP2 KECCAK256 PUSH1 0x1F DUP6 ADD PUSH1 0x5 SHR DUP2 ADD PUSH1 0x20 DUP7 LT ISZERO PUSH2 0x32AC JUMPI POP DUP1 JUMPDEST PUSH1 0x1F DUP6 ADD PUSH1 0x5 SHR DUP3 ADD SWAP2 POP JUMPDEST DUP2 DUP2 LT ISZERO PUSH2 0x11A0 JUMPI DUP3 DUP2 SSTORE PUSH1 0x1 ADD PUSH2 0x32B8 JUMP JUMPDEST DUP2 MLOAD PUSH8 0xFFFFFFFFFFFFFFFF DUP2 GT ISZERO PUSH2 0x32E5 JUMPI PUSH2 0x32E5 PUSH2 0x3203 JUMP JUMPDEST PUSH2 0x32F9 DUP2 PUSH2 0x32F3 DUP5 SLOAD PUSH2 0x3232 JUMP JUMPDEST DUP5 PUSH2 0x3285 JUMP JUMPDEST PUSH1 0x20 DUP1 PUSH1 0x1F DUP4 GT PUSH1 0x1 DUP2 EQ PUSH2 0x334C JUMPI PUSH1 0x0 DUP5 ISZERO PUSH2 0x3316 JUMPI POP DUP6 DUP4 ADD MLOAD JUMPDEST PUSH32 0xFFFFFFFFFFFFFFFFFFFFFFFFFFFFFFFFFFFFFFFFFFFFFFFFFFFFFFFFFFFFFFFF PUSH1 0x3 DUP7 SWAP1 SHL SHR NOT AND PUSH1 0x1 DUP6 SWAP1 SHL OR DUP6 SSTORE PUSH2 0x11A0 JUMP JUMPDEST PUSH1 0x0 DUP6 DUP2 MSTORE PUSH1 0x20 DUP2 KECCAK256 PUSH32 0xFFFFFFFFFFFFFFFFFFFFFFFFFFFFFFFFFFFFFFFFFFFFFFFFFFFFFFFFFFFFFFE0 DUP7 AND SWAP2 JUMPDEST DUP3 DUP2 LT ISZERO PUSH2 0x3399 JUMPI DUP9 DUP7 ADD MLOAD DUP3 SSTORE SWAP5 DUP5 ADD SWAP5 PUSH1 0x1 SWAP1 SWAP2 ADD SWAP1 DUP5 ADD PUSH2 0x337A JUMP JUMPDEST POP DUP6 DUP3 LT ISZERO PUSH2 0x33D5 JUMPI DUP8 DUP6 ADD MLOAD PUSH32 0xFFFFFFFFFFFFFFFFFFFFFFFFFFFFFFFFFFFFFFFFFFFFFFFFFFFFFFFFFFFFFFFF PUSH1 0x3 DUP9 SWAP1 SHL PUSH1 0xF8 AND SHR NOT AND DUP2 SSTORE JUMPDEST POP POP POP POP POP PUSH1 0x1 SWAP1 DUP2 SHL ADD SWAP1 SSTORE POP JUMP JUMPDEST PUSH32 0x4E487B7100000000000000000000000000000000000000000000000000000000 PUSH1 0x0 MSTORE PUSH1 0x32 PUSH1 0x4 MSTORE PUSH1 0x24 PUSH1 0x0 REVERT JUMPDEST PUSH32 0x416363657373436F6E74726F6C3A206D697373696E6720270000000000000000 DUP2 MSTORE PUSH1 0x0 DUP3 MLOAD PUSH2 0x344C DUP2 PUSH1 0x18 DUP6 ADD PUSH1 0x20 DUP8 ADD PUSH2 0x2DC6 JUMP JUMPDEST PUSH32 0x2720726F6C650000000000000000000000000000000000000000000000000000 PUSH1 0x18 SWAP4 SWAP1 SWAP2 ADD SWAP3 DUP4 ADD MSTORE POP PUSH1 0x1E ADD SWAP2 SWAP1 POP JUMP JUMPDEST PUSH8 0xFFFFFFFFFFFFFFFF DUP4 GT ISZERO PUSH2 0x3498 JUMPI PUSH2 0x3498 PUSH2 0x3203 JUMP JUMPDEST PUSH2 0x34AC DUP4 PUSH2 0x34A6 DUP4 SLOAD PUSH2 0x3232 JUMP JUMPDEST DUP4 PUSH2 0x3285 JUMP JUMPDEST PUSH1 0x0 PUSH1 0x1F DUP5 GT PUSH1 0x1 DUP2 EQ PUSH2 0x34FE JUMPI PUSH1 0x0 DUP6 ISZERO PUSH2 0x34C8 JUMPI POP DUP4 DUP3 ADD CALLDATALOAD JUMPDEST PUSH32 0xFFFFFFFFFFFFFFFFFFFFFFFFFFFFFFFFFFFFFFFFFFFFFFFFFFFFFFFFFFFFFFFF PUSH1 0x3 DUP8 SWAP1 SHL SHR NOT AND PUSH1 0x1 DUP7 SWAP1 SHL OR DUP4 SSTORE PUSH2 0x11F3 JUMP JUMPDEST PUSH1 0x0 DUP4 DUP2 MSTORE PUSH1 0x20 SWAP1 KECCAK256 PUSH32 0xFFFFFFFFFFFFFFFFFFFFFFFFFFFFFFFFFFFFFFFFFFFFFFFFFFFFFFFFFFFFFFE0 DUP7 AND SWAP1 DUP4 JUMPDEST DUP3 DUP2 LT ISZERO PUSH2 0x354D JUMPI DUP7 DUP6 ADD CALLDATALOAD DUP3 SSTORE PUSH1 0x20 SWAP5 DUP6 ADD SWAP5 PUSH1 0x1 SWAP1 SWAP3 ADD SWAP2 ADD PUSH2 0x352D JUMP JUMPDEST POP DUP7 DUP3 LT ISZERO PUSH2 0x3588 JUMPI PUSH32 0xFFFFFFFFFFFFFFFFFFFFFFFFFFFFFFFFFFFFFFFFFFFFFFFFFFFFFFFFFFFFFFFF PUSH1 0xF8 DUP9 PUSH1 0x3 SHL AND SHR NOT DUP5 DUP8 ADD CALLDATALOAD AND DUP2 SSTORE JUMPDEST POP POP PUSH1 0x1 DUP6 PUSH1 0x1 SHL ADD DUP4 SSTORE POP POP POP POP POP JUMP JUMPDEST PUSH1 0x0 PUSH20 0xFFFFFFFFFFFFFFFFFFFFFFFFFFFFFFFFFFFFFFFF DUP1 DUP8 AND DUP4 MSTORE DUP1 DUP7 AND PUSH1 0x20 DUP5 ADD MSTORE POP DUP4 PUSH1 0x40 DUP4 ADD MSTORE PUSH1 0x80 PUSH1 0x60 DUP4 ADD MSTORE PUSH2 0x35D9 PUSH1 0x80 DUP4 ADD DUP5 PUSH2 0x2DEA JUMP JUMPDEST SWAP7 SWAP6 POP POP POP POP POP POP JUMP JUMPDEST PUSH1 0x0 PUSH1 0x20 DUP3 DUP5 SUB SLT ISZERO PUSH2 0x35F5 JUMPI PUSH1 0x0 DUP1 REVERT JUMPDEST DUP2 MLOAD PUSH2 0x79A DUP2 PUSH2 0x2D7B JUMP INVALID LOG2 PUSH5 0x6970667358 0x22 SLT KECCAK256 ORIGIN REVERT 0x24 DIFFICULTY DUP1 0xBE 0xDE DUP9 PUSH26 0x586EF97532B79294339635D847FE9C2FA841525FE2B4E264736F PUSH13 0x63430008110033000000000000 "},"gasEstimates":{"creation":{"codeDepositCost":"2775600","executionCost":"infinite","totalCost":"infinite"},"external":{"MINTER_ROLE()":"284","allowance(address,address)":"infinite","approve(address,uint256)":"infinite","balanceOf(address)":"infinite","batchBurnFrom(address[],uint256[])":"infinite","batchMint(address[],uint256[])":"infinite","batchTransfer(address[],uint256[])":"infinite","batchTransferFrom(address,address[],uint256[])":"infinite","burn(uint256)":"infinite","burnFrom(address,uint256)":"infinite","decimals()":"infinite","decreaseAllowance(address,uint256)":"infinite","grantRole(bytes32,address)":"infinite","hasRole(bytes32,address)":"infinite","increaseAllowance(address,uint256)":"infinite","mint(address,uint256)":"infinite","name()":"infinite","owner()":"infinite","renounceRole(bytes32)":"infinite","revokeRole(bytes32,address)":"infinite","safeTransfer(address,uint256,bytes)":"infinite","safeTransferFrom(address,address,uint256,bytes)":"infinite","setTokenURI(string)":"infinite","supportsInterface(bytes4)":"infinite","symbol()":"infinite","tokenURI()":"infinite","totalSupply()":"infinite","transfer(address,uint256)":"infinite","transferFrom(address,address,uint256)":"infinite","transferOwnership(address)":"infinite"}},"methodIdentifiers":{"MINTER_ROLE()":"d5391393","allowance(address,address)":"dd62ed3e","approve(address,uint256)":"095ea7b3","balanceOf(address)":"70a08231","batchBurnFrom(address[],uint256[])":"1b9a7529","batchMint(address[],uint256[])":"68573107","batchTransfer(address[],uint256[])":"88d695b2","batchTransferFrom(address,address[],uint256[])":"4885b254","burn(uint256)":"42966c68","burnFrom(address,uint256)":"79cc6790","decimals()":"313ce567","decreaseAllowance(address,uint256)":"a457c2d7","grantRole(bytes32,address)":"2f2ff15d","hasRole(bytes32,address)":"91d14854","increaseAllowance(address,uint256)":"39509351","mint(address,uint256)":"40c10f19","name()":"06fdde03","owner()":"8da5cb5b","renounceRole(bytes32)":"8bb9c5bf","revokeRole(bytes32,address)":"d547741f","safeTransfer(address,uint256,bytes)":"eb795549","safeTransferFrom(address,address,uint256,bytes)":"b88d4fde","setTokenURI(string)":"e0df5b6f","supportsInterface(bytes4)":"01ffc9a7","symbol()":"95d89b41","tokenURI()":"3c130d90","totalSupply()":"18160ddd","transfer(address,uint256)":"a9059cbb","transferFrom(address,address,uint256)":"23b872dd","transferOwnership(address)":"f2fde38b"}},"storageLayout":{"storage":[],"types":null},"userdoc":{"events":{"Approval(address,address,uint256)":{"notice":"Emitted when an approval is set."},"OwnershipTransferred(address,address)":{"notice":"Emitted when the contract ownership changes."},"RoleGranted(bytes32,address,address)":{"notice":"Emitted when a role is granted."},"RoleRevoked(bytes32,address,address)":{"notice":"Emitted when a role is revoked or renounced."},"Transfer(address,address,uint256)":{"notice":"Emitted when tokens are transferred, including zero value transfers."}},"kind":"user","methods":{"allowance(address,address)":{"notice":"Gets the amount that an account is allowed to spend on behalf of another."},"approve(address,uint256)":{"notice":"Sets the allowance to an account from the sender.Warning: Beware that changing an allowance with this method brings the risk that someone may use both the old and  the new allowance by unfortunate transaction ordering. One possible solution to mitigate this race condition is to first reduce  the spender's allowance to 0 and set the desired value afterwards: https://github.com/ethereum/EIPs/issues/20#issuecomment-263524729"},"balanceOf(address)":{"notice":"Gets an account balance."},"batchBurnFrom(address[],uint256[])":{"notice":"Burns multiple amounts of tokens from multiple owners, decreasing the total supply."},"batchMint(address[],uint256[])":{"notice":"Mints multiple amounts of tokens to multiple recipients, increasing the total supply."},"batchTransfer(address[],uint256[])":{"notice":"Transfers multiple amounts of tokens to multiple recipients from the sender."},"batchTransferFrom(address,address[],uint256[])":{"notice":"Transfers multiple amounts of tokens to multiple recipients from a specified address."},"burn(uint256)":{"notice":"Burns an amount of tokens from the sender, decreasing the total supply."},"burnFrom(address,uint256)":{"notice":"Burns an amount of tokens from a specified address, decreasing the total supply."},"decimals()":{"notice":"Gets the number of decimals used to display the balances.For example, if `decimals` equals `2`, a balance of `505` tokens should be displayed to a user as `5,05` (`505 / 10 ** 2`).Tokens usually opt for a value of 18, imitating the relationship between Ether and Wei."},"decreaseAllowance(address,uint256)":{"notice":"Decreases the allowance granted to an account by the sender.This is an alternative to {approve} that can be used as a mitigation for transaction ordering problems."},"grantRole(bytes32,address)":{"notice":"Grants a role to an account."},"hasRole(bytes32,address)":{"notice":"Retrieves whether an account has a role."},"increaseAllowance(address,uint256)":{"notice":"Increases the allowance granted to an account by the sender.This is an alternative to {approve} that can be used as a mitigation for transaction ordering problems."},"mint(address,uint256)":{"notice":"Mints an amount of tokens to a recipient, increasing the total supply."},"name()":{"notice":"Gets the name of the token. E.g. \"My Token\"."},"owner()":{"notice":"Gets the address of the contract owner."},"renounceRole(bytes32)":{"notice":"Renounces a role by the sender."},"revokeRole(bytes32,address)":{"notice":"Revokes a role from an account."},"safeTransfer(address,uint256,bytes)":{"notice":"Transfers an amount of tokens to a recipient from the sender. If the recipient is a contract, calls `onERC20Received` on it."},"safeTransferFrom(address,address,uint256,bytes)":{"notice":"Transfers an amount of tokens to a recipient from a specified address. If the recipient is a contract, calls `onERC20Received` on it."},"setTokenURI(string)":{"notice":"Sets the token URI."},"supportsInterface(bytes4)":{"notice":"Returns whether this contract implements a given interface."},"symbol()":{"notice":"Gets the symbol of the token. E.g. \"TOK\"."},"tokenURI()":{"notice":"Gets the token metadata URI."},"totalSupply()":{"notice":"Gets the total token supply."},"transfer(address,uint256)":{"notice":"Transfers an amount of tokens to a recipient from the sender."},"transferFrom(address,address,uint256)":{"notice":"Transfers an amount of tokens to a recipient from a specified address."},"transferOwnership(address)":{"notice":"Sets the address of the new contract owner."}},"version":1}}}}