{"contracts/token/erc20/PRIMATEv2.sol":{"PRIMATEv2":{"abi":[{"inputs":[{"internalType":"string","name":"tokenName","type":"string"},{"internalType":"string","name":"tokenSymbol","type":"string"},{"internalType":"uint8","name":"tokenDecimals","type":"uint8"},{"internalType":"contract IForwarderRegistry","name":"forwarderRegistry","type":"address"}],"stateMutability":"nonpayable","type":"constructor"},{"anonymous":false,"inputs":[{"indexed":true,"internalType":"address","name":"owner","type":"address"},{"indexed":true,"internalType":"address","name":"spender","type":"address"},{"indexed":false,"internalType":"uint256","name":"value","type":"uint256"}],"name":"Approval","type":"event"},{"anonymous":false,"inputs":[{"indexed":true,"internalType":"address","name":"previousOwner","type":"address"},{"indexed":true,"internalType":"address","name":"newOwner","type":"address"}],"name":"OwnershipTransferred","type":"event"},{"anonymous":false,"inputs":[{"indexed":false,"internalType":"bytes32","name":"role","type":"bytes32"},{"indexed":false,"internalType":"address","name":"account","type":"address"},{"indexed":false,"internalType":"address","name":"operator","type":"address"}],"name":"RoleGranted","type":"event"},{"anonymous":false,"inputs":[{"indexed":false,"internalType":"bytes32","name":"role","type":"bytes32"},{"indexed":false,"internalType":"address","name":"account","type":"address"},{"indexed":false,"internalType":"address","name":"operator","type":"address"}],"name":"RoleRevoked","type":"event"},{"anonymous":false,"inputs":[{"indexed":true,"internalType":"address","name":"from","type":"address"},{"indexed":true,"internalType":"address","name":"to","type":"address"},{"indexed":false,"internalType":"uint256","name":"value","type":"uint256"}],"name":"Transfer","type":"event"},{"inputs":[],"name":"DOMAIN_SEPARATOR","outputs":[{"internalType":"bytes32","name":"","type":"bytes32"}],"stateMutability":"view","type":"function"},{"inputs":[],"name":"MINTER_ROLE","outputs":[{"internalType":"bytes32","name":"","type":"bytes32"}],"stateMutability":"view","type":"function"},{"inputs":[{"internalType":"address","name":"owner","type":"address"},{"internalType":"address","name":"spender","type":"address"}],"name":"allowance","outputs":[{"internalType":"uint256","name":"value","type":"uint256"}],"stateMutability":"view","type":"function"},{"inputs":[{"internalType":"address","name":"spender","type":"address"},{"internalType":"uint256","name":"value","type":"uint256"}],"name":"approve","outputs":[{"internalType":"bool","name":"result","type":"bool"}],"stateMutability":"nonpayable","type":"function"},{"inputs":[{"internalType":"address","name":"owner","type":"address"}],"name":"balanceOf","outputs":[{"internalType":"uint256","name":"balance","type":"uint256"}],"stateMutability":"view","type":"function"},{"inputs":[{"internalType":"address[]","name":"owners","type":"address[]"},{"internalType":"uint256[]","name":"values","type":"uint256[]"}],"name":"batchBurnFrom","outputs":[{"internalType":"bool","name":"","type":"bool"}],"stateMutability":"nonpayable","type":"function"},{"inputs":[{"internalType":"address[]","name":"recipients","type":"address[]"},{"internalType":"uint256[]","name":"values","type":"uint256[]"}],"name":"batchMint","outputs":[],"stateMutability":"nonpayable","type":"function"},{"inputs":[{"internalType":"address[]","name":"recipients","type":"address[]"},{"internalType":"uint256[]","name":"values","type":"uint256[]"}],"name":"batchTransfer","outputs":[{"internalType":"bool","name":"","type":"bool"}],"stateMutability":"nonpayable","type":"function"},{"inputs":[{"internalType":"address","name":"from","type":"address"},{"internalType":"address[]","name":"recipients","type":"address[]"},{"internalType":"uint256[]","name":"values","type":"uint256[]"}],"name":"batchTransferFrom","outputs":[{"internalType":"bool","name":"","type":"bool"}],"stateMutability":"nonpayable","type":"function"},{"inputs":[{"internalType":"uint256","name":"value","type":"uint256"}],"name":"burn","outputs":[{"internalType":"bool","name":"","type":"bool"}],"stateMutability":"nonpayable","type":"function"},{"inputs":[{"internalType":"address","name":"from","type":"address"},{"internalType":"uint256","name":"value","type":"uint256"}],"name":"burnFrom","outputs":[{"internalType":"bool","name":"","type":"bool"}],"stateMutability":"nonpayable","type":"function"},{"inputs":[],"name":"decimals","outputs":[{"internalType":"uint8","name":"","type":"uint8"}],"stateMutability":"view","type":"function"},{"inputs":[{"internalType":"address","name":"spender","type":"address"},{"internalType":"uint256","name":"subtractedValue","type":"uint256"}],"name":"decreaseAllowance","outputs":[{"internalType":"bool","name":"result","type":"bool"}],"stateMutability":"nonpayable","type":"function"},{"inputs":[],"name":"forwarderRegistry","outputs":[{"internalType":"contract IForwarderRegistry","name":"","type":"address"}],"stateMutability":"view","type":"function"},{"inputs":[{"internalType":"bytes32","name":"role","type":"bytes32"},{"internalType":"address","name":"account","type":"address"}],"name":"grantRole","outputs":[],"stateMutability":"nonpayable","type":"function"},{"inputs":[{"internalType":"bytes32","name":"role","type":"bytes32"},{"internalType":"address","name":"account","type":"address"}],"name":"hasRole","outputs":[{"internalType":"bool","name":"","type":"bool"}],"stateMutability":"view","type":"function"},{"inputs":[{"internalType":"address","name":"spender","type":"address"},{"internalType":"uint256","name":"addedValue","type":"uint256"}],"name":"increaseAllowance","outputs":[{"internalType":"bool","name":"result","type":"bool"}],"stateMutability":"nonpayable","type":"function"},{"inputs":[{"internalType":"address","name":"forwarder","type":"address"}],"name":"isTrustedForwarder","outputs":[{"internalType":"bool","name":"","type":"bool"}],"stateMutability":"view","type":"function"},{"inputs":[{"internalType":"address","name":"to","type":"address"},{"internalType":"uint256","name":"value","type":"uint256"}],"name":"mint","outputs":[],"stateMutability":"nonpayable","type":"function"},{"inputs":[],"name":"name","outputs":[{"internalType":"string","name":"","type":"string"}],"stateMutability":"view","type":"function"},{"inputs":[{"internalType":"address","name":"owner","type":"address"}],"name":"nonces","outputs":[{"internalType":"uint256","name":"","type":"uint256"}],"stateMutability":"view","type":"function"},{"inputs":[],"name":"owner","outputs":[{"internalType":"address","name":"","type":"address"}],"stateMutability":"view","type":"function"},{"inputs":[{"internalType":"address","name":"owner","type":"address"},{"internalType":"address","name":"spender","type":"address"},{"internalType":"uint256","name":"value","type":"uint256"},{"internalType":"uint256","name":"deadline","type":"uint256"},{"internalType":"uint8","name":"v","type":"uint8"},{"internalType":"bytes32","name":"r","type":"bytes32"},{"internalType":"bytes32","name":"s","type":"bytes32"}],"name":"permit","outputs":[],"stateMutability":"nonpayable","type":"function"},{"inputs":[{"internalType":"address[]","name":"accounts","type":"address[]"},{"internalType":"contract IERC20[]","name":"tokens","type":"address[]"},{"internalType":"uint256[]","name":"amounts","type":"uint256[]"}],"name":"recoverERC20s","outputs":[],"stateMutability":"nonpayable","type":"function"},{"inputs":[{"internalType":"address[]","name":"accounts","type":"address[]"},{"internalType":"contract IERC721[]","name":"contracts","type":"address[]"},{"internalType":"uint256[]","name":"tokenIds","type":"uint256[]"}],"name":"recoverERC721s","outputs":[],"stateMutability":"nonpayable","type":"function"},{"inputs":[{"internalType":"address payable[]","name":"accounts","type":"address[]"},{"internalType":"uint256[]","name":"amounts","type":"uint256[]"}],"name":"recoverETH","outputs":[],"stateMutability":"nonpayable","type":"function"},{"inputs":[{"internalType":"bytes32","name":"role","type":"bytes32"}],"name":"renounceRole","outputs":[],"stateMutability":"nonpayable","type":"function"},{"inputs":[{"internalType":"bytes32","name":"role","type":"bytes32"},{"internalType":"address","name":"account","type":"address"}],"name":"revokeRole","outputs":[],"stateMutability":"nonpayable","type":"function"},{"inputs":[{"internalType":"address","name":"to","type":"address"},{"internalType":"uint256","name":"value","type":"uint256"},{"internalType":"bytes","name":"data","type":"bytes"}],"name":"safeTransfer","outputs":[{"internalType":"bool","name":"","type":"bool"}],"stateMutability":"nonpayable","type":"function"},{"inputs":[{"internalType":"address","name":"from","type":"address"},{"internalType":"address","name":"to","type":"address"},{"internalType":"uint256","name":"value","type":"uint256"},{"internalType":"bytes","name":"data","type":"bytes"}],"name":"safeTransferFrom","outputs":[{"internalType":"bool","name":"","type":"bool"}],"stateMutability":"nonpayable","type":"function"},{"inputs":[{"internalType":"string","name":"uri","type":"string"}],"name":"setTokenURI","outputs":[],"stateMutability":"nonpayable","type":"function"},{"inputs":[{"internalType":"bytes4","name":"interfaceId","type":"bytes4"}],"name":"supportsInterface","outputs":[{"internalType":"bool","name":"","type":"bool"}],"stateMutability":"view","type":"function"},{"inputs":[],"name":"symbol","outputs":[{"internalType":"string","name":"","type":"string"}],"stateMutability":"view","type":"function"},{"inputs":[],"name":"tokenURI","outputs":[{"internalType":"string","name":"","type":"string"}],"stateMutability":"view","type":"function"},{"inputs":[],"name":"totalSupply","outputs":[{"internalType":"uint256","name":"supply","type":"uint256"}],"stateMutability":"view","type":"function"},{"inputs":[{"internalType":"address","name":"to","type":"address"},{"internalType":"uint256","name":"value","type":"uint256"}],"name":"transfer","outputs":[{"internalType":"bool","name":"result","type":"bool"}],"stateMutability":"nonpayable","type":"function"},{"inputs":[{"internalType":"address","name":"from","type":"address"},{"internalType":"address","name":"to","type":"address"},{"internalType":"uint256","name":"value","type":"uint256"}],"name":"transferFrom","outputs":[{"internalType":"bool","name":"result","type":"bool"}],"stateMutability":"nonpayable","type":"function"},{"inputs":[{"internalType":"address","name":"newOwner","type":"address"}],"name":"transferOwnership","outputs":[],"stateMutability":"nonpayable","type":"function"}],"devdoc":{"kind":"dev","methods":{"DOMAIN_SEPARATOR()":{"details":"A common ERC-20 permit implementation choice for the `DOMAIN_SEPARATOR` is:  keccak256(      abi.encode(          keccak256(\"EIP712Domain(string name,string version,uint256 chainId,address verifyingContract)\"),          keccak256(bytes(name)),          keccak256(bytes(version)),          chainId,          address(this)))  where   - `name` (string) is the ERC-20 token name.   - `version` (string) refers to the ERC-20 token contract version.   - `chainId` (uint256) is the chain ID to which the ERC-20 token contract is deployed to.   - `verifyingContract` (address) is the ERC-20 token contract address.","returns":{"_0":"The EIP-712 encoded hash struct of the domain-specific information for permits."}},"allowance(address,address)":{"params":{"owner":"The account that has granted an allowance to `spender`.","spender":"The account that was granted an allowance by `owner`."},"returns":{"value":"The amount which `spender` is allowed to spend on behalf of `owner`."}},"approve(address,uint256)":{"details":"Reverts if `spender` is the zero address.Emits an {Approval} event.","params":{"spender":"The account being granted the allowance by the message caller.","value":"The allowance amount to grant."},"returns":{"result":"Whether the operation succeeded."}},"balanceOf(address)":{"params":{"owner":"The account whose balance will be returned."},"returns":{"balance":"The account balance."}},"batchBurnFrom(address[],uint256[])":{"details":"Reverts if `owners` and `values` have different lengths.Reverts if an `owner` does not have at least the corresponding `value` of balance.Reverts if the sender is not an `owner` and does not have at least the corresponding `value` of allowance by this `owner`.Emits an {IERC20-Transfer} event for each transfer with `to` set to the zero address.Optionally emits an {Approval} event for each transfer if the sender is not this `owner` (non-standard).","params":{"owners":"The list of accounts to burn the tokens from.","values":"The list of amounts of tokens to burn."},"returns":{"_0":"Whether the operation succeeded."}},"batchMint(address[],uint256[])":{"details":"Reverts if the sender does not have the 'minter' role.","params":{"recipients":"The list of accounts to mint the tokens to.","values":"The list of amounts of tokens to mint to each of `recipients`."}},"batchTransfer(address[],uint256[])":{"details":"Reverts if `recipients` and `values` have different lengths.Reverts if one of `recipients` is the zero address.Reverts if the sender does not have at least `sum(values)` of balance.Emits an {IERC20-Transfer} event for each transfer.","params":{"recipients":"The list of accounts to transfer the tokens to.","values":"The list of amounts of tokens to transfer to each of `recipients`."},"returns":{"_0":"Whether the operation succeeded."}},"batchTransferFrom(address,address[],uint256[])":{"details":"Reverts if `recipients` and `values` have different lengths.Reverts if one of `recipients` is the zero address.Reverts if `from` does not have at least `sum(values)` of balance.Reverts if the sender is not `from` and does not have at least `sum(values)` of allowance by `from`.Emits an {IERC20-Transfer} event for each transfer.Optionally emits an {IERC20-Approval} event if the sender is not `from` (non-standard).","params":{"from":"The account which owns the tokens to be transferred.","recipients":"The list of accounts to transfer the tokens to.","values":"The list of amounts of tokens to transfer to each of `recipients`."},"returns":{"_0":"Whether the operation succeeded."}},"burn(uint256)":{"details":"Reverts if the sender does not have at least `value` of balance.Emits an {IERC20-Transfer} event with `to` set to the zero address.","params":{"value":"The amount of tokens to burn."},"returns":{"_0":"Whether the operation succeeded."}},"burnFrom(address,uint256)":{"details":"Reverts if `from` does not have at least `value` of balance.Reverts if the sender is not `from` and does not have at least `value` of allowance by `from`.Emits an {IERC20-Transfer} event with `to` set to the zero address.Optionally emits an {Approval} event if the sender is not `from` (non-standard).","params":{"from":"The account to burn the tokens from.","value":"The amount of tokens to burn."},"returns":{"_0":"Whether the operation succeeded."}},"decimals()":{"details":"Note: This information is only used for display purposes: it does  not impact the arithmetic of the contract.","returns":{"_0":"The number of decimals used to display the balances."}},"decreaseAllowance(address,uint256)":{"details":"Reverts if `spender` is the zero address.Reverts if `spender` does not have at least `value` of allowance by the sender.Emits an {IERC20-Approval} event with an updated allowance for `spender` by the sender.","params":{"spender":"The account whose allowance is being decreased.","value":"The allowance amount decrease."},"returns":{"result":"Whether the operation succeeded."}},"grantRole(bytes32,address)":{"details":"Reverts if the sender is not the contract owner.Emits a {RoleGranted} event if the account did not previously have the role.","params":{"account":"The account to grant the role to.","role":"The role to grant."}},"hasRole(bytes32,address)":{"params":{"account":"The account.","role":"The role."},"returns":{"_0":"whether `account` has `role`."}},"increaseAllowance(address,uint256)":{"details":"Reverts if `spender` is the zero address.Reverts if `spender`'s allowance by the sender overflows.Emits an {IERC20-Approval} event with an updated allowance for `spender` by the sender.","params":{"spender":"The account whose allowance is being increased.","value":"The allowance amount increase."},"returns":{"result":"Whether the operation succeeded."}},"isTrustedForwarder(address)":{"params":{"forwarder":"The forwarder to check."},"returns":{"_0":"True if `forwarder` is trusted, false if not."}},"mint(address,uint256)":{"details":"Reverts if the sender does not have the 'minter' role.","params":{"to":"The account to mint the tokens to.","value":"The amount of tokens to mint."}},"name()":{"returns":{"_0":"The name of the token."}},"nonces(address)":{"params":{"owner":"The account to check the nonce of."},"returns":{"_0":"The current permit nonce of `owner`."}},"owner()":{"returns":{"_0":"The address of the contract owner."}},"permit(address,address,uint256,uint256,uint8,bytes32,bytes32)":{"details":"Reverts if `owner` is the zero address.Reverts if the current blocktime is greather than `deadline`.Reverts if `r`, `s`, and `v` do not represent a valid `secp256k1` signature from `owner`.Emits an {IERC20-Approval} event.","params":{"deadline":"The deadline from which the permit signature is no longer valid.","owner":"The token owner granting the allowance to `spender`.","r":"Permit signature r parameter.","s":"Permit signature s parameter.","spender":"The token spender being granted the allowance by `owner`.","v":"Permit signature v parameter","value":"The allowance amount to grant."}},"recoverERC20s(address[],address[],uint256[])":{"details":"Warning: this function should be overriden for contracts which are supposed to hold ERC20 tokens  so that the extraction is limited to only amounts sent accidentally.Reverts if the sender is not the contract owner.Reverts if `accounts`, `tokens` and `amounts` do not have the same length.Reverts if one of the ERC20 transfers fails for any reason.","params":{"accounts":"the list of accounts to transfer the tokens to.","amounts":"the list of token amounts to transfer.","tokens":"the list of ERC20 token addresses."}},"recoverERC721s(address[],address[],uint256[])":{"details":"Warning: this function should be overriden for contracts which are supposed to hold ERC721 tokens  so that the extraction is limited to only tokens sent accidentally.Reverts if the sender is not the contract owner.Reverts if `accounts`, `contracts` and `amounts` do not have the same length.Reverts if one of the ERC721 transfers fails for any reason.","params":{"accounts":"the list of accounts to transfer the tokens to.","contracts":"the list of ERC721 contract addresses.","tokenIds":"the list of token ids to transfer."}},"recoverETH(address[],uint256[])":{"details":"Note: While contracts can generally prevent accidental ETH transfer by implementating a reverting  `receive()` function, this can still be bypassed in a `selfdestruct(address)` scenario.Warning: this function should be overriden for contracts which are supposed to hold ETH tokens  so that the extraction is limited to only amounts sent accidentally.Reverts if the sender is not the contract owner.Reverts if `accounts` and `amounts` do not have the same length.Reverts if one of the ETH transfers fails for any reason.","params":{"accounts":"the list of accounts to transfer the tokens to.","amounts":"the list of token amounts to transfer."}},"renounceRole(bytes32)":{"details":"Reverts if the sender does not have `role`.Emits a {RoleRevoked} event.","params":{"role":"The role to renounce."}},"revokeRole(bytes32,address)":{"details":"Reverts if the sender is not the contract owner.Emits a {RoleRevoked} event if the account previously had the role.","params":{"account":"The account to revoke the role from.","role":"The role to revoke."}},"safeTransfer(address,uint256,bytes)":{"details":"Reverts if `to` is the zero address.Reverts if the sender does not have at least `value` of balance.Reverts if `to` is a contract and the call to `onERC20Received` fails, reverts or is rejected.Emits an {IERC20-Transfer} event.","params":{"data":"Optional additional data with no specified format, to be passed to the receiver contract.","to":"The account to transfer the tokens to.","value":"The amount of tokens to transfer."},"returns":{"_0":"Whether the operation succeeded."}},"safeTransferFrom(address,address,uint256,bytes)":{"details":"Reverts if `to` is the zero address.Reverts if `from` does not have at least `value` of balance.Reverts if the sender is not `from` and does not have at least `value` of allowance by `from`.Reverts if `to` is a contract and the call to `onERC20Received(address,address,uint256,bytes)` fails, reverts or is rejected.Emits an {IERC20-Transfer} event.Optionally emits an {IERC20-Approval} event if the sender is not `from` (non-standard).","params":{"data":"Optional additional data with no specified format, to be passed to the receiver contract.","from":"The account which owns the tokens to transfer.","to":"The account to transfer the tokens to.","value":"The amount of tokens to transfer."},"returns":{"_0":"Whether the operation succeeded."}},"setTokenURI(string)":{"details":"Reverts if the sender is not the contract owner.","params":{"uri":"The token URI."}},"supportsInterface(bytes4)":{"details":"Note: This function call must use less than 30 000 gas.","params":{"interfaceId":"the interface identifier to test."},"returns":{"_0":"True if the interface is supported, false if `interfaceId` is `0xffffffff` or if the interface is not supported."}},"symbol()":{"returns":{"_0":"The symbol of the token."}},"tokenURI()":{"returns":{"_0":"The token metadata URI."}},"totalSupply()":{"returns":{"supply":"The total token supply."}},"transfer(address,uint256)":{"details":"Reverts if `to` is the zero address.Reverts if the sender does not have at least `value` of balance.Emits a {Transfer} event.","params":{"to":"The account to transfer the tokens to.","value":"The amount of tokens to transfer."},"returns":{"result":"Whether the operation succeeded."}},"transferFrom(address,address,uint256)":{"details":"Reverts if `to` is the zero address.Reverts if `from` does not have at least `value` of balance.Reverts if the sender is not `from` and does not have at least `value` of allowance by `from`.Emits a {Transfer} event.Optionally emits an {Approval} event if the sender is not `from` (non-standard).","params":{"from":"The account which owns the tokens to transfer.","to":"The account to transfer the tokens to.","value":"The amount of tokens to transfer."},"returns":{"result":"Whether the operation succeeded."}},"transferOwnership(address)":{"details":"Reverts if the sender is not the contract owner.Emits an {OwnershipTransferred} event if `newOwner` is different from the current contract owner.","params":{"newOwner":"The address of the new contract owner. Using the zero address means renouncing ownership."}}},"version":1},"evm":{"bytecode":{"linkReferences":{},"object":"60a06040523480156200001157600080fd5b5060405162004ef238038062004ef2833981016040819052620000349162000559565b8080338686866200004f6200014960201b62000ecf1760201c565b620000818383836200006b620001ad60201b62000f331760201c565b620001e360201b62000f6117909392919060201c565b505050620000b2816200009e6200025260201b62000fe01760201c565b6200028260201b6200100e1790919060201c565b50620000c86200030060201b620010c41760201c565b620000dd6200032560201b620010f41760201c565b620000f26200034860201b620011221760201c565b620001076200036b60201b620011501760201c565b6200011c6200038e60201b6200117e1760201c565b62000131620003b160201b620011ac1760201c565b6001600160a01b0316608052506200077a9350505050565b600062000160620003d460201b620011d61760201c565b9050620001866336372b0760e01b6001836200040460201b62001204179092919060201c565b620001aa634e83a8c360e11b6001836200040460201b62001204179092919060201c565b50565b600080620001dd60017f335df4119bbb04f056b33eba33b826d3529129e458faf6daa9924b5a8f3b6a82620005fd565b92915050565b83620001f08482620006ae565b5060018401620002018382620006ae565b5060028401805460ff191660ff83161790556200024c63a219a02560e01b600162000237620003d4602090811b620011d617901c565b6200040460201b62001204179092919060201c565b50505050565b600080620001dd60017fc9ed16f33ab3a66c84bfd83099ccb2a8845871e2e1c1928f63797152f0fd54cd620005fd565b6001600160a01b03811615620002d95781546001600160a01b0319166001600160a01b03821690811783556040516000907f8be0079c531659141344cd1fd0a4f28419497f9722a3daafe3b4186f6b6457e0908290a35b620002fc6307f5828d60e41b600162000237620003d460201b620011d61760201c565b5050565b620003236303c130d960e41b600162000237620003d460201b620011d61760201c565b565b6200032363144b1f0f60e11b600162000237620003d460201b620011d61760201c565b620003236320c07ed160e01b600162000237620003d460201b620011d61760201c565b620003236353f41a9760e01b600162000237620003d460201b620011d61760201c565b6200032363602993f360e11b600162000237620003d460201b620011d61760201c565b62000323634ec7fbed60e11b600162000237620003d460201b620011d61760201c565b600080620001dd60017fca9d3e17f264b0f3984e2634e94adb37fa3e6a8103f06aeae6fa59e21c769f5e620005fd565b600160e01b6001600160e01b0319831601620004665760405162461bcd60e51b815260206004820152601f60248201527f496e74657266616365446574656374696f6e3a2077726f6e672076616c756500604482015260640160405180910390fd5b6001600160e01b03199190911660009081526020929092526040909120805460ff1916911515919091179055565b634e487b7160e01b600052604160045260246000fd5b600082601f830112620004bc57600080fd5b81516001600160401b0380821115620004d957620004d962000494565b604051601f8301601f19908116603f0116810190828211818310171562000504576200050462000494565b816040528381526020925086838588010111156200052157600080fd5b600091505b8382101562000545578582018301518183018401529082019062000526565b600093810190920192909252949350505050565b600080600080608085870312156200057057600080fd5b84516001600160401b03808211156200058857600080fd5b6200059688838901620004aa565b95506020870151915080821115620005ad57600080fd5b50620005bc87828801620004aa565b935050604085015160ff81168114620005d457600080fd5b60608601519092506001600160a01b0381168114620005f257600080fd5b939692955090935050565b81810381811115620001dd57634e487b7160e01b600052601160045260246000fd5b600181811c908216806200063457607f821691505b6020821081036200065557634e487b7160e01b600052602260045260246000fd5b50919050565b601f821115620006a957600081815260208120601f850160051c81016020861015620006845750805b601f850160051c820191505b81811015620006a55782815560010162000690565b5050505b505050565b81516001600160401b03811115620006ca57620006ca62000494565b620006e281620006db84546200061f565b846200065b565b602080601f8311600181146200071a5760008415620007015750858301515b600019600386901b1c1916600185901b178555620006a5565b600085815260208120601f198616915b828110156200074b578886015182559484019460019091019084016200072a565b50858210156200076a5787850151600019600388901b60f8161c191681555b5050505050600190811b01905550565b608051614747620007ab6000396000818161032501528181610405015281816136f2015261377a01526147476000f3fe608060405234801561001057600080fd5b50600436106102925760003560e01c806379cc679011610160578063b88d4fde116100d8578063dd62ed3e1161008c578063eb79554911610071578063eb795549146105a9578063f2fde38b146105bc578063f7ba94bd146105cf57600080fd5b8063dd62ed3e14610583578063e0df5b6f1461059657600080fd5b8063d505accf116100bd578063d505accf14610536578063d539139314610549578063d547741f1461057057600080fd5b8063b88d4fde14610510578063c3666c361461052357600080fd5b80638da5cb5b1161012f57806395d89b411161011457806395d89b41146104e2578063a457c2d7146104ea578063a9059cbb146104fd57600080fd5b80638da5cb5b146104c757806391d14854146104cf57600080fd5b806379cc67901461047b5780637ecebe001461048e57806388d695b2146104a15780638bb9c5bf146104b457600080fd5b80633644e5151161020e5780634885b254116101c257806368573107116101a7578063685731071461044257806370a082311461045557806373c8a9581461046857600080fd5b80634885b254146103e2578063572b6c05146103f557600080fd5b80633c130d90116101f35780633c130d90146103b457806340c10f19146103bc57806342966c68146103cf57600080fd5b80633644e5151461039957806339509351146103a157600080fd5b80631b9a7529116102655780632b4c9f161161024a5780632b4c9f16146103235780632f2ff15d1461036a578063313ce5671461037f57600080fd5b80631b9a7529146102fd57806323b872dd1461031057600080fd5b806301ffc9a71461029757806306fdde03146102bf578063095ea7b3146102d457806318160ddd146102e7575b600080fd5b6102aa6102a5366004613d59565b6105e2565b60405190151581526020015b60405180910390f35b6102c76105fc565b6040516102b69190613de4565b6102aa6102e2366004613e19565b610613565b6102ef61063b565b6040519081526020016102b6565b6102aa61030b366004613e91565b61064f565b6102aa61031e366004613efd565b61067e565b7f00000000000000000000000000000000000000000000000000000000000000005b60405173ffffffffffffffffffffffffffffffffffffffff90911681526020016102b6565b61037d610378366004613f3e565b6106a9565b005b6103876106e2565b60405160ff90911681526020016102b6565b6102ef6106f9565b6102aa6103af366004613e19565b610703565b6102c7610722565b61037d6103ca366004613e19565b61072f565b6102aa6103dd366004613f6e565b610782565b6102aa6103f0366004613f87565b6107a7565b6102aa61040336600461400a565b7f000000000000000000000000000000000000000000000000000000000000000073ffffffffffffffffffffffffffffffffffffffff90811691161490565b61037d610450366004613e91565b6107d8565b6102ef61046336600461400a565b610882565b61037d610476366004614027565b6108ba565b6102aa610489366004613e19565b6109ea565b6102ef61049c36600461400a565b610a09565b6102aa6104af366004613e91565b610a17565b61037d6104c2366004613f6e565b610a3a565b610345610a58565b6102aa6104dd366004613f3e565b610a7f565b6102c7610aca565b6102aa6104f8366004613e19565b610adc565b6102aa61050b366004613e19565b610afb565b6102aa61051e366004614103565b610b1a565b61037d610531366004614027565b610b3f565b61037d610544366004614165565b610ce4565b6102ef7f6d696e746572000000000000000000000000000000000000000000000000000081565b61037d61057e366004613f3e565b610d0b565b6102ef6105913660046141dc565b610d39565b61037d6105a436600461420a565b610d84565b6102aa6105b736600461424c565b610da3565b61037d6105ca36600461400a565b610dc6565b61037d6105dd366004613e91565b610de1565b60006105f6826105f06111d6565b90611310565b92915050565b606061060e610609610f33565b6113ea565b905090565b6000610632610620611480565b848461062a61148a565b9291906114b8565b50600192915050565b600061060e61064861148a565b6002015490565b600061067261065c611480565b8686868661066861148a565b94939291906115a7565b5060015b949350505050565b600061069f61068b611480565b85858561069661148a565b939291906117e9565b5060019392505050565b60006106b3611480565b90506106c7816106c1610fe0565b9061183b565b6106dd8383836106d56118be565b9291906118ec565b505050565b600061060e6106ef610f33565b6002015460ff1690565b600061060e6119c2565b6000610632610710611480565b848461071a61148a565b929190611a5d565b606061060e610609611c29565b61076a7f6d696e746572000000000000000000000000000000000000000000000000000061075b611480565b6107636118be565b9190611c57565b61077e828261077761148a565b9190611d03565b5050565b600061079f61078f611480565b8361079861148a565b9190611e7d565b506001919050565b60006107cc6107b4611480565b87878787876107c161148a565b959493929190611f93565b50600195945050505050565b6108047f6d696e746572000000000000000000000000000000000000000000000000000061075b611480565b61087c84848080602002602001604051908101604052809392919081815260200183836020028082843760009201919091525050604080516020808802828101820190935287825290935087925086918291850190849080828437600092019190915250610875925061148a915050565b91906123d9565b50505050565b60006105f68261089061148a565b9073ffffffffffffffffffffffffffffffffffffffff166000908152602091909152604090205490565b6108cd6108c5611480565b6106c1610fe0565b8483811480156108dc57508082145b610947576040517f08c379a000000000000000000000000000000000000000000000000000000000815260206004820152601d60248201527f5265636f766572793a20696e636f6e73697374656e742061727261797300000060448201526064015b60405180910390fd5b60005b8181146109e0576109d88888838181106109665761096661429c565b905060200201602081019061097b919061400a565b85858481811061098d5761098d61429c565b905060200201358888858181106109a6576109a661429c565b90506020020160208101906109bb919061400a565b73ffffffffffffffffffffffffffffffffffffffff1691906126af565b60010161094a565b5050505050505050565b60006106326109f7611480565b8484610a0161148a565b92919061273c565b60006105f682610890612786565b6000610672610a24611480565b86868686610a3061148a565b94939291906127b4565b610a55610a45611480565b82610a4e6118be565b9190612b96565b50565b600061060e610a65610fe0565b5473ffffffffffffffffffffffffffffffffffffffff1690565b6000610ac38383610a8e6118be565b60009283526020908152604080842073ffffffffffffffffffffffffffffffffffffffff909316845291905290205460ff1690565b9392505050565b606061060e610ad7610f33565b612c3a565b6000610632610ae9611480565b8484610af361148a565b929190612c4b565b6000610632610b08611480565b8484610b1261148a565b929190612d9d565b60006107cc610b27611480565b8787878787610b3461148a565b959493929190612f7e565b610b4a6108c5611480565b848381148015610b5957508082145b610bbf576040517f08c379a000000000000000000000000000000000000000000000000000000000815260206004820152601d60248201527f5265636f766572793a20696e636f6e73697374656e7420617272617973000000604482015260640161093e565b60005b8181146109e057858582818110610bdb57610bdb61429c565b9050602002016020810190610bf0919061400a565b73ffffffffffffffffffffffffffffffffffffffff166323b872dd308a8a85818110610c1e57610c1e61429c565b9050602002016020810190610c33919061400a565b878786818110610c4557610c4561429c565b6040517fffffffff0000000000000000000000000000000000000000000000000000000060e088901b16815273ffffffffffffffffffffffffffffffffffffffff958616600482015294909316602485015250602090910201356044820152606401600060405180830381600087803b158015610cc157600080fd5b505af1158015610cd5573d6000803e3d6000fd5b50505050806001019050610bc2565b610d0287878787878787610cf6612786565b96959493929190612feb565b50505050505050565b6000610d15611480565b9050610d23816106c1610fe0565b6106dd838383610d316118be565b9291906132e7565b6000610ac38383610d4861148a565b919073ffffffffffffffffffffffffffffffffffffffff9182166000908152600193909301602090815260408085209290931684525290205490565b610d8f6108c5611480565b61077e8282610d9c611c29565b91906133b1565b6000610672610db0611480565b86868686610dbc61148a565b94939291906133bd565b610a55610dd1611480565b82610dda610fe0565b9190613429565b610dec6108c5611480565b82818114610e56576040517f08c379a000000000000000000000000000000000000000000000000000000000815260206004820152601d60248201527f5265636f766572793a20696e636f6e73697374656e7420617272617973000000604482015260640161093e565b60005b818114610ec757610ebf848483818110610e7557610e7561429c565b90506020020135878784818110610e8e57610e8e61429c565b9050602002016020810190610ea3919061400a565b73ffffffffffffffffffffffffffffffffffffffff1690613555565b600101610e59565b505050505050565b6000610ed96111d6565b9050610f07817f36372b07000000000000000000000000000000000000000000000000000000006001611204565b610a55817f9d075186000000000000000000000000000000000000000000000000000000006001611204565b6000806105f660017f335df4119bbb04f056b33eba33b826d3529129e458faf6daa9924b5a8f3b6a826142cb565b83610f6c84826143cd565b5060018401610f7b83826143cd565b506002840180547fffffffffffffffffffffffffffffffffffffffffffffffffffffffffffffff001660ff831617905561087c7fa219a025000000000000000000000000000000000000000000000000000000006001610fd96111d6565b9190611204565b6000806105f660017fc9ed16f33ab3a66c84bfd83099ccb2a8845871e2e1c1928f63797152f0fd54cd6142cb565b73ffffffffffffffffffffffffffffffffffffffff8116156110965781547fffffffffffffffffffffffff00000000000000000000000000000000000000001673ffffffffffffffffffffffffffffffffffffffff821690811783556040516000907f8be0079c531659141344cd1fd0a4f28419497f9722a3daafe3b4186f6b6457e0908290a35b61077e7f7f5828d0000000000000000000000000000000000000000000000000000000006001610fd96111d6565b6110f27f3c130d90000000000000000000000000000000000000000000000000000000006001610fd96111d6565b565b6110f27f28963e1e000000000000000000000000000000000000000000000000000000006001610fd96111d6565b6110f27f20c07ed1000000000000000000000000000000000000000000000000000000006001610fd96111d6565b6110f27f53f41a97000000000000000000000000000000000000000000000000000000006001610fd96111d6565b6110f27fc05327e6000000000000000000000000000000000000000000000000000000006001610fd96111d6565b6110f27f9d8ff7da000000000000000000000000000000000000000000000000000000006001610fd95b6000806105f660017fca9d3e17f264b0f3984e2634e94adb37fa3e6a8103f06aeae6fa59e21c769f5e6142cb565b7c01000000000000000000000000000000000000000000000000000000007fffffffff000000000000000000000000000000000000000000000000000000008316016112ac576040517f08c379a000000000000000000000000000000000000000000000000000000000815260206004820152601f60248201527f496e74657266616365446574656374696f6e3a2077726f6e672076616c756500604482015260640161093e565b7fffffffff00000000000000000000000000000000000000000000000000000000919091166000908152602092909252604090912080547fffffffffffffffffffffffffffffffffffffffffffffffffffffffffffffff0016911515919091179055565b60007c01000000000000000000000000000000000000000000000000000000007fffffffff00000000000000000000000000000000000000000000000000000000831601611360575060006105f6565b7ffe003659000000000000000000000000000000000000000000000000000000007fffffffff000000000000000000000000000000000000000000000000000000008316016113b1575060016105f6565b507fffffffff00000000000000000000000000000000000000000000000000000000166000908152602091909152604090205460ff1690565b60608160000180546113fb90614334565b80601f016020809104026020016040519081016040528092919081815260200182805461142790614334565b80156114745780601f1061144957610100808354040283529160200191611474565b820191906000526020600020905b81548152906001019060200180831161145757829003601f168201915b50505050509050919050565b600061060e6136af565b6000806105f660017f1da92899d3da68bf9787824388a37ea2bfa79780bcef91b9716c390eec8ecbef6142cb565b73ffffffffffffffffffffffffffffffffffffffff8216611535576040517f08c379a000000000000000000000000000000000000000000000000000000000815260206004820152601d60248201527f45524332303a20617070726f76616c20746f2061646472657373283029000000604482015260640161093e565b73ffffffffffffffffffffffffffffffffffffffff838116600081815260018701602090815260408083209487168084529482529182902085905590518481527f8c5be1e5ebec7d5bd14f71427d1e84f3dd0314c0f7b2291e5b200ac8c7c3b92591015b60405180910390a350505050565b82818114611611576040517f08c379a000000000000000000000000000000000000000000000000000000000815260206004820152601a60248201527f45524332303a20696e636f6e73697374656e7420617272617973000000000000604482015260640161093e565b8060000361161f5750610ec7565b6000805b8281146117cd57600087878381811061163e5761163e61429c565b9050602002016020810190611653919061400a565b905060008686848181106116695761166961429c565b9050602002013590508973ffffffffffffffffffffffffffffffffffffffff168273ffffffffffffffffffffffffffffffffffffffff16146116b1576116b18b838c84612c4b565b80156117755773ffffffffffffffffffffffffffffffffffffffff8216600090815260208c90526040902054818103818110611749576040517f08c379a000000000000000000000000000000000000000000000000000000000815260206004820152601b60248201527f45524332303a20696e73756666696369656e742062616c616e63650000000000604482015260640161093e565b73ffffffffffffffffffffffffffffffffffffffff8416600090815260208e9052604090205550928301925b60405181815260009073ffffffffffffffffffffffffffffffffffffffff8416907fddf252ad1be2c89b69c2b068fc378daa952ba7f163c4a11628f55a4df523b3ef9060200160405180910390a35050600101611623565b5080156109e05760028801805482900390555050505050505050565b8373ffffffffffffffffffffffffffffffffffffffff168373ffffffffffffffffffffffffffffffffffffffff16146118285761182885848684612c4b565b61183485848484612d9d565b5050505050565b815473ffffffffffffffffffffffffffffffffffffffff82811691161461077e576040517f08c379a000000000000000000000000000000000000000000000000000000000815260206004820152601860248201527f4f776e6572736869703a206e6f7420746865206f776e65720000000000000000604482015260640161093e565b6000806105f660017fc8827d3282af6f37b64c3e9e6f3ac9df286ab0bb0fccd6f8661bf19adb368b236142cb565b60008381526020858152604080832073ffffffffffffffffffffffffffffffffffffffff8616845290915290205460ff1661087c5760008381526020858152604080832073ffffffffffffffffffffffffffffffffffffffff8681168086529184529382902080547fffffffffffffffffffffffffffffffffffffffffffffffffffffffffffffff00166001179055815187815292830152918316918101919091527f2f8788117e7eff1d82e926ec794901d17c78024a50270940304540a733656f0d906060015b60405180910390a150505050565b6000467f8b73c3c69bb8fe3d512ecc4cf759cc79239f7b179b0ffacaa9a75d522b39400f6119f1610609610f33565b80516020918201206040805192830193909352918101919091527fc89efdaa54c0f20c7adf612882df0950f5a951637e0307cdcb4c672f298b8bc66060820152608081018290523060a082015260c0016040516020818303038152906040528051906020012091505090565b73ffffffffffffffffffffffffffffffffffffffff8216611ada576040517f08c379a000000000000000000000000000000000000000000000000000000000815260206004820152601d60248201527f45524332303a20617070726f76616c20746f2061646472657373283029000000604482015260640161093e565b73ffffffffffffffffffffffffffffffffffffffff80841660009081526001860160209081526040808320938616835292905220548115611bbb57808201818111611b81576040517f08c379a000000000000000000000000000000000000000000000000000000000815260206004820152601960248201527f45524332303a20616c6c6f77616e6365206f766572666c6f7700000000000000604482015260640161093e565b73ffffffffffffffffffffffffffffffffffffffff8086166000908152600188016020908152604080832093881683529290522081905590505b8273ffffffffffffffffffffffffffffffffffffffff168473ffffffffffffffffffffffffffffffffffffffff167f8c5be1e5ebec7d5bd14f71427d1e84f3dd0314c0f7b2291e5b200ac8c7c3b92583604051611c1a91815260200190565b60405180910390a35050505050565b6000806105f660017ff41bf6a5db26bffdfab174dcf66b31fbba8fdb7e3db040721ce1e62d61839ceb6142cb565b60008281526020848152604080832073ffffffffffffffffffffffffffffffffffffffff8516845290915290205460ff166106dd57611c95826137f6565b604051602001611ca591906144e7565b604080517fffffffffffffffffffffffffffffffffffffffffffffffffffffffffffffffe0818403018152908290527f08c379a000000000000000000000000000000000000000000000000000000000825261093e91600401613de4565b73ffffffffffffffffffffffffffffffffffffffff8216611d80576040517f08c379a000000000000000000000000000000000000000000000000000000000815260206004820152601960248201527f45524332303a206d696e7420746f206164647265737328302900000000000000604482015260640161093e565b8015611e29576002830154818101818111611df7576040517f08c379a000000000000000000000000000000000000000000000000000000000815260206004820152601660248201527f45524332303a20737570706c79206f766572666c6f7700000000000000000000604482015260640161093e565b60028501555073ffffffffffffffffffffffffffffffffffffffff821660009081526020849052604090208054820190555b60405181815273ffffffffffffffffffffffffffffffffffffffff8316906000907fddf252ad1be2c89b69c2b068fc378daa952ba7f163c4a11628f55a4df523b3ef906020015b60405180910390a3505050565b8015611f485773ffffffffffffffffffffffffffffffffffffffff8216600090815260208490526040902054818103818110611f15576040517f08c379a000000000000000000000000000000000000000000000000000000000815260206004820152601b60248201527f45524332303a20696e73756666696369656e742062616c616e63650000000000604482015260640161093e565b73ffffffffffffffffffffffffffffffffffffffff84166000908152602086905260409020555060028301805482900390555b60405181815260009073ffffffffffffffffffffffffffffffffffffffff8416907fddf252ad1be2c89b69c2b068fc378daa952ba7f163c4a11628f55a4df523b3ef90602001611e70565b82818114611ffd576040517f08c379a000000000000000000000000000000000000000000000000000000000815260206004820152601a60248201527f45524332303a20696e636f6e73697374656e7420617272617973000000000000604482015260640161093e565b8060000361200b5750610d02565b73ffffffffffffffffffffffffffffffffffffffff86166000908152602089905260408120549080805b8481146122e15760008989838181106120505761205061429c565b9050602002016020810190612065919061400a565b905073ffffffffffffffffffffffffffffffffffffffff81166120e4576040517f08c379a000000000000000000000000000000000000000000000000000000000815260206004820152601d60248201527f45524332303a207472616e7366657220746f2061646472657373283029000000604482015260640161093e565b60008888848181106120f8576120f861429c565b9050602002013590508060001461227057848101858111612175576040517f08c379a000000000000000000000000000000000000000000000000000000000815260206004820152601660248201527f45524332303a2076616c756573206f766572666c6f7700000000000000000000604482015260640161093e565b8095508273ffffffffffffffffffffffffffffffffffffffff168d73ffffffffffffffffffffffffffffffffffffffff16146121ff57818f60000160008573ffffffffffffffffffffffffffffffffffffffff1673ffffffffffffffffffffffffffffffffffffffff1681526020019081526020016000206000828254019250508190555061226e565b86821115612269576040517f08c379a000000000000000000000000000000000000000000000000000000000815260206004820152601b60248201527f45524332303a20696e73756666696369656e742062616c616e63650000000000604482015260640161093e565b938101935b505b8173ffffffffffffffffffffffffffffffffffffffff168c73ffffffffffffffffffffffffffffffffffffffff167fddf252ad1be2c89b69c2b068fc378daa952ba7f163c4a11628f55a4df523b3ef836040516122cf91815260200190565b60405180910390a35050600101612035565b5081158015906122f15750808214155b1561238d57818303838110612362576040517f08c379a000000000000000000000000000000000000000000000000000000000815260206004820152601b60248201527f45524332303a20696e73756666696369656e742062616c616e63650000000000604482015260640161093e565b73ffffffffffffffffffffffffffffffffffffffff8a16600090815260208d90526040902090820190555b8973ffffffffffffffffffffffffffffffffffffffff168973ffffffffffffffffffffffffffffffffffffffff16146123cc576123cc8b8a8c85612c4b565b5050505050505050505050565b815181518114612445576040517f08c379a000000000000000000000000000000000000000000000000000000000815260206004820152601a60248201527f45524332303a20696e636f6e73697374656e7420617272617973000000000000604482015260640161093e565b806000036124535750505050565b6000805b82811461262a5760008582815181106124725761247261429c565b60200260200101519050600073ffffffffffffffffffffffffffffffffffffffff168173ffffffffffffffffffffffffffffffffffffffff1603612512576040517f08c379a000000000000000000000000000000000000000000000000000000000815260206004820152601960248201527f45524332303a206d696e7420746f206164647265737328302900000000000000604482015260640161093e565b60008583815181106125265761252661429c565b60200260200101519050806000146125d2578381018481116125a4576040517f08c379a000000000000000000000000000000000000000000000000000000000815260206004820152601660248201527f45524332303a2076616c756573206f766572666c6f7700000000000000000000604482015260640161093e565b73ffffffffffffffffffffffffffffffffffffffff8316600090815260208a90526040902080548301905593505b60405181815273ffffffffffffffffffffffffffffffffffffffff8316906000907fddf252ad1be2c89b69c2b068fc378daa952ba7f163c4a11628f55a4df523b3ef9060200160405180910390a35050600101612457565b5080156118345760028501548181018181116126a2576040517f08c379a000000000000000000000000000000000000000000000000000000000815260206004820152601660248201527f45524332303a20737570706c79206f766572666c6f7700000000000000000000604482015260640161093e565b6002870155505050505050565b6040805173ffffffffffffffffffffffffffffffffffffffff8416602482015260448082018490528251808303909101815260649091019091526020810180517bffffffffffffffffffffffffffffffffffffffffffffffffffffffff167fa9059cbb000000000000000000000000000000000000000000000000000000001790526106dd908490613988565b8273ffffffffffffffffffffffffffffffffffffffff168273ffffffffffffffffffffffffffffffffffffffff161461277b5761277b84838584612c4b565b61087c848383611e7d565b6000806105f660017f93fe0ff7226b064a4a8f0b09910762afb4bc2441835792c021ffd78cd513011e6142cb565b8281811461281e576040517f08c379a000000000000000000000000000000000000000000000000000000000815260206004820152601a60248201527f45524332303a20696e636f6e73697374656e7420617272617973000000000000604482015260640161093e565b8060000361282c5750610ec7565b73ffffffffffffffffffffffffffffffffffffffff86166000908152602088905260408120549080805b848114612ade5760008989838181106128715761287161429c565b9050602002016020810190612886919061400a565b905073ffffffffffffffffffffffffffffffffffffffff8116612905576040517f08c379a000000000000000000000000000000000000000000000000000000000815260206004820152601d60248201527f45524332303a207472616e7366657220746f2061646472657373283029000000604482015260640161093e565b60008888848181106129195761291961429c565b90506020020135905080600014612a6d57848101858111612996576040517f08c379a000000000000000000000000000000000000000000000000000000000815260206004820152601660248201527f45524332303a2076616c756573206f766572666c6f7700000000000000000000604482015260640161093e565b8095508273ffffffffffffffffffffffffffffffffffffffff168d73ffffffffffffffffffffffffffffffffffffffff16146129fc5773ffffffffffffffffffffffffffffffffffffffff8316600090815260208f905260409020805483019055612a6b565b86821115612a66576040517f08c379a000000000000000000000000000000000000000000000000000000000815260206004820152601b60248201527f45524332303a20696e73756666696369656e742062616c616e63650000000000604482015260640161093e565b938101935b505b8173ffffffffffffffffffffffffffffffffffffffff168c73ffffffffffffffffffffffffffffffffffffffff167fddf252ad1be2c89b69c2b068fc378daa952ba7f163c4a11628f55a4df523b3ef83604051612acc91815260200190565b60405180910390a35050600101612856565b508115801590612aee5750808214155b15612b8a57818303838110612b5f576040517f08c379a000000000000000000000000000000000000000000000000000000000815260206004820152601b60248201527f45524332303a20696e73756666696369656e742062616c616e63650000000000604482015260640161093e565b73ffffffffffffffffffffffffffffffffffffffff8a16600090815260208c90526040902090820190555b50505050505050505050565b612ba1838284611c57565b60008181526020848152604080832073ffffffffffffffffffffffffffffffffffffffff86168085529083529281902080547fffffffffffffffffffffffffffffffffffffffffffffffffffffffffffffff0016905580518481529182018390528101919091527ff6391f5c32d9c69d2a47ea670b442974b53935d1edc7fd64eb21e047a839171b9060600160405180910390a1505050565b60608160010180546113fb90614334565b73ffffffffffffffffffffffffffffffffffffffff8216612cc8576040517f08c379a000000000000000000000000000000000000000000000000000000000815260206004820152601d60248201527f45524332303a20617070726f76616c20746f2061646472657373283029000000604482015260640161093e565b73ffffffffffffffffffffffffffffffffffffffff80841660009081526001860160209081526040808320938616835292905220547fffffffffffffffffffffffffffffffffffffffffffffffffffffffffffffffff8114801590612d2c57508115155b15611bbb57818103818110611b81576040517f08c379a000000000000000000000000000000000000000000000000000000000815260206004820152601d60248201527f45524332303a20696e73756666696369656e7420616c6c6f77616e6365000000604482015260640161093e565b73ffffffffffffffffffffffffffffffffffffffff8216612e1a576040517f08c379a000000000000000000000000000000000000000000000000000000000815260206004820152601d60248201527f45524332303a207472616e7366657220746f2061646472657373283029000000604482015260640161093e565b8015612f1f5773ffffffffffffffffffffffffffffffffffffffff8316600090815260208590526040902054818103818110612eb2576040517f08c379a000000000000000000000000000000000000000000000000000000000815260206004820152601b60248201527f45524332303a20696e73756666696369656e742062616c616e63650000000000604482015260640161093e565b8373ffffffffffffffffffffffffffffffffffffffff168573ffffffffffffffffffffffffffffffffffffffff1614612f1c5773ffffffffffffffffffffffffffffffffffffffff8086166000908152602088905260408082208490559186168152208054840190555b50505b8173ffffffffffffffffffffffffffffffffffffffff168373ffffffffffffffffffffffffffffffffffffffff167fddf252ad1be2c89b69c2b068fc378daa952ba7f163c4a11628f55a4df523b3ef8360405161159991815260200190565b612f8b87878787876117e9565b73ffffffffffffffffffffffffffffffffffffffff84163b15610d0257610d028686868686868080601f016020809104026020016040519081016040528093929190818152602001838380828437600092019190915250613a9492505050565b73ffffffffffffffffffffffffffffffffffffffff8716613068576040517f08c379a000000000000000000000000000000000000000000000000000000000815260206004820152601d60248201527f45524332303a207065726d69742066726f6d2061646472657373283029000000604482015260640161093e565b834211156130d2576040517f08c379a000000000000000000000000000000000000000000000000000000000815260206004820152601560248201527f45524332303a2065787069726564207065726d69740000000000000000000000604482015260640161093e565b73ffffffffffffffffffffffffffffffffffffffff878116600081815260208b8152604080832080546001810190915581517f6e71edae12b1b97f4d1f60370fef10105fa2faae0126114a169c64845d6126c98185015280830195909552948b166060850152608084018a905260a084019490945260c08084018990528451808503909101815260e090930190935281519190920120906131716119c2565b6040517f19010000000000000000000000000000000000000000000000000000000000006020820152602281019190915260428101839052606201604080517fffffffffffffffffffffffffffffffffffffffffffffffffffffffffffffffe08184030181528282528051602091820120600080855291840180845281905260ff89169284019290925260608301879052608083018690529092509060019060a0016020604051602081039080840390855afa158015613235573d6000803e3d6000fd5b5050506020604051035190508973ffffffffffffffffffffffffffffffffffffffff168173ffffffffffffffffffffffffffffffffffffffff16146132d6576040517f08c379a000000000000000000000000000000000000000000000000000000000815260206004820152601560248201527f45524332303a20696e76616c6964207065726d69740000000000000000000000604482015260640161093e565b5050506109e087878761062a61148a565b60008381526020858152604080832073ffffffffffffffffffffffffffffffffffffffff8616845290915290205460ff161561087c5760008381526020858152604080832073ffffffffffffffffffffffffffffffffffffffff8681168086529184529382902080547fffffffffffffffffffffffffffffffffffffffffffffffffffffffffffffff00169055815187815292830152918316918101919091527ff6391f5c32d9c69d2a47ea670b442974b53935d1edc7fd64eb21e047a839171b906060016119b4565b8261087c828483614553565b6133c986868686612d9d565b73ffffffffffffffffffffffffffffffffffffffff84163b15610ec757610ec78586868686868080601f016020809104026020016040519081016040528093929190818152602001838380828437600092019190915250613a9492505050565b825473ffffffffffffffffffffffffffffffffffffffff90811690831681146134ae576040517f08c379a000000000000000000000000000000000000000000000000000000000815260206004820152601860248201527f4f776e6572736869703a206e6f7420746865206f776e65720000000000000000604482015260640161093e565b8173ffffffffffffffffffffffffffffffffffffffff168173ffffffffffffffffffffffffffffffffffffffff161461087c5783547fffffffffffffffffffffffff00000000000000000000000000000000000000001673ffffffffffffffffffffffffffffffffffffffff8381169182178655604051908316907f8be0079c531659141344cd1fd0a4f28419497f9722a3daafe3b4186f6b6457e090600090a350505050565b804710156135bf576040517f08c379a000000000000000000000000000000000000000000000000000000000815260206004820152601d60248201527f416464726573733a20696e73756666696369656e742062616c616e6365000000604482015260640161093e565b60008273ffffffffffffffffffffffffffffffffffffffff168260405160006040518083038185875af1925050503d8060008114613619576040519150601f19603f3d011682016040523d82523d6000602084013e61361e565b606091505b50509050806106dd576040517f08c379a000000000000000000000000000000000000000000000000000000000815260206004820152603a60248201527f416464726573733a20756e61626c6520746f2073656e642076616c75652c207260448201527f6563697069656e74206d61792068617665207265766572746564000000000000606482015260840161093e565b6000333214806136bf5750601836105b156136c957503390565b7fffffffffffffffffffffffffffffffffffffffffffffffffffffffffffffffec36013560601c7f000000000000000000000000000000000000000000000000000000000000000073ffffffffffffffffffffffffffffffffffffffff163314806137e557506040517f8929a8ca00000000000000000000000000000000000000000000000000000000815273ffffffffffffffffffffffffffffffffffffffff82811660048301523360248301527f00000000000000000000000000000000000000000000000000000000000000001690638929a8ca90604401602060405180830381865afa1580156137c1573d6000803e3d6000fd5b505050506040513d601f19601f820116820180604052508101906137e5919061466d565b156137ef57919050565b3391505090565b6060600082900361381557505060408051602081019091526000815290565b60008260405160200161382a91815260200190565b604080517fffffffffffffffffffffffffffffffffffffffffffffffffffffffffffffffe08184030181529190529050601f5b81818151811061386f5761386f61429c565b01602001517fff00000000000000000000000000000000000000000000000000000000000000166000036138c4577fffffffffffffffffffffffffffffffffffffffffffffffffffffffffffffffff0161385d565b60008160010167ffffffffffffffff8111156138e2576138e2614305565b6040519080825280601f01601f19166020018201604052801561390c576020820181803683370190505b50905060005b82811161397f5783818151811061392b5761392b61429c565b602001015160f81c60f81b8282815181106139485761394861429c565b60200101907effffffffffffffffffffffffffffffffffffffffffffffffffffffffffffff1916908160001a905350600101613912565b50949350505050565b60006139ea826040518060400160405280602081526020017f5361666545524332303a206c6f772d6c6576656c2063616c6c206661696c65648152508573ffffffffffffffffffffffffffffffffffffffff16613bba9092919063ffffffff16565b8051909150156106dd5780806020019051810190613a08919061466d565b6106dd576040517f08c379a000000000000000000000000000000000000000000000000000000000815260206004820152602a60248201527f5361666545524332303a204552433230206f7065726174696f6e20646964206e60448201527f6f74207375636365656400000000000000000000000000000000000000000000606482015260840161093e565b6040517f4fc35859000000000000000000000000000000000000000000000000000000008082529073ffffffffffffffffffffffffffffffffffffffff851690634fc3585990613aee90899089908890889060040161468f565b6020604051808303816000875af1158015613b0d573d6000803e3d6000fd5b505050506040513d601f19601f82011682018060405250810190613b3191906146d8565b7fffffffff000000000000000000000000000000000000000000000000000000001614611834576040517f08c379a000000000000000000000000000000000000000000000000000000000815260206004820152601d60248201527f45524332303a2073616665207472616e736665722072656a6563746564000000604482015260640161093e565b60606106768484600085856000808673ffffffffffffffffffffffffffffffffffffffff168587604051613bee91906146f5565b60006040518083038185875af1925050503d8060008114613c2b576040519150601f19603f3d011682016040523d82523d6000602084013e613c30565b606091505b5091509150613c4187838387613c4c565b979650505050505050565b60608315613ce2578251600003613cdb5773ffffffffffffffffffffffffffffffffffffffff85163b613cdb576040517f08c379a000000000000000000000000000000000000000000000000000000000815260206004820152601d60248201527f416464726573733a2063616c6c20746f206e6f6e2d636f6e7472616374000000604482015260640161093e565b5081610676565b6106768383815115613cf75781518083602001fd5b806040517f08c379a000000000000000000000000000000000000000000000000000000000815260040161093e9190613de4565b7fffffffff0000000000000000000000000000000000000000000000000000000081168114610a5557600080fd5b600060208284031215613d6b57600080fd5b8135610ac381613d2b565b60005b83811015613d91578181015183820152602001613d79565b50506000910152565b60008151808452613db2816020860160208601613d76565b601f017fffffffffffffffffffffffffffffffffffffffffffffffffffffffffffffffe0169290920160200192915050565b602081526000610ac36020830184613d9a565b73ffffffffffffffffffffffffffffffffffffffff81168114610a5557600080fd5b60008060408385031215613e2c57600080fd5b8235613e3781613df7565b946020939093013593505050565b60008083601f840112613e5757600080fd5b50813567ffffffffffffffff811115613e6f57600080fd5b6020830191508360208260051b8501011115613e8a57600080fd5b9250929050565b60008060008060408587031215613ea757600080fd5b843567ffffffffffffffff80821115613ebf57600080fd5b613ecb88838901613e45565b90965094506020870135915080821115613ee457600080fd5b50613ef187828801613e45565b95989497509550505050565b600080600060608486031215613f1257600080fd5b8335613f1d81613df7565b92506020840135613f2d81613df7565b929592945050506040919091013590565b60008060408385031215613f5157600080fd5b823591506020830135613f6381613df7565b809150509250929050565b600060208284031215613f8057600080fd5b5035919050565b600080600080600060608688031215613f9f57600080fd5b8535613faa81613df7565b9450602086013567ffffffffffffffff80821115613fc757600080fd5b613fd389838a01613e45565b90965094506040880135915080821115613fec57600080fd5b50613ff988828901613e45565b969995985093965092949392505050565b60006020828403121561401c57600080fd5b8135610ac381613df7565b6000806000806000806060878903121561404057600080fd5b863567ffffffffffffffff8082111561405857600080fd5b6140648a838b01613e45565b9098509650602089013591508082111561407d57600080fd5b6140898a838b01613e45565b909650945060408901359150808211156140a257600080fd5b506140af89828a01613e45565b979a9699509497509295939492505050565b60008083601f8401126140d357600080fd5b50813567ffffffffffffffff8111156140eb57600080fd5b602083019150836020828501011115613e8a57600080fd5b60008060008060006080868803121561411b57600080fd5b853561412681613df7565b9450602086013561413681613df7565b935060408601359250606086013567ffffffffffffffff81111561415957600080fd5b613ff9888289016140c1565b600080600080600080600060e0888a03121561418057600080fd5b873561418b81613df7565b9650602088013561419b81613df7565b95506040880135945060608801359350608088013560ff811681146141bf57600080fd5b9699959850939692959460a0840135945060c09093013592915050565b600080604083850312156141ef57600080fd5b82356141fa81613df7565b91506020830135613f6381613df7565b6000806020838503121561421d57600080fd5b823567ffffffffffffffff81111561423457600080fd5b614240858286016140c1565b90969095509350505050565b6000806000806060858703121561426257600080fd5b843561426d81613df7565b935060208501359250604085013567ffffffffffffffff81111561429057600080fd5b613ef1878288016140c1565b7f4e487b7100000000000000000000000000000000000000000000000000000000600052603260045260246000fd5b818103818111156105f6577f4e487b7100000000000000000000000000000000000000000000000000000000600052601160045260246000fd5b7f4e487b7100000000000000000000000000000000000000000000000000000000600052604160045260246000fd5b600181811c9082168061434857607f821691505b602082108103614381577f4e487b7100000000000000000000000000000000000000000000000000000000600052602260045260246000fd5b50919050565b601f8211156106dd57600081815260208120601f850160051c810160208610156143ae5750805b601f850160051c820191505b81811015610ec7578281556001016143ba565b815167ffffffffffffffff8111156143e7576143e7614305565b6143fb816143f58454614334565b84614387565b602080601f83116001811461444e57600084156144185750858301515b7fffffffffffffffffffffffffffffffffffffffffffffffffffffffffffffffff600386901b1c1916600185901b178555610ec7565b6000858152602081207fffffffffffffffffffffffffffffffffffffffffffffffffffffffffffffffe08616915b8281101561449b5788860151825594840194600190910190840161447c565b50858210156144d757878501517fffffffffffffffffffffffffffffffffffffffffffffffffffffffffffffffff600388901b60f8161c191681555b5050505050600190811b01905550565b7f416363657373436f6e74726f6c3a206d697373696e672027000000000000000081526000825161451f816018850160208701613d76565b7f2720726f6c6500000000000000000000000000000000000000000000000000006018939091019283015250601e01919050565b67ffffffffffffffff83111561456b5761456b614305565b61457f836145798354614334565b83614387565b6000601f8411600181146145d1576000851561459b5750838201355b7fffffffffffffffffffffffffffffffffffffffffffffffffffffffffffffffff600387901b1c1916600186901b178355611834565b6000838152602090207fffffffffffffffffffffffffffffffffffffffffffffffffffffffffffffffe0861690835b828110156146205786850135825560209485019460019092019101614600565b508682101561465b577fffffffffffffffffffffffffffffffffffffffffffffffffffffffffffffffff60f88860031b161c19848701351681555b505060018560011b0183555050505050565b60006020828403121561467f57600080fd5b81518015158114610ac357600080fd5b600073ffffffffffffffffffffffffffffffffffffffff8087168352808616602084015250836040830152608060608301526146ce6080830184613d9a565b9695505050505050565b6000602082840312156146ea57600080fd5b8151610ac381613d2b565b60008251614707818460208701613d76565b919091019291505056fea2646970667358221220b19159545f5c30e0bd31d66004481365e80a01246ff28ade3e273e10e353dc4564736f6c63430008110033","opcodes":"PUSH1 0xA0 PUSH1 0x40 MSTORE CALLVALUE DUP1 ISZERO PUSH3 0x11 JUMPI PUSH1 0x0 DUP1 REVERT JUMPDEST POP PUSH1 0x40 MLOAD PUSH3 0x4EF2 CODESIZE SUB DUP1 PUSH3 0x4EF2 DUP4 CODECOPY DUP2 ADD PUSH1 0x40 DUP2 SWAP1 MSTORE PUSH3 0x34 SWAP2 PUSH3 0x559 JUMP JUMPDEST DUP1 DUP1 CALLER DUP7 DUP7 DUP7 PUSH3 0x4F PUSH3 0x149 PUSH1 0x20 SHL PUSH3 0xECF OR PUSH1 0x20 SHR JUMP JUMPDEST PUSH3 0x81 DUP4 DUP4 DUP4 PUSH3 0x6B PUSH3 0x1AD PUSH1 0x20 SHL PUSH3 0xF33 OR PUSH1 0x20 SHR JUMP JUMPDEST PUSH3 0x1E3 PUSH1 0x20 SHL PUSH3 0xF61 OR SWAP1 SWAP4 SWAP3 SWAP2 SWAP1 PUSH1 0x20 SHR JUMP JUMPDEST POP POP POP PUSH3 0xB2 DUP2 PUSH3 0x9E PUSH3 0x252 PUSH1 0x20 SHL PUSH3 0xFE0 OR PUSH1 0x20 SHR JUMP JUMPDEST PUSH3 0x282 PUSH1 0x20 SHL PUSH3 0x100E OR SWAP1 SWAP2 SWAP1 PUSH1 0x20 SHR JUMP JUMPDEST POP PUSH3 0xC8 PUSH3 0x300 PUSH1 0x20 SHL PUSH3 0x10C4 OR PUSH1 0x20 SHR JUMP JUMPDEST PUSH3 0xDD PUSH3 0x325 PUSH1 0x20 SHL PUSH3 0x10F4 OR PUSH1 0x20 SHR JUMP JUMPDEST PUSH3 0xF2 PUSH3 0x348 PUSH1 0x20 SHL PUSH3 0x1122 OR PUSH1 0x20 SHR JUMP JUMPDEST PUSH3 0x107 PUSH3 0x36B PUSH1 0x20 SHL PUSH3 0x1150 OR PUSH1 0x20 SHR JUMP JUMPDEST PUSH3 0x11C PUSH3 0x38E PUSH1 0x20 SHL PUSH3 0x117E OR PUSH1 0x20 SHR JUMP JUMPDEST PUSH3 0x131 PUSH3 0x3B1 PUSH1 0x20 SHL PUSH3 0x11AC OR PUSH1 0x20 SHR JUMP JUMPDEST PUSH1 0x1 PUSH1 0x1 PUSH1 0xA0 SHL SUB AND PUSH1 0x80 MSTORE POP PUSH3 0x77A SWAP4 POP POP POP POP JUMP JUMPDEST PUSH1 0x0 PUSH3 0x160 PUSH3 0x3D4 PUSH1 0x20 SHL PUSH3 0x11D6 OR PUSH1 0x20 SHR JUMP JUMPDEST SWAP1 POP PUSH3 0x186 PUSH4 0x36372B07 PUSH1 0xE0 SHL PUSH1 0x1 DUP4 PUSH3 0x404 PUSH1 0x20 SHL PUSH3 0x1204 OR SWAP1 SWAP3 SWAP2 SWAP1 PUSH1 0x20 SHR JUMP JUMPDEST PUSH3 0x1AA PUSH4 0x4E83A8C3 PUSH1 0xE1 SHL PUSH1 0x1 DUP4 PUSH3 0x404 PUSH1 0x20 SHL PUSH3 0x1204 OR SWAP1 SWAP3 SWAP2 SWAP1 PUSH1 0x20 SHR JUMP JUMPDEST POP JUMP JUMPDEST PUSH1 0x0 DUP1 PUSH3 0x1DD PUSH1 0x1 PUSH32 0x335DF4119BBB04F056B33EBA33B826D3529129E458FAF6DAA9924B5A8F3B6A82 PUSH3 0x5FD JUMP JUMPDEST SWAP3 SWAP2 POP POP JUMP JUMPDEST DUP4 PUSH3 0x1F0 DUP5 DUP3 PUSH3 0x6AE JUMP JUMPDEST POP PUSH1 0x1 DUP5 ADD PUSH3 0x201 DUP4 DUP3 PUSH3 0x6AE JUMP JUMPDEST POP PUSH1 0x2 DUP5 ADD DUP1 SLOAD PUSH1 0xFF NOT AND PUSH1 0xFF DUP4 AND OR SWAP1 SSTORE PUSH3 0x24C PUSH4 0xA219A025 PUSH1 0xE0 SHL PUSH1 0x1 PUSH3 0x237 PUSH3 0x3D4 PUSH1 0x20 SWAP1 DUP2 SHL PUSH3 0x11D6 OR SWAP1 SHR JUMP JUMPDEST PUSH3 0x404 PUSH1 0x20 SHL PUSH3 0x1204 OR SWAP1 SWAP3 SWAP2 SWAP1 PUSH1 0x20 SHR JUMP JUMPDEST POP POP POP POP JUMP JUMPDEST PUSH1 0x0 DUP1 PUSH3 0x1DD PUSH1 0x1 PUSH32 0xC9ED16F33AB3A66C84BFD83099CCB2A8845871E2E1C1928F63797152F0FD54CD PUSH3 0x5FD JUMP JUMPDEST PUSH1 0x1 PUSH1 0x1 PUSH1 0xA0 SHL SUB DUP2 AND ISZERO PUSH3 0x2D9 JUMPI DUP2 SLOAD PUSH1 0x1 PUSH1 0x1 PUSH1 0xA0 SHL SUB NOT AND PUSH1 0x1 PUSH1 0x1 PUSH1 0xA0 SHL SUB DUP3 AND SWAP1 DUP2 OR DUP4 SSTORE PUSH1 0x40 MLOAD PUSH1 0x0 SWAP1 PUSH32 0x8BE0079C531659141344CD1FD0A4F28419497F9722A3DAAFE3B4186F6B6457E0 SWAP1 DUP3 SWAP1 LOG3 JUMPDEST PUSH3 0x2FC PUSH4 0x7F5828D PUSH1 0xE4 SHL PUSH1 0x1 PUSH3 0x237 PUSH3 0x3D4 PUSH1 0x20 SHL PUSH3 0x11D6 OR PUSH1 0x20 SHR JUMP JUMPDEST POP POP JUMP JUMPDEST PUSH3 0x323 PUSH4 0x3C130D9 PUSH1 0xE4 SHL PUSH1 0x1 PUSH3 0x237 PUSH3 0x3D4 PUSH1 0x20 SHL PUSH3 0x11D6 OR PUSH1 0x20 SHR JUMP JUMPDEST JUMP JUMPDEST PUSH3 0x323 PUSH4 0x144B1F0F PUSH1 0xE1 SHL PUSH1 0x1 PUSH3 0x237 PUSH3 0x3D4 PUSH1 0x20 SHL PUSH3 0x11D6 OR PUSH1 0x20 SHR JUMP JUMPDEST PUSH3 0x323 PUSH4 0x20C07ED1 PUSH1 0xE0 SHL PUSH1 0x1 PUSH3 0x237 PUSH3 0x3D4 PUSH1 0x20 SHL PUSH3 0x11D6 OR PUSH1 0x20 SHR JUMP JUMPDEST PUSH3 0x323 PUSH4 0x53F41A97 PUSH1 0xE0 SHL PUSH1 0x1 PUSH3 0x237 PUSH3 0x3D4 PUSH1 0x20 SHL PUSH3 0x11D6 OR PUSH1 0x20 SHR JUMP JUMPDEST PUSH3 0x323 PUSH4 0x602993F3 PUSH1 0xE1 SHL PUSH1 0x1 PUSH3 0x237 PUSH3 0x3D4 PUSH1 0x20 SHL PUSH3 0x11D6 OR PUSH1 0x20 SHR JUMP JUMPDEST PUSH3 0x323 PUSH4 0x4EC7FBED PUSH1 0xE1 SHL PUSH1 0x1 PUSH3 0x237 PUSH3 0x3D4 PUSH1 0x20 SHL PUSH3 0x11D6 OR PUSH1 0x20 SHR JUMP JUMPDEST PUSH1 0x0 DUP1 PUSH3 0x1DD PUSH1 0x1 PUSH32 0xCA9D3E17F264B0F3984E2634E94ADB37FA3E6A8103F06AEAE6FA59E21C769F5E PUSH3 0x5FD JUMP JUMPDEST PUSH1 0x1 PUSH1 0xE0 SHL PUSH1 0x1 PUSH1 0x1 PUSH1 0xE0 SHL SUB NOT DUP4 AND ADD PUSH3 0x466 JUMPI PUSH1 0x40 MLOAD PUSH3 0x461BCD PUSH1 0xE5 SHL DUP2 MSTORE PUSH1 0x20 PUSH1 0x4 DUP3 ADD MSTORE PUSH1 0x1F PUSH1 0x24 DUP3 ADD MSTORE PUSH32 0x496E74657266616365446574656374696F6E3A2077726F6E672076616C756500 PUSH1 0x44 DUP3 ADD MSTORE PUSH1 0x64 ADD PUSH1 0x40 MLOAD DUP1 SWAP2 SUB SWAP1 REVERT JUMPDEST PUSH1 0x1 PUSH1 0x1 PUSH1 0xE0 SHL SUB NOT SWAP2 SWAP1 SWAP2 AND PUSH1 0x0 SWAP1 DUP2 MSTORE PUSH1 0x20 SWAP3 SWAP1 SWAP3 MSTORE PUSH1 0x40 SWAP1 SWAP2 KECCAK256 DUP1 SLOAD PUSH1 0xFF NOT AND SWAP2 ISZERO ISZERO SWAP2 SWAP1 SWAP2 OR SWAP1 SSTORE JUMP JUMPDEST PUSH4 0x4E487B71 PUSH1 0xE0 SHL PUSH1 0x0 MSTORE PUSH1 0x41 PUSH1 0x4 MSTORE PUSH1 0x24 PUSH1 0x0 REVERT JUMPDEST PUSH1 0x0 DUP3 PUSH1 0x1F DUP4 ADD SLT PUSH3 0x4BC JUMPI PUSH1 0x0 DUP1 REVERT JUMPDEST DUP2 MLOAD PUSH1 0x1 PUSH1 0x1 PUSH1 0x40 SHL SUB DUP1 DUP3 GT ISZERO PUSH3 0x4D9 JUMPI PUSH3 0x4D9 PUSH3 0x494 JUMP JUMPDEST PUSH1 0x40 MLOAD PUSH1 0x1F DUP4 ADD PUSH1 0x1F NOT SWAP1 DUP2 AND PUSH1 0x3F ADD AND DUP2 ADD SWAP1 DUP3 DUP3 GT DUP2 DUP4 LT OR ISZERO PUSH3 0x504 JUMPI PUSH3 0x504 PUSH3 0x494 JUMP JUMPDEST DUP2 PUSH1 0x40 MSTORE DUP4 DUP2 MSTORE PUSH1 0x20 SWAP3 POP DUP7 DUP4 DUP6 DUP9 ADD ADD GT ISZERO PUSH3 0x521 JUMPI PUSH1 0x0 DUP1 REVERT JUMPDEST PUSH1 0x0 SWAP2 POP JUMPDEST DUP4 DUP3 LT ISZERO PUSH3 0x545 JUMPI DUP6 DUP3 ADD DUP4 ADD MLOAD DUP2 DUP4 ADD DUP5 ADD MSTORE SWAP1 DUP3 ADD SWAP1 PUSH3 0x526 JUMP JUMPDEST PUSH1 0x0 SWAP4 DUP2 ADD SWAP1 SWAP3 ADD SWAP3 SWAP1 SWAP3 MSTORE SWAP5 SWAP4 POP POP POP POP JUMP JUMPDEST PUSH1 0x0 DUP1 PUSH1 0x0 DUP1 PUSH1 0x80 DUP6 DUP8 SUB SLT ISZERO PUSH3 0x570 JUMPI PUSH1 0x0 DUP1 REVERT JUMPDEST DUP5 MLOAD PUSH1 0x1 PUSH1 0x1 PUSH1 0x40 SHL SUB DUP1 DUP3 GT ISZERO PUSH3 0x588 JUMPI PUSH1 0x0 DUP1 REVERT JUMPDEST PUSH3 0x596 DUP9 DUP4 DUP10 ADD PUSH3 0x4AA JUMP JUMPDEST SWAP6 POP PUSH1 0x20 DUP8 ADD MLOAD SWAP2 POP DUP1 DUP3 GT ISZERO PUSH3 0x5AD JUMPI PUSH1 0x0 DUP1 REVERT JUMPDEST POP PUSH3 0x5BC DUP8 DUP3 DUP9 ADD PUSH3 0x4AA JUMP JUMPDEST SWAP4 POP POP PUSH1 0x40 DUP6 ADD MLOAD PUSH1 0xFF DUP2 AND DUP2 EQ PUSH3 0x5D4 JUMPI PUSH1 0x0 DUP1 REVERT JUMPDEST PUSH1 0x60 DUP7 ADD MLOAD SWAP1 SWAP3 POP PUSH1 0x1 PUSH1 0x1 PUSH1 0xA0 SHL SUB DUP2 AND DUP2 EQ PUSH3 0x5F2 JUMPI PUSH1 0x0 DUP1 REVERT JUMPDEST SWAP4 SWAP7 SWAP3 SWAP6 POP SWAP1 SWAP4 POP POP JUMP JUMPDEST DUP2 DUP2 SUB DUP2 DUP2 GT ISZERO PUSH3 0x1DD JUMPI PUSH4 0x4E487B71 PUSH1 0xE0 SHL PUSH1 0x0 MSTORE PUSH1 0x11 PUSH1 0x4 MSTORE PUSH1 0x24 PUSH1 0x0 REVERT JUMPDEST PUSH1 0x1 DUP2 DUP2 SHR SWAP1 DUP3 AND DUP1 PUSH3 0x634 JUMPI PUSH1 0x7F DUP3 AND SWAP2 POP JUMPDEST PUSH1 0x20 DUP3 LT DUP2 SUB PUSH3 0x655 JUMPI PUSH4 0x4E487B71 PUSH1 0xE0 SHL PUSH1 0x0 MSTORE PUSH1 0x22 PUSH1 0x4 MSTORE PUSH1 0x24 PUSH1 0x0 REVERT JUMPDEST POP SWAP2 SWAP1 POP JUMP JUMPDEST PUSH1 0x1F DUP3 GT ISZERO PUSH3 0x6A9 JUMPI PUSH1 0x0 DUP2 DUP2 MSTORE PUSH1 0x20 DUP2 KECCAK256 PUSH1 0x1F DUP6 ADD PUSH1 0x5 SHR DUP2 ADD PUSH1 0x20 DUP7 LT ISZERO PUSH3 0x684 JUMPI POP DUP1 JUMPDEST PUSH1 0x1F DUP6 ADD PUSH1 0x5 SHR DUP3 ADD SWAP2 POP JUMPDEST DUP2 DUP2 LT ISZERO PUSH3 0x6A5 JUMPI DUP3 DUP2 SSTORE PUSH1 0x1 ADD PUSH3 0x690 JUMP JUMPDEST POP POP POP JUMPDEST POP POP POP JUMP JUMPDEST DUP2 MLOAD PUSH1 0x1 PUSH1 0x1 PUSH1 0x40 SHL SUB DUP2 GT ISZERO PUSH3 0x6CA JUMPI PUSH3 0x6CA PUSH3 0x494 JUMP JUMPDEST PUSH3 0x6E2 DUP2 PUSH3 0x6DB DUP5 SLOAD PUSH3 0x61F JUMP JUMPDEST DUP5 PUSH3 0x65B JUMP JUMPDEST PUSH1 0x20 DUP1 PUSH1 0x1F DUP4 GT PUSH1 0x1 DUP2 EQ PUSH3 0x71A JUMPI PUSH1 0x0 DUP5 ISZERO PUSH3 0x701 JUMPI POP DUP6 DUP4 ADD MLOAD JUMPDEST PUSH1 0x0 NOT PUSH1 0x3 DUP7 SWAP1 SHL SHR NOT AND PUSH1 0x1 DUP6 SWAP1 SHL OR DUP6 SSTORE PUSH3 0x6A5 JUMP JUMPDEST PUSH1 0x0 DUP6 DUP2 MSTORE PUSH1 0x20 DUP2 KECCAK256 PUSH1 0x1F NOT DUP7 AND SWAP2 JUMPDEST DUP3 DUP2 LT ISZERO PUSH3 0x74B JUMPI DUP9 DUP7 ADD MLOAD DUP3 SSTORE SWAP5 DUP5 ADD SWAP5 PUSH1 0x1 SWAP1 SWAP2 ADD SWAP1 DUP5 ADD PUSH3 0x72A JUMP JUMPDEST POP DUP6 DUP3 LT ISZERO PUSH3 0x76A JUMPI DUP8 DUP6 ADD MLOAD PUSH1 0x0 NOT PUSH1 0x3 DUP9 SWAP1 SHL PUSH1 0xF8 AND SHR NOT AND DUP2 SSTORE JUMPDEST POP POP POP POP POP PUSH1 0x1 SWAP1 DUP2 SHL ADD SWAP1 SSTORE POP JUMP JUMPDEST PUSH1 0x80 MLOAD PUSH2 0x4747 PUSH3 0x7AB PUSH1 0x0 CODECOPY PUSH1 0x0 DUP2 DUP2 PUSH2 0x325 ADD MSTORE DUP2 DUP2 PUSH2 0x405 ADD MSTORE DUP2 DUP2 PUSH2 0x36F2 ADD MSTORE PUSH2 0x377A ADD MSTORE PUSH2 0x4747 PUSH1 0x0 RETURN INVALID PUSH1 0x80 PUSH1 0x40 MSTORE CALLVALUE DUP1 ISZERO PUSH2 0x10 JUMPI PUSH1 0x0 DUP1 REVERT JUMPDEST POP PUSH1 0x4 CALLDATASIZE LT PUSH2 0x292 JUMPI PUSH1 0x0 CALLDATALOAD PUSH1 0xE0 SHR DUP1 PUSH4 0x79CC6790 GT PUSH2 0x160 JUMPI DUP1 PUSH4 0xB88D4FDE GT PUSH2 0xD8 JUMPI DUP1 PUSH4 0xDD62ED3E GT PUSH2 0x8C JUMPI DUP1 PUSH4 0xEB795549 GT PUSH2 0x71 JUMPI DUP1 PUSH4 0xEB795549 EQ PUSH2 0x5A9 JUMPI DUP1 PUSH4 0xF2FDE38B EQ PUSH2 0x5BC JUMPI DUP1 PUSH4 0xF7BA94BD EQ PUSH2 0x5CF JUMPI PUSH1 0x0 DUP1 REVERT JUMPDEST DUP1 PUSH4 0xDD62ED3E EQ PUSH2 0x583 JUMPI DUP1 PUSH4 0xE0DF5B6F EQ PUSH2 0x596 JUMPI PUSH1 0x0 DUP1 REVERT JUMPDEST DUP1 PUSH4 0xD505ACCF GT PUSH2 0xBD JUMPI DUP1 PUSH4 0xD505ACCF EQ PUSH2 0x536 JUMPI DUP1 PUSH4 0xD5391393 EQ PUSH2 0x549 JUMPI DUP1 PUSH4 0xD547741F EQ PUSH2 0x570 JUMPI PUSH1 0x0 DUP1 REVERT JUMPDEST DUP1 PUSH4 0xB88D4FDE EQ PUSH2 0x510 JUMPI DUP1 PUSH4 0xC3666C36 EQ PUSH2 0x523 JUMPI PUSH1 0x0 DUP1 REVERT JUMPDEST DUP1 PUSH4 0x8DA5CB5B GT PUSH2 0x12F JUMPI DUP1 PUSH4 0x95D89B41 GT PUSH2 0x114 JUMPI DUP1 PUSH4 0x95D89B41 EQ PUSH2 0x4E2 JUMPI DUP1 PUSH4 0xA457C2D7 EQ PUSH2 0x4EA JUMPI DUP1 PUSH4 0xA9059CBB EQ PUSH2 0x4FD JUMPI PUSH1 0x0 DUP1 REVERT JUMPDEST DUP1 PUSH4 0x8DA5CB5B EQ PUSH2 0x4C7 JUMPI DUP1 PUSH4 0x91D14854 EQ PUSH2 0x4CF JUMPI PUSH1 0x0 DUP1 REVERT JUMPDEST DUP1 PUSH4 0x79CC6790 EQ PUSH2 0x47B JUMPI DUP1 PUSH4 0x7ECEBE00 EQ PUSH2 0x48E JUMPI DUP1 PUSH4 0x88D695B2 EQ PUSH2 0x4A1 JUMPI DUP1 PUSH4 0x8BB9C5BF EQ PUSH2 0x4B4 JUMPI PUSH1 0x0 DUP1 REVERT JUMPDEST DUP1 PUSH4 0x3644E515 GT PUSH2 0x20E JUMPI DUP1 PUSH4 0x4885B254 GT PUSH2 0x1C2 JUMPI DUP1 PUSH4 0x68573107 GT PUSH2 0x1A7 JUMPI DUP1 PUSH4 0x68573107 EQ PUSH2 0x442 JUMPI DUP1 PUSH4 0x70A08231 EQ PUSH2 0x455 JUMPI DUP1 PUSH4 0x73C8A958 EQ PUSH2 0x468 JUMPI PUSH1 0x0 DUP1 REVERT JUMPDEST DUP1 PUSH4 0x4885B254 EQ PUSH2 0x3E2 JUMPI DUP1 PUSH4 0x572B6C05 EQ PUSH2 0x3F5 JUMPI PUSH1 0x0 DUP1 REVERT JUMPDEST DUP1 PUSH4 0x3C130D90 GT PUSH2 0x1F3 JUMPI DUP1 PUSH4 0x3C130D90 EQ PUSH2 0x3B4 JUMPI DUP1 PUSH4 0x40C10F19 EQ PUSH2 0x3BC JUMPI DUP1 PUSH4 0x42966C68 EQ PUSH2 0x3CF JUMPI PUSH1 0x0 DUP1 REVERT JUMPDEST DUP1 PUSH4 0x3644E515 EQ PUSH2 0x399 JUMPI DUP1 PUSH4 0x39509351 EQ PUSH2 0x3A1 JUMPI PUSH1 0x0 DUP1 REVERT JUMPDEST DUP1 PUSH4 0x1B9A7529 GT PUSH2 0x265 JUMPI DUP1 PUSH4 0x2B4C9F16 GT PUSH2 0x24A JUMPI DUP1 PUSH4 0x2B4C9F16 EQ PUSH2 0x323 JUMPI DUP1 PUSH4 0x2F2FF15D EQ PUSH2 0x36A JUMPI DUP1 PUSH4 0x313CE567 EQ PUSH2 0x37F JUMPI PUSH1 0x0 DUP1 REVERT JUMPDEST DUP1 PUSH4 0x1B9A7529 EQ PUSH2 0x2FD JUMPI DUP1 PUSH4 0x23B872DD EQ PUSH2 0x310 JUMPI PUSH1 0x0 DUP1 REVERT JUMPDEST DUP1 PUSH4 0x1FFC9A7 EQ PUSH2 0x297 JUMPI DUP1 PUSH4 0x6FDDE03 EQ PUSH2 0x2BF JUMPI DUP1 PUSH4 0x95EA7B3 EQ PUSH2 0x2D4 JUMPI DUP1 PUSH4 0x18160DDD EQ PUSH2 0x2E7 JUMPI JUMPDEST PUSH1 0x0 DUP1 REVERT JUMPDEST PUSH2 0x2AA PUSH2 0x2A5 CALLDATASIZE PUSH1 0x4 PUSH2 0x3D59 JUMP JUMPDEST PUSH2 0x5E2 JUMP JUMPDEST PUSH1 0x40 MLOAD SWAP1 ISZERO ISZERO DUP2 MSTORE PUSH1 0x20 ADD JUMPDEST PUSH1 0x40 MLOAD DUP1 SWAP2 SUB SWAP1 RETURN JUMPDEST PUSH2 0x2C7 PUSH2 0x5FC JUMP JUMPDEST PUSH1 0x40 MLOAD PUSH2 0x2B6 SWAP2 SWAP1 PUSH2 0x3DE4 JUMP JUMPDEST PUSH2 0x2AA PUSH2 0x2E2 CALLDATASIZE PUSH1 0x4 PUSH2 0x3E19 JUMP JUMPDEST PUSH2 0x613 JUMP JUMPDEST PUSH2 0x2EF PUSH2 0x63B JUMP JUMPDEST PUSH1 0x40 MLOAD SWAP1 DUP2 MSTORE PUSH1 0x20 ADD PUSH2 0x2B6 JUMP JUMPDEST PUSH2 0x2AA PUSH2 0x30B CALLDATASIZE PUSH1 0x4 PUSH2 0x3E91 JUMP JUMPDEST PUSH2 0x64F JUMP JUMPDEST PUSH2 0x2AA PUSH2 0x31E CALLDATASIZE PUSH1 0x4 PUSH2 0x3EFD JUMP JUMPDEST PUSH2 0x67E JUMP JUMPDEST PUSH32 0x0 JUMPDEST PUSH1 0x40 MLOAD PUSH20 0xFFFFFFFFFFFFFFFFFFFFFFFFFFFFFFFFFFFFFFFF SWAP1 SWAP2 AND DUP2 MSTORE PUSH1 0x20 ADD PUSH2 0x2B6 JUMP JUMPDEST PUSH2 0x37D PUSH2 0x378 CALLDATASIZE PUSH1 0x4 PUSH2 0x3F3E JUMP JUMPDEST PUSH2 0x6A9 JUMP JUMPDEST STOP JUMPDEST PUSH2 0x387 PUSH2 0x6E2 JUMP JUMPDEST PUSH1 0x40 MLOAD PUSH1 0xFF SWAP1 SWAP2 AND DUP2 MSTORE PUSH1 0x20 ADD PUSH2 0x2B6 JUMP JUMPDEST PUSH2 0x2EF PUSH2 0x6F9 JUMP JUMPDEST PUSH2 0x2AA PUSH2 0x3AF CALLDATASIZE PUSH1 0x4 PUSH2 0x3E19 JUMP JUMPDEST PUSH2 0x703 JUMP JUMPDEST PUSH2 0x2C7 PUSH2 0x722 JUMP JUMPDEST PUSH2 0x37D PUSH2 0x3CA CALLDATASIZE PUSH1 0x4 PUSH2 0x3E19 JUMP JUMPDEST PUSH2 0x72F JUMP JUMPDEST PUSH2 0x2AA PUSH2 0x3DD CALLDATASIZE PUSH1 0x4 PUSH2 0x3F6E JUMP JUMPDEST PUSH2 0x782 JUMP JUMPDEST PUSH2 0x2AA PUSH2 0x3F0 CALLDATASIZE PUSH1 0x4 PUSH2 0x3F87 JUMP JUMPDEST PUSH2 0x7A7 JUMP JUMPDEST PUSH2 0x2AA PUSH2 0x403 CALLDATASIZE PUSH1 0x4 PUSH2 0x400A JUMP JUMPDEST PUSH32 0x0 PUSH20 0xFFFFFFFFFFFFFFFFFFFFFFFFFFFFFFFFFFFFFFFF SWAP1 DUP2 AND SWAP2 AND EQ SWAP1 JUMP JUMPDEST PUSH2 0x37D PUSH2 0x450 CALLDATASIZE PUSH1 0x4 PUSH2 0x3E91 JUMP JUMPDEST PUSH2 0x7D8 JUMP JUMPDEST PUSH2 0x2EF PUSH2 0x463 CALLDATASIZE PUSH1 0x4 PUSH2 0x400A JUMP JUMPDEST PUSH2 0x882 JUMP JUMPDEST PUSH2 0x37D PUSH2 0x476 CALLDATASIZE PUSH1 0x4 PUSH2 0x4027 JUMP JUMPDEST PUSH2 0x8BA JUMP JUMPDEST PUSH2 0x2AA PUSH2 0x489 CALLDATASIZE PUSH1 0x4 PUSH2 0x3E19 JUMP JUMPDEST PUSH2 0x9EA JUMP JUMPDEST PUSH2 0x2EF PUSH2 0x49C CALLDATASIZE PUSH1 0x4 PUSH2 0x400A JUMP JUMPDEST PUSH2 0xA09 JUMP JUMPDEST PUSH2 0x2AA PUSH2 0x4AF CALLDATASIZE PUSH1 0x4 PUSH2 0x3E91 JUMP JUMPDEST PUSH2 0xA17 JUMP JUMPDEST PUSH2 0x37D PUSH2 0x4C2 CALLDATASIZE PUSH1 0x4 PUSH2 0x3F6E JUMP JUMPDEST PUSH2 0xA3A JUMP JUMPDEST PUSH2 0x345 PUSH2 0xA58 JUMP JUMPDEST PUSH2 0x2AA PUSH2 0x4DD CALLDATASIZE PUSH1 0x4 PUSH2 0x3F3E JUMP JUMPDEST PUSH2 0xA7F JUMP JUMPDEST PUSH2 0x2C7 PUSH2 0xACA JUMP JUMPDEST PUSH2 0x2AA PUSH2 0x4F8 CALLDATASIZE PUSH1 0x4 PUSH2 0x3E19 JUMP JUMPDEST PUSH2 0xADC JUMP JUMPDEST PUSH2 0x2AA PUSH2 0x50B CALLDATASIZE PUSH1 0x4 PUSH2 0x3E19 JUMP JUMPDEST PUSH2 0xAFB JUMP JUMPDEST PUSH2 0x2AA PUSH2 0x51E CALLDATASIZE PUSH1 0x4 PUSH2 0x4103 JUMP JUMPDEST PUSH2 0xB1A JUMP JUMPDEST PUSH2 0x37D PUSH2 0x531 CALLDATASIZE PUSH1 0x4 PUSH2 0x4027 JUMP JUMPDEST PUSH2 0xB3F JUMP JUMPDEST PUSH2 0x37D PUSH2 0x544 CALLDATASIZE PUSH1 0x4 PUSH2 0x4165 JUMP JUMPDEST PUSH2 0xCE4 JUMP JUMPDEST PUSH2 0x2EF PUSH32 0x6D696E7465720000000000000000000000000000000000000000000000000000 DUP2 JUMP JUMPDEST PUSH2 0x37D PUSH2 0x57E CALLDATASIZE PUSH1 0x4 PUSH2 0x3F3E JUMP JUMPDEST PUSH2 0xD0B JUMP JUMPDEST PUSH2 0x2EF PUSH2 0x591 CALLDATASIZE PUSH1 0x4 PUSH2 0x41DC JUMP JUMPDEST PUSH2 0xD39 JUMP JUMPDEST PUSH2 0x37D PUSH2 0x5A4 CALLDATASIZE PUSH1 0x4 PUSH2 0x420A JUMP JUMPDEST PUSH2 0xD84 JUMP JUMPDEST PUSH2 0x2AA PUSH2 0x5B7 CALLDATASIZE PUSH1 0x4 PUSH2 0x424C JUMP JUMPDEST PUSH2 0xDA3 JUMP JUMPDEST PUSH2 0x37D PUSH2 0x5CA CALLDATASIZE PUSH1 0x4 PUSH2 0x400A JUMP JUMPDEST PUSH2 0xDC6 JUMP JUMPDEST PUSH2 0x37D PUSH2 0x5DD CALLDATASIZE PUSH1 0x4 PUSH2 0x3E91 JUMP JUMPDEST PUSH2 0xDE1 JUMP JUMPDEST PUSH1 0x0 PUSH2 0x5F6 DUP3 PUSH2 0x5F0 PUSH2 0x11D6 JUMP JUMPDEST SWAP1 PUSH2 0x1310 JUMP JUMPDEST SWAP3 SWAP2 POP POP JUMP JUMPDEST PUSH1 0x60 PUSH2 0x60E PUSH2 0x609 PUSH2 0xF33 JUMP JUMPDEST PUSH2 0x13EA JUMP JUMPDEST SWAP1 POP SWAP1 JUMP JUMPDEST PUSH1 0x0 PUSH2 0x632 PUSH2 0x620 PUSH2 0x1480 JUMP JUMPDEST DUP5 DUP5 PUSH2 0x62A PUSH2 0x148A JUMP JUMPDEST SWAP3 SWAP2 SWAP1 PUSH2 0x14B8 JUMP JUMPDEST POP PUSH1 0x1 SWAP3 SWAP2 POP POP JUMP JUMPDEST PUSH1 0x0 PUSH2 0x60E PUSH2 0x648 PUSH2 0x148A JUMP JUMPDEST PUSH1 0x2 ADD SLOAD SWAP1 JUMP JUMPDEST PUSH1 0x0 PUSH2 0x672 PUSH2 0x65C PUSH2 0x1480 JUMP JUMPDEST DUP7 DUP7 DUP7 DUP7 PUSH2 0x668 PUSH2 0x148A JUMP JUMPDEST SWAP5 SWAP4 SWAP3 SWAP2 SWAP1 PUSH2 0x15A7 JUMP JUMPDEST POP PUSH1 0x1 JUMPDEST SWAP5 SWAP4 POP POP POP POP JUMP JUMPDEST PUSH1 0x0 PUSH2 0x69F PUSH2 0x68B PUSH2 0x1480 JUMP JUMPDEST DUP6 DUP6 DUP6 PUSH2 0x696 PUSH2 0x148A JUMP JUMPDEST SWAP4 SWAP3 SWAP2 SWAP1 PUSH2 0x17E9 JUMP JUMPDEST POP PUSH1 0x1 SWAP4 SWAP3 POP POP POP JUMP JUMPDEST PUSH1 0x0 PUSH2 0x6B3 PUSH2 0x1480 JUMP JUMPDEST SWAP1 POP PUSH2 0x6C7 DUP2 PUSH2 0x6C1 PUSH2 0xFE0 JUMP JUMPDEST SWAP1 PUSH2 0x183B JUMP JUMPDEST PUSH2 0x6DD DUP4 DUP4 DUP4 PUSH2 0x6D5 PUSH2 0x18BE JUMP JUMPDEST SWAP3 SWAP2 SWAP1 PUSH2 0x18EC JUMP JUMPDEST POP POP POP JUMP JUMPDEST PUSH1 0x0 PUSH2 0x60E PUSH2 0x6EF PUSH2 0xF33 JUMP JUMPDEST PUSH1 0x2 ADD SLOAD PUSH1 0xFF AND SWAP1 JUMP JUMPDEST PUSH1 0x0 PUSH2 0x60E PUSH2 0x19C2 JUMP JUMPDEST PUSH1 0x0 PUSH2 0x632 PUSH2 0x710 PUSH2 0x1480 JUMP JUMPDEST DUP5 DUP5 PUSH2 0x71A PUSH2 0x148A JUMP JUMPDEST SWAP3 SWAP2 SWAP1 PUSH2 0x1A5D JUMP JUMPDEST PUSH1 0x60 PUSH2 0x60E PUSH2 0x609 PUSH2 0x1C29 JUMP JUMPDEST PUSH2 0x76A PUSH32 0x6D696E7465720000000000000000000000000000000000000000000000000000 PUSH2 0x75B PUSH2 0x1480 JUMP JUMPDEST PUSH2 0x763 PUSH2 0x18BE JUMP JUMPDEST SWAP2 SWAP1 PUSH2 0x1C57 JUMP JUMPDEST PUSH2 0x77E DUP3 DUP3 PUSH2 0x777 PUSH2 0x148A JUMP JUMPDEST SWAP2 SWAP1 PUSH2 0x1D03 JUMP JUMPDEST POP POP JUMP JUMPDEST PUSH1 0x0 PUSH2 0x79F PUSH2 0x78F PUSH2 0x1480 JUMP JUMPDEST DUP4 PUSH2 0x798 PUSH2 0x148A JUMP JUMPDEST SWAP2 SWAP1 PUSH2 0x1E7D JUMP JUMPDEST POP PUSH1 0x1 SWAP2 SWAP1 POP JUMP JUMPDEST PUSH1 0x0 PUSH2 0x7CC PUSH2 0x7B4 PUSH2 0x1480 JUMP JUMPDEST DUP8 DUP8 DUP8 DUP8 DUP8 PUSH2 0x7C1 PUSH2 0x148A JUMP JUMPDEST SWAP6 SWAP5 SWAP4 SWAP3 SWAP2 SWAP1 PUSH2 0x1F93 JUMP JUMPDEST POP PUSH1 0x1 SWAP6 SWAP5 POP POP POP POP POP JUMP JUMPDEST PUSH2 0x804 PUSH32 0x6D696E7465720000000000000000000000000000000000000000000000000000 PUSH2 0x75B PUSH2 0x1480 JUMP JUMPDEST PUSH2 0x87C DUP5 DUP5 DUP1 DUP1 PUSH1 0x20 MUL PUSH1 0x20 ADD PUSH1 0x40 MLOAD SWAP1 DUP2 ADD PUSH1 0x40 MSTORE DUP1 SWAP4 SWAP3 SWAP2 SWAP1 DUP2 DUP2 MSTORE PUSH1 0x20 ADD DUP4 DUP4 PUSH1 0x20 MUL DUP1 DUP3 DUP5 CALLDATACOPY PUSH1 0x0 SWAP3 ADD SWAP2 SWAP1 SWAP2 MSTORE POP POP PUSH1 0x40 DUP1 MLOAD PUSH1 0x20 DUP1 DUP9 MUL DUP3 DUP2 ADD DUP3 ADD SWAP1 SWAP4 MSTORE DUP8 DUP3 MSTORE SWAP1 SWAP4 POP DUP8 SWAP3 POP DUP7 SWAP2 DUP3 SWAP2 DUP6 ADD SWAP1 DUP5 SWAP1 DUP1 DUP3 DUP5 CALLDATACOPY PUSH1 0x0 SWAP3 ADD SWAP2 SWAP1 SWAP2 MSTORE POP PUSH2 0x875 SWAP3 POP PUSH2 0x148A SWAP2 POP POP JUMP JUMPDEST SWAP2 SWAP1 PUSH2 0x23D9 JUMP JUMPDEST POP POP POP POP JUMP JUMPDEST PUSH1 0x0 PUSH2 0x5F6 DUP3 PUSH2 0x890 PUSH2 0x148A JUMP JUMPDEST SWAP1 PUSH20 0xFFFFFFFFFFFFFFFFFFFFFFFFFFFFFFFFFFFFFFFF AND PUSH1 0x0 SWAP1 DUP2 MSTORE PUSH1 0x20 SWAP2 SWAP1 SWAP2 MSTORE PUSH1 0x40 SWAP1 KECCAK256 SLOAD SWAP1 JUMP JUMPDEST PUSH2 0x8CD PUSH2 0x8C5 PUSH2 0x1480 JUMP JUMPDEST PUSH2 0x6C1 PUSH2 0xFE0 JUMP JUMPDEST DUP5 DUP4 DUP2 EQ DUP1 ISZERO PUSH2 0x8DC JUMPI POP DUP1 DUP3 EQ JUMPDEST PUSH2 0x947 JUMPI PUSH1 0x40 MLOAD PUSH32 0x8C379A000000000000000000000000000000000000000000000000000000000 DUP2 MSTORE PUSH1 0x20 PUSH1 0x4 DUP3 ADD MSTORE PUSH1 0x1D PUSH1 0x24 DUP3 ADD MSTORE PUSH32 0x5265636F766572793A20696E636F6E73697374656E7420617272617973000000 PUSH1 0x44 DUP3 ADD MSTORE PUSH1 0x64 ADD JUMPDEST PUSH1 0x40 MLOAD DUP1 SWAP2 SUB SWAP1 REVERT JUMPDEST PUSH1 0x0 JUMPDEST DUP2 DUP2 EQ PUSH2 0x9E0 JUMPI PUSH2 0x9D8 DUP9 DUP9 DUP4 DUP2 DUP2 LT PUSH2 0x966 JUMPI PUSH2 0x966 PUSH2 0x429C JUMP JUMPDEST SWAP1 POP PUSH1 0x20 MUL ADD PUSH1 0x20 DUP2 ADD SWAP1 PUSH2 0x97B SWAP2 SWAP1 PUSH2 0x400A JUMP JUMPDEST DUP6 DUP6 DUP5 DUP2 DUP2 LT PUSH2 0x98D JUMPI PUSH2 0x98D PUSH2 0x429C JUMP JUMPDEST SWAP1 POP PUSH1 0x20 MUL ADD CALLDATALOAD DUP9 DUP9 DUP6 DUP2 DUP2 LT PUSH2 0x9A6 JUMPI PUSH2 0x9A6 PUSH2 0x429C JUMP JUMPDEST SWAP1 POP PUSH1 0x20 MUL ADD PUSH1 0x20 DUP2 ADD SWAP1 PUSH2 0x9BB SWAP2 SWAP1 PUSH2 0x400A JUMP JUMPDEST PUSH20 0xFFFFFFFFFFFFFFFFFFFFFFFFFFFFFFFFFFFFFFFF AND SWAP2 SWAP1 PUSH2 0x26AF JUMP JUMPDEST PUSH1 0x1 ADD PUSH2 0x94A JUMP JUMPDEST POP POP POP POP POP POP POP POP JUMP JUMPDEST PUSH1 0x0 PUSH2 0x632 PUSH2 0x9F7 PUSH2 0x1480 JUMP JUMPDEST DUP5 DUP5 PUSH2 0xA01 PUSH2 0x148A JUMP JUMPDEST SWAP3 SWAP2 SWAP1 PUSH2 0x273C JUMP JUMPDEST PUSH1 0x0 PUSH2 0x5F6 DUP3 PUSH2 0x890 PUSH2 0x2786 JUMP JUMPDEST PUSH1 0x0 PUSH2 0x672 PUSH2 0xA24 PUSH2 0x1480 JUMP JUMPDEST DUP7 DUP7 DUP7 DUP7 PUSH2 0xA30 PUSH2 0x148A JUMP JUMPDEST SWAP5 SWAP4 SWAP3 SWAP2 SWAP1 PUSH2 0x27B4 JUMP JUMPDEST PUSH2 0xA55 PUSH2 0xA45 PUSH2 0x1480 JUMP JUMPDEST DUP3 PUSH2 0xA4E PUSH2 0x18BE JUMP JUMPDEST SWAP2 SWAP1 PUSH2 0x2B96 JUMP JUMPDEST POP JUMP JUMPDEST PUSH1 0x0 PUSH2 0x60E PUSH2 0xA65 PUSH2 0xFE0 JUMP JUMPDEST SLOAD PUSH20 0xFFFFFFFFFFFFFFFFFFFFFFFFFFFFFFFFFFFFFFFF AND SWAP1 JUMP JUMPDEST PUSH1 0x0 PUSH2 0xAC3 DUP4 DUP4 PUSH2 0xA8E PUSH2 0x18BE JUMP JUMPDEST PUSH1 0x0 SWAP3 DUP4 MSTORE PUSH1 0x20 SWAP1 DUP2 MSTORE PUSH1 0x40 DUP1 DUP5 KECCAK256 PUSH20 0xFFFFFFFFFFFFFFFFFFFFFFFFFFFFFFFFFFFFFFFF SWAP1 SWAP4 AND DUP5 MSTORE SWAP2 SWAP1 MSTORE SWAP1 KECCAK256 SLOAD PUSH1 0xFF AND SWAP1 JUMP JUMPDEST SWAP4 SWAP3 POP POP POP JUMP JUMPDEST PUSH1 0x60 PUSH2 0x60E PUSH2 0xAD7 PUSH2 0xF33 JUMP JUMPDEST PUSH2 0x2C3A JUMP JUMPDEST PUSH1 0x0 PUSH2 0x632 PUSH2 0xAE9 PUSH2 0x1480 JUMP JUMPDEST DUP5 DUP5 PUSH2 0xAF3 PUSH2 0x148A JUMP JUMPDEST SWAP3 SWAP2 SWAP1 PUSH2 0x2C4B JUMP JUMPDEST PUSH1 0x0 PUSH2 0x632 PUSH2 0xB08 PUSH2 0x1480 JUMP JUMPDEST DUP5 DUP5 PUSH2 0xB12 PUSH2 0x148A JUMP JUMPDEST SWAP3 SWAP2 SWAP1 PUSH2 0x2D9D JUMP JUMPDEST PUSH1 0x0 PUSH2 0x7CC PUSH2 0xB27 PUSH2 0x1480 JUMP JUMPDEST DUP8 DUP8 DUP8 DUP8 DUP8 PUSH2 0xB34 PUSH2 0x148A JUMP JUMPDEST SWAP6 SWAP5 SWAP4 SWAP3 SWAP2 SWAP1 PUSH2 0x2F7E JUMP JUMPDEST PUSH2 0xB4A PUSH2 0x8C5 PUSH2 0x1480 JUMP JUMPDEST DUP5 DUP4 DUP2 EQ DUP1 ISZERO PUSH2 0xB59 JUMPI POP DUP1 DUP3 EQ JUMPDEST PUSH2 0xBBF JUMPI PUSH1 0x40 MLOAD PUSH32 0x8C379A000000000000000000000000000000000000000000000000000000000 DUP2 MSTORE PUSH1 0x20 PUSH1 0x4 DUP3 ADD MSTORE PUSH1 0x1D PUSH1 0x24 DUP3 ADD MSTORE PUSH32 0x5265636F766572793A20696E636F6E73697374656E7420617272617973000000 PUSH1 0x44 DUP3 ADD MSTORE PUSH1 0x64 ADD PUSH2 0x93E JUMP JUMPDEST PUSH1 0x0 JUMPDEST DUP2 DUP2 EQ PUSH2 0x9E0 JUMPI DUP6 DUP6 DUP3 DUP2 DUP2 LT PUSH2 0xBDB JUMPI PUSH2 0xBDB PUSH2 0x429C JUMP JUMPDEST SWAP1 POP PUSH1 0x20 MUL ADD PUSH1 0x20 DUP2 ADD SWAP1 PUSH2 0xBF0 SWAP2 SWAP1 PUSH2 0x400A JUMP JUMPDEST PUSH20 0xFFFFFFFFFFFFFFFFFFFFFFFFFFFFFFFFFFFFFFFF AND PUSH4 0x23B872DD ADDRESS DUP11 DUP11 DUP6 DUP2 DUP2 LT PUSH2 0xC1E JUMPI PUSH2 0xC1E PUSH2 0x429C JUMP JUMPDEST SWAP1 POP PUSH1 0x20 MUL ADD PUSH1 0x20 DUP2 ADD SWAP1 PUSH2 0xC33 SWAP2 SWAP1 PUSH2 0x400A JUMP JUMPDEST DUP8 DUP8 DUP7 DUP2 DUP2 LT PUSH2 0xC45 JUMPI PUSH2 0xC45 PUSH2 0x429C JUMP JUMPDEST PUSH1 0x40 MLOAD PUSH32 0xFFFFFFFF00000000000000000000000000000000000000000000000000000000 PUSH1 0xE0 DUP9 SWAP1 SHL AND DUP2 MSTORE PUSH20 0xFFFFFFFFFFFFFFFFFFFFFFFFFFFFFFFFFFFFFFFF SWAP6 DUP7 AND PUSH1 0x4 DUP3 ADD MSTORE SWAP5 SWAP1 SWAP4 AND PUSH1 0x24 DUP6 ADD MSTORE POP PUSH1 0x20 SWAP1 SWAP2 MUL ADD CALLDATALOAD PUSH1 0x44 DUP3 ADD MSTORE PUSH1 0x64 ADD PUSH1 0x0 PUSH1 0x40 MLOAD DUP1 DUP4 SUB DUP2 PUSH1 0x0 DUP8 DUP1 EXTCODESIZE ISZERO DUP1 ISZERO PUSH2 0xCC1 JUMPI PUSH1 0x0 DUP1 REVERT JUMPDEST POP GAS CALL ISZERO DUP1 ISZERO PUSH2 0xCD5 JUMPI RETURNDATASIZE PUSH1 0x0 DUP1 RETURNDATACOPY RETURNDATASIZE PUSH1 0x0 REVERT JUMPDEST POP POP POP POP DUP1 PUSH1 0x1 ADD SWAP1 POP PUSH2 0xBC2 JUMP JUMPDEST PUSH2 0xD02 DUP8 DUP8 DUP8 DUP8 DUP8 DUP8 DUP8 PUSH2 0xCF6 PUSH2 0x2786 JUMP JUMPDEST SWAP7 SWAP6 SWAP5 SWAP4 SWAP3 SWAP2 SWAP1 PUSH2 0x2FEB JUMP JUMPDEST POP POP POP POP POP POP POP JUMP JUMPDEST PUSH1 0x0 PUSH2 0xD15 PUSH2 0x1480 JUMP JUMPDEST SWAP1 POP PUSH2 0xD23 DUP2 PUSH2 0x6C1 PUSH2 0xFE0 JUMP JUMPDEST PUSH2 0x6DD DUP4 DUP4 DUP4 PUSH2 0xD31 PUSH2 0x18BE JUMP JUMPDEST SWAP3 SWAP2 SWAP1 PUSH2 0x32E7 JUMP JUMPDEST PUSH1 0x0 PUSH2 0xAC3 DUP4 DUP4 PUSH2 0xD48 PUSH2 0x148A JUMP JUMPDEST SWAP2 SWAP1 PUSH20 0xFFFFFFFFFFFFFFFFFFFFFFFFFFFFFFFFFFFFFFFF SWAP2 DUP3 AND PUSH1 0x0 SWAP1 DUP2 MSTORE PUSH1 0x1 SWAP4 SWAP1 SWAP4 ADD PUSH1 0x20 SWAP1 DUP2 MSTORE PUSH1 0x40 DUP1 DUP6 KECCAK256 SWAP3 SWAP1 SWAP4 AND DUP5 MSTORE MSTORE SWAP1 KECCAK256 SLOAD SWAP1 JUMP JUMPDEST PUSH2 0xD8F PUSH2 0x8C5 PUSH2 0x1480 JUMP JUMPDEST PUSH2 0x77E DUP3 DUP3 PUSH2 0xD9C PUSH2 0x1C29 JUMP JUMPDEST SWAP2 SWAP1 PUSH2 0x33B1 JUMP JUMPDEST PUSH1 0x0 PUSH2 0x672 PUSH2 0xDB0 PUSH2 0x1480 JUMP JUMPDEST DUP7 DUP7 DUP7 DUP7 PUSH2 0xDBC PUSH2 0x148A JUMP JUMPDEST SWAP5 SWAP4 SWAP3 SWAP2 SWAP1 PUSH2 0x33BD JUMP JUMPDEST PUSH2 0xA55 PUSH2 0xDD1 PUSH2 0x1480 JUMP JUMPDEST DUP3 PUSH2 0xDDA PUSH2 0xFE0 JUMP JUMPDEST SWAP2 SWAP1 PUSH2 0x3429 JUMP JUMPDEST PUSH2 0xDEC PUSH2 0x8C5 PUSH2 0x1480 JUMP JUMPDEST DUP3 DUP2 DUP2 EQ PUSH2 0xE56 JUMPI PUSH1 0x40 MLOAD PUSH32 0x8C379A000000000000000000000000000000000000000000000000000000000 DUP2 MSTORE PUSH1 0x20 PUSH1 0x4 DUP3 ADD MSTORE PUSH1 0x1D PUSH1 0x24 DUP3 ADD MSTORE PUSH32 0x5265636F766572793A20696E636F6E73697374656E7420617272617973000000 PUSH1 0x44 DUP3 ADD MSTORE PUSH1 0x64 ADD PUSH2 0x93E JUMP JUMPDEST PUSH1 0x0 JUMPDEST DUP2 DUP2 EQ PUSH2 0xEC7 JUMPI PUSH2 0xEBF DUP5 DUP5 DUP4 DUP2 DUP2 LT PUSH2 0xE75 JUMPI PUSH2 0xE75 PUSH2 0x429C JUMP JUMPDEST SWAP1 POP PUSH1 0x20 MUL ADD CALLDATALOAD DUP8 DUP8 DUP5 DUP2 DUP2 LT PUSH2 0xE8E JUMPI PUSH2 0xE8E PUSH2 0x429C JUMP JUMPDEST SWAP1 POP PUSH1 0x20 MUL ADD PUSH1 0x20 DUP2 ADD SWAP1 PUSH2 0xEA3 SWAP2 SWAP1 PUSH2 0x400A JUMP JUMPDEST PUSH20 0xFFFFFFFFFFFFFFFFFFFFFFFFFFFFFFFFFFFFFFFF AND SWAP1 PUSH2 0x3555 JUMP JUMPDEST PUSH1 0x1 ADD PUSH2 0xE59 JUMP JUMPDEST POP POP POP POP POP POP JUMP JUMPDEST PUSH1 0x0 PUSH2 0xED9 PUSH2 0x11D6 JUMP JUMPDEST SWAP1 POP PUSH2 0xF07 DUP2 PUSH32 0x36372B0700000000000000000000000000000000000000000000000000000000 PUSH1 0x1 PUSH2 0x1204 JUMP JUMPDEST PUSH2 0xA55 DUP2 PUSH32 0x9D07518600000000000000000000000000000000000000000000000000000000 PUSH1 0x1 PUSH2 0x1204 JUMP JUMPDEST PUSH1 0x0 DUP1 PUSH2 0x5F6 PUSH1 0x1 PUSH32 0x335DF4119BBB04F056B33EBA33B826D3529129E458FAF6DAA9924B5A8F3B6A82 PUSH2 0x42CB JUMP JUMPDEST DUP4 PUSH2 0xF6C DUP5 DUP3 PUSH2 0x43CD JUMP JUMPDEST POP PUSH1 0x1 DUP5 ADD PUSH2 0xF7B DUP4 DUP3 PUSH2 0x43CD JUMP JUMPDEST POP PUSH1 0x2 DUP5 ADD DUP1 SLOAD PUSH32 0xFFFFFFFFFFFFFFFFFFFFFFFFFFFFFFFFFFFFFFFFFFFFFFFFFFFFFFFFFFFFFF00 AND PUSH1 0xFF DUP4 AND OR SWAP1 SSTORE PUSH2 0x87C PUSH32 0xA219A02500000000000000000000000000000000000000000000000000000000 PUSH1 0x1 PUSH2 0xFD9 PUSH2 0x11D6 JUMP JUMPDEST SWAP2 SWAP1 PUSH2 0x1204 JUMP JUMPDEST PUSH1 0x0 DUP1 PUSH2 0x5F6 PUSH1 0x1 PUSH32 0xC9ED16F33AB3A66C84BFD83099CCB2A8845871E2E1C1928F63797152F0FD54CD PUSH2 0x42CB JUMP JUMPDEST PUSH20 0xFFFFFFFFFFFFFFFFFFFFFFFFFFFFFFFFFFFFFFFF DUP2 AND ISZERO PUSH2 0x1096 JUMPI DUP2 SLOAD PUSH32 0xFFFFFFFFFFFFFFFFFFFFFFFF0000000000000000000000000000000000000000 AND PUSH20 0xFFFFFFFFFFFFFFFFFFFFFFFFFFFFFFFFFFFFFFFF DUP3 AND SWAP1 DUP2 OR DUP4 SSTORE PUSH1 0x40 MLOAD PUSH1 0x0 SWAP1 PUSH32 0x8BE0079C531659141344CD1FD0A4F28419497F9722A3DAAFE3B4186F6B6457E0 SWAP1 DUP3 SWAP1 LOG3 JUMPDEST PUSH2 0x77E PUSH32 0x7F5828D000000000000000000000000000000000000000000000000000000000 PUSH1 0x1 PUSH2 0xFD9 PUSH2 0x11D6 JUMP JUMPDEST PUSH2 0x10F2 PUSH32 0x3C130D9000000000000000000000000000000000000000000000000000000000 PUSH1 0x1 PUSH2 0xFD9 PUSH2 0x11D6 JUMP JUMPDEST JUMP JUMPDEST PUSH2 0x10F2 PUSH32 0x28963E1E00000000000000000000000000000000000000000000000000000000 PUSH1 0x1 PUSH2 0xFD9 PUSH2 0x11D6 JUMP JUMPDEST PUSH2 0x10F2 PUSH32 0x20C07ED100000000000000000000000000000000000000000000000000000000 PUSH1 0x1 PUSH2 0xFD9 PUSH2 0x11D6 JUMP JUMPDEST PUSH2 0x10F2 PUSH32 0x53F41A9700000000000000000000000000000000000000000000000000000000 PUSH1 0x1 PUSH2 0xFD9 PUSH2 0x11D6 JUMP JUMPDEST PUSH2 0x10F2 PUSH32 0xC05327E600000000000000000000000000000000000000000000000000000000 PUSH1 0x1 PUSH2 0xFD9 PUSH2 0x11D6 JUMP JUMPDEST PUSH2 0x10F2 PUSH32 0x9D8FF7DA00000000000000000000000000000000000000000000000000000000 PUSH1 0x1 PUSH2 0xFD9 JUMPDEST PUSH1 0x0 DUP1 PUSH2 0x5F6 PUSH1 0x1 PUSH32 0xCA9D3E17F264B0F3984E2634E94ADB37FA3E6A8103F06AEAE6FA59E21C769F5E PUSH2 0x42CB JUMP JUMPDEST PUSH29 0x100000000000000000000000000000000000000000000000000000000 PUSH32 0xFFFFFFFF00000000000000000000000000000000000000000000000000000000 DUP4 AND ADD PUSH2 0x12AC JUMPI PUSH1 0x40 MLOAD PUSH32 0x8C379A000000000000000000000000000000000000000000000000000000000 DUP2 MSTORE PUSH1 0x20 PUSH1 0x4 DUP3 ADD MSTORE PUSH1 0x1F PUSH1 0x24 DUP3 ADD MSTORE PUSH32 0x496E74657266616365446574656374696F6E3A2077726F6E672076616C756500 PUSH1 0x44 DUP3 ADD MSTORE PUSH1 0x64 ADD PUSH2 0x93E JUMP JUMPDEST PUSH32 0xFFFFFFFF00000000000000000000000000000000000000000000000000000000 SWAP2 SWAP1 SWAP2 AND PUSH1 0x0 SWAP1 DUP2 MSTORE PUSH1 0x20 SWAP3 SWAP1 SWAP3 MSTORE PUSH1 0x40 SWAP1 SWAP2 KECCAK256 DUP1 SLOAD PUSH32 0xFFFFFFFFFFFFFFFFFFFFFFFFFFFFFFFFFFFFFFFFFFFFFFFFFFFFFFFFFFFFFF00 AND SWAP2 ISZERO ISZERO SWAP2 SWAP1 SWAP2 OR SWAP1 SSTORE JUMP JUMPDEST PUSH1 0x0 PUSH29 0x100000000000000000000000000000000000000000000000000000000 PUSH32 0xFFFFFFFF00000000000000000000000000000000000000000000000000000000 DUP4 AND ADD PUSH2 0x1360 JUMPI POP PUSH1 0x0 PUSH2 0x5F6 JUMP JUMPDEST PUSH32 0xFE00365900000000000000000000000000000000000000000000000000000000 PUSH32 0xFFFFFFFF00000000000000000000000000000000000000000000000000000000 DUP4 AND ADD PUSH2 0x13B1 JUMPI POP PUSH1 0x1 PUSH2 0x5F6 JUMP JUMPDEST POP PUSH32 0xFFFFFFFF00000000000000000000000000000000000000000000000000000000 AND PUSH1 0x0 SWAP1 DUP2 MSTORE PUSH1 0x20 SWAP2 SWAP1 SWAP2 MSTORE PUSH1 0x40 SWAP1 KECCAK256 SLOAD PUSH1 0xFF AND SWAP1 JUMP JUMPDEST PUSH1 0x60 DUP2 PUSH1 0x0 ADD DUP1 SLOAD PUSH2 0x13FB SWAP1 PUSH2 0x4334 JUMP JUMPDEST DUP1 PUSH1 0x1F ADD PUSH1 0x20 DUP1 SWAP2 DIV MUL PUSH1 0x20 ADD PUSH1 0x40 MLOAD SWAP1 DUP2 ADD PUSH1 0x40 MSTORE DUP1 SWAP3 SWAP2 SWAP1 DUP2 DUP2 MSTORE PUSH1 0x20 ADD DUP3 DUP1 SLOAD PUSH2 0x1427 SWAP1 PUSH2 0x4334 JUMP JUMPDEST DUP1 ISZERO PUSH2 0x1474 JUMPI DUP1 PUSH1 0x1F LT PUSH2 0x1449 JUMPI PUSH2 0x100 DUP1 DUP4 SLOAD DIV MUL DUP4 MSTORE SWAP2 PUSH1 0x20 ADD SWAP2 PUSH2 0x1474 JUMP JUMPDEST DUP3 ADD SWAP2 SWAP1 PUSH1 0x0 MSTORE PUSH1 0x20 PUSH1 0x0 KECCAK256 SWAP1 JUMPDEST DUP2 SLOAD DUP2 MSTORE SWAP1 PUSH1 0x1 ADD SWAP1 PUSH1 0x20 ADD DUP1 DUP4 GT PUSH2 0x1457 JUMPI DUP3 SWAP1 SUB PUSH1 0x1F AND DUP3 ADD SWAP2 JUMPDEST POP POP POP POP POP SWAP1 POP SWAP2 SWAP1 POP JUMP JUMPDEST PUSH1 0x0 PUSH2 0x60E PUSH2 0x36AF JUMP JUMPDEST PUSH1 0x0 DUP1 PUSH2 0x5F6 PUSH1 0x1 PUSH32 0x1DA92899D3DA68BF9787824388A37EA2BFA79780BCEF91B9716C390EEC8ECBEF PUSH2 0x42CB JUMP JUMPDEST PUSH20 0xFFFFFFFFFFFFFFFFFFFFFFFFFFFFFFFFFFFFFFFF DUP3 AND PUSH2 0x1535 JUMPI PUSH1 0x40 MLOAD PUSH32 0x8C379A000000000000000000000000000000000000000000000000000000000 DUP2 MSTORE PUSH1 0x20 PUSH1 0x4 DUP3 ADD MSTORE PUSH1 0x1D PUSH1 0x24 DUP3 ADD MSTORE PUSH32 0x45524332303A20617070726F76616C20746F2061646472657373283029000000 PUSH1 0x44 DUP3 ADD MSTORE PUSH1 0x64 ADD PUSH2 0x93E JUMP JUMPDEST PUSH20 0xFFFFFFFFFFFFFFFFFFFFFFFFFFFFFFFFFFFFFFFF DUP4 DUP2 AND PUSH1 0x0 DUP2 DUP2 MSTORE PUSH1 0x1 DUP8 ADD PUSH1 0x20 SWAP1 DUP2 MSTORE PUSH1 0x40 DUP1 DUP4 KECCAK256 SWAP5 DUP8 AND DUP1 DUP5 MSTORE SWAP5 DUP3 MSTORE SWAP2 DUP3 SWAP1 KECCAK256 DUP6 SWAP1 SSTORE SWAP1 MLOAD DUP5 DUP2 MSTORE PUSH32 0x8C5BE1E5EBEC7D5BD14F71427D1E84F3DD0314C0F7B2291E5B200AC8C7C3B925 SWAP2 ADD JUMPDEST PUSH1 0x40 MLOAD DUP1 SWAP2 SUB SWAP1 LOG3 POP POP POP POP JUMP JUMPDEST DUP3 DUP2 DUP2 EQ PUSH2 0x1611 JUMPI PUSH1 0x40 MLOAD PUSH32 0x8C379A000000000000000000000000000000000000000000000000000000000 DUP2 MSTORE PUSH1 0x20 PUSH1 0x4 DUP3 ADD MSTORE PUSH1 0x1A PUSH1 0x24 DUP3 ADD MSTORE PUSH32 0x45524332303A20696E636F6E73697374656E7420617272617973000000000000 PUSH1 0x44 DUP3 ADD MSTORE PUSH1 0x64 ADD PUSH2 0x93E JUMP JUMPDEST DUP1 PUSH1 0x0 SUB PUSH2 0x161F JUMPI POP PUSH2 0xEC7 JUMP JUMPDEST PUSH1 0x0 DUP1 JUMPDEST DUP3 DUP2 EQ PUSH2 0x17CD JUMPI PUSH1 0x0 DUP8 DUP8 DUP4 DUP2 DUP2 LT PUSH2 0x163E JUMPI PUSH2 0x163E PUSH2 0x429C JUMP JUMPDEST SWAP1 POP PUSH1 0x20 MUL ADD PUSH1 0x20 DUP2 ADD SWAP1 PUSH2 0x1653 SWAP2 SWAP1 PUSH2 0x400A JUMP JUMPDEST SWAP1 POP PUSH1 0x0 DUP7 DUP7 DUP5 DUP2 DUP2 LT PUSH2 0x1669 JUMPI PUSH2 0x1669 PUSH2 0x429C JUMP JUMPDEST SWAP1 POP PUSH1 0x20 MUL ADD CALLDATALOAD SWAP1 POP DUP10 PUSH20 0xFFFFFFFFFFFFFFFFFFFFFFFFFFFFFFFFFFFFFFFF AND DUP3 PUSH20 0xFFFFFFFFFFFFFFFFFFFFFFFFFFFFFFFFFFFFFFFF AND EQ PUSH2 0x16B1 JUMPI PUSH2 0x16B1 DUP12 DUP4 DUP13 DUP5 PUSH2 0x2C4B JUMP JUMPDEST DUP1 ISZERO PUSH2 0x1775 JUMPI PUSH20 0xFFFFFFFFFFFFFFFFFFFFFFFFFFFFFFFFFFFFFFFF DUP3 AND PUSH1 0x0 SWAP1 DUP2 MSTORE PUSH1 0x20 DUP13 SWAP1 MSTORE PUSH1 0x40 SWAP1 KECCAK256 SLOAD DUP2 DUP2 SUB DUP2 DUP2 LT PUSH2 0x1749 JUMPI PUSH1 0x40 MLOAD PUSH32 0x8C379A000000000000000000000000000000000000000000000000000000000 DUP2 MSTORE PUSH1 0x20 PUSH1 0x4 DUP3 ADD MSTORE PUSH1 0x1B PUSH1 0x24 DUP3 ADD MSTORE PUSH32 0x45524332303A20696E73756666696369656E742062616C616E63650000000000 PUSH1 0x44 DUP3 ADD MSTORE PUSH1 0x64 ADD PUSH2 0x93E JUMP JUMPDEST PUSH20 0xFFFFFFFFFFFFFFFFFFFFFFFFFFFFFFFFFFFFFFFF DUP5 AND PUSH1 0x0 SWAP1 DUP2 MSTORE PUSH1 0x20 DUP15 SWAP1 MSTORE PUSH1 0x40 SWAP1 KECCAK256 SSTORE POP SWAP3 DUP4 ADD SWAP3 JUMPDEST PUSH1 0x40 MLOAD DUP2 DUP2 MSTORE PUSH1 0x0 SWAP1 PUSH20 0xFFFFFFFFFFFFFFFFFFFFFFFFFFFFFFFFFFFFFFFF DUP5 AND SWAP1 PUSH32 0xDDF252AD1BE2C89B69C2B068FC378DAA952BA7F163C4A11628F55A4DF523B3EF SWAP1 PUSH1 0x20 ADD PUSH1 0x40 MLOAD DUP1 SWAP2 SUB SWAP1 LOG3 POP POP PUSH1 0x1 ADD PUSH2 0x1623 JUMP JUMPDEST POP DUP1 ISZERO PUSH2 0x9E0 JUMPI PUSH1 0x2 DUP9 ADD DUP1 SLOAD DUP3 SWAP1 SUB SWAP1 SSTORE POP POP POP POP POP POP POP POP JUMP JUMPDEST DUP4 PUSH20 0xFFFFFFFFFFFFFFFFFFFFFFFFFFFFFFFFFFFFFFFF AND DUP4 PUSH20 0xFFFFFFFFFFFFFFFFFFFFFFFFFFFFFFFFFFFFFFFF AND EQ PUSH2 0x1828 JUMPI PUSH2 0x1828 DUP6 DUP5 DUP7 DUP5 PUSH2 0x2C4B JUMP JUMPDEST PUSH2 0x1834 DUP6 DUP5 DUP5 DUP5 PUSH2 0x2D9D JUMP JUMPDEST POP POP POP POP POP JUMP JUMPDEST DUP2 SLOAD PUSH20 0xFFFFFFFFFFFFFFFFFFFFFFFFFFFFFFFFFFFFFFFF DUP3 DUP2 AND SWAP2 AND EQ PUSH2 0x77E JUMPI PUSH1 0x40 MLOAD PUSH32 0x8C379A000000000000000000000000000000000000000000000000000000000 DUP2 MSTORE PUSH1 0x20 PUSH1 0x4 DUP3 ADD MSTORE PUSH1 0x18 PUSH1 0x24 DUP3 ADD MSTORE PUSH32 0x4F776E6572736869703A206E6F7420746865206F776E65720000000000000000 PUSH1 0x44 DUP3 ADD MSTORE PUSH1 0x64 ADD PUSH2 0x93E JUMP JUMPDEST PUSH1 0x0 DUP1 PUSH2 0x5F6 PUSH1 0x1 PUSH32 0xC8827D3282AF6F37B64C3E9E6F3AC9DF286AB0BB0FCCD6F8661BF19ADB368B23 PUSH2 0x42CB JUMP JUMPDEST PUSH1 0x0 DUP4 DUP2 MSTORE PUSH1 0x20 DUP6 DUP2 MSTORE PUSH1 0x40 DUP1 DUP4 KECCAK256 PUSH20 0xFFFFFFFFFFFFFFFFFFFFFFFFFFFFFFFFFFFFFFFF DUP7 AND DUP5 MSTORE SWAP1 SWAP2 MSTORE SWAP1 KECCAK256 SLOAD PUSH1 0xFF AND PUSH2 0x87C JUMPI PUSH1 0x0 DUP4 DUP2 MSTORE PUSH1 0x20 DUP6 DUP2 MSTORE PUSH1 0x40 DUP1 DUP4 KECCAK256 PUSH20 0xFFFFFFFFFFFFFFFFFFFFFFFFFFFFFFFFFFFFFFFF DUP7 DUP2 AND DUP1 DUP7 MSTORE SWAP2 DUP5 MSTORE SWAP4 DUP3 SWAP1 KECCAK256 DUP1 SLOAD PUSH32 0xFFFFFFFFFFFFFFFFFFFFFFFFFFFFFFFFFFFFFFFFFFFFFFFFFFFFFFFFFFFFFF00 AND PUSH1 0x1 OR SWAP1 SSTORE DUP2 MLOAD DUP8 DUP2 MSTORE SWAP3 DUP4 ADD MSTORE SWAP2 DUP4 AND SWAP2 DUP2 ADD SWAP2 SWAP1 SWAP2 MSTORE PUSH32 0x2F8788117E7EFF1D82E926EC794901D17C78024A50270940304540A733656F0D SWAP1 PUSH1 0x60 ADD JUMPDEST PUSH1 0x40 MLOAD DUP1 SWAP2 SUB SWAP1 LOG1 POP POP POP POP JUMP JUMPDEST PUSH1 0x0 CHAINID PUSH32 0x8B73C3C69BB8FE3D512ECC4CF759CC79239F7B179B0FFACAA9A75D522B39400F PUSH2 0x19F1 PUSH2 0x609 PUSH2 0xF33 JUMP JUMPDEST DUP1 MLOAD PUSH1 0x20 SWAP2 DUP3 ADD KECCAK256 PUSH1 0x40 DUP1 MLOAD SWAP3 DUP4 ADD SWAP4 SWAP1 SWAP4 MSTORE SWAP2 DUP2 ADD SWAP2 SWAP1 SWAP2 MSTORE PUSH32 0xC89EFDAA54C0F20C7ADF612882DF0950F5A951637E0307CDCB4C672F298B8BC6 PUSH1 0x60 DUP3 ADD MSTORE PUSH1 0x80 DUP2 ADD DUP3 SWAP1 MSTORE ADDRESS PUSH1 0xA0 DUP3 ADD MSTORE PUSH1 0xC0 ADD PUSH1 0x40 MLOAD PUSH1 0x20 DUP2 DUP4 SUB SUB DUP2 MSTORE SWAP1 PUSH1 0x40 MSTORE DUP1 MLOAD SWAP1 PUSH1 0x20 ADD KECCAK256 SWAP2 POP POP SWAP1 JUMP JUMPDEST PUSH20 0xFFFFFFFFFFFFFFFFFFFFFFFFFFFFFFFFFFFFFFFF DUP3 AND PUSH2 0x1ADA JUMPI PUSH1 0x40 MLOAD PUSH32 0x8C379A000000000000000000000000000000000000000000000000000000000 DUP2 MSTORE PUSH1 0x20 PUSH1 0x4 DUP3 ADD MSTORE PUSH1 0x1D PUSH1 0x24 DUP3 ADD MSTORE PUSH32 0x45524332303A20617070726F76616C20746F2061646472657373283029000000 PUSH1 0x44 DUP3 ADD MSTORE PUSH1 0x64 ADD PUSH2 0x93E JUMP JUMPDEST PUSH20 0xFFFFFFFFFFFFFFFFFFFFFFFFFFFFFFFFFFFFFFFF DUP1 DUP5 AND PUSH1 0x0 SWAP1 DUP2 MSTORE PUSH1 0x1 DUP7 ADD PUSH1 0x20 SWAP1 DUP2 MSTORE PUSH1 0x40 DUP1 DUP4 KECCAK256 SWAP4 DUP7 AND DUP4 MSTORE SWAP3 SWAP1 MSTORE KECCAK256 SLOAD DUP2 ISZERO PUSH2 0x1BBB JUMPI DUP1 DUP3 ADD DUP2 DUP2 GT PUSH2 0x1B81 JUMPI PUSH1 0x40 MLOAD PUSH32 0x8C379A000000000000000000000000000000000000000000000000000000000 DUP2 MSTORE PUSH1 0x20 PUSH1 0x4 DUP3 ADD MSTORE PUSH1 0x19 PUSH1 0x24 DUP3 ADD MSTORE PUSH32 0x45524332303A20616C6C6F77616E6365206F766572666C6F7700000000000000 PUSH1 0x44 DUP3 ADD MSTORE PUSH1 0x64 ADD PUSH2 0x93E JUMP JUMPDEST PUSH20 0xFFFFFFFFFFFFFFFFFFFFFFFFFFFFFFFFFFFFFFFF DUP1 DUP7 AND PUSH1 0x0 SWAP1 DUP2 MSTORE PUSH1 0x1 DUP9 ADD PUSH1 0x20 SWAP1 DUP2 MSTORE PUSH1 0x40 DUP1 DUP4 KECCAK256 SWAP4 DUP9 AND DUP4 MSTORE SWAP3 SWAP1 MSTORE KECCAK256 DUP2 SWAP1 SSTORE SWAP1 POP JUMPDEST DUP3 PUSH20 0xFFFFFFFFFFFFFFFFFFFFFFFFFFFFFFFFFFFFFFFF AND DUP5 PUSH20 0xFFFFFFFFFFFFFFFFFFFFFFFFFFFFFFFFFFFFFFFF AND PUSH32 0x8C5BE1E5EBEC7D5BD14F71427D1E84F3DD0314C0F7B2291E5B200AC8C7C3B925 DUP4 PUSH1 0x40 MLOAD PUSH2 0x1C1A SWAP2 DUP2 MSTORE PUSH1 0x20 ADD SWAP1 JUMP JUMPDEST PUSH1 0x40 MLOAD DUP1 SWAP2 SUB SWAP1 LOG3 POP POP POP POP POP JUMP JUMPDEST PUSH1 0x0 DUP1 PUSH2 0x5F6 PUSH1 0x1 PUSH32 0xF41BF6A5DB26BFFDFAB174DCF66B31FBBA8FDB7E3DB040721CE1E62D61839CEB PUSH2 0x42CB JUMP JUMPDEST PUSH1 0x0 DUP3 DUP2 MSTORE PUSH1 0x20 DUP5 DUP2 MSTORE PUSH1 0x40 DUP1 DUP4 KECCAK256 PUSH20 0xFFFFFFFFFFFFFFFFFFFFFFFFFFFFFFFFFFFFFFFF DUP6 AND DUP5 MSTORE SWAP1 SWAP2 MSTORE SWAP1 KECCAK256 SLOAD PUSH1 0xFF AND PUSH2 0x6DD JUMPI PUSH2 0x1C95 DUP3 PUSH2 0x37F6 JUMP JUMPDEST PUSH1 0x40 MLOAD PUSH1 0x20 ADD PUSH2 0x1CA5 SWAP2 SWAP1 PUSH2 0x44E7 JUMP JUMPDEST PUSH1 0x40 DUP1 MLOAD PUSH32 0xFFFFFFFFFFFFFFFFFFFFFFFFFFFFFFFFFFFFFFFFFFFFFFFFFFFFFFFFFFFFFFE0 DUP2 DUP5 SUB ADD DUP2 MSTORE SWAP1 DUP3 SWAP1 MSTORE PUSH32 0x8C379A000000000000000000000000000000000000000000000000000000000 DUP3 MSTORE PUSH2 0x93E SWAP2 PUSH1 0x4 ADD PUSH2 0x3DE4 JUMP JUMPDEST PUSH20 0xFFFFFFFFFFFFFFFFFFFFFFFFFFFFFFFFFFFFFFFF DUP3 AND PUSH2 0x1D80 JUMPI PUSH1 0x40 MLOAD PUSH32 0x8C379A000000000000000000000000000000000000000000000000000000000 DUP2 MSTORE PUSH1 0x20 PUSH1 0x4 DUP3 ADD MSTORE PUSH1 0x19 PUSH1 0x24 DUP3 ADD MSTORE PUSH32 0x45524332303A206D696E7420746F206164647265737328302900000000000000 PUSH1 0x44 DUP3 ADD MSTORE PUSH1 0x64 ADD PUSH2 0x93E JUMP JUMPDEST DUP1 ISZERO PUSH2 0x1E29 JUMPI PUSH1 0x2 DUP4 ADD SLOAD DUP2 DUP2 ADD DUP2 DUP2 GT PUSH2 0x1DF7 JUMPI PUSH1 0x40 MLOAD PUSH32 0x8C379A000000000000000000000000000000000000000000000000000000000 DUP2 MSTORE PUSH1 0x20 PUSH1 0x4 DUP3 ADD MSTORE PUSH1 0x16 PUSH1 0x24 DUP3 ADD MSTORE PUSH32 0x45524332303A20737570706C79206F766572666C6F7700000000000000000000 PUSH1 0x44 DUP3 ADD MSTORE PUSH1 0x64 ADD PUSH2 0x93E JUMP JUMPDEST PUSH1 0x2 DUP6 ADD SSTORE POP PUSH20 0xFFFFFFFFFFFFFFFFFFFFFFFFFFFFFFFFFFFFFFFF DUP3 AND PUSH1 0x0 SWAP1 DUP2 MSTORE PUSH1 0x20 DUP5 SWAP1 MSTORE PUSH1 0x40 SWAP1 KECCAK256 DUP1 SLOAD DUP3 ADD SWAP1 SSTORE JUMPDEST PUSH1 0x40 MLOAD DUP2 DUP2 MSTORE PUSH20 0xFFFFFFFFFFFFFFFFFFFFFFFFFFFFFFFFFFFFFFFF DUP4 AND SWAP1 PUSH1 0x0 SWAP1 PUSH32 0xDDF252AD1BE2C89B69C2B068FC378DAA952BA7F163C4A11628F55A4DF523B3EF SWAP1 PUSH1 0x20 ADD JUMPDEST PUSH1 0x40 MLOAD DUP1 SWAP2 SUB SWAP1 LOG3 POP POP POP JUMP JUMPDEST DUP1 ISZERO PUSH2 0x1F48 JUMPI PUSH20 0xFFFFFFFFFFFFFFFFFFFFFFFFFFFFFFFFFFFFFFFF DUP3 AND PUSH1 0x0 SWAP1 DUP2 MSTORE PUSH1 0x20 DUP5 SWAP1 MSTORE PUSH1 0x40 SWAP1 KECCAK256 SLOAD DUP2 DUP2 SUB DUP2 DUP2 LT PUSH2 0x1F15 JUMPI PUSH1 0x40 MLOAD PUSH32 0x8C379A000000000000000000000000000000000000000000000000000000000 DUP2 MSTORE PUSH1 0x20 PUSH1 0x4 DUP3 ADD MSTORE PUSH1 0x1B PUSH1 0x24 DUP3 ADD MSTORE PUSH32 0x45524332303A20696E73756666696369656E742062616C616E63650000000000 PUSH1 0x44 DUP3 ADD MSTORE PUSH1 0x64 ADD PUSH2 0x93E JUMP JUMPDEST PUSH20 0xFFFFFFFFFFFFFFFFFFFFFFFFFFFFFFFFFFFFFFFF DUP5 AND PUSH1 0x0 SWAP1 DUP2 MSTORE PUSH1 0x20 DUP7 SWAP1 MSTORE PUSH1 0x40 SWAP1 KECCAK256 SSTORE POP PUSH1 0x2 DUP4 ADD DUP1 SLOAD DUP3 SWAP1 SUB SWAP1 SSTORE JUMPDEST PUSH1 0x40 MLOAD DUP2 DUP2 MSTORE PUSH1 0x0 SWAP1 PUSH20 0xFFFFFFFFFFFFFFFFFFFFFFFFFFFFFFFFFFFFFFFF DUP5 AND SWAP1 PUSH32 0xDDF252AD1BE2C89B69C2B068FC378DAA952BA7F163C4A11628F55A4DF523B3EF SWAP1 PUSH1 0x20 ADD PUSH2 0x1E70 JUMP JUMPDEST DUP3 DUP2 DUP2 EQ PUSH2 0x1FFD JUMPI PUSH1 0x40 MLOAD PUSH32 0x8C379A000000000000000000000000000000000000000000000000000000000 DUP2 MSTORE PUSH1 0x20 PUSH1 0x4 DUP3 ADD MSTORE PUSH1 0x1A PUSH1 0x24 DUP3 ADD MSTORE PUSH32 0x45524332303A20696E636F6E73697374656E7420617272617973000000000000 PUSH1 0x44 DUP3 ADD MSTORE PUSH1 0x64 ADD PUSH2 0x93E JUMP JUMPDEST DUP1 PUSH1 0x0 SUB PUSH2 0x200B JUMPI POP PUSH2 0xD02 JUMP JUMPDEST PUSH20 0xFFFFFFFFFFFFFFFFFFFFFFFFFFFFFFFFFFFFFFFF DUP7 AND PUSH1 0x0 SWAP1 DUP2 MSTORE PUSH1 0x20 DUP10 SWAP1 MSTORE PUSH1 0x40 DUP2 KECCAK256 SLOAD SWAP1 DUP1 DUP1 JUMPDEST DUP5 DUP2 EQ PUSH2 0x22E1 JUMPI PUSH1 0x0 DUP10 DUP10 DUP4 DUP2 DUP2 LT PUSH2 0x2050 JUMPI PUSH2 0x2050 PUSH2 0x429C JUMP JUMPDEST SWAP1 POP PUSH1 0x20 MUL ADD PUSH1 0x20 DUP2 ADD SWAP1 PUSH2 0x2065 SWAP2 SWAP1 PUSH2 0x400A JUMP JUMPDEST SWAP1 POP PUSH20 0xFFFFFFFFFFFFFFFFFFFFFFFFFFFFFFFFFFFFFFFF DUP2 AND PUSH2 0x20E4 JUMPI PUSH1 0x40 MLOAD PUSH32 0x8C379A000000000000000000000000000000000000000000000000000000000 DUP2 MSTORE PUSH1 0x20 PUSH1 0x4 DUP3 ADD MSTORE PUSH1 0x1D PUSH1 0x24 DUP3 ADD MSTORE PUSH32 0x45524332303A207472616E7366657220746F2061646472657373283029000000 PUSH1 0x44 DUP3 ADD MSTORE PUSH1 0x64 ADD PUSH2 0x93E JUMP JUMPDEST PUSH1 0x0 DUP9 DUP9 DUP5 DUP2 DUP2 LT PUSH2 0x20F8 JUMPI PUSH2 0x20F8 PUSH2 0x429C JUMP JUMPDEST SWAP1 POP PUSH1 0x20 MUL ADD CALLDATALOAD SWAP1 POP DUP1 PUSH1 0x0 EQ PUSH2 0x2270 JUMPI DUP5 DUP2 ADD DUP6 DUP2 GT PUSH2 0x2175 JUMPI PUSH1 0x40 MLOAD PUSH32 0x8C379A000000000000000000000000000000000000000000000000000000000 DUP2 MSTORE PUSH1 0x20 PUSH1 0x4 DUP3 ADD MSTORE PUSH1 0x16 PUSH1 0x24 DUP3 ADD MSTORE PUSH32 0x45524332303A2076616C756573206F766572666C6F7700000000000000000000 PUSH1 0x44 DUP3 ADD MSTORE PUSH1 0x64 ADD PUSH2 0x93E JUMP JUMPDEST DUP1 SWAP6 POP DUP3 PUSH20 0xFFFFFFFFFFFFFFFFFFFFFFFFFFFFFFFFFFFFFFFF AND DUP14 PUSH20 0xFFFFFFFFFFFFFFFFFFFFFFFFFFFFFFFFFFFFFFFF AND EQ PUSH2 0x21FF JUMPI DUP2 DUP16 PUSH1 0x0 ADD PUSH1 0x0 DUP6 PUSH20 0xFFFFFFFFFFFFFFFFFFFFFFFFFFFFFFFFFFFFFFFF AND PUSH20 0xFFFFFFFFFFFFFFFFFFFFFFFFFFFFFFFFFFFFFFFF AND DUP2 MSTORE PUSH1 0x20 ADD SWAP1 DUP2 MSTORE PUSH1 0x20 ADD PUSH1 0x0 KECCAK256 PUSH1 0x0 DUP3 DUP3 SLOAD ADD SWAP3 POP POP DUP2 SWAP1 SSTORE POP PUSH2 0x226E JUMP JUMPDEST DUP7 DUP3 GT ISZERO PUSH2 0x2269 JUMPI PUSH1 0x40 MLOAD PUSH32 0x8C379A000000000000000000000000000000000000000000000000000000000 DUP2 MSTORE PUSH1 0x20 PUSH1 0x4 DUP3 ADD MSTORE PUSH1 0x1B PUSH1 0x24 DUP3 ADD MSTORE PUSH32 0x45524332303A20696E73756666696369656E742062616C616E63650000000000 PUSH1 0x44 DUP3 ADD MSTORE PUSH1 0x64 ADD PUSH2 0x93E JUMP JUMPDEST SWAP4 DUP2 ADD SWAP4 JUMPDEST POP JUMPDEST DUP2 PUSH20 0xFFFFFFFFFFFFFFFFFFFFFFFFFFFFFFFFFFFFFFFF AND DUP13 PUSH20 0xFFFFFFFFFFFFFFFFFFFFFFFFFFFFFFFFFFFFFFFF AND PUSH32 0xDDF252AD1BE2C89B69C2B068FC378DAA952BA7F163C4A11628F55A4DF523B3EF DUP4 PUSH1 0x40 MLOAD PUSH2 0x22CF SWAP2 DUP2 MSTORE PUSH1 0x20 ADD SWAP1 JUMP JUMPDEST PUSH1 0x40 MLOAD DUP1 SWAP2 SUB SWAP1 LOG3 POP POP PUSH1 0x1 ADD PUSH2 0x2035 JUMP JUMPDEST POP DUP2 ISZERO DUP1 ISZERO SWAP1 PUSH2 0x22F1 JUMPI POP DUP1 DUP3 EQ ISZERO JUMPDEST ISZERO PUSH2 0x238D JUMPI DUP2 DUP4 SUB DUP4 DUP2 LT PUSH2 0x2362 JUMPI PUSH1 0x40 MLOAD PUSH32 0x8C379A000000000000000000000000000000000000000000000000000000000 DUP2 MSTORE PUSH1 0x20 PUSH1 0x4 DUP3 ADD MSTORE PUSH1 0x1B PUSH1 0x24 DUP3 ADD MSTORE PUSH32 0x45524332303A20696E73756666696369656E742062616C616E63650000000000 PUSH1 0x44 DUP3 ADD MSTORE PUSH1 0x64 ADD PUSH2 0x93E JUMP JUMPDEST PUSH20 0xFFFFFFFFFFFFFFFFFFFFFFFFFFFFFFFFFFFFFFFF DUP11 AND PUSH1 0x0 SWAP1 DUP2 MSTORE PUSH1 0x20 DUP14 SWAP1 MSTORE PUSH1 0x40 SWAP1 KECCAK256 SWAP1 DUP3 ADD SWAP1 SSTORE JUMPDEST DUP10 PUSH20 0xFFFFFFFFFFFFFFFFFFFFFFFFFFFFFFFFFFFFFFFF AND DUP10 PUSH20 0xFFFFFFFFFFFFFFFFFFFFFFFFFFFFFFFFFFFFFFFF AND EQ PUSH2 0x23CC JUMPI PUSH2 0x23CC DUP12 DUP11 DUP13 DUP6 PUSH2 0x2C4B JUMP JUMPDEST POP POP POP POP POP POP POP POP POP POP POP JUMP JUMPDEST DUP2 MLOAD DUP2 MLOAD DUP2 EQ PUSH2 0x2445 JUMPI PUSH1 0x40 MLOAD PUSH32 0x8C379A000000000000000000000000000000000000000000000000000000000 DUP2 MSTORE PUSH1 0x20 PUSH1 0x4 DUP3 ADD MSTORE PUSH1 0x1A PUSH1 0x24 DUP3 ADD MSTORE PUSH32 0x45524332303A20696E636F6E73697374656E7420617272617973000000000000 PUSH1 0x44 DUP3 ADD MSTORE PUSH1 0x64 ADD PUSH2 0x93E JUMP JUMPDEST DUP1 PUSH1 0x0 SUB PUSH2 0x2453 JUMPI POP POP POP POP JUMP JUMPDEST PUSH1 0x0 DUP1 JUMPDEST DUP3 DUP2 EQ PUSH2 0x262A JUMPI PUSH1 0x0 DUP6 DUP3 DUP2 MLOAD DUP2 LT PUSH2 0x2472 JUMPI PUSH2 0x2472 PUSH2 0x429C JUMP JUMPDEST PUSH1 0x20 MUL PUSH1 0x20 ADD ADD MLOAD SWAP1 POP PUSH1 0x0 PUSH20 0xFFFFFFFFFFFFFFFFFFFFFFFFFFFFFFFFFFFFFFFF AND DUP2 PUSH20 0xFFFFFFFFFFFFFFFFFFFFFFFFFFFFFFFFFFFFFFFF AND SUB PUSH2 0x2512 JUMPI PUSH1 0x40 MLOAD PUSH32 0x8C379A000000000000000000000000000000000000000000000000000000000 DUP2 MSTORE PUSH1 0x20 PUSH1 0x4 DUP3 ADD MSTORE PUSH1 0x19 PUSH1 0x24 DUP3 ADD MSTORE PUSH32 0x45524332303A206D696E7420746F206164647265737328302900000000000000 PUSH1 0x44 DUP3 ADD MSTORE PUSH1 0x64 ADD PUSH2 0x93E JUMP JUMPDEST PUSH1 0x0 DUP6 DUP4 DUP2 MLOAD DUP2 LT PUSH2 0x2526 JUMPI PUSH2 0x2526 PUSH2 0x429C JUMP JUMPDEST PUSH1 0x20 MUL PUSH1 0x20 ADD ADD MLOAD SWAP1 POP DUP1 PUSH1 0x0 EQ PUSH2 0x25D2 JUMPI DUP4 DUP2 ADD DUP5 DUP2 GT PUSH2 0x25A4 JUMPI PUSH1 0x40 MLOAD PUSH32 0x8C379A000000000000000000000000000000000000000000000000000000000 DUP2 MSTORE PUSH1 0x20 PUSH1 0x4 DUP3 ADD MSTORE PUSH1 0x16 PUSH1 0x24 DUP3 ADD MSTORE PUSH32 0x45524332303A2076616C756573206F766572666C6F7700000000000000000000 PUSH1 0x44 DUP3 ADD MSTORE PUSH1 0x64 ADD PUSH2 0x93E JUMP JUMPDEST PUSH20 0xFFFFFFFFFFFFFFFFFFFFFFFFFFFFFFFFFFFFFFFF DUP4 AND PUSH1 0x0 SWAP1 DUP2 MSTORE PUSH1 0x20 DUP11 SWAP1 MSTORE PUSH1 0x40 SWAP1 KECCAK256 DUP1 SLOAD DUP4 ADD SWAP1 SSTORE SWAP4 POP JUMPDEST PUSH1 0x40 MLOAD DUP2 DUP2 MSTORE PUSH20 0xFFFFFFFFFFFFFFFFFFFFFFFFFFFFFFFFFFFFFFFF DUP4 AND SWAP1 PUSH1 0x0 SWAP1 PUSH32 0xDDF252AD1BE2C89B69C2B068FC378DAA952BA7F163C4A11628F55A4DF523B3EF SWAP1 PUSH1 0x20 ADD PUSH1 0x40 MLOAD DUP1 SWAP2 SUB SWAP1 LOG3 POP POP PUSH1 0x1 ADD PUSH2 0x2457 JUMP JUMPDEST POP DUP1 ISZERO PUSH2 0x1834 JUMPI PUSH1 0x2 DUP6 ADD SLOAD DUP2 DUP2 ADD DUP2 DUP2 GT PUSH2 0x26A2 JUMPI PUSH1 0x40 MLOAD PUSH32 0x8C379A000000000000000000000000000000000000000000000000000000000 DUP2 MSTORE PUSH1 0x20 PUSH1 0x4 DUP3 ADD MSTORE PUSH1 0x16 PUSH1 0x24 DUP3 ADD MSTORE PUSH32 0x45524332303A20737570706C79206F766572666C6F7700000000000000000000 PUSH1 0x44 DUP3 ADD MSTORE PUSH1 0x64 ADD PUSH2 0x93E JUMP JUMPDEST PUSH1 0x2 DUP8 ADD SSTORE POP POP POP POP POP POP JUMP JUMPDEST PUSH1 0x40 DUP1 MLOAD PUSH20 0xFFFFFFFFFFFFFFFFFFFFFFFFFFFFFFFFFFFFFFFF DUP5 AND PUSH1 0x24 DUP3 ADD MSTORE PUSH1 0x44 DUP1 DUP3 ADD DUP5 SWAP1 MSTORE DUP3 MLOAD DUP1 DUP4 SUB SWAP1 SWAP2 ADD DUP2 MSTORE PUSH1 0x64 SWAP1 SWAP2 ADD SWAP1 SWAP2 MSTORE PUSH1 0x20 DUP2 ADD DUP1 MLOAD PUSH28 0xFFFFFFFFFFFFFFFFFFFFFFFFFFFFFFFFFFFFFFFFFFFFFFFFFFFFFFFF AND PUSH32 0xA9059CBB00000000000000000000000000000000000000000000000000000000 OR SWAP1 MSTORE PUSH2 0x6DD SWAP1 DUP5 SWAP1 PUSH2 0x3988 JUMP JUMPDEST DUP3 PUSH20 0xFFFFFFFFFFFFFFFFFFFFFFFFFFFFFFFFFFFFFFFF AND DUP3 PUSH20 0xFFFFFFFFFFFFFFFFFFFFFFFFFFFFFFFFFFFFFFFF AND EQ PUSH2 0x277B JUMPI PUSH2 0x277B DUP5 DUP4 DUP6 DUP5 PUSH2 0x2C4B JUMP JUMPDEST PUSH2 0x87C DUP5 DUP4 DUP4 PUSH2 0x1E7D JUMP JUMPDEST PUSH1 0x0 DUP1 PUSH2 0x5F6 PUSH1 0x1 PUSH32 0x93FE0FF7226B064A4A8F0B09910762AFB4BC2441835792C021FFD78CD513011E PUSH2 0x42CB JUMP JUMPDEST DUP3 DUP2 DUP2 EQ PUSH2 0x281E JUMPI PUSH1 0x40 MLOAD PUSH32 0x8C379A000000000000000000000000000000000000000000000000000000000 DUP2 MSTORE PUSH1 0x20 PUSH1 0x4 DUP3 ADD MSTORE PUSH1 0x1A PUSH1 0x24 DUP3 ADD MSTORE PUSH32 0x45524332303A20696E636F6E73697374656E7420617272617973000000000000 PUSH1 0x44 DUP3 ADD MSTORE PUSH1 0x64 ADD PUSH2 0x93E JUMP JUMPDEST DUP1 PUSH1 0x0 SUB PUSH2 0x282C JUMPI POP PUSH2 0xEC7 JUMP JUMPDEST PUSH20 0xFFFFFFFFFFFFFFFFFFFFFFFFFFFFFFFFFFFFFFFF DUP7 AND PUSH1 0x0 SWAP1 DUP2 MSTORE PUSH1 0x20 DUP9 SWAP1 MSTORE PUSH1 0x40 DUP2 KECCAK256 SLOAD SWAP1 DUP1 DUP1 JUMPDEST DUP5 DUP2 EQ PUSH2 0x2ADE JUMPI PUSH1 0x0 DUP10 DUP10 DUP4 DUP2 DUP2 LT PUSH2 0x2871 JUMPI PUSH2 0x2871 PUSH2 0x429C JUMP JUMPDEST SWAP1 POP PUSH1 0x20 MUL ADD PUSH1 0x20 DUP2 ADD SWAP1 PUSH2 0x2886 SWAP2 SWAP1 PUSH2 0x400A JUMP JUMPDEST SWAP1 POP PUSH20 0xFFFFFFFFFFFFFFFFFFFFFFFFFFFFFFFFFFFFFFFF DUP2 AND PUSH2 0x2905 JUMPI PUSH1 0x40 MLOAD PUSH32 0x8C379A000000000000000000000000000000000000000000000000000000000 DUP2 MSTORE PUSH1 0x20 PUSH1 0x4 DUP3 ADD MSTORE PUSH1 0x1D PUSH1 0x24 DUP3 ADD MSTORE PUSH32 0x45524332303A207472616E7366657220746F2061646472657373283029000000 PUSH1 0x44 DUP3 ADD MSTORE PUSH1 0x64 ADD PUSH2 0x93E JUMP JUMPDEST PUSH1 0x0 DUP9 DUP9 DUP5 DUP2 DUP2 LT PUSH2 0x2919 JUMPI PUSH2 0x2919 PUSH2 0x429C JUMP JUMPDEST SWAP1 POP PUSH1 0x20 MUL ADD CALLDATALOAD SWAP1 POP DUP1 PUSH1 0x0 EQ PUSH2 0x2A6D JUMPI DUP5 DUP2 ADD DUP6 DUP2 GT PUSH2 0x2996 JUMPI PUSH1 0x40 MLOAD PUSH32 0x8C379A000000000000000000000000000000000000000000000000000000000 DUP2 MSTORE PUSH1 0x20 PUSH1 0x4 DUP3 ADD MSTORE PUSH1 0x16 PUSH1 0x24 DUP3 ADD MSTORE PUSH32 0x45524332303A2076616C756573206F766572666C6F7700000000000000000000 PUSH1 0x44 DUP3 ADD MSTORE PUSH1 0x64 ADD PUSH2 0x93E JUMP JUMPDEST DUP1 SWAP6 POP DUP3 PUSH20 0xFFFFFFFFFFFFFFFFFFFFFFFFFFFFFFFFFFFFFFFF AND DUP14 PUSH20 0xFFFFFFFFFFFFFFFFFFFFFFFFFFFFFFFFFFFFFFFF AND EQ PUSH2 0x29FC JUMPI PUSH20 0xFFFFFFFFFFFFFFFFFFFFFFFFFFFFFFFFFFFFFFFF DUP4 AND PUSH1 0x0 SWAP1 DUP2 MSTORE PUSH1 0x20 DUP16 SWAP1 MSTORE PUSH1 0x40 SWAP1 KECCAK256 DUP1 SLOAD DUP4 ADD SWAP1 SSTORE PUSH2 0x2A6B JUMP JUMPDEST DUP7 DUP3 GT ISZERO PUSH2 0x2A66 JUMPI PUSH1 0x40 MLOAD PUSH32 0x8C379A000000000000000000000000000000000000000000000000000000000 DUP2 MSTORE PUSH1 0x20 PUSH1 0x4 DUP3 ADD MSTORE PUSH1 0x1B PUSH1 0x24 DUP3 ADD MSTORE PUSH32 0x45524332303A20696E73756666696369656E742062616C616E63650000000000 PUSH1 0x44 DUP3 ADD MSTORE PUSH1 0x64 ADD PUSH2 0x93E JUMP JUMPDEST SWAP4 DUP2 ADD SWAP4 JUMPDEST POP JUMPDEST DUP2 PUSH20 0xFFFFFFFFFFFFFFFFFFFFFFFFFFFFFFFFFFFFFFFF AND DUP13 PUSH20 0xFFFFFFFFFFFFFFFFFFFFFFFFFFFFFFFFFFFFFFFF AND PUSH32 0xDDF252AD1BE2C89B69C2B068FC378DAA952BA7F163C4A11628F55A4DF523B3EF DUP4 PUSH1 0x40 MLOAD PUSH2 0x2ACC SWAP2 DUP2 MSTORE PUSH1 0x20 ADD SWAP1 JUMP JUMPDEST PUSH1 0x40 MLOAD DUP1 SWAP2 SUB SWAP1 LOG3 POP POP PUSH1 0x1 ADD PUSH2 0x2856 JUMP JUMPDEST POP DUP2 ISZERO DUP1 ISZERO SWAP1 PUSH2 0x2AEE JUMPI POP DUP1 DUP3 EQ ISZERO JUMPDEST ISZERO PUSH2 0x2B8A JUMPI DUP2 DUP4 SUB DUP4 DUP2 LT PUSH2 0x2B5F JUMPI PUSH1 0x40 MLOAD PUSH32 0x8C379A000000000000000000000000000000000000000000000000000000000 DUP2 MSTORE PUSH1 0x20 PUSH1 0x4 DUP3 ADD MSTORE PUSH1 0x1B PUSH1 0x24 DUP3 ADD MSTORE PUSH32 0x45524332303A20696E73756666696369656E742062616C616E63650000000000 PUSH1 0x44 DUP3 ADD MSTORE PUSH1 0x64 ADD PUSH2 0x93E JUMP JUMPDEST PUSH20 0xFFFFFFFFFFFFFFFFFFFFFFFFFFFFFFFFFFFFFFFF DUP11 AND PUSH1 0x0 SWAP1 DUP2 MSTORE PUSH1 0x20 DUP13 SWAP1 MSTORE PUSH1 0x40 SWAP1 KECCAK256 SWAP1 DUP3 ADD SWAP1 SSTORE JUMPDEST POP POP POP POP POP POP POP POP POP POP JUMP JUMPDEST PUSH2 0x2BA1 DUP4 DUP3 DUP5 PUSH2 0x1C57 JUMP JUMPDEST PUSH1 0x0 DUP2 DUP2 MSTORE PUSH1 0x20 DUP5 DUP2 MSTORE PUSH1 0x40 DUP1 DUP4 KECCAK256 PUSH20 0xFFFFFFFFFFFFFFFFFFFFFFFFFFFFFFFFFFFFFFFF DUP7 AND DUP1 DUP6 MSTORE SWAP1 DUP4 MSTORE SWAP3 DUP2 SWAP1 KECCAK256 DUP1 SLOAD PUSH32 0xFFFFFFFFFFFFFFFFFFFFFFFFFFFFFFFFFFFFFFFFFFFFFFFFFFFFFFFFFFFFFF00 AND SWAP1 SSTORE DUP1 MLOAD DUP5 DUP2 MSTORE SWAP2 DUP3 ADD DUP4 SWAP1 MSTORE DUP2 ADD SWAP2 SWAP1 SWAP2 MSTORE PUSH32 0xF6391F5C32D9C69D2A47EA670B442974B53935D1EDC7FD64EB21E047A839171B SWAP1 PUSH1 0x60 ADD PUSH1 0x40 MLOAD DUP1 SWAP2 SUB SWAP1 LOG1 POP POP POP JUMP JUMPDEST PUSH1 0x60 DUP2 PUSH1 0x1 ADD DUP1 SLOAD PUSH2 0x13FB SWAP1 PUSH2 0x4334 JUMP JUMPDEST PUSH20 0xFFFFFFFFFFFFFFFFFFFFFFFFFFFFFFFFFFFFFFFF DUP3 AND PUSH2 0x2CC8 JUMPI PUSH1 0x40 MLOAD PUSH32 0x8C379A000000000000000000000000000000000000000000000000000000000 DUP2 MSTORE PUSH1 0x20 PUSH1 0x4 DUP3 ADD MSTORE PUSH1 0x1D PUSH1 0x24 DUP3 ADD MSTORE PUSH32 0x45524332303A20617070726F76616C20746F2061646472657373283029000000 PUSH1 0x44 DUP3 ADD MSTORE PUSH1 0x64 ADD PUSH2 0x93E JUMP JUMPDEST PUSH20 0xFFFFFFFFFFFFFFFFFFFFFFFFFFFFFFFFFFFFFFFF DUP1 DUP5 AND PUSH1 0x0 SWAP1 DUP2 MSTORE PUSH1 0x1 DUP7 ADD PUSH1 0x20 SWAP1 DUP2 MSTORE PUSH1 0x40 DUP1 DUP4 KECCAK256 SWAP4 DUP7 AND DUP4 MSTORE SWAP3 SWAP1 MSTORE KECCAK256 SLOAD PUSH32 0xFFFFFFFFFFFFFFFFFFFFFFFFFFFFFFFFFFFFFFFFFFFFFFFFFFFFFFFFFFFFFFFF DUP2 EQ DUP1 ISZERO SWAP1 PUSH2 0x2D2C JUMPI POP DUP2 ISZERO ISZERO JUMPDEST ISZERO PUSH2 0x1BBB JUMPI DUP2 DUP2 SUB DUP2 DUP2 LT PUSH2 0x1B81 JUMPI PUSH1 0x40 MLOAD PUSH32 0x8C379A000000000000000000000000000000000000000000000000000000000 DUP2 MSTORE PUSH1 0x20 PUSH1 0x4 DUP3 ADD MSTORE PUSH1 0x1D PUSH1 0x24 DUP3 ADD MSTORE PUSH32 0x45524332303A20696E73756666696369656E7420616C6C6F77616E6365000000 PUSH1 0x44 DUP3 ADD MSTORE PUSH1 0x64 ADD PUSH2 0x93E JUMP JUMPDEST PUSH20 0xFFFFFFFFFFFFFFFFFFFFFFFFFFFFFFFFFFFFFFFF DUP3 AND PUSH2 0x2E1A JUMPI PUSH1 0x40 MLOAD PUSH32 0x8C379A000000000000000000000000000000000000000000000000000000000 DUP2 MSTORE PUSH1 0x20 PUSH1 0x4 DUP3 ADD MSTORE PUSH1 0x1D PUSH1 0x24 DUP3 ADD MSTORE PUSH32 0x45524332303A207472616E7366657220746F2061646472657373283029000000 PUSH1 0x44 DUP3 ADD MSTORE PUSH1 0x64 ADD PUSH2 0x93E JUMP JUMPDEST DUP1 ISZERO PUSH2 0x2F1F JUMPI PUSH20 0xFFFFFFFFFFFFFFFFFFFFFFFFFFFFFFFFFFFFFFFF DUP4 AND PUSH1 0x0 SWAP1 DUP2 MSTORE PUSH1 0x20 DUP6 SWAP1 MSTORE PUSH1 0x40 SWAP1 KECCAK256 SLOAD DUP2 DUP2 SUB DUP2 DUP2 LT PUSH2 0x2EB2 JUMPI PUSH1 0x40 MLOAD PUSH32 0x8C379A000000000000000000000000000000000000000000000000000000000 DUP2 MSTORE PUSH1 0x20 PUSH1 0x4 DUP3 ADD MSTORE PUSH1 0x1B PUSH1 0x24 DUP3 ADD MSTORE PUSH32 0x45524332303A20696E73756666696369656E742062616C616E63650000000000 PUSH1 0x44 DUP3 ADD MSTORE PUSH1 0x64 ADD PUSH2 0x93E JUMP JUMPDEST DUP4 PUSH20 0xFFFFFFFFFFFFFFFFFFFFFFFFFFFFFFFFFFFFFFFF AND DUP6 PUSH20 0xFFFFFFFFFFFFFFFFFFFFFFFFFFFFFFFFFFFFFFFF AND EQ PUSH2 0x2F1C JUMPI PUSH20 0xFFFFFFFFFFFFFFFFFFFFFFFFFFFFFFFFFFFFFFFF DUP1 DUP7 AND PUSH1 0x0 SWAP1 DUP2 MSTORE PUSH1 0x20 DUP9 SWAP1 MSTORE PUSH1 0x40 DUP1 DUP3 KECCAK256 DUP5 SWAP1 SSTORE SWAP2 DUP7 AND DUP2 MSTORE KECCAK256 DUP1 SLOAD DUP5 ADD SWAP1 SSTORE JUMPDEST POP POP JUMPDEST DUP2 PUSH20 0xFFFFFFFFFFFFFFFFFFFFFFFFFFFFFFFFFFFFFFFF AND DUP4 PUSH20 0xFFFFFFFFFFFFFFFFFFFFFFFFFFFFFFFFFFFFFFFF AND PUSH32 0xDDF252AD1BE2C89B69C2B068FC378DAA952BA7F163C4A11628F55A4DF523B3EF DUP4 PUSH1 0x40 MLOAD PUSH2 0x1599 SWAP2 DUP2 MSTORE PUSH1 0x20 ADD SWAP1 JUMP JUMPDEST PUSH2 0x2F8B DUP8 DUP8 DUP8 DUP8 DUP8 PUSH2 0x17E9 JUMP JUMPDEST PUSH20 0xFFFFFFFFFFFFFFFFFFFFFFFFFFFFFFFFFFFFFFFF DUP5 AND EXTCODESIZE ISZERO PUSH2 0xD02 JUMPI PUSH2 0xD02 DUP7 DUP7 DUP7 DUP7 DUP7 DUP7 DUP1 DUP1 PUSH1 0x1F ADD PUSH1 0x20 DUP1 SWAP2 DIV MUL PUSH1 0x20 ADD PUSH1 0x40 MLOAD SWAP1 DUP2 ADD PUSH1 0x40 MSTORE DUP1 SWAP4 SWAP3 SWAP2 SWAP1 DUP2 DUP2 MSTORE PUSH1 0x20 ADD DUP4 DUP4 DUP1 DUP3 DUP5 CALLDATACOPY PUSH1 0x0 SWAP3 ADD SWAP2 SWAP1 SWAP2 MSTORE POP PUSH2 0x3A94 SWAP3 POP POP POP JUMP JUMPDEST PUSH20 0xFFFFFFFFFFFFFFFFFFFFFFFFFFFFFFFFFFFFFFFF DUP8 AND PUSH2 0x3068 JUMPI PUSH1 0x40 MLOAD PUSH32 0x8C379A000000000000000000000000000000000000000000000000000000000 DUP2 MSTORE PUSH1 0x20 PUSH1 0x4 DUP3 ADD MSTORE PUSH1 0x1D PUSH1 0x24 DUP3 ADD MSTORE PUSH32 0x45524332303A207065726D69742066726F6D2061646472657373283029000000 PUSH1 0x44 DUP3 ADD MSTORE PUSH1 0x64 ADD PUSH2 0x93E JUMP JUMPDEST DUP4 TIMESTAMP GT ISZERO PUSH2 0x30D2 JUMPI PUSH1 0x40 MLOAD PUSH32 0x8C379A000000000000000000000000000000000000000000000000000000000 DUP2 MSTORE PUSH1 0x20 PUSH1 0x4 DUP3 ADD MSTORE PUSH1 0x15 PUSH1 0x24 DUP3 ADD MSTORE PUSH32 0x45524332303A2065787069726564207065726D69740000000000000000000000 PUSH1 0x44 DUP3 ADD MSTORE PUSH1 0x64 ADD PUSH2 0x93E JUMP JUMPDEST PUSH20 0xFFFFFFFFFFFFFFFFFFFFFFFFFFFFFFFFFFFFFFFF DUP8 DUP2 AND PUSH1 0x0 DUP2 DUP2 MSTORE PUSH1 0x20 DUP12 DUP2 MSTORE PUSH1 0x40 DUP1 DUP4 KECCAK256 DUP1 SLOAD PUSH1 0x1 DUP2 ADD SWAP1 SWAP2 SSTORE DUP2 MLOAD PUSH32 0x6E71EDAE12B1B97F4D1F60370FEF10105FA2FAAE0126114A169C64845D6126C9 DUP2 DUP6 ADD MSTORE DUP1 DUP4 ADD SWAP6 SWAP1 SWAP6 MSTORE SWAP5 DUP12 AND PUSH1 0x60 DUP6 ADD MSTORE PUSH1 0x80 DUP5 ADD DUP11 SWAP1 MSTORE PUSH1 0xA0 DUP5 ADD SWAP5 SWAP1 SWAP5 MSTORE PUSH1 0xC0 DUP1 DUP5 ADD DUP10 SWAP1 MSTORE DUP5 MLOAD DUP1 DUP6 SUB SWAP1 SWAP2 ADD DUP2 MSTORE PUSH1 0xE0 SWAP1 SWAP4 ADD SWAP1 SWAP4 MSTORE DUP2 MLOAD SWAP2 SWAP1 SWAP3 ADD KECCAK256 SWAP1 PUSH2 0x3171 PUSH2 0x19C2 JUMP JUMPDEST PUSH1 0x40 MLOAD PUSH32 0x1901000000000000000000000000000000000000000000000000000000000000 PUSH1 0x20 DUP3 ADD MSTORE PUSH1 0x22 DUP2 ADD SWAP2 SWAP1 SWAP2 MSTORE PUSH1 0x42 DUP2 ADD DUP4 SWAP1 MSTORE PUSH1 0x62 ADD PUSH1 0x40 DUP1 MLOAD PUSH32 0xFFFFFFFFFFFFFFFFFFFFFFFFFFFFFFFFFFFFFFFFFFFFFFFFFFFFFFFFFFFFFFE0 DUP2 DUP5 SUB ADD DUP2 MSTORE DUP3 DUP3 MSTORE DUP1 MLOAD PUSH1 0x20 SWAP2 DUP3 ADD KECCAK256 PUSH1 0x0 DUP1 DUP6 MSTORE SWAP2 DUP5 ADD DUP1 DUP5 MSTORE DUP2 SWAP1 MSTORE PUSH1 0xFF DUP10 AND SWAP3 DUP5 ADD SWAP3 SWAP1 SWAP3 MSTORE PUSH1 0x60 DUP4 ADD DUP8 SWAP1 MSTORE PUSH1 0x80 DUP4 ADD DUP7 SWAP1 MSTORE SWAP1 SWAP3 POP SWAP1 PUSH1 0x1 SWAP1 PUSH1 0xA0 ADD PUSH1 0x20 PUSH1 0x40 MLOAD PUSH1 0x20 DUP2 SUB SWAP1 DUP1 DUP5 SUB SWAP1 DUP6 GAS STATICCALL ISZERO DUP1 ISZERO PUSH2 0x3235 JUMPI RETURNDATASIZE PUSH1 0x0 DUP1 RETURNDATACOPY RETURNDATASIZE PUSH1 0x0 REVERT JUMPDEST POP POP POP PUSH1 0x20 PUSH1 0x40 MLOAD SUB MLOAD SWAP1 POP DUP10 PUSH20 0xFFFFFFFFFFFFFFFFFFFFFFFFFFFFFFFFFFFFFFFF AND DUP2 PUSH20 0xFFFFFFFFFFFFFFFFFFFFFFFFFFFFFFFFFFFFFFFF AND EQ PUSH2 0x32D6 JUMPI PUSH1 0x40 MLOAD PUSH32 0x8C379A000000000000000000000000000000000000000000000000000000000 DUP2 MSTORE PUSH1 0x20 PUSH1 0x4 DUP3 ADD MSTORE PUSH1 0x15 PUSH1 0x24 DUP3 ADD MSTORE PUSH32 0x45524332303A20696E76616C6964207065726D69740000000000000000000000 PUSH1 0x44 DUP3 ADD MSTORE PUSH1 0x64 ADD PUSH2 0x93E JUMP JUMPDEST POP POP POP PUSH2 0x9E0 DUP8 DUP8 DUP8 PUSH2 0x62A PUSH2 0x148A JUMP JUMPDEST PUSH1 0x0 DUP4 DUP2 MSTORE PUSH1 0x20 DUP6 DUP2 MSTORE PUSH1 0x40 DUP1 DUP4 KECCAK256 PUSH20 0xFFFFFFFFFFFFFFFFFFFFFFFFFFFFFFFFFFFFFFFF DUP7 AND DUP5 MSTORE SWAP1 SWAP2 MSTORE SWAP1 KECCAK256 SLOAD PUSH1 0xFF AND ISZERO PUSH2 0x87C JUMPI PUSH1 0x0 DUP4 DUP2 MSTORE PUSH1 0x20 DUP6 DUP2 MSTORE PUSH1 0x40 DUP1 DUP4 KECCAK256 PUSH20 0xFFFFFFFFFFFFFFFFFFFFFFFFFFFFFFFFFFFFFFFF DUP7 DUP2 AND DUP1 DUP7 MSTORE SWAP2 DUP5 MSTORE SWAP4 DUP3 SWAP1 KECCAK256 DUP1 SLOAD PUSH32 0xFFFFFFFFFFFFFFFFFFFFFFFFFFFFFFFFFFFFFFFFFFFFFFFFFFFFFFFFFFFFFF00 AND SWAP1 SSTORE DUP2 MLOAD DUP8 DUP2 MSTORE SWAP3 DUP4 ADD MSTORE SWAP2 DUP4 AND SWAP2 DUP2 ADD SWAP2 SWAP1 SWAP2 MSTORE PUSH32 0xF6391F5C32D9C69D2A47EA670B442974B53935D1EDC7FD64EB21E047A839171B SWAP1 PUSH1 0x60 ADD PUSH2 0x19B4 JUMP JUMPDEST DUP3 PUSH2 0x87C DUP3 DUP5 DUP4 PUSH2 0x4553 JUMP JUMPDEST PUSH2 0x33C9 DUP7 DUP7 DUP7 DUP7 PUSH2 0x2D9D JUMP JUMPDEST PUSH20 0xFFFFFFFFFFFFFFFFFFFFFFFFFFFFFFFFFFFFFFFF DUP5 AND EXTCODESIZE ISZERO PUSH2 0xEC7 JUMPI PUSH2 0xEC7 DUP6 DUP7 DUP7 DUP7 DUP7 DUP7 DUP1 DUP1 PUSH1 0x1F ADD PUSH1 0x20 DUP1 SWAP2 DIV MUL PUSH1 0x20 ADD PUSH1 0x40 MLOAD SWAP1 DUP2 ADD PUSH1 0x40 MSTORE DUP1 SWAP4 SWAP3 SWAP2 SWAP1 DUP2 DUP2 MSTORE PUSH1 0x20 ADD DUP4 DUP4 DUP1 DUP3 DUP5 CALLDATACOPY PUSH1 0x0 SWAP3 ADD SWAP2 SWAP1 SWAP2 MSTORE POP PUSH2 0x3A94 SWAP3 POP POP POP JUMP JUMPDEST DUP3 SLOAD PUSH20 0xFFFFFFFFFFFFFFFFFFFFFFFFFFFFFFFFFFFFFFFF SWAP1 DUP2 AND SWAP1 DUP4 AND DUP2 EQ PUSH2 0x34AE JUMPI PUSH1 0x40 MLOAD PUSH32 0x8C379A000000000000000000000000000000000000000000000000000000000 DUP2 MSTORE PUSH1 0x20 PUSH1 0x4 DUP3 ADD MSTORE PUSH1 0x18 PUSH1 0x24 DUP3 ADD MSTORE PUSH32 0x4F776E6572736869703A206E6F7420746865206F776E65720000000000000000 PUSH1 0x44 DUP3 ADD MSTORE PUSH1 0x64 ADD PUSH2 0x93E JUMP JUMPDEST DUP2 PUSH20 0xFFFFFFFFFFFFFFFFFFFFFFFFFFFFFFFFFFFFFFFF AND DUP2 PUSH20 0xFFFFFFFFFFFFFFFFFFFFFFFFFFFFFFFFFFFFFFFF AND EQ PUSH2 0x87C JUMPI DUP4 SLOAD PUSH32 0xFFFFFFFFFFFFFFFFFFFFFFFF0000000000000000000000000000000000000000 AND PUSH20 0xFFFFFFFFFFFFFFFFFFFFFFFFFFFFFFFFFFFFFFFF DUP4 DUP2 AND SWAP2 DUP3 OR DUP7 SSTORE PUSH1 0x40 MLOAD SWAP1 DUP4 AND SWAP1 PUSH32 0x8BE0079C531659141344CD1FD0A4F28419497F9722A3DAAFE3B4186F6B6457E0 SWAP1 PUSH1 0x0 SWAP1 LOG3 POP POP POP POP JUMP JUMPDEST DUP1 SELFBALANCE LT ISZERO PUSH2 0x35BF JUMPI PUSH1 0x40 MLOAD PUSH32 0x8C379A000000000000000000000000000000000000000000000000000000000 DUP2 MSTORE PUSH1 0x20 PUSH1 0x4 DUP3 ADD MSTORE PUSH1 0x1D PUSH1 0x24 DUP3 ADD MSTORE PUSH32 0x416464726573733A20696E73756666696369656E742062616C616E6365000000 PUSH1 0x44 DUP3 ADD MSTORE PUSH1 0x64 ADD PUSH2 0x93E JUMP JUMPDEST PUSH1 0x0 DUP3 PUSH20 0xFFFFFFFFFFFFFFFFFFFFFFFFFFFFFFFFFFFFFFFF AND DUP3 PUSH1 0x40 MLOAD PUSH1 0x0 PUSH1 0x40 MLOAD DUP1 DUP4 SUB DUP2 DUP6 DUP8 GAS CALL SWAP3 POP POP POP RETURNDATASIZE DUP1 PUSH1 0x0 DUP2 EQ PUSH2 0x3619 JUMPI PUSH1 0x40 MLOAD SWAP2 POP PUSH1 0x1F NOT PUSH1 0x3F RETURNDATASIZE ADD AND DUP3 ADD PUSH1 0x40 MSTORE RETURNDATASIZE DUP3 MSTORE RETURNDATASIZE PUSH1 0x0 PUSH1 0x20 DUP5 ADD RETURNDATACOPY PUSH2 0x361E JUMP JUMPDEST PUSH1 0x60 SWAP2 POP JUMPDEST POP POP SWAP1 POP DUP1 PUSH2 0x6DD JUMPI PUSH1 0x40 MLOAD PUSH32 0x8C379A000000000000000000000000000000000000000000000000000000000 DUP2 MSTORE PUSH1 0x20 PUSH1 0x4 DUP3 ADD MSTORE PUSH1 0x3A PUSH1 0x24 DUP3 ADD MSTORE PUSH32 0x416464726573733A20756E61626C6520746F2073656E642076616C75652C2072 PUSH1 0x44 DUP3 ADD MSTORE PUSH32 0x6563697069656E74206D61792068617665207265766572746564000000000000 PUSH1 0x64 DUP3 ADD MSTORE PUSH1 0x84 ADD PUSH2 0x93E JUMP JUMPDEST PUSH1 0x0 CALLER ORIGIN EQ DUP1 PUSH2 0x36BF JUMPI POP PUSH1 0x18 CALLDATASIZE LT JUMPDEST ISZERO PUSH2 0x36C9 JUMPI POP CALLER SWAP1 JUMP JUMPDEST PUSH32 0xFFFFFFFFFFFFFFFFFFFFFFFFFFFFFFFFFFFFFFFFFFFFFFFFFFFFFFFFFFFFFFEC CALLDATASIZE ADD CALLDATALOAD PUSH1 0x60 SHR PUSH32 0x0 PUSH20 0xFFFFFFFFFFFFFFFFFFFFFFFFFFFFFFFFFFFFFFFF AND CALLER EQ DUP1 PUSH2 0x37E5 JUMPI POP PUSH1 0x40 MLOAD PUSH32 0x8929A8CA00000000000000000000000000000000000000000000000000000000 DUP2 MSTORE PUSH20 0xFFFFFFFFFFFFFFFFFFFFFFFFFFFFFFFFFFFFFFFF DUP3 DUP2 AND PUSH1 0x4 DUP4 ADD MSTORE CALLER PUSH1 0x24 DUP4 ADD MSTORE PUSH32 0x0 AND SWAP1 PUSH4 0x8929A8CA SWAP1 PUSH1 0x44 ADD PUSH1 0x20 PUSH1 0x40 MLOAD DUP1 DUP4 SUB DUP2 DUP7 GAS STATICCALL ISZERO DUP1 ISZERO PUSH2 0x37C1 JUMPI RETURNDATASIZE PUSH1 0x0 DUP1 RETURNDATACOPY RETURNDATASIZE PUSH1 0x0 REVERT JUMPDEST POP POP POP POP PUSH1 0x40 MLOAD RETURNDATASIZE PUSH1 0x1F NOT PUSH1 0x1F DUP3 ADD AND DUP3 ADD DUP1 PUSH1 0x40 MSTORE POP DUP2 ADD SWAP1 PUSH2 0x37E5 SWAP2 SWAP1 PUSH2 0x466D JUMP JUMPDEST ISZERO PUSH2 0x37EF JUMPI SWAP2 SWAP1 POP JUMP JUMPDEST CALLER SWAP2 POP POP SWAP1 JUMP JUMPDEST PUSH1 0x60 PUSH1 0x0 DUP3 SWAP1 SUB PUSH2 0x3815 JUMPI POP POP PUSH1 0x40 DUP1 MLOAD PUSH1 0x20 DUP2 ADD SWAP1 SWAP2 MSTORE PUSH1 0x0 DUP2 MSTORE SWAP1 JUMP JUMPDEST PUSH1 0x0 DUP3 PUSH1 0x40 MLOAD PUSH1 0x20 ADD PUSH2 0x382A SWAP2 DUP2 MSTORE PUSH1 0x20 ADD SWAP1 JUMP JUMPDEST PUSH1 0x40 DUP1 MLOAD PUSH32 0xFFFFFFFFFFFFFFFFFFFFFFFFFFFFFFFFFFFFFFFFFFFFFFFFFFFFFFFFFFFFFFE0 DUP2 DUP5 SUB ADD DUP2 MSTORE SWAP2 SWAP1 MSTORE SWAP1 POP PUSH1 0x1F JUMPDEST DUP2 DUP2 DUP2 MLOAD DUP2 LT PUSH2 0x386F JUMPI PUSH2 0x386F PUSH2 0x429C JUMP JUMPDEST ADD PUSH1 0x20 ADD MLOAD PUSH32 0xFF00000000000000000000000000000000000000000000000000000000000000 AND PUSH1 0x0 SUB PUSH2 0x38C4 JUMPI PUSH32 0xFFFFFFFFFFFFFFFFFFFFFFFFFFFFFFFFFFFFFFFFFFFFFFFFFFFFFFFFFFFFFFFF ADD PUSH2 0x385D JUMP JUMPDEST PUSH1 0x0 DUP2 PUSH1 0x1 ADD PUSH8 0xFFFFFFFFFFFFFFFF DUP2 GT ISZERO PUSH2 0x38E2 JUMPI PUSH2 0x38E2 PUSH2 0x4305 JUMP JUMPDEST PUSH1 0x40 MLOAD SWAP1 DUP1 DUP3 MSTORE DUP1 PUSH1 0x1F ADD PUSH1 0x1F NOT AND PUSH1 0x20 ADD DUP3 ADD PUSH1 0x40 MSTORE DUP1 ISZERO PUSH2 0x390C JUMPI PUSH1 0x20 DUP3 ADD DUP2 DUP1 CALLDATASIZE DUP4 CALLDATACOPY ADD SWAP1 POP JUMPDEST POP SWAP1 POP PUSH1 0x0 JUMPDEST DUP3 DUP2 GT PUSH2 0x397F JUMPI DUP4 DUP2 DUP2 MLOAD DUP2 LT PUSH2 0x392B JUMPI PUSH2 0x392B PUSH2 0x429C JUMP JUMPDEST PUSH1 0x20 ADD ADD MLOAD PUSH1 0xF8 SHR PUSH1 0xF8 SHL DUP3 DUP3 DUP2 MLOAD DUP2 LT PUSH2 0x3948 JUMPI PUSH2 0x3948 PUSH2 0x429C JUMP JUMPDEST PUSH1 0x20 ADD ADD SWAP1 PUSH31 0xFFFFFFFFFFFFFFFFFFFFFFFFFFFFFFFFFFFFFFFFFFFFFFFFFFFFFFFFFFFFFF NOT AND SWAP1 DUP2 PUSH1 0x0 BYTE SWAP1 MSTORE8 POP PUSH1 0x1 ADD PUSH2 0x3912 JUMP JUMPDEST POP SWAP5 SWAP4 POP POP POP POP JUMP JUMPDEST PUSH1 0x0 PUSH2 0x39EA DUP3 PUSH1 0x40 MLOAD DUP1 PUSH1 0x40 ADD PUSH1 0x40 MSTORE DUP1 PUSH1 0x20 DUP2 MSTORE PUSH1 0x20 ADD PUSH32 0x5361666545524332303A206C6F772D6C6576656C2063616C6C206661696C6564 DUP2 MSTORE POP DUP6 PUSH20 0xFFFFFFFFFFFFFFFFFFFFFFFFFFFFFFFFFFFFFFFF AND PUSH2 0x3BBA SWAP1 SWAP3 SWAP2 SWAP1 PUSH4 0xFFFFFFFF AND JUMP JUMPDEST DUP1 MLOAD SWAP1 SWAP2 POP ISZERO PUSH2 0x6DD JUMPI DUP1 DUP1 PUSH1 0x20 ADD SWAP1 MLOAD DUP2 ADD SWAP1 PUSH2 0x3A08 SWAP2 SWAP1 PUSH2 0x466D JUMP JUMPDEST PUSH2 0x6DD JUMPI PUSH1 0x40 MLOAD PUSH32 0x8C379A000000000000000000000000000000000000000000000000000000000 DUP2 MSTORE PUSH1 0x20 PUSH1 0x4 DUP3 ADD MSTORE PUSH1 0x2A PUSH1 0x24 DUP3 ADD MSTORE PUSH32 0x5361666545524332303A204552433230206F7065726174696F6E20646964206E PUSH1 0x44 DUP3 ADD MSTORE PUSH32 0x6F74207375636365656400000000000000000000000000000000000000000000 PUSH1 0x64 DUP3 ADD MSTORE PUSH1 0x84 ADD PUSH2 0x93E JUMP JUMPDEST PUSH1 0x40 MLOAD PUSH32 0x4FC3585900000000000000000000000000000000000000000000000000000000 DUP1 DUP3 MSTORE SWAP1 PUSH20 0xFFFFFFFFFFFFFFFFFFFFFFFFFFFFFFFFFFFFFFFF DUP6 AND SWAP1 PUSH4 0x4FC35859 SWAP1 PUSH2 0x3AEE SWAP1 DUP10 SWAP1 DUP10 SWAP1 DUP9 SWAP1 DUP9 SWAP1 PUSH1 0x4 ADD PUSH2 0x468F JUMP JUMPDEST PUSH1 0x20 PUSH1 0x40 MLOAD DUP1 DUP4 SUB DUP2 PUSH1 0x0 DUP8 GAS CALL ISZERO DUP1 ISZERO PUSH2 0x3B0D JUMPI RETURNDATASIZE PUSH1 0x0 DUP1 RETURNDATACOPY RETURNDATASIZE PUSH1 0x0 REVERT JUMPDEST POP POP POP POP PUSH1 0x40 MLOAD RETURNDATASIZE PUSH1 0x1F NOT PUSH1 0x1F DUP3 ADD AND DUP3 ADD DUP1 PUSH1 0x40 MSTORE POP DUP2 ADD SWAP1 PUSH2 0x3B31 SWAP2 SWAP1 PUSH2 0x46D8 JUMP JUMPDEST PUSH32 0xFFFFFFFF00000000000000000000000000000000000000000000000000000000 AND EQ PUSH2 0x1834 JUMPI PUSH1 0x40 MLOAD PUSH32 0x8C379A000000000000000000000000000000000000000000000000000000000 DUP2 MSTORE PUSH1 0x20 PUSH1 0x4 DUP3 ADD MSTORE PUSH1 0x1D PUSH1 0x24 DUP3 ADD MSTORE PUSH32 0x45524332303A2073616665207472616E736665722072656A6563746564000000 PUSH1 0x44 DUP3 ADD MSTORE PUSH1 0x64 ADD PUSH2 0x93E JUMP JUMPDEST PUSH1 0x60 PUSH2 0x676 DUP5 DUP5 PUSH1 0x0 DUP6 DUP6 PUSH1 0x0 DUP1 DUP7 PUSH20 0xFFFFFFFFFFFFFFFFFFFFFFFFFFFFFFFFFFFFFFFF AND DUP6 DUP8 PUSH1 0x40 MLOAD PUSH2 0x3BEE SWAP2 SWAP1 PUSH2 0x46F5 JUMP JUMPDEST PUSH1 0x0 PUSH1 0x40 MLOAD DUP1 DUP4 SUB DUP2 DUP6 DUP8 GAS CALL SWAP3 POP POP POP RETURNDATASIZE DUP1 PUSH1 0x0 DUP2 EQ PUSH2 0x3C2B JUMPI PUSH1 0x40 MLOAD SWAP2 POP PUSH1 0x1F NOT PUSH1 0x3F RETURNDATASIZE ADD AND DUP3 ADD PUSH1 0x40 MSTORE RETURNDATASIZE DUP3 MSTORE RETURNDATASIZE PUSH1 0x0 PUSH1 0x20 DUP5 ADD RETURNDATACOPY PUSH2 0x3C30 JUMP JUMPDEST PUSH1 0x60 SWAP2 POP JUMPDEST POP SWAP2 POP SWAP2 POP PUSH2 0x3C41 DUP8 DUP4 DUP4 DUP8 PUSH2 0x3C4C JUMP JUMPDEST SWAP8 SWAP7 POP POP POP POP POP POP POP JUMP JUMPDEST PUSH1 0x60 DUP4 ISZERO PUSH2 0x3CE2 JUMPI DUP3 MLOAD PUSH1 0x0 SUB PUSH2 0x3CDB JUMPI PUSH20 0xFFFFFFFFFFFFFFFFFFFFFFFFFFFFFFFFFFFFFFFF DUP6 AND EXTCODESIZE PUSH2 0x3CDB JUMPI PUSH1 0x40 MLOAD PUSH32 0x8C379A000000000000000000000000000000000000000000000000000000000 DUP2 MSTORE PUSH1 0x20 PUSH1 0x4 DUP3 ADD MSTORE PUSH1 0x1D PUSH1 0x24 DUP3 ADD MSTORE PUSH32 0x416464726573733A2063616C6C20746F206E6F6E2D636F6E7472616374000000 PUSH1 0x44 DUP3 ADD MSTORE PUSH1 0x64 ADD PUSH2 0x93E JUMP JUMPDEST POP DUP2 PUSH2 0x676 JUMP JUMPDEST PUSH2 0x676 DUP4 DUP4 DUP2 MLOAD ISZERO PUSH2 0x3CF7 JUMPI DUP2 MLOAD DUP1 DUP4 PUSH1 0x20 ADD REVERT JUMPDEST DUP1 PUSH1 0x40 MLOAD PUSH32 0x8C379A000000000000000000000000000000000000000000000000000000000 DUP2 MSTORE PUSH1 0x4 ADD PUSH2 0x93E SWAP2 SWAP1 PUSH2 0x3DE4 JUMP JUMPDEST PUSH32 0xFFFFFFFF00000000000000000000000000000000000000000000000000000000 DUP2 AND DUP2 EQ PUSH2 0xA55 JUMPI PUSH1 0x0 DUP1 REVERT JUMPDEST PUSH1 0x0 PUSH1 0x20 DUP3 DUP5 SUB SLT ISZERO PUSH2 0x3D6B JUMPI PUSH1 0x0 DUP1 REVERT JUMPDEST DUP2 CALLDATALOAD PUSH2 0xAC3 DUP2 PUSH2 0x3D2B JUMP JUMPDEST PUSH1 0x0 JUMPDEST DUP4 DUP2 LT ISZERO PUSH2 0x3D91 JUMPI DUP2 DUP2 ADD MLOAD DUP4 DUP3 ADD MSTORE PUSH1 0x20 ADD PUSH2 0x3D79 JUMP JUMPDEST POP POP PUSH1 0x0 SWAP2 ADD MSTORE JUMP JUMPDEST PUSH1 0x0 DUP2 MLOAD DUP1 DUP5 MSTORE PUSH2 0x3DB2 DUP2 PUSH1 0x20 DUP7 ADD PUSH1 0x20 DUP7 ADD PUSH2 0x3D76 JUMP JUMPDEST PUSH1 0x1F ADD PUSH32 0xFFFFFFFFFFFFFFFFFFFFFFFFFFFFFFFFFFFFFFFFFFFFFFFFFFFFFFFFFFFFFFE0 AND SWAP3 SWAP1 SWAP3 ADD PUSH1 0x20 ADD SWAP3 SWAP2 POP POP JUMP JUMPDEST PUSH1 0x20 DUP2 MSTORE PUSH1 0x0 PUSH2 0xAC3 PUSH1 0x20 DUP4 ADD DUP5 PUSH2 0x3D9A JUMP JUMPDEST PUSH20 0xFFFFFFFFFFFFFFFFFFFFFFFFFFFFFFFFFFFFFFFF DUP2 AND DUP2 EQ PUSH2 0xA55 JUMPI PUSH1 0x0 DUP1 REVERT JUMPDEST PUSH1 0x0 DUP1 PUSH1 0x40 DUP4 DUP6 SUB SLT ISZERO PUSH2 0x3E2C JUMPI PUSH1 0x0 DUP1 REVERT JUMPDEST DUP3 CALLDATALOAD PUSH2 0x3E37 DUP2 PUSH2 0x3DF7 JUMP JUMPDEST SWAP5 PUSH1 0x20 SWAP4 SWAP1 SWAP4 ADD CALLDATALOAD SWAP4 POP POP POP JUMP JUMPDEST PUSH1 0x0 DUP1 DUP4 PUSH1 0x1F DUP5 ADD SLT PUSH2 0x3E57 JUMPI PUSH1 0x0 DUP1 REVERT JUMPDEST POP DUP2 CALLDATALOAD PUSH8 0xFFFFFFFFFFFFFFFF DUP2 GT ISZERO PUSH2 0x3E6F JUMPI PUSH1 0x0 DUP1 REVERT JUMPDEST PUSH1 0x20 DUP4 ADD SWAP2 POP DUP4 PUSH1 0x20 DUP3 PUSH1 0x5 SHL DUP6 ADD ADD GT ISZERO PUSH2 0x3E8A JUMPI PUSH1 0x0 DUP1 REVERT JUMPDEST SWAP3 POP SWAP3 SWAP1 POP JUMP JUMPDEST PUSH1 0x0 DUP1 PUSH1 0x0 DUP1 PUSH1 0x40 DUP6 DUP8 SUB SLT ISZERO PUSH2 0x3EA7 JUMPI PUSH1 0x0 DUP1 REVERT JUMPDEST DUP5 CALLDATALOAD PUSH8 0xFFFFFFFFFFFFFFFF DUP1 DUP3 GT ISZERO PUSH2 0x3EBF JUMPI PUSH1 0x0 DUP1 REVERT JUMPDEST PUSH2 0x3ECB DUP9 DUP4 DUP10 ADD PUSH2 0x3E45 JUMP JUMPDEST SWAP1 SWAP7 POP SWAP5 POP PUSH1 0x20 DUP8 ADD CALLDATALOAD SWAP2 POP DUP1 DUP3 GT ISZERO PUSH2 0x3EE4 JUMPI PUSH1 0x0 DUP1 REVERT JUMPDEST POP PUSH2 0x3EF1 DUP8 DUP3 DUP9 ADD PUSH2 0x3E45 JUMP JUMPDEST SWAP6 SWAP9 SWAP5 SWAP8 POP SWAP6 POP POP POP POP JUMP JUMPDEST PUSH1 0x0 DUP1 PUSH1 0x0 PUSH1 0x60 DUP5 DUP7 SUB SLT ISZERO PUSH2 0x3F12 JUMPI PUSH1 0x0 DUP1 REVERT JUMPDEST DUP4 CALLDATALOAD PUSH2 0x3F1D DUP2 PUSH2 0x3DF7 JUMP JUMPDEST SWAP3 POP PUSH1 0x20 DUP5 ADD CALLDATALOAD PUSH2 0x3F2D DUP2 PUSH2 0x3DF7 JUMP JUMPDEST SWAP3 SWAP6 SWAP3 SWAP5 POP POP POP PUSH1 0x40 SWAP2 SWAP1 SWAP2 ADD CALLDATALOAD SWAP1 JUMP JUMPDEST PUSH1 0x0 DUP1 PUSH1 0x40 DUP4 DUP6 SUB SLT ISZERO PUSH2 0x3F51 JUMPI PUSH1 0x0 DUP1 REVERT JUMPDEST DUP3 CALLDATALOAD SWAP2 POP PUSH1 0x20 DUP4 ADD CALLDATALOAD PUSH2 0x3F63 DUP2 PUSH2 0x3DF7 JUMP JUMPDEST DUP1 SWAP2 POP POP SWAP3 POP SWAP3 SWAP1 POP JUMP JUMPDEST PUSH1 0x0 PUSH1 0x20 DUP3 DUP5 SUB SLT ISZERO PUSH2 0x3F80 JUMPI PUSH1 0x0 DUP1 REVERT JUMPDEST POP CALLDATALOAD SWAP2 SWAP1 POP JUMP JUMPDEST PUSH1 0x0 DUP1 PUSH1 0x0 DUP1 PUSH1 0x0 PUSH1 0x60 DUP7 DUP9 SUB SLT ISZERO PUSH2 0x3F9F JUMPI PUSH1 0x0 DUP1 REVERT JUMPDEST DUP6 CALLDATALOAD PUSH2 0x3FAA DUP2 PUSH2 0x3DF7 JUMP JUMPDEST SWAP5 POP PUSH1 0x20 DUP7 ADD CALLDATALOAD PUSH8 0xFFFFFFFFFFFFFFFF DUP1 DUP3 GT ISZERO PUSH2 0x3FC7 JUMPI PUSH1 0x0 DUP1 REVERT JUMPDEST PUSH2 0x3FD3 DUP10 DUP4 DUP11 ADD PUSH2 0x3E45 JUMP JUMPDEST SWAP1 SWAP7 POP SWAP5 POP PUSH1 0x40 DUP9 ADD CALLDATALOAD SWAP2 POP DUP1 DUP3 GT ISZERO PUSH2 0x3FEC JUMPI PUSH1 0x0 DUP1 REVERT JUMPDEST POP PUSH2 0x3FF9 DUP9 DUP3 DUP10 ADD PUSH2 0x3E45 JUMP JUMPDEST SWAP7 SWAP10 SWAP6 SWAP9 POP SWAP4 SWAP7 POP SWAP3 SWAP5 SWAP4 SWAP3 POP POP POP JUMP JUMPDEST PUSH1 0x0 PUSH1 0x20 DUP3 DUP5 SUB SLT ISZERO PUSH2 0x401C JUMPI PUSH1 0x0 DUP1 REVERT JUMPDEST DUP2 CALLDATALOAD PUSH2 0xAC3 DUP2 PUSH2 0x3DF7 JUMP JUMPDEST PUSH1 0x0 DUP1 PUSH1 0x0 DUP1 PUSH1 0x0 DUP1 PUSH1 0x60 DUP8 DUP10 SUB SLT ISZERO PUSH2 0x4040 JUMPI PUSH1 0x0 DUP1 REVERT JUMPDEST DUP7 CALLDATALOAD PUSH8 0xFFFFFFFFFFFFFFFF DUP1 DUP3 GT ISZERO PUSH2 0x4058 JUMPI PUSH1 0x0 DUP1 REVERT JUMPDEST PUSH2 0x4064 DUP11 DUP4 DUP12 ADD PUSH2 0x3E45 JUMP JUMPDEST SWAP1 SWAP9 POP SWAP7 POP PUSH1 0x20 DUP10 ADD CALLDATALOAD SWAP2 POP DUP1 DUP3 GT ISZERO PUSH2 0x407D JUMPI PUSH1 0x0 DUP1 REVERT JUMPDEST PUSH2 0x4089 DUP11 DUP4 DUP12 ADD PUSH2 0x3E45 JUMP JUMPDEST SWAP1 SWAP7 POP SWAP5 POP PUSH1 0x40 DUP10 ADD CALLDATALOAD SWAP2 POP DUP1 DUP3 GT ISZERO PUSH2 0x40A2 JUMPI PUSH1 0x0 DUP1 REVERT JUMPDEST POP PUSH2 0x40AF DUP10 DUP3 DUP11 ADD PUSH2 0x3E45 JUMP JUMPDEST SWAP8 SWAP11 SWAP7 SWAP10 POP SWAP5 SWAP8 POP SWAP3 SWAP6 SWAP4 SWAP5 SWAP3 POP POP POP JUMP JUMPDEST PUSH1 0x0 DUP1 DUP4 PUSH1 0x1F DUP5 ADD SLT PUSH2 0x40D3 JUMPI PUSH1 0x0 DUP1 REVERT JUMPDEST POP DUP2 CALLDATALOAD PUSH8 0xFFFFFFFFFFFFFFFF DUP2 GT ISZERO PUSH2 0x40EB JUMPI PUSH1 0x0 DUP1 REVERT JUMPDEST PUSH1 0x20 DUP4 ADD SWAP2 POP DUP4 PUSH1 0x20 DUP3 DUP6 ADD ADD GT ISZERO PUSH2 0x3E8A JUMPI PUSH1 0x0 DUP1 REVERT JUMPDEST PUSH1 0x0 DUP1 PUSH1 0x0 DUP1 PUSH1 0x0 PUSH1 0x80 DUP7 DUP9 SUB SLT ISZERO PUSH2 0x411B JUMPI PUSH1 0x0 DUP1 REVERT JUMPDEST DUP6 CALLDATALOAD PUSH2 0x4126 DUP2 PUSH2 0x3DF7 JUMP JUMPDEST SWAP5 POP PUSH1 0x20 DUP7 ADD CALLDATALOAD PUSH2 0x4136 DUP2 PUSH2 0x3DF7 JUMP JUMPDEST SWAP4 POP PUSH1 0x40 DUP7 ADD CALLDATALOAD SWAP3 POP PUSH1 0x60 DUP7 ADD CALLDATALOAD PUSH8 0xFFFFFFFFFFFFFFFF DUP2 GT ISZERO PUSH2 0x4159 JUMPI PUSH1 0x0 DUP1 REVERT JUMPDEST PUSH2 0x3FF9 DUP9 DUP3 DUP10 ADD PUSH2 0x40C1 JUMP JUMPDEST PUSH1 0x0 DUP1 PUSH1 0x0 DUP1 PUSH1 0x0 DUP1 PUSH1 0x0 PUSH1 0xE0 DUP9 DUP11 SUB SLT ISZERO PUSH2 0x4180 JUMPI PUSH1 0x0 DUP1 REVERT JUMPDEST DUP8 CALLDATALOAD PUSH2 0x418B DUP2 PUSH2 0x3DF7 JUMP JUMPDEST SWAP7 POP PUSH1 0x20 DUP9 ADD CALLDATALOAD PUSH2 0x419B DUP2 PUSH2 0x3DF7 JUMP JUMPDEST SWAP6 POP PUSH1 0x40 DUP9 ADD CALLDATALOAD SWAP5 POP PUSH1 0x60 DUP9 ADD CALLDATALOAD SWAP4 POP PUSH1 0x80 DUP9 ADD CALLDATALOAD PUSH1 0xFF DUP2 AND DUP2 EQ PUSH2 0x41BF JUMPI PUSH1 0x0 DUP1 REVERT JUMPDEST SWAP7 SWAP10 SWAP6 SWAP9 POP SWAP4 SWAP7 SWAP3 SWAP6 SWAP5 PUSH1 0xA0 DUP5 ADD CALLDATALOAD SWAP5 POP PUSH1 0xC0 SWAP1 SWAP4 ADD CALLDATALOAD SWAP3 SWAP2 POP POP JUMP JUMPDEST PUSH1 0x0 DUP1 PUSH1 0x40 DUP4 DUP6 SUB SLT ISZERO PUSH2 0x41EF JUMPI PUSH1 0x0 DUP1 REVERT JUMPDEST DUP3 CALLDATALOAD PUSH2 0x41FA DUP2 PUSH2 0x3DF7 JUMP JUMPDEST SWAP2 POP PUSH1 0x20 DUP4 ADD CALLDATALOAD PUSH2 0x3F63 DUP2 PUSH2 0x3DF7 JUMP JUMPDEST PUSH1 0x0 DUP1 PUSH1 0x20 DUP4 DUP6 SUB SLT ISZERO PUSH2 0x421D JUMPI PUSH1 0x0 DUP1 REVERT JUMPDEST DUP3 CALLDATALOAD PUSH8 0xFFFFFFFFFFFFFFFF DUP2 GT ISZERO PUSH2 0x4234 JUMPI PUSH1 0x0 DUP1 REVERT JUMPDEST PUSH2 0x4240 DUP6 DUP3 DUP7 ADD PUSH2 0x40C1 JUMP JUMPDEST SWAP1 SWAP7 SWAP1 SWAP6 POP SWAP4 POP POP POP POP JUMP JUMPDEST PUSH1 0x0 DUP1 PUSH1 0x0 DUP1 PUSH1 0x60 DUP6 DUP8 SUB SLT ISZERO PUSH2 0x4262 JUMPI PUSH1 0x0 DUP1 REVERT JUMPDEST DUP5 CALLDATALOAD PUSH2 0x426D DUP2 PUSH2 0x3DF7 JUMP JUMPDEST SWAP4 POP PUSH1 0x20 DUP6 ADD CALLDATALOAD SWAP3 POP PUSH1 0x40 DUP6 ADD CALLDATALOAD PUSH8 0xFFFFFFFFFFFFFFFF DUP2 GT ISZERO PUSH2 0x4290 JUMPI PUSH1 0x0 DUP1 REVERT JUMPDEST PUSH2 0x3EF1 DUP8 DUP3 DUP9 ADD PUSH2 0x40C1 JUMP JUMPDEST PUSH32 0x4E487B7100000000000000000000000000000000000000000000000000000000 PUSH1 0x0 MSTORE PUSH1 0x32 PUSH1 0x4 MSTORE PUSH1 0x24 PUSH1 0x0 REVERT JUMPDEST DUP2 DUP2 SUB DUP2 DUP2 GT ISZERO PUSH2 0x5F6 JUMPI PUSH32 0x4E487B7100000000000000000000000000000000000000000000000000000000 PUSH1 0x0 MSTORE PUSH1 0x11 PUSH1 0x4 MSTORE PUSH1 0x24 PUSH1 0x0 REVERT JUMPDEST PUSH32 0x4E487B7100000000000000000000000000000000000000000000000000000000 PUSH1 0x0 MSTORE PUSH1 0x41 PUSH1 0x4 MSTORE PUSH1 0x24 PUSH1 0x0 REVERT JUMPDEST PUSH1 0x1 DUP2 DUP2 SHR SWAP1 DUP3 AND DUP1 PUSH2 0x4348 JUMPI PUSH1 0x7F DUP3 AND SWAP2 POP JUMPDEST PUSH1 0x20 DUP3 LT DUP2 SUB PUSH2 0x4381 JUMPI PUSH32 0x4E487B7100000000000000000000000000000000000000000000000000000000 PUSH1 0x0 MSTORE PUSH1 0x22 PUSH1 0x4 MSTORE PUSH1 0x24 PUSH1 0x0 REVERT JUMPDEST POP SWAP2 SWAP1 POP JUMP JUMPDEST PUSH1 0x1F DUP3 GT ISZERO PUSH2 0x6DD JUMPI PUSH1 0x0 DUP2 DUP2 MSTORE PUSH1 0x20 DUP2 KECCAK256 PUSH1 0x1F DUP6 ADD PUSH1 0x5 SHR DUP2 ADD PUSH1 0x20 DUP7 LT ISZERO PUSH2 0x43AE JUMPI POP DUP1 JUMPDEST PUSH1 0x1F DUP6 ADD PUSH1 0x5 SHR DUP3 ADD SWAP2 POP JUMPDEST DUP2 DUP2 LT ISZERO PUSH2 0xEC7 JUMPI DUP3 DUP2 SSTORE PUSH1 0x1 ADD PUSH2 0x43BA JUMP JUMPDEST DUP2 MLOAD PUSH8 0xFFFFFFFFFFFFFFFF DUP2 GT ISZERO PUSH2 0x43E7 JUMPI PUSH2 0x43E7 PUSH2 0x4305 JUMP JUMPDEST PUSH2 0x43FB DUP2 PUSH2 0x43F5 DUP5 SLOAD PUSH2 0x4334 JUMP JUMPDEST DUP5 PUSH2 0x4387 JUMP JUMPDEST PUSH1 0x20 DUP1 PUSH1 0x1F DUP4 GT PUSH1 0x1 DUP2 EQ PUSH2 0x444E JUMPI PUSH1 0x0 DUP5 ISZERO PUSH2 0x4418 JUMPI POP DUP6 DUP4 ADD MLOAD JUMPDEST PUSH32 0xFFFFFFFFFFFFFFFFFFFFFFFFFFFFFFFFFFFFFFFFFFFFFFFFFFFFFFFFFFFFFFFF PUSH1 0x3 DUP7 SWAP1 SHL SHR NOT AND PUSH1 0x1 DUP6 SWAP1 SHL OR DUP6 SSTORE PUSH2 0xEC7 JUMP JUMPDEST PUSH1 0x0 DUP6 DUP2 MSTORE PUSH1 0x20 DUP2 KECCAK256 PUSH32 0xFFFFFFFFFFFFFFFFFFFFFFFFFFFFFFFFFFFFFFFFFFFFFFFFFFFFFFFFFFFFFFE0 DUP7 AND SWAP2 JUMPDEST DUP3 DUP2 LT ISZERO PUSH2 0x449B JUMPI DUP9 DUP7 ADD MLOAD DUP3 SSTORE SWAP5 DUP5 ADD SWAP5 PUSH1 0x1 SWAP1 SWAP2 ADD SWAP1 DUP5 ADD PUSH2 0x447C JUMP JUMPDEST POP DUP6 DUP3 LT ISZERO PUSH2 0x44D7 JUMPI DUP8 DUP6 ADD MLOAD PUSH32 0xFFFFFFFFFFFFFFFFFFFFFFFFFFFFFFFFFFFFFFFFFFFFFFFFFFFFFFFFFFFFFFFF PUSH1 0x3 DUP9 SWAP1 SHL PUSH1 0xF8 AND SHR NOT AND DUP2 SSTORE JUMPDEST POP POP POP POP POP PUSH1 0x1 SWAP1 DUP2 SHL ADD SWAP1 SSTORE POP JUMP JUMPDEST PUSH32 0x416363657373436F6E74726F6C3A206D697373696E6720270000000000000000 DUP2 MSTORE PUSH1 0x0 DUP3 MLOAD PUSH2 0x451F DUP2 PUSH1 0x18 DUP6 ADD PUSH1 0x20 DUP8 ADD PUSH2 0x3D76 JUMP JUMPDEST PUSH32 0x2720726F6C650000000000000000000000000000000000000000000000000000 PUSH1 0x18 SWAP4 SWAP1 SWAP2 ADD SWAP3 DUP4 ADD MSTORE POP PUSH1 0x1E ADD SWAP2 SWAP1 POP JUMP JUMPDEST PUSH8 0xFFFFFFFFFFFFFFFF DUP4 GT ISZERO PUSH2 0x456B JUMPI PUSH2 0x456B PUSH2 0x4305 JUMP JUMPDEST PUSH2 0x457F DUP4 PUSH2 0x4579 DUP4 SLOAD PUSH2 0x4334 JUMP JUMPDEST DUP4 PUSH2 0x4387 JUMP JUMPDEST PUSH1 0x0 PUSH1 0x1F DUP5 GT PUSH1 0x1 DUP2 EQ PUSH2 0x45D1 JUMPI PUSH1 0x0 DUP6 ISZERO PUSH2 0x459B JUMPI POP DUP4 DUP3 ADD CALLDATALOAD JUMPDEST PUSH32 0xFFFFFFFFFFFFFFFFFFFFFFFFFFFFFFFFFFFFFFFFFFFFFFFFFFFFFFFFFFFFFFFF PUSH1 0x3 DUP8 SWAP1 SHL SHR NOT AND PUSH1 0x1 DUP7 SWAP1 SHL OR DUP4 SSTORE PUSH2 0x1834 JUMP JUMPDEST PUSH1 0x0 DUP4 DUP2 MSTORE PUSH1 0x20 SWAP1 KECCAK256 PUSH32 0xFFFFFFFFFFFFFFFFFFFFFFFFFFFFFFFFFFFFFFFFFFFFFFFFFFFFFFFFFFFFFFE0 DUP7 AND SWAP1 DUP4 JUMPDEST DUP3 DUP2 LT ISZERO PUSH2 0x4620 JUMPI DUP7 DUP6 ADD CALLDATALOAD DUP3 SSTORE PUSH1 0x20 SWAP5 DUP6 ADD SWAP5 PUSH1 0x1 SWAP1 SWAP3 ADD SWAP2 ADD PUSH2 0x4600 JUMP JUMPDEST POP DUP7 DUP3 LT ISZERO PUSH2 0x465B JUMPI PUSH32 0xFFFFFFFFFFFFFFFFFFFFFFFFFFFFFFFFFFFFFFFFFFFFFFFFFFFFFFFFFFFFFFFF PUSH1 0xF8 DUP9 PUSH1 0x3 SHL AND SHR NOT DUP5 DUP8 ADD CALLDATALOAD AND DUP2 SSTORE JUMPDEST POP POP PUSH1 0x1 DUP6 PUSH1 0x1 SHL ADD DUP4 SSTORE POP POP POP POP POP JUMP JUMPDEST PUSH1 0x0 PUSH1 0x20 DUP3 DUP5 SUB SLT ISZERO PUSH2 0x467F JUMPI PUSH1 0x0 DUP1 REVERT JUMPDEST DUP2 MLOAD DUP1 ISZERO ISZERO DUP2 EQ PUSH2 0xAC3 JUMPI PUSH1 0x0 DUP1 REVERT JUMPDEST PUSH1 0x0 PUSH20 0xFFFFFFFFFFFFFFFFFFFFFFFFFFFFFFFFFFFFFFFF DUP1 DUP8 AND DUP4 MSTORE DUP1 DUP7 AND PUSH1 0x20 DUP5 ADD MSTORE POP DUP4 PUSH1 0x40 DUP4 ADD MSTORE PUSH1 0x80 PUSH1 0x60 DUP4 ADD MSTORE PUSH2 0x46CE PUSH1 0x80 DUP4 ADD DUP5 PUSH2 0x3D9A JUMP JUMPDEST SWAP7 SWAP6 POP POP POP POP POP POP JUMP JUMPDEST PUSH1 0x0 PUSH1 0x20 DUP3 DUP5 SUB SLT ISZERO PUSH2 0x46EA JUMPI PUSH1 0x0 DUP1 REVERT JUMPDEST DUP2 MLOAD PUSH2 0xAC3 DUP2 PUSH2 0x3D2B JUMP JUMPDEST PUSH1 0x0 DUP3 MLOAD PUSH2 0x4707 DUP2 DUP5 PUSH1 0x20 DUP8 ADD PUSH2 0x3D76 JUMP JUMPDEST SWAP2 SWAP1 SWAP2 ADD SWAP3 SWAP2 POP POP JUMP INVALID LOG2 PUSH5 0x6970667358 0x22 SLT KECCAK256 0xB1 SWAP2 MSIZE SLOAD 0x5F 0x5C ADDRESS 0xE0 0xBD BALANCE 0xD6 PUSH1 0x4 BASEFEE SGT PUSH6 0xE80A01246FF2 DUP11 0xDE RETURNDATACOPY 0x27 RETURNDATACOPY LT 0xE3 MSTORE8 0xDC GASLIMIT PUSH5 0x736F6C6343 STOP ADDMOD GT STOP CALLER "},"gasEstimates":{"creation":{"codeDepositCost":"3649400","executionCost":"infinite","totalCost":"infinite"},"external":{"DOMAIN_SEPARATOR()":"infinite","MINTER_ROLE()":"284","allowance(address,address)":"infinite","approve(address,uint256)":"infinite","balanceOf(address)":"infinite","batchBurnFrom(address[],uint256[])":"infinite","batchMint(address[],uint256[])":"infinite","batchTransfer(address[],uint256[])":"infinite","batchTransferFrom(address,address[],uint256[])":"infinite","burn(uint256)":"infinite","burnFrom(address,uint256)":"infinite","decimals()":"infinite","decreaseAllowance(address,uint256)":"infinite","forwarderRegistry()":"infinite","grantRole(bytes32,address)":"infinite","hasRole(bytes32,address)":"infinite","increaseAllowance(address,uint256)":"infinite","isTrustedForwarder(address)":"infinite","mint(address,uint256)":"infinite","name()":"infinite","nonces(address)":"infinite","owner()":"infinite","permit(address,address,uint256,uint256,uint8,bytes32,bytes32)":"infinite","recoverERC20s(address[],address[],uint256[])":"infinite","recoverERC721s(address[],address[],uint256[])":"infinite","recoverETH(address[],uint256[])":"infinite","renounceRole(bytes32)":"infinite","revokeRole(bytes32,address)":"infinite","safeTransfer(address,uint256,bytes)":"infinite","safeTransferFrom(address,address,uint256,bytes)":"infinite","setTokenURI(string)":"infinite","supportsInterface(bytes4)":"infinite","symbol()":"infinite","tokenURI()":"infinite","totalSupply()":"infinite","transfer(address,uint256)":"infinite","transferFrom(address,address,uint256)":"infinite","transferOwnership(address)":"infinite"},"internal":{"_msgData()":"infinite","_msgSender()":"infinite"}},"methodIdentifiers":{"DOMAIN_SEPARATOR()":"3644e515","MINTER_ROLE()":"d5391393","allowance(address,address)":"dd62ed3e","approve(address,uint256)":"095ea7b3","balanceOf(address)":"70a08231","batchBurnFrom(address[],uint256[])":"1b9a7529","batchMint(address[],uint256[])":"68573107","batchTransfer(address[],uint256[])":"88d695b2","batchTransferFrom(address,address[],uint256[])":"4885b254","burn(uint256)":"42966c68","burnFrom(address,uint256)":"79cc6790","decimals()":"313ce567","decreaseAllowance(address,uint256)":"a457c2d7","forwarderRegistry()":"2b4c9f16","grantRole(bytes32,address)":"2f2ff15d","hasRole(bytes32,address)":"91d14854","increaseAllowance(address,uint256)":"39509351","isTrustedForwarder(address)":"572b6c05","mint(address,uint256)":"40c10f19","name()":"06fdde03","nonces(address)":"7ecebe00","owner()":"8da5cb5b","permit(address,address,uint256,uint256,uint8,bytes32,bytes32)":"d505accf","recoverERC20s(address[],address[],uint256[])":"73c8a958","recoverERC721s(address[],address[],uint256[])":"c3666c36","recoverETH(address[],uint256[])":"f7ba94bd","renounceRole(bytes32)":"8bb9c5bf","revokeRole(bytes32,address)":"d547741f","safeTransfer(address,uint256,bytes)":"eb795549","safeTransferFrom(address,address,uint256,bytes)":"b88d4fde","setTokenURI(string)":"e0df5b6f","supportsInterface(bytes4)":"01ffc9a7","symbol()":"95d89b41","tokenURI()":"3c130d90","totalSupply()":"18160ddd","transfer(address,uint256)":"a9059cbb","transferFrom(address,address,uint256)":"23b872dd","transferOwnership(address)":"f2fde38b"}},"storageLayout":{"storage":[],"types":null},"userdoc":{"events":{"Approval(address,address,uint256)":{"notice":"Emitted when an approval is set."},"OwnershipTransferred(address,address)":{"notice":"Emitted when the contract ownership changes."},"RoleGranted(bytes32,address,address)":{"notice":"Emitted when a role is granted."},"RoleRevoked(bytes32,address,address)":{"notice":"Emitted when a role is revoked or renounced."},"Transfer(address,address,uint256)":{"notice":"Emitted when tokens are transferred, including zero value transfers."}},"kind":"user","methods":{"DOMAIN_SEPARATOR()":{"notice":"Returns the EIP-712 encoded hash struct of the domain-specific information for permits."},"allowance(address,address)":{"notice":"Gets the amount that an account is allowed to spend on behalf of another."},"approve(address,uint256)":{"notice":"Sets the allowance to an account from the sender.Warning: Beware that changing an allowance with this method brings the risk that someone may use both the old and  the new allowance by unfortunate transaction ordering. One possible solution to mitigate this race condition is to first reduce  the spender's allowance to 0 and set the desired value afterwards: https://github.com/ethereum/EIPs/issues/20#issuecomment-263524729"},"balanceOf(address)":{"notice":"Gets an account balance."},"batchBurnFrom(address[],uint256[])":{"notice":"Burns multiple amounts of tokens from multiple owners, decreasing the total supply."},"batchMint(address[],uint256[])":{"notice":"Mints multiple amounts of tokens to multiple recipients, increasing the total supply."},"batchTransfer(address[],uint256[])":{"notice":"Transfers multiple amounts of tokens to multiple recipients from the sender."},"batchTransferFrom(address,address[],uint256[])":{"notice":"Transfers multiple amounts of tokens to multiple recipients from a specified address."},"burn(uint256)":{"notice":"Burns an amount of tokens from the sender, decreasing the total supply."},"burnFrom(address,uint256)":{"notice":"Burns an amount of tokens from a specified address, decreasing the total supply."},"decimals()":{"notice":"Gets the number of decimals used to display the balances.For example, if `decimals` equals `2`, a balance of `505` tokens should be displayed to a user as `5,05` (`505 / 10 ** 2`).Tokens usually opt for a value of 18, imitating the relationship between Ether and Wei."},"decreaseAllowance(address,uint256)":{"notice":"Decreases the allowance granted to an account by the sender.This is an alternative to {approve} that can be used as a mitigation for transaction ordering problems."},"grantRole(bytes32,address)":{"notice":"Grants a role to an account."},"hasRole(bytes32,address)":{"notice":"Retrieves whether an account has a role."},"increaseAllowance(address,uint256)":{"notice":"Increases the allowance granted to an account by the sender.This is an alternative to {approve} that can be used as a mitigation for transaction ordering problems."},"isTrustedForwarder(address)":{"notice":"Checks whether a forwarder is trusted."},"mint(address,uint256)":{"notice":"Mints an amount of tokens to a recipient, increasing the total supply."},"name()":{"notice":"Gets the name of the token. E.g. \"My Token\"."},"nonces(address)":{"notice":"Gets the current permit nonce of an account."},"owner()":{"notice":"Gets the address of the contract owner."},"permit(address,address,uint256,uint256,uint8,bytes32,bytes32)":{"notice":"Sets the allowance to an account from another account using a signed permit.Warning: The standard ERC20 race condition for approvals applies to `permit()` as well: https://swcregistry.io/docs/SWC-114"},"recoverERC20s(address[],address[],uint256[])":{"notice":"Extract ERC20 tokens which were accidentally sent to the contract to a list of accounts."},"recoverERC721s(address[],address[],uint256[])":{"notice":"Extract ERC721 tokens which were accidentally sent to the contract to a list of accounts."},"recoverETH(address[],uint256[])":{"notice":"Extract ETH tokens which were accidentally sent to the contract to a list of accounts."},"renounceRole(bytes32)":{"notice":"Renounces a role by the sender."},"revokeRole(bytes32,address)":{"notice":"Revokes a role from an account."},"safeTransfer(address,uint256,bytes)":{"notice":"Transfers an amount of tokens to a recipient from the sender. If the recipient is a contract, calls `onERC20Received` on it."},"safeTransferFrom(address,address,uint256,bytes)":{"notice":"Transfers an amount of tokens to a recipient from a specified address. If the recipient is a contract, calls `onERC20Received` on it."},"setTokenURI(string)":{"notice":"Sets the token URI."},"supportsInterface(bytes4)":{"notice":"Returns whether this contract implements a given interface."},"symbol()":{"notice":"Gets the symbol of the token. E.g. \"TOK\"."},"tokenURI()":{"notice":"Gets the token metadata URI."},"totalSupply()":{"notice":"Gets the total token supply."},"transfer(address,uint256)":{"notice":"Transfers an amount of tokens to a recipient from the sender."},"transferFrom(address,address,uint256)":{"notice":"Transfers an amount of tokens to a recipient from a specified address."},"transferOwnership(address)":{"notice":"Sets the address of the new contract owner."}},"version":1}}}}