{
  "_format": "hh-sol-artifact-1",
  "contractName": "SampleToken",
  "sourceName": "contracts/token/erc20/SampleToken.sol",
  "abi": [
    {
      "inputs": [
        {
          "internalType": "string",
          "name": "tokenName",
          "type": "string"
        },
        {
          "internalType": "string",
          "name": "tokenSymbol",
          "type": "string"
        },
        {
          "internalType": "uint8",
          "name": "tokenDecimals",
          "type": "uint8"
        },
        {
          "internalType": "contract IForwarderRegistry",
          "name": "forwarderRegistry",
          "type": "address"
        }
      ],
      "stateMutability": "nonpayable",
      "type": "constructor"
    },
    {
      "anonymous": false,
      "inputs": [
        {
          "indexed": true,
          "internalType": "address",
          "name": "owner",
          "type": "address"
        },
        {
          "indexed": true,
          "internalType": "address",
          "name": "spender",
          "type": "address"
        },
        {
          "indexed": false,
          "internalType": "uint256",
          "name": "value",
          "type": "uint256"
        }
      ],
      "name": "Approval",
      "type": "event"
    },
    {
      "anonymous": false,
      "inputs": [
        {
          "indexed": true,
          "internalType": "address",
          "name": "previousOwner",
          "type": "address"
        },
        {
          "indexed": true,
          "internalType": "address",
          "name": "newOwner",
          "type": "address"
        }
      ],
      "name": "OwnershipTransferred",
      "type": "event"
    },
    {
      "anonymous": false,
      "inputs": [
        {
          "indexed": false,
          "internalType": "bytes32",
          "name": "role",
          "type": "bytes32"
        },
        {
          "indexed": false,
          "internalType": "address",
          "name": "account",
          "type": "address"
        },
        {
          "indexed": false,
          "internalType": "address",
          "name": "operator",
          "type": "address"
        }
      ],
      "name": "RoleGranted",
      "type": "event"
    },
    {
      "anonymous": false,
      "inputs": [
        {
          "indexed": false,
          "internalType": "bytes32",
          "name": "role",
          "type": "bytes32"
        },
        {
          "indexed": false,
          "internalType": "address",
          "name": "account",
          "type": "address"
        },
        {
          "indexed": false,
          "internalType": "address",
          "name": "operator",
          "type": "address"
        }
      ],
      "name": "RoleRevoked",
      "type": "event"
    },
    {
      "anonymous": false,
      "inputs": [
        {
          "indexed": true,
          "internalType": "address",
          "name": "from",
          "type": "address"
        },
        {
          "indexed": true,
          "internalType": "address",
          "name": "to",
          "type": "address"
        },
        {
          "indexed": false,
          "internalType": "uint256",
          "name": "value",
          "type": "uint256"
        }
      ],
      "name": "Transfer",
      "type": "event"
    },
    {
      "inputs": [],
      "name": "MINTER_ROLE",
      "outputs": [
        {
          "internalType": "bytes32",
          "name": "",
          "type": "bytes32"
        }
      ],
      "stateMutability": "view",
      "type": "function"
    },
    {
      "inputs": [
        {
          "internalType": "address",
          "name": "owner",
          "type": "address"
        },
        {
          "internalType": "address",
          "name": "spender",
          "type": "address"
        }
      ],
      "name": "allowance",
      "outputs": [
        {
          "internalType": "uint256",
          "name": "value",
          "type": "uint256"
        }
      ],
      "stateMutability": "view",
      "type": "function"
    },
    {
      "inputs": [
        {
          "internalType": "address",
          "name": "spender",
          "type": "address"
        },
        {
          "internalType": "uint256",
          "name": "value",
          "type": "uint256"
        }
      ],
      "name": "approve",
      "outputs": [
        {
          "internalType": "bool",
          "name": "result",
          "type": "bool"
        }
      ],
      "stateMutability": "nonpayable",
      "type": "function"
    },
    {
      "inputs": [
        {
          "internalType": "address",
          "name": "owner",
          "type": "address"
        }
      ],
      "name": "balanceOf",
      "outputs": [
        {
          "internalType": "uint256",
          "name": "balance",
          "type": "uint256"
        }
      ],
      "stateMutability": "view",
      "type": "function"
    },
    {
      "inputs": [
        {
          "internalType": "address[]",
          "name": "owners",
          "type": "address[]"
        },
        {
          "internalType": "uint256[]",
          "name": "values",
          "type": "uint256[]"
        }
      ],
      "name": "batchBurnFrom",
      "outputs": [
        {
          "internalType": "bool",
          "name": "",
          "type": "bool"
        }
      ],
      "stateMutability": "nonpayable",
      "type": "function"
    },
    {
      "inputs": [
        {
          "internalType": "address[]",
          "name": "recipients",
          "type": "address[]"
        },
        {
          "internalType": "uint256[]",
          "name": "values",
          "type": "uint256[]"
        }
      ],
      "name": "batchMint",
      "outputs": [],
      "stateMutability": "nonpayable",
      "type": "function"
    },
    {
      "inputs": [
        {
          "internalType": "address[]",
          "name": "recipients",
          "type": "address[]"
        },
        {
          "internalType": "uint256[]",
          "name": "values",
          "type": "uint256[]"
        }
      ],
      "name": "batchTransfer",
      "outputs": [
        {
          "internalType": "bool",
          "name": "",
          "type": "bool"
        }
      ],
      "stateMutability": "nonpayable",
      "type": "function"
    },
    {
      "inputs": [
        {
          "internalType": "address",
          "name": "from",
          "type": "address"
        },
        {
          "internalType": "address[]",
          "name": "recipients",
          "type": "address[]"
        },
        {
          "internalType": "uint256[]",
          "name": "values",
          "type": "uint256[]"
        }
      ],
      "name": "batchTransferFrom",
      "outputs": [
        {
          "internalType": "bool",
          "name": "",
          "type": "bool"
        }
      ],
      "stateMutability": "nonpayable",
      "type": "function"
    },
    {
      "inputs": [
        {
          "internalType": "uint256",
          "name": "value",
          "type": "uint256"
        }
      ],
      "name": "burn",
      "outputs": [
        {
          "internalType": "bool",
          "name": "",
          "type": "bool"
        }
      ],
      "stateMutability": "nonpayable",
      "type": "function"
    },
    {
      "inputs": [
        {
          "internalType": "address",
          "name": "from",
          "type": "address"
        },
        {
          "internalType": "uint256",
          "name": "value",
          "type": "uint256"
        }
      ],
      "name": "burnFrom",
      "outputs": [
        {
          "internalType": "bool",
          "name": "",
          "type": "bool"
        }
      ],
      "stateMutability": "nonpayable",
      "type": "function"
    },
    {
      "inputs": [],
      "name": "decimals",
      "outputs": [
        {
          "internalType": "uint8",
          "name": "",
          "type": "uint8"
        }
      ],
      "stateMutability": "view",
      "type": "function"
    },
    {
      "inputs": [
        {
          "internalType": "address",
          "name": "spender",
          "type": "address"
        },
        {
          "internalType": "uint256",
          "name": "subtractedValue",
          "type": "uint256"
        }
      ],
      "name": "decreaseAllowance",
      "outputs": [
        {
          "internalType": "bool",
          "name": "result",
          "type": "bool"
        }
      ],
      "stateMutability": "nonpayable",
      "type": "function"
    },
    {
      "inputs": [
        {
          "internalType": "bytes32",
          "name": "role",
          "type": "bytes32"
        },
        {
          "internalType": "address",
          "name": "account",
          "type": "address"
        }
      ],
      "name": "grantRole",
      "outputs": [],
      "stateMutability": "nonpayable",
      "type": "function"
    },
    {
      "inputs": [
        {
          "internalType": "bytes32",
          "name": "role",
          "type": "bytes32"
        },
        {
          "internalType": "address",
          "name": "account",
          "type": "address"
        }
      ],
      "name": "hasRole",
      "outputs": [
        {
          "internalType": "bool",
          "name": "",
          "type": "bool"
        }
      ],
      "stateMutability": "view",
      "type": "function"
    },
    {
      "inputs": [
        {
          "internalType": "address",
          "name": "spender",
          "type": "address"
        },
        {
          "internalType": "uint256",
          "name": "addedValue",
          "type": "uint256"
        }
      ],
      "name": "increaseAllowance",
      "outputs": [
        {
          "internalType": "bool",
          "name": "result",
          "type": "bool"
        }
      ],
      "stateMutability": "nonpayable",
      "type": "function"
    },
    {
      "inputs": [
        {
          "internalType": "address",
          "name": "to",
          "type": "address"
        },
        {
          "internalType": "uint256",
          "name": "value",
          "type": "uint256"
        }
      ],
      "name": "mint",
      "outputs": [],
      "stateMutability": "nonpayable",
      "type": "function"
    },
    {
      "inputs": [],
      "name": "name",
      "outputs": [
        {
          "internalType": "string",
          "name": "",
          "type": "string"
        }
      ],
      "stateMutability": "view",
      "type": "function"
    },
    {
      "inputs": [],
      "name": "owner",
      "outputs": [
        {
          "internalType": "address",
          "name": "",
          "type": "address"
        }
      ],
      "stateMutability": "view",
      "type": "function"
    },
    {
      "inputs": [
        {
          "internalType": "bytes32",
          "name": "role",
          "type": "bytes32"
        }
      ],
      "name": "renounceRole",
      "outputs": [],
      "stateMutability": "nonpayable",
      "type": "function"
    },
    {
      "inputs": [
        {
          "internalType": "bytes32",
          "name": "role",
          "type": "bytes32"
        },
        {
          "internalType": "address",
          "name": "account",
          "type": "address"
        }
      ],
      "name": "revokeRole",
      "outputs": [],
      "stateMutability": "nonpayable",
      "type": "function"
    },
    {
      "inputs": [
        {
          "internalType": "address",
          "name": "to",
          "type": "address"
        },
        {
          "internalType": "uint256",
          "name": "value",
          "type": "uint256"
        },
        {
          "internalType": "bytes",
          "name": "data",
          "type": "bytes"
        }
      ],
      "name": "safeTransfer",
      "outputs": [
        {
          "internalType": "bool",
          "name": "",
          "type": "bool"
        }
      ],
      "stateMutability": "nonpayable",
      "type": "function"
    },
    {
      "inputs": [
        {
          "internalType": "address",
          "name": "from",
          "type": "address"
        },
        {
          "internalType": "address",
          "name": "to",
          "type": "address"
        },
        {
          "internalType": "uint256",
          "name": "value",
          "type": "uint256"
        },
        {
          "internalType": "bytes",
          "name": "data",
          "type": "bytes"
        }
      ],
      "name": "safeTransferFrom",
      "outputs": [
        {
          "internalType": "bool",
          "name": "",
          "type": "bool"
        }
      ],
      "stateMutability": "nonpayable",
      "type": "function"
    },
    {
      "inputs": [
        {
          "internalType": "string",
          "name": "uri",
          "type": "string"
        }
      ],
      "name": "setTokenURI",
      "outputs": [],
      "stateMutability": "nonpayable",
      "type": "function"
    },
    {
      "inputs": [
        {
          "internalType": "bytes4",
          "name": "interfaceId",
          "type": "bytes4"
        }
      ],
      "name": "supportsInterface",
      "outputs": [
        {
          "internalType": "bool",
          "name": "",
          "type": "bool"
        }
      ],
      "stateMutability": "view",
      "type": "function"
    },
    {
      "inputs": [],
      "name": "symbol",
      "outputs": [
        {
          "internalType": "string",
          "name": "",
          "type": "string"
        }
      ],
      "stateMutability": "view",
      "type": "function"
    },
    {
      "inputs": [],
      "name": "tokenURI",
      "outputs": [
        {
          "internalType": "string",
          "name": "",
          "type": "string"
        }
      ],
      "stateMutability": "view",
      "type": "function"
    },
    {
      "inputs": [],
      "name": "totalSupply",
      "outputs": [
        {
          "internalType": "uint256",
          "name": "supply",
          "type": "uint256"
        }
      ],
      "stateMutability": "view",
      "type": "function"
    },
    {
      "inputs": [
        {
          "internalType": "address",
          "name": "to",
          "type": "address"
        },
        {
          "internalType": "uint256",
          "name": "value",
          "type": "uint256"
        }
      ],
      "name": "transfer",
      "outputs": [
        {
          "internalType": "bool",
          "name": "result",
          "type": "bool"
        }
      ],
      "stateMutability": "nonpayable",
      "type": "function"
    },
    {
      "inputs": [
        {
          "internalType": "address",
          "name": "from",
          "type": "address"
        },
        {
          "internalType": "address",
          "name": "to",
          "type": "address"
        },
        {
          "internalType": "uint256",
          "name": "value",
          "type": "uint256"
        }
      ],
      "name": "transferFrom",
      "outputs": [
        {
          "internalType": "bool",
          "name": "result",
          "type": "bool"
        }
      ],
      "stateMutability": "nonpayable",
      "type": "function"
    },
    {
      "inputs": [
        {
          "internalType": "address",
          "name": "newOwner",
          "type": "address"
        }
      ],
      "name": "transferOwnership",
      "outputs": [],
      "stateMutability": "nonpayable",
      "type": "function"
    }
  ],
  "bytecode": "0x60806040523480156200001157600080fd5b5060405162003d7838038062003d78833981016040819052620000349162000511565b338484846200004d6200012460201b620008bf1760201c565b6200007f838383620000696200018860201b620009231760201c565b620001be60201b6200095117909392919060201c565b505050620000b0816200009c6200022d60201b620009d01760201c565b6200025d60201b620009fe1790919060201c565b50620000c6620002db60201b62000ab41760201c565b620000db6200030060201b62000ae41760201c565b620000f06200032360201b62000b121760201c565b620001056200034660201b62000b401760201c565b6200011a6200036960201b62000b6e1760201c565b5050505062000732565b60006200013b6200038c60201b62000b981760201c565b9050620001616336372b0760e01b600183620003bc60201b62000bc6179092919060201c565b62000185634e83a8c360e11b600183620003bc60201b62000bc6179092919060201c565b50565b600080620001b860017f335df4119bbb04f056b33eba33b826d3529129e458faf6daa9924b5a8f3b6a82620005b5565b92915050565b83620001cb848262000666565b5060018401620001dc838262000666565b5060028401805460ff191660ff83161790556200022763a219a02560e01b6001620002126200038c602090811b62000b9817901c565b620003bc60201b62000bc6179092919060201c565b50505050565b600080620001b860017fc9ed16f33ab3a66c84bfd83099ccb2a8845871e2e1c1928f63797152f0fd54cd620005b5565b6001600160a01b03811615620002b45781546001600160a01b0319166001600160a01b03821690811783556040516000907f8be0079c531659141344cd1fd0a4f28419497f9722a3daafe3b4186f6b6457e0908290a35b620002d76307f5828d60e41b6001620002126200038c60201b62000b981760201c565b5050565b620002fe6303c130d960e41b6001620002126200038c60201b62000b981760201c565b565b620002fe63144b1f0f60e11b6001620002126200038c60201b62000b981760201c565b620002fe6320c07ed160e01b6001620002126200038c60201b62000b981760201c565b620002fe6353f41a9760e01b6001620002126200038c60201b62000b981760201c565b620002fe63602993f360e11b6001620002126200038c60201b62000b981760201c565b600080620001b860017fca9d3e17f264b0f3984e2634e94adb37fa3e6a8103f06aeae6fa59e21c769f5e620005b5565b600160e01b6001600160e01b03198316016200041e5760405162461bcd60e51b815260206004820152601f60248201527f496e74657266616365446574656374696f6e3a2077726f6e672076616c756500604482015260640160405180910390fd5b6001600160e01b03199190911660009081526020929092526040909120805460ff1916911515919091179055565b634e487b7160e01b600052604160045260246000fd5b600082601f8301126200047457600080fd5b81516001600160401b03808211156200049157620004916200044c565b604051601f8301601f19908116603f01168101908282118183101715620004bc57620004bc6200044c565b81604052838152602092508683858801011115620004d957600080fd5b600091505b83821015620004fd5785820183015181830184015290820190620004de565b600093810190920192909252949350505050565b600080600080608085870312156200052857600080fd5b84516001600160401b03808211156200054057600080fd5b6200054e8883890162000462565b955060208701519150808211156200056557600080fd5b50620005748782880162000462565b935050604085015160ff811681146200058c57600080fd5b60608601519092506001600160a01b0381168114620005aa57600080fd5b939692955090935050565b81810381811115620001b857634e487b7160e01b600052601160045260246000fd5b600181811c90821680620005ec57607f821691505b6020821081036200060d57634e487b7160e01b600052602260045260246000fd5b50919050565b601f8211156200066157600081815260208120601f850160051c810160208610156200063c5750805b601f850160051c820191505b818110156200065d5782815560010162000648565b5050505b505050565b81516001600160401b038111156200068257620006826200044c565b6200069a81620006938454620005d7565b8462000613565b602080601f831160018114620006d25760008415620006b95750858301515b600019600386901b1c1916600185901b1785556200065d565b600085815260208120601f198616915b828110156200070357888601518255948401946001909101908401620006e2565b5085821015620007225787850151600019600388901b60f8161c191681555b5050505050600190811b01905550565b61363680620007426000396000f3fe608060405234801561001057600080fd5b50600436106101da5760003560e01c806379cc679011610104578063a9059cbb116100a2578063dd62ed3e11610071578063dd62ed3e14610408578063e0df5b6f1461041b578063eb7955491461042e578063f2fde38b1461044157600080fd5b8063a9059cbb146103a8578063b88d4fde146103bb578063d5391393146103ce578063d547741f146103f557600080fd5b80638da5cb5b116100de5780638da5cb5b1461034d57806391d148541461037a57806395d89b411461038d578063a457c2d71461039557600080fd5b806379cc67901461031457806388d695b2146103275780638bb9c5bf1461033a57600080fd5b8063313ce5671161017c57806342966c681161014b57806342966c68146102c85780634885b254146102db57806368573107146102ee57806370a082311461030157600080fd5b8063313ce56714610280578063395093511461029a5780633c130d90146102ad57806340c10f19146102b557600080fd5b806318160ddd116101b857806318160ddd1461022f5780631b9a75291461024557806323b872dd146102585780632f2ff15d1461026b57600080fd5b806301ffc9a7146101df57806306fdde0314610207578063095ea7b31461021c575b600080fd5b6101f26101ed366004612da9565b610454565b60405190151581526020015b60405180910390f35b61020f61046e565b6040516101fe9190612e34565b6101f261022a366004612e70565b610485565b6102376104a6565b6040519081526020016101fe565b6101f2610253366004612ee6565b6104ba565b6101f2610266366004612f52565b6104e1565b61027e610279366004612f8e565b610505565b005b610288610533565b60405160ff90911681526020016101fe565b6101f26102a8366004612e70565b61054a565b61020f610562565b61027e6102c3366004612e70565b61056f565b6101f26102d6366004612fba565b6105bc565b6101f26102e9366004612fd3565b6105da565b61027e6102fc366004612ee6565b610604565b61023761030f366004613054565b6106ac565b6101f2610322366004612e70565b6106e4565b6101f2610335366004612ee6565b6106fc565b61027e610348366004612fba565b610718565b61035561072f565b60405173ffffffffffffffffffffffffffffffffffffffff90911681526020016101fe565b6101f2610388366004612f8e565b610756565b61020f6107a1565b6101f26103a3366004612e70565b6107b3565b6101f26103b6366004612e70565b6107cb565b6101f26103c93660046130b1565b6107e3565b6102377f6d696e746572000000000000000000000000000000000000000000000000000081565b61027e610403366004612f8e565b610801565b61023761041636600461310f565b610824565b61027e610429366004613139565b61086f565b6101f261043c36600461317b565b61088f565b61027e61044f366004613054565b6108ab565b600061046882610462610b98565b90610cd7565b92915050565b606061048061047b610923565b610db1565b905090565b600061049d338484610495610e47565b929190610e75565b50600192915050565b60006104806104b3610e47565b6002015490565b60006104d633868686866104cc610e47565b9493929190610f64565b506001949350505050565b60006104fb338585856104f2610e47565b939291906111a8565b5060019392505050565b33610518816105126109d0565b906111fa565b61052e83838361052661127d565b9291906112ab565b505050565b6000610480610540610923565b6002015460ff1690565b600061049d33848461055a610e47565b929190611381565b606061048061047b61154d565b6105a47f6d696e7465720000000000000000000000000000000000000000000000000000335b61059d61127d565b919061157b565b6105b882826105b1610e47565b9190611627565b5050565b60006105d233836105cb610e47565b91906117a1565b506001919050565b60006105f83387878787876105ed610e47565b9594939291906118b7565b50600195945050505050565b61062e7f6d696e746572000000000000000000000000000000000000000000000000000033610595565b6106a68484808060200260200160405190810160405280939291908181526020018383602002808284376000920191909152505060408051602080880282810182019093528782529093508792508691829185019084908082843760009201919091525061069f9250610e47915050565b9190611cfe565b50505050565b6000610468826106ba610e47565b9073ffffffffffffffffffffffffffffffffffffffff166000908152602091909152604090205490565b600061049d3384846106f4610e47565b929190611fd4565b60006104d6338686868661070e610e47565b949392919061201e565b61072c338261072561127d565b9190612400565b50565b600061048061073c6109d0565b5473ffffffffffffffffffffffffffffffffffffffff1690565b600061079a838361076561127d565b60009283526020908152604080842073ffffffffffffffffffffffffffffffffffffffff909316845291905290205460ff1690565b9392505050565b60606104806107ae610923565b6124a4565b600061049d3384846107c3610e47565b9291906124b5565b600061049d3384846107db610e47565b929190612607565b60006105f83387878787876107f6610e47565b9594939291906127e8565b3361080e816105126109d0565b61052e83838361081c61127d565b929190612855565b600061079a8383610833610e47565b919073ffffffffffffffffffffffffffffffffffffffff9182166000908152600193909301602090815260408085209290931684525290205490565b61087b336105126109d0565b6105b8828261088861154d565b919061291f565b60006104d633868686866108a1610e47565b949392919061292b565b61072c33826108b86109d0565b9190612997565b60006108c9610b98565b90506108f7817f36372b07000000000000000000000000000000000000000000000000000000006001610bc6565b61072c817f9d075186000000000000000000000000000000000000000000000000000000006001610bc6565b60008061046860017f335df4119bbb04f056b33eba33b826d3529129e458faf6daa9924b5a8f3b6a826131c9565b8361095c84826132cb565b506001840161096b83826132cb565b506002840180547fffffffffffffffffffffffffffffffffffffffffffffffffffffffffffffff001660ff83161790556106a67fa219a0250000000000000000000000000000000000000000000000000000000060016109c9610b98565b9190610bc6565b60008061046860017fc9ed16f33ab3a66c84bfd83099ccb2a8845871e2e1c1928f63797152f0fd54cd6131c9565b73ffffffffffffffffffffffffffffffffffffffff811615610a865781547fffffffffffffffffffffffff00000000000000000000000000000000000000001673ffffffffffffffffffffffffffffffffffffffff821690811783556040516000907f8be0079c531659141344cd1fd0a4f28419497f9722a3daafe3b4186f6b6457e0908290a35b6105b87f7f5828d00000000000000000000000000000000000000000000000000000000060016109c9610b98565b610ae27f3c130d900000000000000000000000000000000000000000000000000000000060016109c9610b98565b565b610ae27f28963e1e0000000000000000000000000000000000000000000000000000000060016109c9610b98565b610ae27f20c07ed10000000000000000000000000000000000000000000000000000000060016109c9610b98565b610ae27f53f41a970000000000000000000000000000000000000000000000000000000060016109c9610b98565b610ae27fc05327e60000000000000000000000000000000000000000000000000000000060016109c95b60008061046860017fca9d3e17f264b0f3984e2634e94adb37fa3e6a8103f06aeae6fa59e21c769f5e6131c9565b7c01000000000000000000000000000000000000000000000000000000007fffffffff00000000000000000000000000000000000000000000000000000000831601610c73576040517f08c379a000000000000000000000000000000000000000000000000000000000815260206004820152601f60248201527f496e74657266616365446574656374696f6e3a2077726f6e672076616c75650060448201526064015b60405180910390fd5b7fffffffff00000000000000000000000000000000000000000000000000000000919091166000908152602092909252604090912080547fffffffffffffffffffffffffffffffffffffffffffffffffffffffffffffff0016911515919091179055565b60007c01000000000000000000000000000000000000000000000000000000007fffffffff00000000000000000000000000000000000000000000000000000000831601610d2757506000610468565b7ffe003659000000000000000000000000000000000000000000000000000000007fffffffff00000000000000000000000000000000000000000000000000000000831601610d7857506001610468565b507fffffffff00000000000000000000000000000000000000000000000000000000166000908152602091909152604090205460ff1690565b6060816000018054610dc290613232565b80601f0160208091040260200160405190810160405280929190818152602001828054610dee90613232565b8015610e3b5780601f10610e1057610100808354040283529160200191610e3b565b820191906000526020600020905b815481529060010190602001808311610e1e57829003601f168201915b50505050509050919050565b60008061046860017f1da92899d3da68bf9787824388a37ea2bfa79780bcef91b9716c390eec8ecbef6131c9565b73ffffffffffffffffffffffffffffffffffffffff8216610ef2576040517f08c379a000000000000000000000000000000000000000000000000000000000815260206004820152601d60248201527f45524332303a20617070726f76616c20746f20616464726573732830290000006044820152606401610c6a565b73ffffffffffffffffffffffffffffffffffffffff838116600081815260018701602090815260408083209487168084529482529182902085905590518481527f8c5be1e5ebec7d5bd14f71427d1e84f3dd0314c0f7b2291e5b200ac8c7c3b92591015b60405180910390a350505050565b82818114610fce576040517f08c379a000000000000000000000000000000000000000000000000000000000815260206004820152601a60248201527f45524332303a20696e636f6e73697374656e74206172726179730000000000006044820152606401610c6a565b80600003610fdc57506111a0565b6000805b82811461118a576000878783818110610ffb57610ffb6133e5565b90506020020160208101906110109190613054565b90506000868684818110611026576110266133e5565b9050602002013590508973ffffffffffffffffffffffffffffffffffffffff168273ffffffffffffffffffffffffffffffffffffffff161461106e5761106e8b838c846124b5565b80156111325773ffffffffffffffffffffffffffffffffffffffff8216600090815260208c90526040902054818103818110611106576040517f08c379a000000000000000000000000000000000000000000000000000000000815260206004820152601b60248201527f45524332303a20696e73756666696369656e742062616c616e636500000000006044820152606401610c6a565b73ffffffffffffffffffffffffffffffffffffffff8416600090815260208e9052604090205550928301925b60405181815260009073ffffffffffffffffffffffffffffffffffffffff8416907fddf252ad1be2c89b69c2b068fc378daa952ba7f163c4a11628f55a4df523b3ef9060200160405180910390a35050600101610fe0565b50801561119d5760028801805482900390555b50505b505050505050565b8373ffffffffffffffffffffffffffffffffffffffff168373ffffffffffffffffffffffffffffffffffffffff16146111e7576111e7858486846124b5565b6111f385848484612607565b5050505050565b815473ffffffffffffffffffffffffffffffffffffffff8281169116146105b8576040517f08c379a000000000000000000000000000000000000000000000000000000000815260206004820152601860248201527f4f776e6572736869703a206e6f7420746865206f776e657200000000000000006044820152606401610c6a565b60008061046860017fc8827d3282af6f37b64c3e9e6f3ac9df286ab0bb0fccd6f8661bf19adb368b236131c9565b60008381526020858152604080832073ffffffffffffffffffffffffffffffffffffffff8616845290915290205460ff166106a65760008381526020858152604080832073ffffffffffffffffffffffffffffffffffffffff8681168086529184529382902080547fffffffffffffffffffffffffffffffffffffffffffffffffffffffffffffff00166001179055815187815292830152918316918101919091527f2f8788117e7eff1d82e926ec794901d17c78024a50270940304540a733656f0d906060015b60405180910390a150505050565b73ffffffffffffffffffffffffffffffffffffffff82166113fe576040517f08c379a000000000000000000000000000000000000000000000000000000000815260206004820152601d60248201527f45524332303a20617070726f76616c20746f20616464726573732830290000006044820152606401610c6a565b73ffffffffffffffffffffffffffffffffffffffff808416600090815260018601602090815260408083209386168352929052205481156114df578082018181116114a5576040517f08c379a000000000000000000000000000000000000000000000000000000000815260206004820152601960248201527f45524332303a20616c6c6f77616e6365206f766572666c6f77000000000000006044820152606401610c6a565b73ffffffffffffffffffffffffffffffffffffffff8086166000908152600188016020908152604080832093881683529290522081905590505b8273ffffffffffffffffffffffffffffffffffffffff168473ffffffffffffffffffffffffffffffffffffffff167f8c5be1e5ebec7d5bd14f71427d1e84f3dd0314c0f7b2291e5b200ac8c7c3b9258360405161153e91815260200190565b60405180910390a35050505050565b60008061046860017ff41bf6a5db26bffdfab174dcf66b31fbba8fdb7e3db040721ce1e62d61839ceb6131c9565b60008281526020848152604080832073ffffffffffffffffffffffffffffffffffffffff8516845290915290205460ff1661052e576115b982612ac3565b6040516020016115c99190613414565b604080517fffffffffffffffffffffffffffffffffffffffffffffffffffffffffffffffe0818403018152908290527f08c379a0000000000000000000000000000000000000000000000000000000008252610c6a91600401612e34565b73ffffffffffffffffffffffffffffffffffffffff82166116a4576040517f08c379a000000000000000000000000000000000000000000000000000000000815260206004820152601960248201527f45524332303a206d696e7420746f2061646472657373283029000000000000006044820152606401610c6a565b801561174d57600283015481810181811161171b576040517f08c379a000000000000000000000000000000000000000000000000000000000815260206004820152601660248201527f45524332303a20737570706c79206f766572666c6f77000000000000000000006044820152606401610c6a565b60028501555073ffffffffffffffffffffffffffffffffffffffff821660009081526020849052604090208054820190555b60405181815273ffffffffffffffffffffffffffffffffffffffff8316906000907fddf252ad1be2c89b69c2b068fc378daa952ba7f163c4a11628f55a4df523b3ef906020015b60405180910390a3505050565b801561186c5773ffffffffffffffffffffffffffffffffffffffff8216600090815260208490526040902054818103818110611839576040517f08c379a000000000000000000000000000000000000000000000000000000000815260206004820152601b60248201527f45524332303a20696e73756666696369656e742062616c616e636500000000006044820152606401610c6a565b73ffffffffffffffffffffffffffffffffffffffff84166000908152602086905260409020555060028301805482900390555b60405181815260009073ffffffffffffffffffffffffffffffffffffffff8416907fddf252ad1be2c89b69c2b068fc378daa952ba7f163c4a11628f55a4df523b3ef90602001611794565b82818114611921576040517f08c379a000000000000000000000000000000000000000000000000000000000815260206004820152601a60248201527f45524332303a20696e636f6e73697374656e74206172726179730000000000006044820152606401610c6a565b8060000361192f5750611cf5565b73ffffffffffffffffffffffffffffffffffffffff86166000908152602089905260408120549080805b848114611c05576000898983818110611974576119746133e5565b90506020020160208101906119899190613054565b905073ffffffffffffffffffffffffffffffffffffffff8116611a08576040517f08c379a000000000000000000000000000000000000000000000000000000000815260206004820152601d60248201527f45524332303a207472616e7366657220746f20616464726573732830290000006044820152606401610c6a565b6000888884818110611a1c57611a1c6133e5565b90506020020135905080600014611b9457848101858111611a99576040517f08c379a000000000000000000000000000000000000000000000000000000000815260206004820152601660248201527f45524332303a2076616c756573206f766572666c6f77000000000000000000006044820152606401610c6a565b8095508273ffffffffffffffffffffffffffffffffffffffff168d73ffffffffffffffffffffffffffffffffffffffff1614611b2357818f60000160008573ffffffffffffffffffffffffffffffffffffffff1673ffffffffffffffffffffffffffffffffffffffff16815260200190815260200160002060008282540192505081905550611b92565b86821115611b8d576040517f08c379a000000000000000000000000000000000000000000000000000000000815260206004820152601b60248201527f45524332303a20696e73756666696369656e742062616c616e636500000000006044820152606401610c6a565b938101935b505b8173ffffffffffffffffffffffffffffffffffffffff168c73ffffffffffffffffffffffffffffffffffffffff167fddf252ad1be2c89b69c2b068fc378daa952ba7f163c4a11628f55a4df523b3ef83604051611bf391815260200190565b60405180910390a35050600101611959565b508115801590611c155750808214155b15611cb157818303838110611c86576040517f08c379a000000000000000000000000000000000000000000000000000000000815260206004820152601b60248201527f45524332303a20696e73756666696369656e742062616c616e636500000000006044820152606401610c6a565b73ffffffffffffffffffffffffffffffffffffffff8a16600090815260208d90526040902090820190555b8973ffffffffffffffffffffffffffffffffffffffff168973ffffffffffffffffffffffffffffffffffffffff1614611cf057611cf08b8a8c856124b5565b505050505b50505050505050565b815181518114611d6a576040517f08c379a000000000000000000000000000000000000000000000000000000000815260206004820152601a60248201527f45524332303a20696e636f6e73697374656e74206172726179730000000000006044820152606401610c6a565b80600003611d785750505050565b6000805b828114611f4f576000858281518110611d9757611d976133e5565b60200260200101519050600073ffffffffffffffffffffffffffffffffffffffff168173ffffffffffffffffffffffffffffffffffffffff1603611e37576040517f08c379a000000000000000000000000000000000000000000000000000000000815260206004820152601960248201527f45524332303a206d696e7420746f2061646472657373283029000000000000006044820152606401610c6a565b6000858381518110611e4b57611e4b6133e5565b6020026020010151905080600014611ef757838101848111611ec9576040517f08c379a000000000000000000000000000000000000000000000000000000000815260206004820152601660248201527f45524332303a2076616c756573206f766572666c6f77000000000000000000006044820152606401610c6a565b73ffffffffffffffffffffffffffffffffffffffff8316600090815260208a90526040902080548301905593505b60405181815273ffffffffffffffffffffffffffffffffffffffff8316906000907fddf252ad1be2c89b69c2b068fc378daa952ba7f163c4a11628f55a4df523b3ef9060200160405180910390a35050600101611d7c565b5080156111f3576002850154818101818111611fc7576040517f08c379a000000000000000000000000000000000000000000000000000000000815260206004820152601660248201527f45524332303a20737570706c79206f766572666c6f77000000000000000000006044820152606401610c6a565b6002870155505050505050565b8273ffffffffffffffffffffffffffffffffffffffff168273ffffffffffffffffffffffffffffffffffffffff161461201357612013848385846124b5565b6106a68483836117a1565b82818114612088576040517f08c379a000000000000000000000000000000000000000000000000000000000815260206004820152601a60248201527f45524332303a20696e636f6e73697374656e74206172726179730000000000006044820152606401610c6a565b8060000361209657506111a0565b73ffffffffffffffffffffffffffffffffffffffff86166000908152602088905260408120549080805b8481146123485760008989838181106120db576120db6133e5565b90506020020160208101906120f09190613054565b905073ffffffffffffffffffffffffffffffffffffffff811661216f576040517f08c379a000000000000000000000000000000000000000000000000000000000815260206004820152601d60248201527f45524332303a207472616e7366657220746f20616464726573732830290000006044820152606401610c6a565b6000888884818110612183576121836133e5565b905060200201359050806000146122d757848101858111612200576040517f08c379a000000000000000000000000000000000000000000000000000000000815260206004820152601660248201527f45524332303a2076616c756573206f766572666c6f77000000000000000000006044820152606401610c6a565b8095508273ffffffffffffffffffffffffffffffffffffffff168d73ffffffffffffffffffffffffffffffffffffffff16146122665773ffffffffffffffffffffffffffffffffffffffff8316600090815260208f9052604090208054830190556122d5565b868211156122d0576040517f08c379a000000000000000000000000000000000000000000000000000000000815260206004820152601b60248201527f45524332303a20696e73756666696369656e742062616c616e636500000000006044820152606401610c6a565b938101935b505b8173ffffffffffffffffffffffffffffffffffffffff168c73ffffffffffffffffffffffffffffffffffffffff167fddf252ad1be2c89b69c2b068fc378daa952ba7f163c4a11628f55a4df523b3ef8360405161233691815260200190565b60405180910390a350506001016120c0565b5081158015906123585750808214155b156123f4578183038381106123c9576040517f08c379a000000000000000000000000000000000000000000000000000000000815260206004820152601b60248201527f45524332303a20696e73756666696369656e742062616c616e636500000000006044820152606401610c6a565b73ffffffffffffffffffffffffffffffffffffffff8a16600090815260208c90526040902090820190555b50505050505050505050565b61240b83828461157b565b60008181526020848152604080832073ffffffffffffffffffffffffffffffffffffffff86168085529083529281902080547fffffffffffffffffffffffffffffffffffffffffffffffffffffffffffffff0016905580518481529182018390528101919091527ff6391f5c32d9c69d2a47ea670b442974b53935d1edc7fd64eb21e047a839171b9060600160405180910390a1505050565b6060816001018054610dc290613232565b73ffffffffffffffffffffffffffffffffffffffff8216612532576040517f08c379a000000000000000000000000000000000000000000000000000000000815260206004820152601d60248201527f45524332303a20617070726f76616c20746f20616464726573732830290000006044820152606401610c6a565b73ffffffffffffffffffffffffffffffffffffffff80841660009081526001860160209081526040808320938616835292905220547fffffffffffffffffffffffffffffffffffffffffffffffffffffffffffffffff811480159061259657508115155b156114df578181038181106114a5576040517f08c379a000000000000000000000000000000000000000000000000000000000815260206004820152601d60248201527f45524332303a20696e73756666696369656e7420616c6c6f77616e63650000006044820152606401610c6a565b73ffffffffffffffffffffffffffffffffffffffff8216612684576040517f08c379a000000000000000000000000000000000000000000000000000000000815260206004820152601d60248201527f45524332303a207472616e7366657220746f20616464726573732830290000006044820152606401610c6a565b80156127895773ffffffffffffffffffffffffffffffffffffffff831660009081526020859052604090205481810381811061271c576040517f08c379a000000000000000000000000000000000000000000000000000000000815260206004820152601b60248201527f45524332303a20696e73756666696369656e742062616c616e636500000000006044820152606401610c6a565b8373ffffffffffffffffffffffffffffffffffffffff168573ffffffffffffffffffffffffffffffffffffffff16146127865773ffffffffffffffffffffffffffffffffffffffff8086166000908152602088905260408082208490559186168152208054840190555b50505b8173ffffffffffffffffffffffffffffffffffffffff168373ffffffffffffffffffffffffffffffffffffffff167fddf252ad1be2c89b69c2b068fc378daa952ba7f163c4a11628f55a4df523b3ef83604051610f5691815260200190565b6127f587878787876111a8565b73ffffffffffffffffffffffffffffffffffffffff84163b15611cf557611cf58686868686868080601f016020809104026020016040519081016040528093929190818152602001838380828437600092019190915250612c5592505050565b60008381526020858152604080832073ffffffffffffffffffffffffffffffffffffffff8616845290915290205460ff16156106a65760008381526020858152604080832073ffffffffffffffffffffffffffffffffffffffff8681168086529184529382902080547fffffffffffffffffffffffffffffffffffffffffffffffffffffffffffffff00169055815187815292830152918316918101919091527ff6391f5c32d9c69d2a47ea670b442974b53935d1edc7fd64eb21e047a839171b90606001611373565b826106a6828483613480565b61293786868686612607565b73ffffffffffffffffffffffffffffffffffffffff84163b156111a0576111a08586868686868080601f016020809104026020016040519081016040528093929190818152602001838380828437600092019190915250612c5592505050565b825473ffffffffffffffffffffffffffffffffffffffff9081169083168114612a1c576040517f08c379a000000000000000000000000000000000000000000000000000000000815260206004820152601860248201527f4f776e6572736869703a206e6f7420746865206f776e657200000000000000006044820152606401610c6a565b8173ffffffffffffffffffffffffffffffffffffffff168173ffffffffffffffffffffffffffffffffffffffff16146106a65783547fffffffffffffffffffffffff00000000000000000000000000000000000000001673ffffffffffffffffffffffffffffffffffffffff8381169182178655604051908316907f8be0079c531659141344cd1fd0a4f28419497f9722a3daafe3b4186f6b6457e090600090a350505050565b60606000829003612ae257505060408051602081019091526000815290565b600082604051602001612af791815260200190565b604080517fffffffffffffffffffffffffffffffffffffffffffffffffffffffffffffffe08184030181529190529050601f5b818181518110612b3c57612b3c6133e5565b01602001517fff0000000000000000000000000000000000000000000000000000000000000016600003612b91577fffffffffffffffffffffffffffffffffffffffffffffffffffffffffffffffff01612b2a565b60008160010167ffffffffffffffff811115612baf57612baf613203565b6040519080825280601f01601f191660200182016040528015612bd9576020820181803683370190505b50905060005b828111612c4c57838181518110612bf857612bf86133e5565b602001015160f81c60f81b828281518110612c1557612c156133e5565b60200101907effffffffffffffffffffffffffffffffffffffffffffffffffffffffffffff1916908160001a905350600101612bdf565b50949350505050565b6040517f4fc35859000000000000000000000000000000000000000000000000000000008082529073ffffffffffffffffffffffffffffffffffffffff851690634fc3585990612caf90899089908890889060040161359a565b6020604051808303816000875af1158015612cce573d6000803e3d6000fd5b505050506040513d601f19601f82011682018060405250810190612cf291906135e3565b7fffffffff0000000000000000000000000000000000000000000000000000000016146111f3576040517f08c379a000000000000000000000000000000000000000000000000000000000815260206004820152601d60248201527f45524332303a2073616665207472616e736665722072656a65637465640000006044820152606401610c6a565b7fffffffff000000000000000000000000000000000000000000000000000000008116811461072c57600080fd5b600060208284031215612dbb57600080fd5b813561079a81612d7b565b60005b83811015612de1578181015183820152602001612dc9565b50506000910152565b60008151808452612e02816020860160208601612dc6565b601f017fffffffffffffffffffffffffffffffffffffffffffffffffffffffffffffffe0169290920160200192915050565b60208152600061079a6020830184612dea565b803573ffffffffffffffffffffffffffffffffffffffff81168114612e6b57600080fd5b919050565b60008060408385031215612e8357600080fd5b612e8c83612e47565b946020939093013593505050565b60008083601f840112612eac57600080fd5b50813567ffffffffffffffff811115612ec457600080fd5b6020830191508360208260051b8501011115612edf57600080fd5b9250929050565b60008060008060408587031215612efc57600080fd5b843567ffffffffffffffff80821115612f1457600080fd5b612f2088838901612e9a565b90965094506020870135915080821115612f3957600080fd5b50612f4687828801612e9a565b95989497509550505050565b600080600060608486031215612f6757600080fd5b612f7084612e47565b9250612f7e60208501612e47565b9150604084013590509250925092565b60008060408385031215612fa157600080fd5b82359150612fb160208401612e47565b90509250929050565b600060208284031215612fcc57600080fd5b5035919050565b600080600080600060608688031215612feb57600080fd5b612ff486612e47565b9450602086013567ffffffffffffffff8082111561301157600080fd5b61301d89838a01612e9a565b9096509450604088013591508082111561303657600080fd5b5061304388828901612e9a565b969995985093965092949392505050565b60006020828403121561306657600080fd5b61079a82612e47565b60008083601f84011261308157600080fd5b50813567ffffffffffffffff81111561309957600080fd5b602083019150836020828501011115612edf57600080fd5b6000806000806000608086880312156130c957600080fd5b6130d286612e47565b94506130e060208701612e47565b935060408601359250606086013567ffffffffffffffff81111561310357600080fd5b6130438882890161306f565b6000806040838503121561312257600080fd5b61312b83612e47565b9150612fb160208401612e47565b6000806020838503121561314c57600080fd5b823567ffffffffffffffff81111561316357600080fd5b61316f8582860161306f565b90969095509350505050565b6000806000806060858703121561319157600080fd5b61319a85612e47565b935060208501359250604085013567ffffffffffffffff8111156131bd57600080fd5b612f468782880161306f565b81810381811115610468577f4e487b7100000000000000000000000000000000000000000000000000000000600052601160045260246000fd5b7f4e487b7100000000000000000000000000000000000000000000000000000000600052604160045260246000fd5b600181811c9082168061324657607f821691505b60208210810361327f577f4e487b7100000000000000000000000000000000000000000000000000000000600052602260045260246000fd5b50919050565b601f82111561052e57600081815260208120601f850160051c810160208610156132ac5750805b601f850160051c820191505b818110156111a0578281556001016132b8565b815167ffffffffffffffff8111156132e5576132e5613203565b6132f9816132f38454613232565b84613285565b602080601f83116001811461334c57600084156133165750858301515b7fffffffffffffffffffffffffffffffffffffffffffffffffffffffffffffffff600386901b1c1916600185901b1785556111a0565b6000858152602081207fffffffffffffffffffffffffffffffffffffffffffffffffffffffffffffffe08616915b828110156133995788860151825594840194600190910190840161337a565b50858210156133d557878501517fffffffffffffffffffffffffffffffffffffffffffffffffffffffffffffffff600388901b60f8161c191681555b5050505050600190811b01905550565b7f4e487b7100000000000000000000000000000000000000000000000000000000600052603260045260246000fd5b7f416363657373436f6e74726f6c3a206d697373696e672027000000000000000081526000825161344c816018850160208701612dc6565b7f2720726f6c6500000000000000000000000000000000000000000000000000006018939091019283015250601e01919050565b67ffffffffffffffff83111561349857613498613203565b6134ac836134a68354613232565b83613285565b6000601f8411600181146134fe57600085156134c85750838201355b7fffffffffffffffffffffffffffffffffffffffffffffffffffffffffffffffff600387901b1c1916600186901b1783556111f3565b6000838152602090207fffffffffffffffffffffffffffffffffffffffffffffffffffffffffffffffe0861690835b8281101561354d578685013582556020948501946001909201910161352d565b5086821015613588577fffffffffffffffffffffffffffffffffffffffffffffffffffffffffffffffff60f88860031b161c19848701351681555b505060018560011b0183555050505050565b600073ffffffffffffffffffffffffffffffffffffffff8087168352808616602084015250836040830152608060608301526135d96080830184612dea565b9695505050505050565b6000602082840312156135f557600080fd5b815161079a81612d7b56fea264697066735822122032fd244480bede8879586ef97532b79294339635d847fe9c2fa841525fe2b4e264736f6c63430008110033",
  "linkReferences": {},
  "deployedLinkReferences": {}
}