{
  "_format": "hh-sol-artifact-1",
  "contractName": "SaleContract",
  "sourceName": "contracts/mocks/sale/SaleContract.sol",
  "abi": [
    {
      "inputs": [
        {
          "internalType": "contract IERC20",
          "name": "inventory_",
          "type": "address"
        }
      ],
      "stateMutability": "nonpayable",
      "type": "constructor"
    },
    {
      "inputs": [],
      "name": "erc20Contract",
      "outputs": [
        {
          "internalType": "contract IERC20",
          "name": "",
          "type": "address"
        }
      ],
      "stateMutability": "view",
      "type": "function"
    },
    {
      "inputs": [
        {
          "internalType": "address",
          "name": "from",
          "type": "address"
        },
        {
          "internalType": "address",
          "name": "to",
          "type": "address"
        },
        {
          "internalType": "uint256",
          "name": "value",
          "type": "uint256"
        }
      ],
      "name": "transferToken",
      "outputs": [],
      "stateMutability": "nonpayable",
      "type": "function"
    }
  ],
  "bytecode": "0x60a060405234801561001057600080fd5b5060405161028038038061028083398101604081905261002f91610040565b6001600160a01b0316608052610070565b60006020828403121561005257600080fd5b81516001600160a01b038116811461006957600080fd5b9392505050565b6080516101f0610090600039600081816040015260f401526101f06000f3fe608060405234801561001057600080fd5b50600436106100365760003560e01c8063a8f6c9131461003b578063f5537ede1461008b575b600080fd5b6100627f000000000000000000000000000000000000000000000000000000000000000081565b60405173ffffffffffffffffffffffffffffffffffffffff909116815260200160405180910390f35b61009e61009936600461017e565b6100a0565b005b6040517f23b872dd00000000000000000000000000000000000000000000000000000000815273ffffffffffffffffffffffffffffffffffffffff84811660048301528381166024830152604482018390527f000000000000000000000000000000000000000000000000000000000000000016906323b872dd90606401600060405180830381600087803b15801561013857600080fd5b505af115801561014c573d6000803e3d6000fd5b50505050505050565b803573ffffffffffffffffffffffffffffffffffffffff8116811461017957600080fd5b919050565b60008060006060848603121561019357600080fd5b61019c84610155565b92506101aa60208501610155565b915060408401359050925092509256fea26469706673582212205cc799211a7c90bb8b32d1d030ba53fb3afb27414cdffdb9daaf6e9f41fec53264736f6c63430008110033",
  "linkReferences": {},
  "deployedLinkReferences": {}
}